{"contracts/BountiesMetaTxRelayer.sol":{"BountiesMetaTxRelayer":{"abi":[{"inputs":[{"internalType":"address","name":"_contract","type":"address"}],"payable":false,"stateMutability":"nonpayable","type":"constructor"},{"constant":true,"inputs":[],"name":"bountiesContract","outputs":[{"internalType":"contract StandardBounties","name":"","type":"address"}],"payable":false,"stateMutability":"view","type":"function"},{"constant":false,"inputs":[{"internalType":"bytes","name":"_signature","type":"bytes"},{"internalType":"uint256","name":"_bountyId","type":"uint256"},{"internalType":"uint256","name":"_fulfillmentId","type":"uint256"},{"internalType":"uint256","name":"_approverId","type":"uint256"},{"internalType":"uint256[]","name":"_tokenAmounts","type":"uint256[]"},{"internalType":"uint256","name":"_nonce","type":"uint256"}],"name":"metaAcceptFulfillment","outputs":[],"payable":false,"stateMutability":"nonpayable","type":"function"},{"constant":false,"inputs":[{"internalType":"bytes","name":"_signature","type":"bytes"},{"internalType":"uint256","name":"_bountyId","type":"uint256"},{"internalType":"uint256","name":"_issuerId","type":"uint256"},{"internalType":"address[]","name":"_approvers","type":"address[]"},{"internalType":"uint256","name":"_nonce","type":"uint256"}],"name":"metaAddApprovers","outputs":[],"payable":false,"stateMutability":"nonpayable","type":"function"},{"constant":false,"inputs":[{"internalType":"bytes","name":"_signature","type":"bytes"},{"internalType":"uint256","name":"_bountyId","type":"uint256"},{"internalType":"uint256","name":"_issuerId","type":"uint256"},{"internalType":"address payable[]","name":"_issuers","type":"address[]"},{"internalType":"uint256","name":"_nonce","type":"uint256"}],"name":"metaAddIssuers","outputs":[],"payable":false,"stateMutability":"nonpayable","type":"function"},{"constant":false,"inputs":[{"internalType":"bytes","name":"_signature","type":"bytes"},{"internalType":"uint256","name":"_bountyId","type":"uint256"},{"internalType":"uint256","name":"_issuerId","type":"uint256"},{"internalType":"uint256","name":"_approverId","type":"uint256"},{"internalType":"address payable","name":"_approver","type":"address"},{"internalType":"uint256","name":"_nonce","type":"uint256"}],"name":"metaChangeApprover","outputs":[],"payable":false,"stateMutability":"nonpayable","type":"function"},{"constant":false,"inputs":[{"internalType":"bytes","name":"_signature","type":"bytes"},{"internalType":"uint256","name":"_bountyId","type":"uint256"},{"internalType":"uint256","name":"_issuerId","type":"uint256"},{"internalType":"address payable[]","name":"_issuers","type":"address[]"},{"internalType":"address payable[]","name":"_approvers","type":"address[]"},{"internalType":"string","name":"_data","type":"string"},{"internalType":"uint256","name":"_deadline","type":"uint256"},{"internalType":"uint256","name":"_nonce","type":"uint256"}],"name":"metaChangeBounty","outputs":[],"payable":false,"stateMutability":"nonpayable","type":"function"},{"constant":false,"inputs":[{"internalType":"bytes","name":"_signature","type":"bytes"},{"internalType":"uint256","name":"_bountyId","type":"uint256"},{"internalType":"uint256","name":"_issuerId","type":"uint256"},{"internalType":"string","name":"_data","type":"string"},{"internalType":"uint256","name":"_nonce","type":"uint256"}],"name":"metaChangeData","outputs":[],"payable":false,"stateMutability":"nonpayable","type":"function"},{"constant":false,"inputs":[{"internalType":"bytes","name":"_signature","type":"bytes"},{"internalType":"uint256","name":"_bountyId","type":"uint256"},{"internalType":"uint256","name":"_issuerId","type":"uint256"},{"internalType":"uint256","name":"_deadline","type":"uint256"},{"internalType":"uint256","name":"_nonce","type":"uint256"}],"name":"metaChangeDeadline","outputs":[],"payable":false,"stateMutability":"nonpayable","type":"function"},{"constant":false,"inputs":[{"internalType":"bytes","name":"_signature","type":"bytes"},{"internalType":"uint256","name":"_bountyId","type":"uint256"},{"internalType":"uint256","name":"_issuerId","type":"uint256"},{"internalType":"uint256","name":"_issuerIdToChange","type":"uint256"},{"internalType":"address payable","name":"_newIssuer","type":"address"},{"internalType":"uint256","name":"_nonce","type":"uint256"}],"name":"metaChangeIssuer","outputs":[],"payable":false,"stateMutability":"nonpayable","type":"function"},{"constant":false,"inputs":[{"internalType":"bytes","name":"_signature","type":"bytes"},{"internalType":"uint256","name":"_bountyId","type":"uint256"},{"internalType":"uint256","name":"_amount","type":"uint256"},{"internalType":"uint256","name":"_nonce","type":"uint256"}],"name":"metaContribute","outputs":[],"payable":true,"stateMutability":"payable","type":"function"},{"constant":false,"inputs":[{"internalType":"bytes","name":"_signature","type":"bytes"},{"internalType":"uint256","name":"_bountyId","type":"uint256"},{"internalType":"uint256","name":"_issuerId","type":"uint256"},{"internalType":"uint256[]","name":"_amounts","type":"uint256[]"},{"internalType":"uint256","name":"_nonce","type":"uint256"}],"name":"metaDrainBounty","outputs":[],"payable":false,"stateMutability":"nonpayable","type":"function"},{"constant":false,"inputs":[{"internalType":"bytes","name":"_signature","type":"bytes"},{"internalType":"uint256","name":"_bountyId","type":"uint256"},{"internalType":"address payable[]","name":"_fulfillers","type":"address[]"},{"internalType":"string","name":"_data","type":"string"},{"internalType":"uint256","name":"_approverId","type":"uint256"},{"internalType":"uint256[]","name":"_tokenAmounts","type":"uint256[]"},{"internalType":"uint256","name":"_nonce","type":"uint256"}],"name":"metaFulfillAndAccept","outputs":[],"payable":false,"stateMutability":"nonpayable","type":"function"},{"constant":false,"inputs":[{"internalType":"bytes","name":"_signature","type":"bytes"},{"internalType":"uint256","name":"_bountyId","type":"uint256"},{"internalType":"address payable[]","name":"_fulfillers","type":"address[]"},{"internalType":"string","name":"_data","type":"string"},{"internalType":"uint256","name":"_nonce","type":"uint256"}],"name":"metaFulfillBounty","outputs":[],"payable":false,"stateMutability":"nonpayable","type":"function"},{"constant":false,"inputs":[{"internalType":"bytes","name":"signature","type":"bytes"},{"internalType":"address payable[]","name":"_issuers","type":"address[]"},{"internalType":"address[]","name":"_approvers","type":"address[]"},{"internalType":"string","name":"_data","type":"string"},{"internalType":"uint256","name":"_deadline","type":"uint256"},{"internalType":"address","name":"_token","type":"address"},{"internalType":"uint256","name":"_tokenVersion","type":"uint256"},{"internalType":"uint256","name":"_depositAmount","type":"uint256"},{"internalType":"uint256","name":"_nonce","type":"uint256"}],"name":"metaIssueAndContribute","outputs":[{"internalType":"uint256","name":"","type":"uint256"}],"payable":true,"stateMutability":"payable","type":"function"},{"constant":false,"inputs":[{"internalType":"bytes","name":"signature","type":"bytes"},{"internalType":"address payable[]","name":"_issuers","type":"address[]"},{"internalType":"address[]","name":"_approvers","type":"address[]"},{"internalType":"string","name":"_data","type":"string"},{"internalType":"uint256","name":"_deadline","type":"uint256"},{"internalType":"address","name":"_token","type":"address"},{"internalType":"uint256","name":"_tokenVersion","type":"uint256"},{"internalType":"uint256","name":"_nonce","type":"uint256"}],"name":"metaIssueBounty","outputs":[{"internalType":"uint256","name":"","type":"uint256"}],"payable":false,"stateMutability":"nonpayable","type":"function"},{"constant":false,"inputs":[{"internalType":"bytes","name":"_signature","type":"bytes"},{"internalType":"uint256","name":"_bountyId","type":"uint256"},{"internalType":"string","name":"_data","type":"string"},{"internalType":"uint256","name":"_nonce","type":"uint256"}],"name":"metaPerformAction","outputs":[],"payable":false,"stateMutability":"nonpayable","type":"function"},{"constant":false,"inputs":[{"internalType":"bytes","name":"_signature","type":"bytes"},{"internalType":"uint256","name":"_bountyId","type":"uint256"},{"internalType":"uint256","name":"_contributionId","type":"uint256"},{"internalType":"uint256","name":"_nonce","type":"uint256"}],"name":"metaRefundContribution","outputs":[],"payable":false,"stateMutability":"nonpayable","type":"function"},{"constant":false,"inputs":[{"internalType":"bytes","name":"_signature","type":"bytes"},{"internalType":"uint256","name":"_bountyId","type":"uint256"},{"internalType":"uint256","name":"_issuerId","type":"uint256"},{"internalType":"uint256[]","name":"_contributionIds","type":"uint256[]"},{"internalType":"uint256","name":"_nonce","type":"uint256"}],"name":"metaRefundContributions","outputs":[],"payable":false,"stateMutability":"nonpayable","type":"function"},{"constant":false,"inputs":[{"internalType":"bytes","name":"_signature","type":"bytes"},{"internalType":"uint256","name":"_bountyId","type":"uint256"},{"internalType":"uint256[]","name":"_contributionIds","type":"uint256[]"},{"internalType":"uint256","name":"_nonce","type":"uint256"}],"name":"metaRefundMyContributions","outputs":[],"payable":false,"stateMutability":"nonpayable","type":"function"},{"constant":false,"inputs":[{"internalType":"bytes","name":"_signature","type":"bytes"},{"internalType":"uint256","name":"_bountyId","type":"uint256"},{"internalType":"uint256","name":"_fulfillmentId","type":"uint256"},{"internalType":"address payable[]","name":"_fulfillers","type":"address[]"},{"internalType":"string","name":"_data","type":"string"},{"internalType":"uint256","name":"_nonce","type":"uint256"}],"name":"metaUpdateFulfillment","outputs":[],"payable":false,"stateMutability":"nonpayable","type":"function"},{"constant":true,"inputs":[{"internalType":"address","name":"","type":"address"}],"name":"replayNonce","outputs":[{"internalType":"uint256","name":"","type":"uint256"}],"payable":false,"stateMutability":"view","type":"function"}],"evm":{"bytecode":{"linkReferences":{},"object":"60806040523480156200001157600080fd5b50604051620051f2380380620051f2833981810160405262000037919081019062000095565b806000806101000a81548173ffffffffffffffffffffffffffffffffffffffff021916908373ffffffffffffffffffffffffffffffffffffffff160217905550506200010f565b6000815190506200008f81620000f5565b92915050565b600060208284031215620000a857600080fd5b6000620000b8848285016200007e565b91505092915050565b6000620000ce82620000d5565b9050919050565b600073ffffffffffffffffffffffffffffffffffffffff82169050919050565b6200010081620000c1565b81146200010c57600080fd5b50565b6150d3806200011f6000396000f3fe60806040526004361061012a5760003560e01c8063926b4e5f116100ab578063b1e6bcbb1161006f578063b1e6bcbb1461039f578063c353a38a146103cf578063dc5065a8146103f8578063df4015fc14610421578063ec34c4c01461045e578063fbb9e715146104875761012a565b8063926b4e5f146102d057806393ee9f4f146102f9578063a39da94214610322578063a84d579d1461034d578063ae96762d146103765761012a565b8063432326a9116100f2578063432326a9146101fc578063484621d514610218578063632ebc7b1461024157806367d407df1461026a5780637984dfe6146102a75761012a565b80630dd72a791461012f578063103cd44f14610158578063189002051461018157806332a7856d146101aa57806336bb9122146101d3575b600080fd5b34801561013b57600080fd5b5061015660048036036101519190810190612d85565b6104b0565b005b34801561016457600080fd5b5061017f600480360361017a9190810190613162565b61066a565b005b34801561018d57600080fd5b506101a860048036036101a39190810190613381565b61081f565b005b3480156101b657600080fd5b506101d160048036036101cc91908101906135fd565b6109cf565b005b3480156101df57600080fd5b506101fa60048036036101f59190810190613050565b610b7f565b005b61021660048036036102119190810190613428565b610d3e565b005b34801561022457600080fd5b5061023f600480360361023a9190810190612f16565b610f89565b005b34801561024d57600080fd5b5061026860048036036102639190810190612e83565b611134565b005b34801561027657600080fd5b50610291600480360361028c9190810190612a65565b6112df565b60405161029e9190614d7b565b60405180910390f35b3480156102b357600080fd5b506102ce60048036036102c99190810190613544565b6112f7565b005b3480156102dc57600080fd5b506102f760048036036102f29190810190612fa9565b6114ab565b005b34801561030557600080fd5b50610320600480360361031b9190810190613428565b61165b565b005b34801561032e57600080fd5b50610337611806565b6040516103449190614d60565b60405180910390f35b34801561035957600080fd5b50610374600480360361036f91908101906134a3565b61182b565b005b34801561038257600080fd5b5061039d600480360361039891908101906132da565b6119e0565b005b6103b960048036036103b49190810190612ba0565b611b90565b6040516103c69190614d7b565b60405180910390f35b3480156103db57600080fd5b506103f660048036036103f19190810190613233565b611e47565b005b34801561040457600080fd5b5061041f600480360361041a91908101906134a3565b611ff7565b005b34801561042d57600080fd5b5061044860048036036104439190810190612a8e565b6121ac565b6040516104559190614d7b565b60405180910390f35b34801561046a57600080fd5b5061048560048036036104809190810190612cc6565b612390565b005b34801561049357600080fd5b506104ae60048036036104a991908101906132da565b612540565b005b6000308787878787876040516020016104cf97969594939291906146b2565b60405160208183030381529060405280519060200120905060006104f3828a6126f0565b9050600073ffffffffffffffffffffffffffffffffffffffff168173ffffffffffffffffffffffffffffffffffffffff16141561052f57600080fd5b600160008273ffffffffffffffffffffffffffffffffffffffff1673ffffffffffffffffffffffffffffffffffffffff16815260200190815260200160002054831461057a57600080fd5b600160008273ffffffffffffffffffffffffffffffffffffffff1673ffffffffffffffffffffffffffffffffffffffff168152602001908152602001600020600081548092919060010191905055506000809054906101000a900473ffffffffffffffffffffffffffffffffffffffff1673ffffffffffffffffffffffffffffffffffffffff1663c22215b8828a8a8a8a8a6040518763ffffffff1660e01b815260040161062d969594939291906148eb565b600060405180830381600087803b15801561064757600080fd5b505af115801561065b573d6000803e3d6000fd5b50505050505050505050505050565b60003086868686866040516020016106879695949392919061474a565b60405160208183030381529060405280519060200120905060006106ab82896126f0565b9050600073ffffffffffffffffffffffffffffffffffffffff168173ffffffffffffffffffffffffffffffffffffffff1614156106e757600080fd5b600160008273ffffffffffffffffffffffffffffffffffffffff1673ffffffffffffffffffffffffffffffffffffffff16815260200190815260200160002054831461073257600080fd5b600160008273ffffffffffffffffffffffffffffffffffffffff1673ffffffffffffffffffffffffffffffffffffffff168152602001908152602001600020600081548092919060010191905055506000809054906101000a900473ffffffffffffffffffffffffffffffffffffffff1673ffffffffffffffffffffffffffffffffffffffff1663c496045082898989896040518663ffffffff1660e01b81526004016107e3959493929190614b30565b600060405180830381600087803b1580156107fd57600080fd5b505af1158015610811573d6000803e3d6000fd5b505050505050505050505050565b6000308585858560405160200161083a9594939291906142c7565b604051602081830303815290604052805190602001209050600061085e82886126f0565b9050600073ffffffffffffffffffffffffffffffffffffffff168173ffffffffffffffffffffffffffffffffffffffff16141561089a57600080fd5b600160008273ffffffffffffffffffffffffffffffffffffffff1673ffffffffffffffffffffffffffffffffffffffff1681526020019081526020016000205483146108e557600080fd5b600160008273ffffffffffffffffffffffffffffffffffffffff1673ffffffffffffffffffffffffffffffffffffffff168152602001908152602001600020600081548092919060010191905055506000809054906101000a900473ffffffffffffffffffffffffffffffffffffffff1673ffffffffffffffffffffffffffffffffffffffff16637ef8213c828888886040518563ffffffff1660e01b81526004016109949493929190614bdd565b600060405180830381600087803b1580156109ae57600080fd5b505af11580156109c2573d6000803e3d6000fd5b5050505050505050505050565b600030858585856040516020016109ea95949392919061444f565b6040516020818303038152906040528051906020012090506000610a0e82886126f0565b9050600073ffffffffffffffffffffffffffffffffffffffff168173ffffffffffffffffffffffffffffffffffffffff161415610a4a57600080fd5b600160008273ffffffffffffffffffffffffffffffffffffffff1673ffffffffffffffffffffffffffffffffffffffff168152602001908152602001600020548314610a9557600080fd5b600160008273ffffffffffffffffffffffffffffffffffffffff1673ffffffffffffffffffffffffffffffffffffffff168152602001908152602001600020600081548092919060010191905055506000809054906101000a900473ffffffffffffffffffffffffffffffffffffffff1673ffffffffffffffffffffffffffffffffffffffff1663aa17aaef828888886040518563ffffffff1660e01b8152600401610b449493929190614c29565b600060405180830381600087803b158015610b5e57600080fd5b505af1158015610b72573d6000803e3d6000fd5b5050505050505050505050565b60003088888888888888604051602001610ba0989796959493929190613fae565b6040516020818303038152906040528051906020012090506000610bc4828b6126f0565b9050600073ffffffffffffffffffffffffffffffffffffffff168173ffffffffffffffffffffffffffffffffffffffff161415610c0057600080fd5b600160008273ffffffffffffffffffffffffffffffffffffffff1673ffffffffffffffffffffffffffffffffffffffff168152602001908152602001600020548314610c4b57600080fd5b600160008273ffffffffffffffffffffffffffffffffffffffff1673ffffffffffffffffffffffffffffffffffffffff168152602001908152602001600020600081548092919060010191905055506000809054906101000a900473ffffffffffffffffffffffffffffffffffffffff1673ffffffffffffffffffffffffffffffffffffffff1663b178d768828b8b8b8b8b8b6040518863ffffffff1660e01b8152600401610d009796959493929190614aac565b600060405180830381600087803b158015610d1a57600080fd5b505af1158015610d2e573d6000803e3d6000fd5b5050505050505050505050505050565b600030848484604051602001610d5794939291906141fb565b6040516020818303038152906040528051906020012090506000610d7b82876126f0565b9050600073ffffffffffffffffffffffffffffffffffffffff168173ffffffffffffffffffffffffffffffffffffffff161415610db757600080fd5b600160008273ffffffffffffffffffffffffffffffffffffffff1673ffffffffffffffffffffffffffffffffffffffff168152602001908152602001600020548314610e0257600080fd5b600160008273ffffffffffffffffffffffffffffffffffffffff1673ffffffffffffffffffffffffffffffffffffffff168152602001908152602001600020600081548092919060010191905055506000341115610ef0576000809054906101000a900473ffffffffffffffffffffffffffffffffffffffff1673ffffffffffffffffffffffffffffffffffffffff1663a08f793c348388886040518563ffffffff1660e01b8152600401610eb993929190613f2b565b6000604051808303818588803b158015610ed257600080fd5b505af1158015610ee6573d6000803e3d6000fd5b5050505050610f81565b6000809054906101000a900473ffffffffffffffffffffffffffffffffffffffff1673ffffffffffffffffffffffffffffffffffffffff1663a08f793c8287876040518463ffffffff1660e01b8152600401610f4e93929190613f2b565b600060405180830381600087803b158015610f6857600080fd5b505af1158015610f7c573d6000803e3d6000fd5b505050505b505050505050565b600030848484604051602001610fa2949392919061419c565b6040516020818303038152906040528051906020012090506000610fc682876126f0565b9050600073ffffffffffffffffffffffffffffffffffffffff168173ffffffffffffffffffffffffffffffffffffffff16141561100257600080fd5b600160008273ffffffffffffffffffffffffffffffffffffffff1673ffffffffffffffffffffffffffffffffffffffff16815260200190815260200160002054831461104d57600080fd5b600160008273ffffffffffffffffffffffffffffffffffffffff1673ffffffffffffffffffffffffffffffffffffffff168152602001908152602001600020600081548092919060010191905055506000809054906101000a900473ffffffffffffffffffffffffffffffffffffffff1673ffffffffffffffffffffffffffffffffffffffff16634ac4e25a8287876040518463ffffffff1660e01b81526004016110fa9392919061499f565b600060405180830381600087803b15801561111457600080fd5b505af1158015611128573d6000803e3d6000fd5b50505050505050505050565b60003084848460405160200161114d94939291906147cc565b604051602081830303815290604052805190602001209050600061117182876126f0565b9050600073ffffffffffffffffffffffffffffffffffffffff168173ffffffffffffffffffffffffffffffffffffffff1614156111ad57600080fd5b600160008273ffffffffffffffffffffffffffffffffffffffff1673ffffffffffffffffffffffffffffffffffffffff1681526020019081526020016000205483146111f857600080fd5b600160008273ffffffffffffffffffffffffffffffffffffffff1673ffffffffffffffffffffffffffffffffffffffff168152602001908152602001600020600081548092919060010191905055506000809054906101000a900473ffffffffffffffffffffffffffffffffffffffff1673ffffffffffffffffffffffffffffffffffffffff1663edba70138287876040518463ffffffff1660e01b81526004016112a593929190614961565b600060405180830381600087803b1580156112bf57600080fd5b505af11580156112d3573d6000803e3d6000fd5b50505050505050505050565b60016020528060005260406000206000915090505481565b600030868686868660405160200161131496959493929190614581565b604051602081830303815290604052805190602001209050600061133882896126f0565b9050600073ffffffffffffffffffffffffffffffffffffffff168173ffffffffffffffffffffffffffffffffffffffff16141561137457600080fd5b600160008273ffffffffffffffffffffffffffffffffffffffff1673ffffffffffffffffffffffffffffffffffffffff1681526020019081526020016000205483146113bf57600080fd5b600160008273ffffffffffffffffffffffffffffffffffffffff1673ffffffffffffffffffffffffffffffffffffffff168152602001908152602001600020600081548092919060010191905055506000809054906101000a900473ffffffffffffffffffffffffffffffffffffffff1673ffffffffffffffffffffffffffffffffffffffff1662f27e3882898989896040518663ffffffff1660e01b815260040161146f959493929190614cc1565b600060405180830381600087803b15801561148957600080fd5b505af115801561149d573d6000803e3d6000fd5b505050505050505050505050565b600030858585856040516020016114c6959493929190614055565b60405160208183030381529060405280519060200120905060006114ea82886126f0565b9050600073ffffffffffffffffffffffffffffffffffffffff168173ffffffffffffffffffffffffffffffffffffffff16141561152657600080fd5b600160008273ffffffffffffffffffffffffffffffffffffffff1673ffffffffffffffffffffffffffffffffffffffff16815260200190815260200160002054831461157157600080fd5b600160008273ffffffffffffffffffffffffffffffffffffffff1673ffffffffffffffffffffffffffffffffffffffff168152602001908152602001600020600081548092919060010191905055506000809054906101000a900473ffffffffffffffffffffffffffffffffffffffff1673ffffffffffffffffffffffffffffffffffffffff16634daf1bb5828888886040518563ffffffff1660e01b81526004016116209493929190614a14565b600060405180830381600087803b15801561163a57600080fd5b505af115801561164e573d6000803e3d6000fd5b5050505050505050505050565b6000308484846040516020016116749493929190614529565b604051602081830303815290604052805190602001209050600061169882876126f0565b9050600073ffffffffffffffffffffffffffffffffffffffff168173ffffffffffffffffffffffffffffffffffffffff1614156116d457600080fd5b600160008273ffffffffffffffffffffffffffffffffffffffff1673ffffffffffffffffffffffffffffffffffffffff16815260200190815260200160002054831461171f57600080fd5b600160008273ffffffffffffffffffffffffffffffffffffffff1673ffffffffffffffffffffffffffffffffffffffff168152602001908152602001600020600081548092919060010191905055506000809054906101000a900473ffffffffffffffffffffffffffffffffffffffff1673ffffffffffffffffffffffffffffffffffffffff166393c1ccc98287876040518463ffffffff1660e01b81526004016117cc939291906149dd565b600060405180830381600087803b1580156117e657600080fd5b505af11580156117fa573d6000803e3d6000fd5b50505050505050505050565b6000809054906101000a900473ffffffffffffffffffffffffffffffffffffffff1681565b6000308686868686604051602001611848969594939291906144b5565b604051602081830303815290604052805190602001209050600061186c82896126f0565b9050600073ffffffffffffffffffffffffffffffffffffffff168173ffffffffffffffffffffffffffffffffffffffff1614156118a857600080fd5b600160008273ffffffffffffffffffffffffffffffffffffffff1673ffffffffffffffffffffffffffffffffffffffff1681526020019081526020016000205483146118f357600080fd5b600160008273ffffffffffffffffffffffffffffffffffffffff1673ffffffffffffffffffffffffffffffffffffffff168152602001908152602001600020600081548092919060010191905055506000809054906101000a900473ffffffffffffffffffffffffffffffffffffffff1673ffffffffffffffffffffffffffffffffffffffff16632092e25982898989896040518663ffffffff1660e01b81526004016119a4959493929190614c6e565b600060405180830381600087803b1580156119be57600080fd5b505af11580156119d2573d6000803e3d6000fd5b505050505050505050505050565b600030858585856040516020016119fb9594939291906140c2565b6040516020818303038152906040528051906020012090506000611a1f82886126f0565b9050600073ffffffffffffffffffffffffffffffffffffffff168173ffffffffffffffffffffffffffffffffffffffff161415611a5b57600080fd5b600160008273ffffffffffffffffffffffffffffffffffffffff1673ffffffffffffffffffffffffffffffffffffffff168152602001908152602001600020548314611aa657600080fd5b600160008273ffffffffffffffffffffffffffffffffffffffff1673ffffffffffffffffffffffffffffffffffffffff168152602001908152602001600020600081548092919060010191905055506000809054906101000a900473ffffffffffffffffffffffffffffffffffffffff1673ffffffffffffffffffffffffffffffffffffffff16633756f3c8828888886040518563ffffffff1660e01b8152600401611b559493929190613f62565b600060405180830381600087803b158015611b6f57600080fd5b505af1158015611b83573d6000803e3d6000fd5b5050505050505050505050565b600080308a8a8a8a8a8a8a8a604051602001611bb4999897969594939291906145fc565b6040516020818303038152906040528051906020012090506000611bd8828d6126f0565b9050600073ffffffffffffffffffffffffffffffffffffffff168173ffffffffffffffffffffffffffffffffffffffff161415611c1457600080fd5b600160008273ffffffffffffffffffffffffffffffffffffffff1673ffffffffffffffffffffffffffffffffffffffff168152602001908152602001600020548414611c5f57600080fd5b600160008273ffffffffffffffffffffffffffffffffffffffff1673ffffffffffffffffffffffffffffffffffffffff168152602001908152602001600020600081548092919060010191905055506000341115611d7b576000809054906101000a900473ffffffffffffffffffffffffffffffffffffffff1673ffffffffffffffffffffffffffffffffffffffff166306060ae334838e8e8e8e8e8e8e6040518a63ffffffff1660e01b8152600401611d20989796959493929190613e98565b6020604051808303818588803b158015611d3957600080fd5b505af1158015611d4d573d6000803e3d6000fd5b50505050506040513d601f19601f82011682018060405250611d72919081019061368c565b92505050611e3a565b6000809054906101000a900473ffffffffffffffffffffffffffffffffffffffff1673ffffffffffffffffffffffffffffffffffffffff166306060ae3828d8d8d8d8d8d8d6040518963ffffffff1660e01b8152600401611de3989796959493929190613e98565b602060405180830381600087803b158015611dfd57600080fd5b505af1158015611e11573d6000803e3d6000fd5b505050506040513d601f19601f82011682018060405250611e35919081019061368c565b925050505b9998505050505050505050565b60003085858585604051602001611e6295949392919061482b565b6040516020818303038152906040528051906020012090506000611e8682886126f0565b9050600073ffffffffffffffffffffffffffffffffffffffff168173ffffffffffffffffffffffffffffffffffffffff161415611ec257600080fd5b600160008273ffffffffffffffffffffffffffffffffffffffff1673ffffffffffffffffffffffffffffffffffffffff168152602001908152602001600020548314611f0d57600080fd5b600160008273ffffffffffffffffffffffffffffffffffffffff1673ffffffffffffffffffffffffffffffffffffffff168152602001908152602001600020600081548092919060010191905055506000809054906101000a900473ffffffffffffffffffffffffffffffffffffffff1673ffffffffffffffffffffffffffffffffffffffff1663c6a8b42b828888886040518563ffffffff1660e01b8152600401611fbc9493929190614a60565b600060405180830381600087803b158015611fd657600080fd5b505af1158015611fea573d6000803e3d6000fd5b5050505050505050505050565b600030868686868660405160200161201496959493929190614253565b604051602081830303815290604052805190602001209050600061203882896126f0565b9050600073ffffffffffffffffffffffffffffffffffffffff168173ffffffffffffffffffffffffffffffffffffffff16141561207457600080fd5b600160008273ffffffffffffffffffffffffffffffffffffffff1673ffffffffffffffffffffffffffffffffffffffff1681526020019081526020016000205483146120bf57600080fd5b600160008273ffffffffffffffffffffffffffffffffffffffff1673ffffffffffffffffffffffffffffffffffffffff168152602001908152602001600020600081548092919060010191905055506000809054906101000a900473ffffffffffffffffffffffffffffffffffffffff1673ffffffffffffffffffffffffffffffffffffffff16639e64d9bf82898989896040518663ffffffff1660e01b8152600401612170959493929190614c6e565b600060405180830381600087803b15801561218a57600080fd5b505af115801561219e573d6000803e3d6000fd5b505050505050505050505050565b60008030898989898989896040516020016121ce9897969594939291906143a8565b60405160208183030381529060405280519060200120905060006121f2828c6126f0565b9050600073ffffffffffffffffffffffffffffffffffffffff168173ffffffffffffffffffffffffffffffffffffffff16141561222e57600080fd5b600160008273ffffffffffffffffffffffffffffffffffffffff1673ffffffffffffffffffffffffffffffffffffffff16815260200190815260200160002054841461227957600080fd5b600160008273ffffffffffffffffffffffffffffffffffffffff1673ffffffffffffffffffffffffffffffffffffffff168152602001908152602001600020600081548092919060010191905055506000809054906101000a900473ffffffffffffffffffffffffffffffffffffffff1673ffffffffffffffffffffffffffffffffffffffff1663567b3d2e828c8c8c8c8c8c6040518863ffffffff1660e01b815260040161232e9796959493929190613e14565b602060405180830381600087803b15801561234857600080fd5b505af115801561235c573d6000803e3d6000fd5b505050506040513d601f19601f82011682018060405250612380919081019061368c565b9250505098975050505050505050565b600030858585856040516020016123ab959493929190614334565b60405160208183030381529060405280519060200120905060006123cf82886126f0565b9050600073ffffffffffffffffffffffffffffffffffffffff168173ffffffffffffffffffffffffffffffffffffffff16141561240b57600080fd5b600160008273ffffffffffffffffffffffffffffffffffffffff1673ffffffffffffffffffffffffffffffffffffffff16815260200190815260200160002054831461245657600080fd5b600160008273ffffffffffffffffffffffffffffffffffffffff1673ffffffffffffffffffffffffffffffffffffffff168152602001908152602001600020600081548092919060010191905055506000809054906101000a900473ffffffffffffffffffffffffffffffffffffffff1673ffffffffffffffffffffffffffffffffffffffff166397d76665828888886040518563ffffffff1660e01b81526004016125059493929190614898565b600060405180830381600087803b15801561251f57600080fd5b505af1158015612533573d6000803e3d6000fd5b5050505050505050505050565b6000308585858560405160200161255b95949392919061412f565b604051602081830303815290604052805190602001209050600061257f82886126f0565b9050600073ffffffffffffffffffffffffffffffffffffffff168173ffffffffffffffffffffffffffffffffffffffff1614156125bb57600080fd5b600160008273ffffffffffffffffffffffffffffffffffffffff1673ffffffffffffffffffffffffffffffffffffffff16815260200190815260200160002054831461260657600080fd5b600160008273ffffffffffffffffffffffffffffffffffffffff1673ffffffffffffffffffffffffffffffffffffffff168152602001908152602001600020600081548092919060010191905055506000809054906101000a900473ffffffffffffffffffffffffffffffffffffffff1673ffffffffffffffffffffffffffffffffffffffff1663a071fbd5828888886040518563ffffffff1660e01b81526004016126b59493929190614b91565b600060405180830381600087803b1580156126cf57600080fd5b505af11580156126e3573d6000803e3d6000fd5b5050505050505050505050565b600080600080604185511461270b57600093505050506127da565b6020850151925060408501519150606085015160001a9050601b8160ff16101561273657601b810190505b601b8160ff161415801561274e5750601c8160ff1614155b1561275f57600093505050506127da565b6001866040516020016127729190613dee565b60405160208183030381529060405280519060200120828585604051600081526020016040526040516127a89493929190614d1b565b6020604051602081039080840390855afa1580156127ca573d6000803e3d6000fd5b5050506020604051035193505050505b92915050565b6000813590506127ef8161504b565b92915050565b60008135905061280481615062565b92915050565b600082601f83011261281b57600080fd5b813561282e61282982614dc3565b614d96565b9150818183526020840193506020810190508385602084028201111561285357600080fd5b60005b83811015612883578161286988826127e0565b845260208401935060208301925050600181019050612856565b5050505092915050565b600082601f83011261289e57600080fd5b81356128b16128ac82614deb565b614d96565b915081818352602084019350602081019050838560208402820111156128d657600080fd5b60005b8381101561290657816128ec88826127f5565b8452602084019350602083019250506001810190506128d9565b5050505092915050565b600082601f83011261292157600080fd5b813561293461292f82614e13565b614d96565b9150818183526020840193506020810190508385602084028201111561295957600080fd5b60005b83811015612989578161296f8882612a3b565b84526020840193506020830192505060018101905061295c565b5050505092915050565b600082601f8301126129a457600080fd5b81356129b76129b282614e3b565b614d96565b915080825260208301602083018583830111156129d357600080fd5b6129de838284614fee565b50505092915050565b600082601f8301126129f857600080fd5b8135612a0b612a0682614e67565b614d96565b91508082526020830160208301858383011115612a2757600080fd5b612a32838284614fee565b50505092915050565b600081359050612a4a81615079565b92915050565b600081519050612a5f81615079565b92915050565b600060208284031215612a7757600080fd5b6000612a85848285016127e0565b91505092915050565b600080600080600080600080610100898b031215612aab57600080fd5b600089013567ffffffffffffffff811115612ac557600080fd5b612ad18b828c01612993565b985050602089013567ffffffffffffffff811115612aee57600080fd5b612afa8b828c0161288d565b975050604089013567ffffffffffffffff811115612b1757600080fd5b612b238b828c0161280a565b965050606089013567ffffffffffffffff811115612b4057600080fd5b612b4c8b828c016129e7565b9550506080612b5d8b828c01612a3b565b94505060a0612b6e8b828c016127e0565b93505060c0612b7f8b828c01612a3b565b92505060e0612b908b828c01612a3b565b9150509295985092959890939650565b60008060008060008060008060006101208a8c031215612bbf57600080fd5b60008a013567ffffffffffffffff811115612bd957600080fd5b612be58c828d01612993565b99505060208a013567ffffffffffffffff811115612c0257600080fd5b612c0e8c828d0161288d565b98505060408a013567ffffffffffffffff811115612c2b57600080fd5b612c378c828d0161280a565b97505060608a013567ffffffffffffffff811115612c5457600080fd5b612c608c828d016129e7565b9650506080612c718c828d01612a3b565b95505060a0612c828c828d016127e0565b94505060c0612c938c828d01612a3b565b93505060e0612ca48c828d01612a3b565b925050610100612cb68c828d01612a3b565b9150509295985092959850929598565b600080600080600060a08688031215612cde57600080fd5b600086013567ffffffffffffffff811115612cf857600080fd5b612d0488828901612993565b9550506020612d1588828901612a3b565b945050604086013567ffffffffffffffff811115612d3257600080fd5b612d3e8882890161288d565b935050606086013567ffffffffffffffff811115612d5b57600080fd5b612d67888289016129e7565b9250506080612d7888828901612a3b565b9150509295509295909350565b600080600080600080600060e0888a031215612da057600080fd5b600088013567ffffffffffffffff811115612dba57600080fd5b612dc68a828b01612993565b9750506020612dd78a828b01612a3b565b965050604088013567ffffffffffffffff811115612df457600080fd5b612e008a828b0161288d565b955050606088013567ffffffffffffffff811115612e1d57600080fd5b612e298a828b016129e7565b9450506080612e3a8a828b01612a3b565b93505060a088013567ffffffffffffffff811115612e5757600080fd5b612e638a828b01612910565b92505060c0612e748a828b01612a3b565b91505092959891949750929550565b60008060008060808587031215612e9957600080fd5b600085013567ffffffffffffffff811115612eb357600080fd5b612ebf87828801612993565b9450506020612ed087828801612a3b565b935050604085013567ffffffffffffffff811115612eed57600080fd5b612ef987828801612910565b9250506060612f0a87828801612a3b565b91505092959194509250565b60008060008060808587031215612f2c57600080fd5b600085013567ffffffffffffffff811115612f4657600080fd5b612f5287828801612993565b9450506020612f6387828801612a3b565b935050604085013567ffffffffffffffff811115612f8057600080fd5b612f8c878288016129e7565b9250506060612f9d87828801612a3b565b91505092959194509250565b600080600080600060a08688031215612fc157600080fd5b600086013567ffffffffffffffff811115612fdb57600080fd5b612fe788828901612993565b9550506020612ff888828901612a3b565b945050604061300988828901612a3b565b935050606086013567ffffffffffffffff81111561302657600080fd5b6130328882890161280a565b925050608061304388828901612a3b565b9150509295509295909350565b600080600080600080600080610100898b03121561306d57600080fd5b600089013567ffffffffffffffff81111561308757600080fd5b6130938b828c01612993565b98505060206130a48b828c01612a3b565b97505060406130b58b828c01612a3b565b965050606089013567ffffffffffffffff8111156130d257600080fd5b6130de8b828c0161288d565b955050608089013567ffffffffffffffff8111156130fb57600080fd5b6131078b828c0161288d565b94505060a089013567ffffffffffffffff81111561312457600080fd5b6131308b828c016129e7565b93505060c06131418b828c01612a3b565b92505060e06131528b828c01612a3b565b9150509295985092959890939650565b60008060008060008060c0878903121561317b57600080fd5b600087013567ffffffffffffffff81111561319557600080fd5b6131a189828a01612993565b96505060206131b289828a01612a3b565b95505060406131c389828a01612a3b565b945050606087013567ffffffffffffffff8111156131e057600080fd5b6131ec89828a0161288d565b935050608087013567ffffffffffffffff81111561320957600080fd5b61321589828a016129e7565b92505060a061322689828a01612a3b565b9150509295509295509295565b600080600080600060a0868803121561324b57600080fd5b600086013567ffffffffffffffff81111561326557600080fd5b61327188828901612993565b955050602061328288828901612a3b565b945050604061329388828901612a3b565b935050606086013567ffffffffffffffff8111156132b057600080fd5b6132bc8882890161288d565b92505060806132cd88828901612a3b565b9150509295509295909350565b600080600080600060a086880312156132f257600080fd5b600086013567ffffffffffffffff81111561330c57600080fd5b61331888828901612993565b955050602061332988828901612a3b565b945050604061333a88828901612a3b565b935050606086013567ffffffffffffffff81111561335757600080fd5b61336388828901612910565b925050608061337488828901612a3b565b9150509295509295909350565b600080600080600060a0868803121561339957600080fd5b600086013567ffffffffffffffff8111156133b357600080fd5b6133bf88828901612993565b95505060206133d088828901612a3b565b94505060406133e188828901612a3b565b935050606086013567ffffffffffffffff8111156133fe57600080fd5b61340a888289016129e7565b925050608061341b88828901612a3b565b9150509295509295909350565b6000806000806080858703121561343e57600080fd5b600085013567ffffffffffffffff81111561345857600080fd5b61346487828801612993565b945050602061347587828801612a3b565b935050604061348687828801612a3b565b925050606061349787828801612a3b565b91505092959194509250565b60008060008060008060c087890312156134bc57600080fd5b600087013567ffffffffffffffff8111156134d657600080fd5b6134e289828a01612993565b96505060206134f389828a01612a3b565b955050604061350489828a01612a3b565b945050606061351589828a01612a3b565b935050608061352689828a016127f5565b92505060a061353789828a01612a3b565b9150509295509295509295565b60008060008060008060c0878903121561355d57600080fd5b600087013567ffffffffffffffff81111561357757600080fd5b61358389828a01612993565b965050602061359489828a01612a3b565b95505060406135a589828a01612a3b565b94505060606135b689828a01612a3b565b935050608087013567ffffffffffffffff8111156135d357600080fd5b6135df89828a01612910565b92505060a06135f089828a01612a3b565b9150509295509295509295565b600080600080600060a0868803121561361557600080fd5b600086013567ffffffffffffffff81111561362f57600080fd5b61363b88828901612993565b955050602061364c88828901612a3b565b945050604061365d88828901612a3b565b935050606061366e88828901612a3b565b925050608061367f88828901612a3b565b9150509295509295909350565b60006020828403121561369e57600080fd5b60006136ac84828501612a50565b91505092915050565b60006136c183836136fd565b60208301905092915050565b60006136d9838361371b565b60208301905092915050565b60006136f18383613dc1565b60208301905092915050565b61370681614f77565b82525050565b61371581614f77565b82525050565b61372481614f65565b82525050565b61373381614f65565b82525050565b600061374482614ec3565b61374e8185614f16565b935061375983614e93565b8060005b8381101561378a57815161377188826136cd565b975061377c83614eef565b92505060018101905061375d565b5085935050505092915050565b60006137a282614ece565b6137ac8185614f27565b93506137b783614ea3565b8060005b838110156137e85781516137cf88826136b5565b97506137da83614efc565b9250506001810190506137bb565b5085935050505092915050565b600061380082614ed9565b61380a8185614f38565b935061381583614eb3565b8060005b8381101561384657815161382d88826136e5565b975061383883614f09565b925050600181019050613819565b5085935050505092915050565b61385c81614f89565b82525050565b61387361386e82614f89565b615030565b82525050565b61388281614fca565b82525050565b600061389382614ee4565b61389d8185614f49565b93506138ad818560208601614ffd565b6138b68161503a565b840191505092915050565b60006138ce601c83614f5a565b91507f19457468657265756d205369676e6564204d6573736167653a0a3332000000006000830152601c82019050919050565b600061390e601083614f49565b91507f6d6574614368616e6765426f756e7479000000000000000000000000000000006000830152602082019050919050565b600061394e601083614f49565b91507f6d657461416464417070726f76657273000000000000000000000000000000006000830152602082019050919050565b600061398e600f83614f49565b91507f6d657461447261696e426f756e747900000000000000000000000000000000006000830152602082019050919050565b60006139ce601783614f49565b91507f6d657461526566756e64436f6e747269627574696f6e730000000000000000006000830152602082019050919050565b6000613a0e601183614f49565b91507f6d657461506572666f726d416374696f6e0000000000000000000000000000006000830152602082019050919050565b6000613a4e600e83614f49565b91507f6d657461436f6e747269627574650000000000000000000000000000000000006000830152602082019050919050565b6000613a8e601083614f49565b91507f6d6574614368616e6765497373756572000000000000000000000000000000006000830152602082019050919050565b6000613ace600e83614f49565b91507f6d6574614368616e6765446174610000000000000000000000000000000000006000830152602082019050919050565b6000613b0e601183614f49565b91507f6d65746146756c66696c6c426f756e74790000000000000000000000000000006000830152602082019050919050565b6000613b4e600f83614f49565b91507f6d6574614973737565426f756e747900000000000000000000000000000000006000830152602082019050919050565b6000613b8e601283614f49565b91507f6d6574614368616e6765446561646c696e6500000000000000000000000000006000830152602082019050919050565b6000613bce601283614f49565b91507f6d6574614368616e6765417070726f76657200000000000000000000000000006000830152602082019050919050565b6000613c0e601683614f49565b91507f6d657461526566756e64436f6e747269627574696f6e000000000000000000006000830152602082019050919050565b6000613c4e601583614f49565b91507f6d65746141636365707446756c66696c6c6d656e7400000000000000000000006000830152602082019050919050565b6000613c8e601683614f49565b91507f6d6574614973737565416e64436f6e74726962757465000000000000000000006000830152602082019050919050565b6000613cce601483614f49565b91507f6d65746146756c66696c6c416e644163636570740000000000000000000000006000830152602082019050919050565b6000613d0e601583614f49565b91507f6d65746155706461746546756c66696c6c6d656e7400000000000000000000006000830152602082019050919050565b6000613d4e601983614f49565b91507f6d657461526566756e644d79436f6e747269627574696f6e73000000000000006000830152602082019050919050565b6000613d8e600e83614f49565b91507f6d657461416464497373756572730000000000000000000000000000000000006000830152602082019050919050565b613dca81614fb3565b82525050565b613dd981614fb3565b82525050565b613de881614fbd565b82525050565b6000613df9826138c1565b9150613e058284613862565b60208201915081905092915050565b600060e082019050613e29600083018a61370c565b8181036020830152613e3b8189613797565b90508181036040830152613e4f8188613739565b90508181036060830152613e638187613888565b9050613e726080830186613dd0565b613e7f60a083018561372a565b613e8c60c0830184613dd0565b98975050505050505050565b600061010082019050613eae600083018b61370c565b8181036020830152613ec0818a613797565b90508181036040830152613ed48189613739565b90508181036060830152613ee88188613888565b9050613ef76080830187613dd0565b613f0460a083018661372a565b613f1160c0830185613dd0565b613f1e60e0830184613dd0565b9998505050505050505050565b6000606082019050613f40600083018661370c565b613f4d6020830185613dd0565b613f5a6040830184613dd0565b949350505050565b6000608082019050613f77600083018761370c565b613f846020830186613dd0565b613f916040830185613dd0565b8181036060830152613fa381846137f5565b905095945050505050565b600061012082019050613fc4600083018b61372a565b8181036020830152613fd581613901565b9050613fe4604083018a613dd0565b613ff16060830189613dd0565b81810360808301526140038188613797565b905081810360a08301526140178187613797565b905081810360c083015261402b8186613888565b905061403a60e0830185613dd0565b614048610100830184613dd0565b9998505050505050505050565b600060c08201905061406a600083018861372a565b818103602083015261407b81613941565b905061408a6040830187613dd0565b6140976060830186613dd0565b81810360808301526140a98185613739565b90506140b860a0830184613dd0565b9695505050505050565b600060c0820190506140d7600083018861372a565b81810360208301526140e881613981565b90506140f76040830187613dd0565b6141046060830186613dd0565b818103608083015261411681856137f5565b905061412560a0830184613dd0565b9695505050505050565b600060c082019050614144600083018861372a565b8181036020830152614155816139c1565b90506141646040830187613dd0565b6141716060830186613dd0565b818103608083015261418381856137f5565b905061419260a0830184613dd0565b9695505050505050565b600060a0820190506141b1600083018761372a565b81810360208301526141c281613a01565b90506141d16040830186613dd0565b81810360608301526141e38185613888565b90506141f26080830184613dd0565b95945050505050565b600060a082019050614210600083018761372a565b818103602083015261422181613a41565b90506142306040830186613dd0565b61423d6060830185613dd0565b61424a6080830184613dd0565b95945050505050565b600060e082019050614268600083018961372a565b818103602083015261427981613a81565b90506142886040830188613dd0565b6142956060830187613dd0565b6142a26080830186613dd0565b6142af60a083018561370c565b6142bc60c0830184613dd0565b979650505050505050565b600060c0820190506142dc600083018861372a565b81810360208301526142ed81613ac1565b90506142fc6040830187613dd0565b6143096060830186613dd0565b818103608083015261431b8185613888565b905061432a60a0830184613dd0565b9695505050505050565b600060c082019050614349600083018861372a565b818103602083015261435a81613b01565b90506143696040830187613dd0565b818103606083015261437b8186613797565b9050818103608083015261438f8185613888565b905061439e60a0830184613dd0565b9695505050505050565b6000610120820190506143be600083018b61372a565b81810360208301526143cf81613b41565b905081810360408301526143e3818a613797565b905081810360608301526143f78189613739565b9050818103608083015261440b8188613888565b905061441a60a0830187613dd0565b61442760c083018661372a565b61443460e0830185613dd0565b614442610100830184613dd0565b9998505050505050505050565b600060c082019050614464600083018861372a565b818103602083015261447581613b81565b90506144846040830187613dd0565b6144916060830186613dd0565b61449e6080830185613dd0565b6144ab60a0830184613dd0565b9695505050505050565b600060e0820190506144ca600083018961372a565b81810360208301526144db81613bc1565b90506144ea6040830188613dd0565b6144f76060830187613dd0565b6145046080830186613dd0565b61451160a083018561370c565b61451e60c0830184613dd0565b979650505050505050565b600060a08201905061453e600083018761372a565b818103602083015261454f81613c01565b905061455e6040830186613dd0565b61456b6060830185613dd0565b6145786080830184613dd0565b95945050505050565b600060e082019050614596600083018961372a565b81810360208301526145a781613c41565b90506145b66040830188613dd0565b6145c36060830187613dd0565b6145d06080830186613dd0565b81810360a08301526145e281856137f5565b90506145f160c0830184613dd0565b979650505050505050565b600061014082019050614612600083018c61372a565b818103602083015261462381613c81565b90508181036040830152614637818b613797565b9050818103606083015261464b818a613739565b9050818103608083015261465f8189613888565b905061466e60a0830188613dd0565b61467b60c083018761372a565b61468860e0830186613dd0565b614696610100830185613dd0565b6146a4610120830184613dd0565b9a9950505050505050505050565b6000610100820190506146c8600083018a61372a565b81810360208301526146d981613cc1565b90506146e86040830189613dd0565b81810360608301526146fa8188613797565b9050818103608083015261470e8187613888565b905061471d60a0830186613dd0565b81810360c083015261472f81856137f5565b905061473e60e0830184613dd0565b98975050505050505050565b600060e08201905061475f600083018961372a565b818103602083015261477081613d01565b905061477f6040830188613dd0565b61478c6060830187613dd0565b818103608083015261479e8186613797565b905081810360a08301526147b28185613888565b90506147c160c0830184613dd0565b979650505050505050565b600060a0820190506147e1600083018761372a565b81810360208301526147f281613d41565b90506148016040830186613dd0565b818103606083015261481381856137f5565b90506148226080830184613dd0565b95945050505050565b600060c082019050614840600083018861372a565b818103602083015261485181613d81565b90506148606040830187613dd0565b61486d6060830186613dd0565b818103608083015261487f8185613797565b905061488e60a0830184613dd0565b9695505050505050565b60006080820190506148ad600083018761372a565b6148ba6020830186613dd0565b81810360408301526148cc8185613797565b905081810360608301526148e08184613888565b905095945050505050565b600060c082019050614900600083018961372a565b61490d6020830188613dd0565b818103604083015261491f8187613797565b905081810360608301526149338186613888565b90506149426080830185613dd0565b81810360a083015261495481846137f5565b9050979650505050505050565b6000606082019050614976600083018661372a565b6149836020830185613dd0565b818103604083015261499581846137f5565b9050949350505050565b60006060820190506149b4600083018661372a565b6149c16020830185613dd0565b81810360408301526149d38184613888565b9050949350505050565b60006060820190506149f2600083018661372a565b6149ff6020830185613dd0565b614a0c6040830184613dd0565b949350505050565b6000608082019050614a29600083018761372a565b614a366020830186613dd0565b614a436040830185613dd0565b8181036060830152614a558184613739565b905095945050505050565b6000608082019050614a75600083018761372a565b614a826020830186613dd0565b614a8f6040830185613dd0565b8181036060830152614aa18184613797565b905095945050505050565b600060e082019050614ac1600083018a61372a565b614ace6020830189613dd0565b614adb6040830188613dd0565b8181036060830152614aed8187613797565b90508181036080830152614b018186613797565b905081810360a0830152614b158185613888565b9050614b2460c0830184613dd0565b98975050505050505050565b600060a082019050614b45600083018861372a565b614b526020830187613dd0565b614b5f6040830186613dd0565b8181036060830152614b718185613797565b90508181036080830152614b858184613888565b90509695505050505050565b6000608082019050614ba6600083018761372a565b614bb36020830186613dd0565b614bc06040830185613dd0565b8181036060830152614bd281846137f5565b905095945050505050565b6000608082019050614bf2600083018761372a565b614bff6020830186613dd0565b614c0c6040830185613dd0565b8181036060830152614c1e8184613888565b905095945050505050565b6000608082019050614c3e600083018761372a565b614c4b6020830186613dd0565b614c586040830185613dd0565b614c656060830184613dd0565b95945050505050565b600060a082019050614c83600083018861372a565b614c906020830187613dd0565b614c9d6040830186613dd0565b614caa6060830185613dd0565b614cb7608083018461370c565b9695505050505050565b600060a082019050614cd6600083018861372a565b614ce36020830187613dd0565b614cf06040830186613dd0565b614cfd6060830185613dd0565b8181036080830152614d0f81846137f5565b90509695505050505050565b6000608082019050614d306000830187613853565b614d3d6020830186613ddf565b614d4a6040830185613853565b614d576060830184613853565b95945050505050565b6000602082019050614d756000830184613879565b92915050565b6000602082019050614d906000830184613dd0565b92915050565b6000604051905081810181811067ffffffffffffffff82111715614db957600080fd5b8060405250919050565b600067ffffffffffffffff821115614dda57600080fd5b602082029050602081019050919050565b600067ffffffffffffffff821115614e0257600080fd5b602082029050602081019050919050565b600067ffffffffffffffff821115614e2a57600080fd5b602082029050602081019050919050565b600067ffffffffffffffff821115614e5257600080fd5b601f19601f8301169050602081019050919050565b600067ffffffffffffffff821115614e7e57600080fd5b601f19601f8301169050602081019050919050565b6000819050602082019050919050565b6000819050602082019050919050565b6000819050602082019050919050565b600081519050919050565b600081519050919050565b600081519050919050565b600081519050919050565b6000602082019050919050565b6000602082019050919050565b6000602082019050919050565b600082825260208201905092915050565b600082825260208201905092915050565b600082825260208201905092915050565b600082825260208201905092915050565b600081905092915050565b6000614f7082614f93565b9050919050565b6000614f8282614f93565b9050919050565b6000819050919050565b600073ffffffffffffffffffffffffffffffffffffffff82169050919050565b6000819050919050565b600060ff82169050919050565b6000614fd582614fdc565b9050919050565b6000614fe782614f93565b9050919050565b82818337600083830152505050565b60005b8381101561501b578082015181840152602081019050615000565b8381111561502a576000848401525b50505050565b6000819050919050565b6000601f19601f8301169050919050565b61505481614f65565b811461505f57600080fd5b50565b61506b81614f77565b811461507657600080fd5b50565b61508281614fb3565b811461508d57600080fd5b5056fea365627a7a72315820d0727ce370cc4a6b26f991cf34328a27f239683b0c211c2da74dd4bf357be19b6c6578706572696d656e74616cf564736f6c634300050c0040","opcodes":"PUSH1 0x80 PUSH1 0x40 MSTORE CALLVALUE DUP1 ISZERO PUSH3 0x11 JUMPI PUSH1 0x0 DUP1 REVERT JUMPDEST POP PUSH1 0x40 MLOAD PUSH3 0x51F2 CODESIZE SUB DUP1 PUSH3 0x51F2 DUP4 CODECOPY DUP2 DUP2 ADD PUSH1 0x40 MSTORE PUSH3 0x37 SWAP2 SWAP1 DUP2 ADD SWAP1 PUSH3 0x95 JUMP JUMPDEST DUP1 PUSH1 0x0 DUP1 PUSH2 0x100 EXP DUP2 SLOAD DUP2 PUSH20 0xFFFFFFFFFFFFFFFFFFFFFFFFFFFFFFFFFFFFFFFF MUL NOT AND SWAP1 DUP4 PUSH20 0xFFFFFFFFFFFFFFFFFFFFFFFFFFFFFFFFFFFFFFFF AND MUL OR SWAP1 SSTORE POP POP PUSH3 0x10F JUMP JUMPDEST PUSH1 0x0 DUP2 MLOAD SWAP1 POP PUSH3 0x8F DUP2 PUSH3 0xF5 JUMP JUMPDEST SWAP3 SWAP2 POP POP JUMP JUMPDEST PUSH1 0x0 PUSH1 0x20 DUP3 DUP5 SUB SLT ISZERO PUSH3 0xA8 JUMPI PUSH1 0x0 DUP1 REVERT JUMPDEST PUSH1 0x0 PUSH3 0xB8 DUP5 DUP3 DUP6 ADD PUSH3 0x7E JUMP JUMPDEST SWAP2 POP POP SWAP3 SWAP2 POP POP JUMP JUMPDEST PUSH1 0x0 PUSH3 0xCE DUP3 PUSH3 0xD5 JUMP JUMPDEST SWAP1 POP SWAP2 SWAP1 POP JUMP JUMPDEST PUSH1 0x0 PUSH20 0xFFFFFFFFFFFFFFFFFFFFFFFFFFFFFFFFFFFFFFFF DUP3 AND SWAP1 POP SWAP2 SWAP1 POP JUMP JUMPDEST PUSH3 0x100 DUP2 PUSH3 0xC1 JUMP JUMPDEST DUP2 EQ PUSH3 0x10C JUMPI PUSH1 0x0 DUP1 REVERT JUMPDEST POP JUMP JUMPDEST PUSH2 0x50D3 DUP1 PUSH3 0x11F PUSH1 0x0 CODECOPY PUSH1 0x0 RETURN INVALID PUSH1 0x80 PUSH1 0x40 MSTORE PUSH1 0x4 CALLDATASIZE LT PUSH2 0x12A JUMPI PUSH1 0x0 CALLDATALOAD PUSH1 0xE0 SHR DUP1 PUSH4 0x926B4E5F GT PUSH2 0xAB JUMPI DUP1 PUSH4 0xB1E6BCBB GT PUSH2 0x6F JUMPI DUP1 PUSH4 0xB1E6BCBB EQ PUSH2 0x39F JUMPI DUP1 PUSH4 0xC353A38A EQ PUSH2 0x3CF JUMPI DUP1 PUSH4 0xDC5065A8 EQ PUSH2 0x3F8 JUMPI DUP1 PUSH4 0xDF4015FC EQ PUSH2 0x421 JUMPI DUP1 PUSH4 0xEC34C4C0 EQ PUSH2 0x45E JUMPI DUP1 PUSH4 0xFBB9E715 EQ PUSH2 0x487 JUMPI PUSH2 0x12A JUMP JUMPDEST DUP1 PUSH4 0x926B4E5F EQ PUSH2 0x2D0 JUMPI DUP1 PUSH4 0x93EE9F4F EQ PUSH2 0x2F9 JUMPI DUP1 PUSH4 0xA39DA942 EQ PUSH2 0x322 JUMPI DUP1 PUSH4 0xA84D579D EQ PUSH2 0x34D JUMPI DUP1 PUSH4 0xAE96762D EQ PUSH2 0x376 JUMPI PUSH2 0x12A JUMP JUMPDEST DUP1 PUSH4 0x432326A9 GT PUSH2 0xF2 JUMPI DUP1 PUSH4 0x432326A9 EQ PUSH2 0x1FC JUMPI DUP1 PUSH4 0x484621D5 EQ PUSH2 0x218 JUMPI DUP1 PUSH4 0x632EBC7B EQ PUSH2 0x241 JUMPI DUP1 PUSH4 0x67D407DF EQ PUSH2 0x26A JUMPI DUP1 PUSH4 0x7984DFE6 EQ PUSH2 0x2A7 JUMPI PUSH2 0x12A JUMP JUMPDEST DUP1 PUSH4 0xDD72A79 EQ PUSH2 0x12F JUMPI DUP1 PUSH4 0x103CD44F EQ PUSH2 0x158 JUMPI DUP1 PUSH4 0x18900205 EQ PUSH2 0x181 JUMPI DUP1 PUSH4 0x32A7856D EQ PUSH2 0x1AA JUMPI DUP1 PUSH4 0x36BB9122 EQ PUSH2 0x1D3 JUMPI JUMPDEST PUSH1 0x0 DUP1 REVERT JUMPDEST CALLVALUE DUP1 ISZERO PUSH2 0x13B JUMPI PUSH1 0x0 DUP1 REVERT JUMPDEST POP PUSH2 0x156 PUSH1 0x4 DUP1 CALLDATASIZE SUB PUSH2 0x151 SWAP2 SWAP1 DUP2 ADD SWAP1 PUSH2 0x2D85 JUMP JUMPDEST PUSH2 0x4B0 JUMP JUMPDEST STOP JUMPDEST CALLVALUE DUP1 ISZERO PUSH2 0x164 JUMPI PUSH1 0x0 DUP1 REVERT JUMPDEST POP PUSH2 0x17F PUSH1 0x4 DUP1 CALLDATASIZE SUB PUSH2 0x17A SWAP2 SWAP1 DUP2 ADD SWAP1 PUSH2 0x3162 JUMP JUMPDEST PUSH2 0x66A JUMP JUMPDEST STOP JUMPDEST CALLVALUE DUP1 ISZERO PUSH2 0x18D JUMPI PUSH1 0x0 DUP1 REVERT JUMPDEST POP PUSH2 0x1A8 PUSH1 0x4 DUP1 CALLDATASIZE SUB PUSH2 0x1A3 SWAP2 SWAP1 DUP2 ADD SWAP1 PUSH2 0x3381 JUMP JUMPDEST PUSH2 0x81F JUMP JUMPDEST STOP JUMPDEST CALLVALUE DUP1 ISZERO PUSH2 0x1B6 JUMPI PUSH1 0x0 DUP1 REVERT JUMPDEST POP PUSH2 0x1D1 PUSH1 0x4 DUP1 CALLDATASIZE SUB PUSH2 0x1CC SWAP2 SWAP1 DUP2 ADD SWAP1 PUSH2 0x35FD JUMP JUMPDEST PUSH2 0x9CF JUMP JUMPDEST STOP JUMPDEST CALLVALUE DUP1 ISZERO PUSH2 0x1DF JUMPI PUSH1 0x0 DUP1 REVERT JUMPDEST POP PUSH2 0x1FA PUSH1 0x4 DUP1 CALLDATASIZE SUB PUSH2 0x1F5 SWAP2 SWAP1 DUP2 ADD SWAP1 PUSH2 0x3050 JUMP JUMPDEST PUSH2 0xB7F JUMP JUMPDEST STOP JUMPDEST PUSH2 0x216 PUSH1 0x4 DUP1 CALLDATASIZE SUB PUSH2 0x211 SWAP2 SWAP1 DUP2 ADD SWAP1 PUSH2 0x3428 JUMP JUMPDEST PUSH2 0xD3E JUMP JUMPDEST STOP JUMPDEST CALLVALUE DUP1 ISZERO PUSH2 0x224 JUMPI PUSH1 0x0 DUP1 REVERT JUMPDEST POP PUSH2 0x23F PUSH1 0x4 DUP1 CALLDATASIZE SUB PUSH2 0x23A SWAP2 SWAP1 DUP2 ADD SWAP1 PUSH2 0x2F16 JUMP JUMPDEST PUSH2 0xF89 JUMP JUMPDEST STOP JUMPDEST CALLVALUE DUP1 ISZERO PUSH2 0x24D JUMPI PUSH1 0x0 DUP1 REVERT JUMPDEST POP PUSH2 0x268 PUSH1 0x4 DUP1 CALLDATASIZE SUB PUSH2 0x263 SWAP2 SWAP1 DUP2 ADD SWAP1 PUSH2 0x2E83 JUMP JUMPDEST PUSH2 0x1134 JUMP JUMPDEST STOP JUMPDEST CALLVALUE DUP1 ISZERO PUSH2 0x276 JUMPI PUSH1 0x0 DUP1 REVERT JUMPDEST POP PUSH2 0x291 PUSH1 0x4 DUP1 CALLDATASIZE SUB PUSH2 0x28C SWAP2 SWAP1 DUP2 ADD SWAP1 PUSH2 0x2A65 JUMP JUMPDEST PUSH2 0x12DF JUMP JUMPDEST PUSH1 0x40 MLOAD PUSH2 0x29E SWAP2 SWAP1 PUSH2 0x4D7B JUMP JUMPDEST PUSH1 0x40 MLOAD DUP1 SWAP2 SUB SWAP1 RETURN JUMPDEST CALLVALUE DUP1 ISZERO PUSH2 0x2B3 JUMPI PUSH1 0x0 DUP1 REVERT JUMPDEST POP PUSH2 0x2CE PUSH1 0x4 DUP1 CALLDATASIZE SUB PUSH2 0x2C9 SWAP2 SWAP1 DUP2 ADD SWAP1 PUSH2 0x3544 JUMP JUMPDEST PUSH2 0x12F7 JUMP JUMPDEST STOP JUMPDEST CALLVALUE DUP1 ISZERO PUSH2 0x2DC JUMPI PUSH1 0x0 DUP1 REVERT JUMPDEST POP PUSH2 0x2F7 PUSH1 0x4 DUP1 CALLDATASIZE SUB PUSH2 0x2F2 SWAP2 SWAP1 DUP2 ADD SWAP1 PUSH2 0x2FA9 JUMP JUMPDEST PUSH2 0x14AB JUMP JUMPDEST STOP JUMPDEST CALLVALUE DUP1 ISZERO PUSH2 0x305 JUMPI PUSH1 0x0 DUP1 REVERT JUMPDEST POP PUSH2 0x320 PUSH1 0x4 DUP1 CALLDATASIZE SUB PUSH2 0x31B SWAP2 SWAP1 DUP2 ADD SWAP1 PUSH2 0x3428 JUMP JUMPDEST PUSH2 0x165B JUMP JUMPDEST STOP JUMPDEST CALLVALUE DUP1 ISZERO PUSH2 0x32E JUMPI PUSH1 0x0 DUP1 REVERT JUMPDEST POP PUSH2 0x337 PUSH2 0x1806 JUMP JUMPDEST PUSH1 0x40 MLOAD PUSH2 0x344 SWAP2 SWAP1 PUSH2 0x4D60 JUMP JUMPDEST PUSH1 0x40 MLOAD DUP1 SWAP2 SUB SWAP1 RETURN JUMPDEST CALLVALUE DUP1 ISZERO PUSH2 0x359 JUMPI PUSH1 0x0 DUP1 REVERT JUMPDEST POP PUSH2 0x374 PUSH1 0x4 DUP1 CALLDATASIZE SUB PUSH2 0x36F SWAP2 SWAP1 DUP2 ADD SWAP1 PUSH2 0x34A3 JUMP JUMPDEST PUSH2 0x182B JUMP JUMPDEST STOP JUMPDEST CALLVALUE DUP1 ISZERO PUSH2 0x382 JUMPI PUSH1 0x0 DUP1 REVERT JUMPDEST POP PUSH2 0x39D PUSH1 0x4 DUP1 CALLDATASIZE SUB PUSH2 0x398 SWAP2 SWAP1 DUP2 ADD SWAP1 PUSH2 0x32DA JUMP JUMPDEST PUSH2 0x19E0 JUMP JUMPDEST STOP JUMPDEST PUSH2 0x3B9 PUSH1 0x4 DUP1 CALLDATASIZE SUB PUSH2 0x3B4 SWAP2 SWAP1 DUP2 ADD SWAP1 PUSH2 0x2BA0 JUMP JUMPDEST PUSH2 0x1B90 JUMP JUMPDEST PUSH1 0x40 MLOAD PUSH2 0x3C6 SWAP2 SWAP1 PUSH2 0x4D7B JUMP JUMPDEST PUSH1 0x40 MLOAD DUP1 SWAP2 SUB SWAP1 RETURN JUMPDEST CALLVALUE DUP1 ISZERO PUSH2 0x3DB JUMPI PUSH1 0x0 DUP1 REVERT JUMPDEST POP PUSH2 0x3F6 PUSH1 0x4 DUP1 CALLDATASIZE SUB PUSH2 0x3F1 SWAP2 SWAP1 DUP2 ADD SWAP1 PUSH2 0x3233 JUMP JUMPDEST PUSH2 0x1E47 JUMP JUMPDEST STOP JUMPDEST CALLVALUE DUP1 ISZERO PUSH2 0x404 JUMPI PUSH1 0x0 DUP1 REVERT JUMPDEST POP PUSH2 0x41F PUSH1 0x4 DUP1 CALLDATASIZE SUB PUSH2 0x41A SWAP2 SWAP1 DUP2 ADD SWAP1 PUSH2 0x34A3 JUMP JUMPDEST PUSH2 0x1FF7 JUMP JUMPDEST STOP JUMPDEST CALLVALUE DUP1 ISZERO PUSH2 0x42D JUMPI PUSH1 0x0 DUP1 REVERT JUMPDEST POP PUSH2 0x448 PUSH1 0x4 DUP1 CALLDATASIZE SUB PUSH2 0x443 SWAP2 SWAP1 DUP2 ADD SWAP1 PUSH2 0x2A8E JUMP JUMPDEST PUSH2 0x21AC JUMP JUMPDEST PUSH1 0x40 MLOAD PUSH2 0x455 SWAP2 SWAP1 PUSH2 0x4D7B JUMP JUMPDEST PUSH1 0x40 MLOAD DUP1 SWAP2 SUB SWAP1 RETURN JUMPDEST CALLVALUE DUP1 ISZERO PUSH2 0x46A JUMPI PUSH1 0x0 DUP1 REVERT JUMPDEST POP PUSH2 0x485 PUSH1 0x4 DUP1 CALLDATASIZE SUB PUSH2 0x480 SWAP2 SWAP1 DUP2 ADD SWAP1 PUSH2 0x2CC6 JUMP JUMPDEST PUSH2 0x2390 JUMP JUMPDEST STOP JUMPDEST CALLVALUE DUP1 ISZERO PUSH2 0x493 JUMPI PUSH1 0x0 DUP1 REVERT JUMPDEST POP PUSH2 0x4AE PUSH1 0x4 DUP1 CALLDATASIZE SUB PUSH2 0x4A9 SWAP2 SWAP1 DUP2 ADD SWAP1 PUSH2 0x32DA JUMP JUMPDEST PUSH2 0x2540 JUMP JUMPDEST STOP JUMPDEST PUSH1 0x0 ADDRESS DUP8 DUP8 DUP8 DUP8 DUP8 DUP8 PUSH1 0x40 MLOAD PUSH1 0x20 ADD PUSH2 0x4CF SWAP8 SWAP7 SWAP6 SWAP5 SWAP4 SWAP3 SWAP2 SWAP1 PUSH2 0x46B2 JUMP JUMPDEST PUSH1 0x40 MLOAD PUSH1 0x20 DUP2 DUP4 SUB SUB DUP2 MSTORE SWAP1 PUSH1 0x40 MSTORE DUP1 MLOAD SWAP1 PUSH1 0x20 ADD KECCAK256 SWAP1 POP PUSH1 0x0 PUSH2 0x4F3 DUP3 DUP11 PUSH2 0x26F0 JUMP JUMPDEST SWAP1 POP PUSH1 0x0 PUSH20 0xFFFFFFFFFFFFFFFFFFFFFFFFFFFFFFFFFFFFFFFF AND DUP2 PUSH20 0xFFFFFFFFFFFFFFFFFFFFFFFFFFFFFFFFFFFFFFFF AND EQ ISZERO PUSH2 0x52F JUMPI PUSH1 0x0 DUP1 REVERT JUMPDEST PUSH1 0x1 PUSH1 0x0 DUP3 PUSH20 0xFFFFFFFFFFFFFFFFFFFFFFFFFFFFFFFFFFFFFFFF AND PUSH20 0xFFFFFFFFFFFFFFFFFFFFFFFFFFFFFFFFFFFFFFFF AND DUP2 MSTORE PUSH1 0x20 ADD SWAP1 DUP2 MSTORE PUSH1 0x20 ADD PUSH1 0x0 KECCAK256 SLOAD DUP4 EQ PUSH2 0x57A JUMPI PUSH1 0x0 DUP1 REVERT JUMPDEST PUSH1 0x1 PUSH1 0x0 DUP3 PUSH20 0xFFFFFFFFFFFFFFFFFFFFFFFFFFFFFFFFFFFFFFFF AND PUSH20 0xFFFFFFFFFFFFFFFFFFFFFFFFFFFFFFFFFFFFFFFF AND DUP2 MSTORE PUSH1 0x20 ADD SWAP1 DUP2 MSTORE PUSH1 0x20 ADD PUSH1 0x0 KECCAK256 PUSH1 0x0 DUP2 SLOAD DUP1 SWAP3 SWAP2 SWAP1 PUSH1 0x1 ADD SWAP2 SWAP1 POP SSTORE POP PUSH1 0x0 DUP1 SWAP1 SLOAD SWAP1 PUSH2 0x100 EXP SWAP1 DIV PUSH20 0xFFFFFFFFFFFFFFFFFFFFFFFFFFFFFFFFFFFFFFFF AND PUSH20 0xFFFFFFFFFFFFFFFFFFFFFFFFFFFFFFFFFFFFFFFF AND PUSH4 0xC22215B8 DUP3 DUP11 DUP11 DUP11 DUP11 DUP11 PUSH1 0x40 MLOAD DUP8 PUSH4 0xFFFFFFFF AND PUSH1 0xE0 SHL DUP2 MSTORE PUSH1 0x4 ADD PUSH2 0x62D SWAP7 SWAP6 SWAP5 SWAP4 SWAP3 SWAP2 SWAP1 PUSH2 0x48EB JUMP JUMPDEST PUSH1 0x0 PUSH1 0x40 MLOAD DUP1 DUP4 SUB DUP2 PUSH1 0x0 DUP8 DUP1 EXTCODESIZE ISZERO DUP1 ISZERO PUSH2 0x647 JUMPI PUSH1 0x0 DUP1 REVERT JUMPDEST POP GAS CALL ISZERO DUP1 ISZERO PUSH2 0x65B JUMPI RETURNDATASIZE PUSH1 0x0 DUP1 RETURNDATACOPY RETURNDATASIZE PUSH1 0x0 REVERT JUMPDEST POP POP POP POP POP POP POP POP POP POP POP POP POP JUMP JUMPDEST PUSH1 0x0 ADDRESS DUP7 DUP7 DUP7 DUP7 DUP7 PUSH1 0x40 MLOAD PUSH1 0x20 ADD PUSH2 0x687 SWAP7 SWAP6 SWAP5 SWAP4 SWAP3 SWAP2 SWAP1 PUSH2 0x474A JUMP JUMPDEST PUSH1 0x40 MLOAD PUSH1 0x20 DUP2 DUP4 SUB SUB DUP2 MSTORE SWAP1 PUSH1 0x40 MSTORE DUP1 MLOAD SWAP1 PUSH1 0x20 ADD KECCAK256 SWAP1 POP PUSH1 0x0 PUSH2 0x6AB DUP3 DUP10 PUSH2 0x26F0 JUMP JUMPDEST SWAP1 POP PUSH1 0x0 PUSH20 0xFFFFFFFFFFFFFFFFFFFFFFFFFFFFFFFFFFFFFFFF AND DUP2 PUSH20 0xFFFFFFFFFFFFFFFFFFFFFFFFFFFFFFFFFFFFFFFF AND EQ ISZERO PUSH2 0x6E7 JUMPI PUSH1 0x0 DUP1 REVERT JUMPDEST PUSH1 0x1 PUSH1 0x0 DUP3 PUSH20 0xFFFFFFFFFFFFFFFFFFFFFFFFFFFFFFFFFFFFFFFF AND PUSH20 0xFFFFFFFFFFFFFFFFFFFFFFFFFFFFFFFFFFFFFFFF AND DUP2 MSTORE PUSH1 0x20 ADD SWAP1 DUP2 MSTORE PUSH1 0x20 ADD PUSH1 0x0 KECCAK256 SLOAD DUP4 EQ PUSH2 0x732 JUMPI PUSH1 0x0 DUP1 REVERT JUMPDEST PUSH1 0x1 PUSH1 0x0 DUP3 PUSH20 0xFFFFFFFFFFFFFFFFFFFFFFFFFFFFFFFFFFFFFFFF AND PUSH20 0xFFFFFFFFFFFFFFFFFFFFFFFFFFFFFFFFFFFFFFFF AND DUP2 MSTORE PUSH1 0x20 ADD SWAP1 DUP2 MSTORE PUSH1 0x20 ADD PUSH1 0x0 KECCAK256 PUSH1 0x0 DUP2 SLOAD DUP1 SWAP3 SWAP2 SWAP1 PUSH1 0x1 ADD SWAP2 SWAP1 POP SSTORE POP PUSH1 0x0 DUP1 SWAP1 SLOAD SWAP1 PUSH2 0x100 EXP SWAP1 DIV PUSH20 0xFFFFFFFFFFFFFFFFFFFFFFFFFFFFFFFFFFFFFFFF AND PUSH20 0xFFFFFFFFFFFFFFFFFFFFFFFFFFFFFFFFFFFFFFFF AND PUSH4 0xC4960450 DUP3 DUP10 DUP10 DUP10 DUP10 PUSH1 0x40 MLOAD DUP7 PUSH4 0xFFFFFFFF AND PUSH1 0xE0 SHL DUP2 MSTORE PUSH1 0x4 ADD PUSH2 0x7E3 SWAP6 SWAP5 SWAP4 SWAP3 SWAP2 SWAP1 PUSH2 0x4B30 JUMP JUMPDEST PUSH1 0x0 PUSH1 0x40 MLOAD DUP1 DUP4 SUB DUP2 PUSH1 0x0 DUP8 DUP1 EXTCODESIZE ISZERO DUP1 ISZERO PUSH2 0x7FD JUMPI PUSH1 0x0 DUP1 REVERT JUMPDEST POP GAS CALL ISZERO DUP1 ISZERO PUSH2 0x811 JUMPI RETURNDATASIZE PUSH1 0x0 DUP1 RETURNDATACOPY RETURNDATASIZE PUSH1 0x0 REVERT JUMPDEST POP POP POP POP POP POP POP POP POP POP POP POP JUMP JUMPDEST PUSH1 0x0 ADDRESS DUP6 DUP6 DUP6 DUP6 PUSH1 0x40 MLOAD PUSH1 0x20 ADD PUSH2 0x83A SWAP6 SWAP5 SWAP4 SWAP3 SWAP2 SWAP1 PUSH2 0x42C7 JUMP JUMPDEST PUSH1 0x40 MLOAD PUSH1 0x20 DUP2 DUP4 SUB SUB DUP2 MSTORE SWAP1 PUSH1 0x40 MSTORE DUP1 MLOAD SWAP1 PUSH1 0x20 ADD KECCAK256 SWAP1 POP PUSH1 0x0 PUSH2 0x85E DUP3 DUP9 PUSH2 0x26F0 JUMP JUMPDEST SWAP1 POP PUSH1 0x0 PUSH20 0xFFFFFFFFFFFFFFFFFFFFFFFFFFFFFFFFFFFFFFFF AND DUP2 PUSH20 0xFFFFFFFFFFFFFFFFFFFFFFFFFFFFFFFFFFFFFFFF AND EQ ISZERO PUSH2 0x89A JUMPI PUSH1 0x0 DUP1 REVERT JUMPDEST PUSH1 0x1 PUSH1 0x0 DUP3 PUSH20 0xFFFFFFFFFFFFFFFFFFFFFFFFFFFFFFFFFFFFFFFF AND PUSH20 0xFFFFFFFFFFFFFFFFFFFFFFFFFFFFFFFFFFFFFFFF AND DUP2 MSTORE PUSH1 0x20 ADD SWAP1 DUP2 MSTORE PUSH1 0x20 ADD PUSH1 0x0 KECCAK256 SLOAD DUP4 EQ PUSH2 0x8E5 JUMPI PUSH1 0x0 DUP1 REVERT JUMPDEST PUSH1 0x1 PUSH1 0x0 DUP3 PUSH20 0xFFFFFFFFFFFFFFFFFFFFFFFFFFFFFFFFFFFFFFFF AND PUSH20 0xFFFFFFFFFFFFFFFFFFFFFFFFFFFFFFFFFFFFFFFF AND DUP2 MSTORE PUSH1 0x20 ADD SWAP1 DUP2 MSTORE PUSH1 0x20 ADD PUSH1 0x0 KECCAK256 PUSH1 0x0 DUP2 SLOAD DUP1 SWAP3 SWAP2 SWAP1 PUSH1 0x1 ADD SWAP2 SWAP1 POP SSTORE POP PUSH1 0x0 DUP1 SWAP1 SLOAD SWAP1 PUSH2 0x100 EXP SWAP1 DIV PUSH20 0xFFFFFFFFFFFFFFFFFFFFFFFFFFFFFFFFFFFFFFFF AND PUSH20 0xFFFFFFFFFFFFFFFFFFFFFFFFFFFFFFFFFFFFFFFF AND PUSH4 0x7EF8213C DUP3 DUP9 DUP9 DUP9 PUSH1 0x40 MLOAD DUP6 PUSH4 0xFFFFFFFF AND PUSH1 0xE0 SHL DUP2 MSTORE PUSH1 0x4 ADD PUSH2 0x994 SWAP5 SWAP4 SWAP3 SWAP2 SWAP1 PUSH2 0x4BDD JUMP JUMPDEST PUSH1 0x0 PUSH1 0x40 MLOAD DUP1 DUP4 SUB DUP2 PUSH1 0x0 DUP8 DUP1 EXTCODESIZE ISZERO DUP1 ISZERO PUSH2 0x9AE JUMPI PUSH1 0x0 DUP1 REVERT JUMPDEST POP GAS CALL ISZERO DUP1 ISZERO PUSH2 0x9C2 JUMPI RETURNDATASIZE PUSH1 0x0 DUP1 RETURNDATACOPY RETURNDATASIZE PUSH1 0x0 REVERT JUMPDEST POP POP POP POP POP POP POP POP POP POP POP JUMP JUMPDEST PUSH1 0x0 ADDRESS DUP6 DUP6 DUP6 DUP6 PUSH1 0x40 MLOAD PUSH1 0x20 ADD PUSH2 0x9EA SWAP6 SWAP5 SWAP4 SWAP3 SWAP2 SWAP1 PUSH2 0x444F JUMP JUMPDEST PUSH1 0x40 MLOAD PUSH1 0x20 DUP2 DUP4 SUB SUB DUP2 MSTORE SWAP1 PUSH1 0x40 MSTORE DUP1 MLOAD SWAP1 PUSH1 0x20 ADD KECCAK256 SWAP1 POP PUSH1 0x0 PUSH2 0xA0E DUP3 DUP9 PUSH2 0x26F0 JUMP JUMPDEST SWAP1 POP PUSH1 0x0 PUSH20 0xFFFFFFFFFFFFFFFFFFFFFFFFFFFFFFFFFFFFFFFF AND DUP2 PUSH20 0xFFFFFFFFFFFFFFFFFFFFFFFFFFFFFFFFFFFFFFFF AND EQ ISZERO PUSH2 0xA4A JUMPI PUSH1 0x0 DUP1 REVERT JUMPDEST PUSH1 0x1 PUSH1 0x0 DUP3 PUSH20 0xFFFFFFFFFFFFFFFFFFFFFFFFFFFFFFFFFFFFFFFF AND PUSH20 0xFFFFFFFFFFFFFFFFFFFFFFFFFFFFFFFFFFFFFFFF AND DUP2 MSTORE PUSH1 0x20 ADD SWAP1 DUP2 MSTORE PUSH1 0x20 ADD PUSH1 0x0 KECCAK256 SLOAD DUP4 EQ PUSH2 0xA95 JUMPI PUSH1 0x0 DUP1 REVERT JUMPDEST PUSH1 0x1 PUSH1 0x0 DUP3 PUSH20 0xFFFFFFFFFFFFFFFFFFFFFFFFFFFFFFFFFFFFFFFF AND PUSH20 0xFFFFFFFFFFFFFFFFFFFFFFFFFFFFFFFFFFFFFFFF AND DUP2 MSTORE PUSH1 0x20 ADD SWAP1 DUP2 MSTORE PUSH1 0x20 ADD PUSH1 0x0 KECCAK256 PUSH1 0x0 DUP2 SLOAD DUP1 SWAP3 SWAP2 SWAP1 PUSH1 0x1 ADD SWAP2 SWAP1 POP SSTORE POP PUSH1 0x0 DUP1 SWAP1 SLOAD SWAP1 PUSH2 0x100 EXP SWAP1 DIV PUSH20 0xFFFFFFFFFFFFFFFFFFFFFFFFFFFFFFFFFFFFFFFF AND PUSH20 0xFFFFFFFFFFFFFFFFFFFFFFFFFFFFFFFFFFFFFFFF AND PUSH4 0xAA17AAEF DUP3 DUP9 DUP9 DUP9 PUSH1 0x40 MLOAD DUP6 PUSH4 0xFFFFFFFF AND PUSH1 0xE0 SHL DUP2 MSTORE PUSH1 0x4 ADD PUSH2 0xB44 SWAP5 SWAP4 SWAP3 SWAP2 SWAP1 PUSH2 0x4C29 JUMP JUMPDEST PUSH1 0x0 PUSH1 0x40 MLOAD DUP1 DUP4 SUB DUP2 PUSH1 0x0 DUP8 DUP1 EXTCODESIZE ISZERO DUP1 ISZERO PUSH2 0xB5E JUMPI PUSH1 0x0 DUP1 REVERT JUMPDEST POP GAS CALL ISZERO DUP1 ISZERO PUSH2 0xB72 JUMPI RETURNDATASIZE PUSH1 0x0 DUP1 RETURNDATACOPY RETURNDATASIZE PUSH1 0x0 REVERT JUMPDEST POP POP POP POP POP POP POP POP POP POP POP JUMP JUMPDEST PUSH1 0x0 ADDRESS DUP9 DUP9 DUP9 DUP9 DUP9 DUP9 DUP9 PUSH1 0x40 MLOAD PUSH1 0x20 ADD PUSH2 0xBA0 SWAP9 SWAP8 SWAP7 SWAP6 SWAP5 SWAP4 SWAP3 SWAP2 SWAP1 PUSH2 0x3FAE JUMP JUMPDEST PUSH1 0x40 MLOAD PUSH1 0x20 DUP2 DUP4 SUB SUB DUP2 MSTORE SWAP1 PUSH1 0x40 MSTORE DUP1 MLOAD SWAP1 PUSH1 0x20 ADD KECCAK256 SWAP1 POP PUSH1 0x0 PUSH2 0xBC4 DUP3 DUP12 PUSH2 0x26F0 JUMP JUMPDEST SWAP1 POP PUSH1 0x0 PUSH20 0xFFFFFFFFFFFFFFFFFFFFFFFFFFFFFFFFFFFFFFFF AND DUP2 PUSH20 0xFFFFFFFFFFFFFFFFFFFFFFFFFFFFFFFFFFFFFFFF AND EQ ISZERO PUSH2 0xC00 JUMPI PUSH1 0x0 DUP1 REVERT JUMPDEST PUSH1 0x1 PUSH1 0x0 DUP3 PUSH20 0xFFFFFFFFFFFFFFFFFFFFFFFFFFFFFFFFFFFFFFFF AND PUSH20 0xFFFFFFFFFFFFFFFFFFFFFFFFFFFFFFFFFFFFFFFF AND DUP2 MSTORE PUSH1 0x20 ADD SWAP1 DUP2 MSTORE PUSH1 0x20 ADD PUSH1 0x0 KECCAK256 SLOAD DUP4 EQ PUSH2 0xC4B JUMPI PUSH1 0x0 DUP1 REVERT JUMPDEST PUSH1 0x1 PUSH1 0x0 DUP3 PUSH20 0xFFFFFFFFFFFFFFFFFFFFFFFFFFFFFFFFFFFFFFFF AND PUSH20 0xFFFFFFFFFFFFFFFFFFFFFFFFFFFFFFFFFFFFFFFF AND DUP2 MSTORE PUSH1 0x20 ADD SWAP1 DUP2 MSTORE PUSH1 0x20 ADD PUSH1 0x0 KECCAK256 PUSH1 0x0 DUP2 SLOAD DUP1 SWAP3 SWAP2 SWAP1 PUSH1 0x1 ADD SWAP2 SWAP1 POP SSTORE POP PUSH1 0x0 DUP1 SWAP1 SLOAD SWAP1 PUSH2 0x100 EXP SWAP1 DIV PUSH20 0xFFFFFFFFFFFFFFFFFFFFFFFFFFFFFFFFFFFFFFFF AND PUSH20 0xFFFFFFFFFFFFFFFFFFFFFFFFFFFFFFFFFFFFFFFF AND PUSH4 0xB178D768 DUP3 DUP12 DUP12 DUP12 DUP12 DUP12 DUP12 PUSH1 0x40 MLOAD DUP9 PUSH4 0xFFFFFFFF AND PUSH1 0xE0 SHL DUP2 MSTORE PUSH1 0x4 ADD PUSH2 0xD00 SWAP8 SWAP7 SWAP6 SWAP5 SWAP4 SWAP3 SWAP2 SWAP1 PUSH2 0x4AAC JUMP JUMPDEST PUSH1 0x0 PUSH1 0x40 MLOAD DUP1 DUP4 SUB DUP2 PUSH1 0x0 DUP8 DUP1 EXTCODESIZE ISZERO DUP1 ISZERO PUSH2 0xD1A JUMPI PUSH1 0x0 DUP1 REVERT JUMPDEST POP GAS CALL ISZERO DUP1 ISZERO PUSH2 0xD2E JUMPI RETURNDATASIZE PUSH1 0x0 DUP1 RETURNDATACOPY RETURNDATASIZE PUSH1 0x0 REVERT JUMPDEST POP POP POP POP POP POP POP POP POP POP POP POP POP POP JUMP JUMPDEST PUSH1 0x0 ADDRESS DUP5 DUP5 DUP5 PUSH1 0x40 MLOAD PUSH1 0x20 ADD PUSH2 0xD57 SWAP5 SWAP4 SWAP3 SWAP2 SWAP1 PUSH2 0x41FB JUMP JUMPDEST PUSH1 0x40 MLOAD PUSH1 0x20 DUP2 DUP4 SUB SUB DUP2 MSTORE SWAP1 PUSH1 0x40 MSTORE DUP1 MLOAD SWAP1 PUSH1 0x20 ADD KECCAK256 SWAP1 POP PUSH1 0x0 PUSH2 0xD7B DUP3 DUP8 PUSH2 0x26F0 JUMP JUMPDEST SWAP1 POP PUSH1 0x0 PUSH20 0xFFFFFFFFFFFFFFFFFFFFFFFFFFFFFFFFFFFFFFFF AND DUP2 PUSH20 0xFFFFFFFFFFFFFFFFFFFFFFFFFFFFFFFFFFFFFFFF AND EQ ISZERO PUSH2 0xDB7 JUMPI PUSH1 0x0 DUP1 REVERT JUMPDEST PUSH1 0x1 PUSH1 0x0 DUP3 PUSH20 0xFFFFFFFFFFFFFFFFFFFFFFFFFFFFFFFFFFFFFFFF AND PUSH20 0xFFFFFFFFFFFFFFFFFFFFFFFFFFFFFFFFFFFFFFFF AND DUP2 MSTORE PUSH1 0x20 ADD SWAP1 DUP2 MSTORE PUSH1 0x20 ADD PUSH1 0x0 KECCAK256 SLOAD DUP4 EQ PUSH2 0xE02 JUMPI PUSH1 0x0 DUP1 REVERT JUMPDEST PUSH1 0x1 PUSH1 0x0 DUP3 PUSH20 0xFFFFFFFFFFFFFFFFFFFFFFFFFFFFFFFFFFFFFFFF AND PUSH20 0xFFFFFFFFFFFFFFFFFFFFFFFFFFFFFFFFFFFFFFFF AND DUP2 MSTORE PUSH1 0x20 ADD SWAP1 DUP2 MSTORE PUSH1 0x20 ADD PUSH1 0x0 KECCAK256 PUSH1 0x0 DUP2 SLOAD DUP1 SWAP3 SWAP2 SWAP1 PUSH1 0x1 ADD SWAP2 SWAP1 POP SSTORE POP PUSH1 0x0 CALLVALUE GT ISZERO PUSH2 0xEF0 JUMPI PUSH1 0x0 DUP1 SWAP1 SLOAD SWAP1 PUSH2 0x100 EXP SWAP1 DIV PUSH20 0xFFFFFFFFFFFFFFFFFFFFFFFFFFFFFFFFFFFFFFFF AND PUSH20 0xFFFFFFFFFFFFFFFFFFFFFFFFFFFFFFFFFFFFFFFF AND PUSH4 0xA08F793C CALLVALUE DUP4 DUP9 DUP9 PUSH1 0x40 MLOAD DUP6 PUSH4 0xFFFFFFFF AND PUSH1 0xE0 SHL DUP2 MSTORE PUSH1 0x4 ADD PUSH2 0xEB9 SWAP4 SWAP3 SWAP2 SWAP1 PUSH2 0x3F2B JUMP JUMPDEST PUSH1 0x0 PUSH1 0x40 MLOAD DUP1 DUP4 SUB DUP2 DUP6 DUP9 DUP1 EXTCODESIZE ISZERO DUP1 ISZERO PUSH2 0xED2 JUMPI PUSH1 0x0 DUP1 REVERT JUMPDEST POP GAS CALL ISZERO DUP1 ISZERO PUSH2 0xEE6 JUMPI RETURNDATASIZE PUSH1 0x0 DUP1 RETURNDATACOPY RETURNDATASIZE PUSH1 0x0 REVERT JUMPDEST POP POP POP POP POP PUSH2 0xF81 JUMP JUMPDEST PUSH1 0x0 DUP1 SWAP1 SLOAD SWAP1 PUSH2 0x100 EXP SWAP1 DIV PUSH20 0xFFFFFFFFFFFFFFFFFFFFFFFFFFFFFFFFFFFFFFFF AND PUSH20 0xFFFFFFFFFFFFFFFFFFFFFFFFFFFFFFFFFFFFFFFF AND PUSH4 0xA08F793C DUP3 DUP8 DUP8 PUSH1 0x40 MLOAD DUP5 PUSH4 0xFFFFFFFF AND PUSH1 0xE0 SHL DUP2 MSTORE PUSH1 0x4 ADD PUSH2 0xF4E SWAP4 SWAP3 SWAP2 SWAP1 PUSH2 0x3F2B JUMP JUMPDEST PUSH1 0x0 PUSH1 0x40 MLOAD DUP1 DUP4 SUB DUP2 PUSH1 0x0 DUP8 DUP1 EXTCODESIZE ISZERO DUP1 ISZERO PUSH2 0xF68 JUMPI PUSH1 0x0 DUP1 REVERT JUMPDEST POP GAS CALL ISZERO DUP1 ISZERO PUSH2 0xF7C JUMPI RETURNDATASIZE PUSH1 0x0 DUP1 RETURNDATACOPY RETURNDATASIZE PUSH1 0x0 REVERT JUMPDEST POP POP POP POP JUMPDEST POP POP POP POP POP POP JUMP JUMPDEST PUSH1 0x0 ADDRESS DUP5 DUP5 DUP5 PUSH1 0x40 MLOAD PUSH1 0x20 ADD PUSH2 0xFA2 SWAP5 SWAP4 SWAP3 SWAP2 SWAP1 PUSH2 0x419C JUMP JUMPDEST PUSH1 0x40 MLOAD PUSH1 0x20 DUP2 DUP4 SUB SUB DUP2 MSTORE SWAP1 PUSH1 0x40 MSTORE DUP1 MLOAD SWAP1 PUSH1 0x20 ADD KECCAK256 SWAP1 POP PUSH1 0x0 PUSH2 0xFC6 DUP3 DUP8 PUSH2 0x26F0 JUMP JUMPDEST SWAP1 POP PUSH1 0x0 PUSH20 0xFFFFFFFFFFFFFFFFFFFFFFFFFFFFFFFFFFFFFFFF AND DUP2 PUSH20 0xFFFFFFFFFFFFFFFFFFFFFFFFFFFFFFFFFFFFFFFF AND EQ ISZERO PUSH2 0x1002 JUMPI PUSH1 0x0 DUP1 REVERT JUMPDEST PUSH1 0x1 PUSH1 0x0 DUP3 PUSH20 0xFFFFFFFFFFFFFFFFFFFFFFFFFFFFFFFFFFFFFFFF AND PUSH20 0xFFFFFFFFFFFFFFFFFFFFFFFFFFFFFFFFFFFFFFFF AND DUP2 MSTORE PUSH1 0x20 ADD SWAP1 DUP2 MSTORE PUSH1 0x20 ADD PUSH1 0x0 KECCAK256 SLOAD DUP4 EQ PUSH2 0x104D JUMPI PUSH1 0x0 DUP1 REVERT JUMPDEST PUSH1 0x1 PUSH1 0x0 DUP3 PUSH20 0xFFFFFFFFFFFFFFFFFFFFFFFFFFFFFFFFFFFFFFFF AND PUSH20 0xFFFFFFFFFFFFFFFFFFFFFFFFFFFFFFFFFFFFFFFF AND DUP2 MSTORE PUSH1 0x20 ADD SWAP1 DUP2 MSTORE PUSH1 0x20 ADD PUSH1 0x0 KECCAK256 PUSH1 0x0 DUP2 SLOAD DUP1 SWAP3 SWAP2 SWAP1 PUSH1 0x1 ADD SWAP2 SWAP1 POP SSTORE POP PUSH1 0x0 DUP1 SWAP1 SLOAD SWAP1 PUSH2 0x100 EXP SWAP1 DIV PUSH20 0xFFFFFFFFFFFFFFFFFFFFFFFFFFFFFFFFFFFFFFFF AND PUSH20 0xFFFFFFFFFFFFFFFFFFFFFFFFFFFFFFFFFFFFFFFF AND PUSH4 0x4AC4E25A DUP3 DUP8 DUP8 PUSH1 0x40 MLOAD DUP5 PUSH4 0xFFFFFFFF AND PUSH1 0xE0 SHL DUP2 MSTORE PUSH1 0x4 ADD PUSH2 0x10FA SWAP4 SWAP3 SWAP2 SWAP1 PUSH2 0x499F JUMP JUMPDEST PUSH1 0x0 PUSH1 0x40 MLOAD DUP1 DUP4 SUB DUP2 PUSH1 0x0 DUP8 DUP1 EXTCODESIZE ISZERO DUP1 ISZERO PUSH2 0x1114 JUMPI PUSH1 0x0 DUP1 REVERT JUMPDEST POP GAS CALL ISZERO DUP1 ISZERO PUSH2 0x1128 JUMPI RETURNDATASIZE PUSH1 0x0 DUP1 RETURNDATACOPY RETURNDATASIZE PUSH1 0x0 REVERT JUMPDEST POP POP POP POP POP POP POP POP POP POP JUMP JUMPDEST PUSH1 0x0 ADDRESS DUP5 DUP5 DUP5 PUSH1 0x40 MLOAD PUSH1 0x20 ADD PUSH2 0x114D SWAP5 SWAP4 SWAP3 SWAP2 SWAP1 PUSH2 0x47CC JUMP JUMPDEST PUSH1 0x40 MLOAD PUSH1 0x20 DUP2 DUP4 SUB SUB DUP2 MSTORE SWAP1 PUSH1 0x40 MSTORE DUP1 MLOAD SWAP1 PUSH1 0x20 ADD KECCAK256 SWAP1 POP PUSH1 0x0 PUSH2 0x1171 DUP3 DUP8 PUSH2 0x26F0 JUMP JUMPDEST SWAP1 POP PUSH1 0x0 PUSH20 0xFFFFFFFFFFFFFFFFFFFFFFFFFFFFFFFFFFFFFFFF AND DUP2 PUSH20 0xFFFFFFFFFFFFFFFFFFFFFFFFFFFFFFFFFFFFFFFF AND EQ ISZERO PUSH2 0x11AD JUMPI PUSH1 0x0 DUP1 REVERT JUMPDEST PUSH1 0x1 PUSH1 0x0 DUP3 PUSH20 0xFFFFFFFFFFFFFFFFFFFFFFFFFFFFFFFFFFFFFFFF AND PUSH20 0xFFFFFFFFFFFFFFFFFFFFFFFFFFFFFFFFFFFFFFFF AND DUP2 MSTORE PUSH1 0x20 ADD SWAP1 DUP2 MSTORE PUSH1 0x20 ADD PUSH1 0x0 KECCAK256 SLOAD DUP4 EQ PUSH2 0x11F8 JUMPI PUSH1 0x0 DUP1 REVERT JUMPDEST PUSH1 0x1 PUSH1 0x0 DUP3 PUSH20 0xFFFFFFFFFFFFFFFFFFFFFFFFFFFFFFFFFFFFFFFF AND PUSH20 0xFFFFFFFFFFFFFFFFFFFFFFFFFFFFFFFFFFFFFFFF AND DUP2 MSTORE PUSH1 0x20 ADD SWAP1 DUP2 MSTORE PUSH1 0x20 ADD PUSH1 0x0 KECCAK256 PUSH1 0x0 DUP2 SLOAD DUP1 SWAP3 SWAP2 SWAP1 PUSH1 0x1 ADD SWAP2 SWAP1 POP SSTORE POP PUSH1 0x0 DUP1 SWAP1 SLOAD SWAP1 PUSH2 0x100 EXP SWAP1 DIV PUSH20 0xFFFFFFFFFFFFFFFFFFFFFFFFFFFFFFFFFFFFFFFF AND PUSH20 0xFFFFFFFFFFFFFFFFFFFFFFFFFFFFFFFFFFFFFFFF AND PUSH4 0xEDBA7013 DUP3 DUP8 DUP8 PUSH1 0x40 MLOAD DUP5 PUSH4 0xFFFFFFFF AND PUSH1 0xE0 SHL DUP2 MSTORE PUSH1 0x4 ADD PUSH2 0x12A5 SWAP4 SWAP3 SWAP2 SWAP1 PUSH2 0x4961 JUMP JUMPDEST PUSH1 0x0 PUSH1 0x40 MLOAD DUP1 DUP4 SUB DUP2 PUSH1 0x0 DUP8 DUP1 EXTCODESIZE ISZERO DUP1 ISZERO PUSH2 0x12BF JUMPI PUSH1 0x0 DUP1 REVERT JUMPDEST POP GAS CALL ISZERO DUP1 ISZERO PUSH2 0x12D3 JUMPI RETURNDATASIZE PUSH1 0x0 DUP1 RETURNDATACOPY RETURNDATASIZE PUSH1 0x0 REVERT JUMPDEST POP POP POP POP POP POP POP POP POP POP JUMP JUMPDEST PUSH1 0x1 PUSH1 0x20 MSTORE DUP1 PUSH1 0x0 MSTORE PUSH1 0x40 PUSH1 0x0 KECCAK256 PUSH1 0x0 SWAP2 POP SWAP1 POP SLOAD DUP2 JUMP JUMPDEST PUSH1 0x0 ADDRESS DUP7 DUP7 DUP7 DUP7 DUP7 PUSH1 0x40 MLOAD PUSH1 0x20 ADD PUSH2 0x1314 SWAP7 SWAP6 SWAP5 SWAP4 SWAP3 SWAP2 SWAP1 PUSH2 0x4581 JUMP JUMPDEST PUSH1 0x40 MLOAD PUSH1 0x20 DUP2 DUP4 SUB SUB DUP2 MSTORE SWAP1 PUSH1 0x40 MSTORE DUP1 MLOAD SWAP1 PUSH1 0x20 ADD KECCAK256 SWAP1 POP PUSH1 0x0 PUSH2 0x1338 DUP3 DUP10 PUSH2 0x26F0 JUMP JUMPDEST SWAP1 POP PUSH1 0x0 PUSH20 0xFFFFFFFFFFFFFFFFFFFFFFFFFFFFFFFFFFFFFFFF AND DUP2 PUSH20 0xFFFFFFFFFFFFFFFFFFFFFFFFFFFFFFFFFFFFFFFF AND EQ ISZERO PUSH2 0x1374 JUMPI PUSH1 0x0 DUP1 REVERT JUMPDEST PUSH1 0x1 PUSH1 0x0 DUP3 PUSH20 0xFFFFFFFFFFFFFFFFFFFFFFFFFFFFFFFFFFFFFFFF AND PUSH20 0xFFFFFFFFFFFFFFFFFFFFFFFFFFFFFFFFFFFFFFFF AND DUP2 MSTORE PUSH1 0x20 ADD SWAP1 DUP2 MSTORE PUSH1 0x20 ADD PUSH1 0x0 KECCAK256 SLOAD DUP4 EQ PUSH2 0x13BF JUMPI PUSH1 0x0 DUP1 REVERT JUMPDEST PUSH1 0x1 PUSH1 0x0 DUP3 PUSH20 0xFFFFFFFFFFFFFFFFFFFFFFFFFFFFFFFFFFFFFFFF AND PUSH20 0xFFFFFFFFFFFFFFFFFFFFFFFFFFFFFFFFFFFFFFFF AND DUP2 MSTORE PUSH1 0x20 ADD SWAP1 DUP2 MSTORE PUSH1 0x20 ADD PUSH1 0x0 KECCAK256 PUSH1 0x0 DUP2 SLOAD DUP1 SWAP3 SWAP2 SWAP1 PUSH1 0x1 ADD SWAP2 SWAP1 POP SSTORE POP PUSH1 0x0 DUP1 SWAP1 SLOAD SWAP1 PUSH2 0x100 EXP SWAP1 DIV PUSH20 0xFFFFFFFFFFFFFFFFFFFFFFFFFFFFFFFFFFFFFFFF AND PUSH20 0xFFFFFFFFFFFFFFFFFFFFFFFFFFFFFFFFFFFFFFFF AND PUSH3 0xF27E38 DUP3 DUP10 DUP10 DUP10 DUP10 PUSH1 0x40 MLOAD DUP7 PUSH4 0xFFFFFFFF AND PUSH1 0xE0 SHL DUP2 MSTORE PUSH1 0x4 ADD PUSH2 0x146F SWAP6 SWAP5 SWAP4 SWAP3 SWAP2 SWAP1 PUSH2 0x4CC1 JUMP JUMPDEST PUSH1 0x0 PUSH1 0x40 MLOAD DUP1 DUP4 SUB DUP2 PUSH1 0x0 DUP8 DUP1 EXTCODESIZE ISZERO DUP1 ISZERO PUSH2 0x1489 JUMPI PUSH1 0x0 DUP1 REVERT JUMPDEST POP GAS CALL ISZERO DUP1 ISZERO PUSH2 0x149D JUMPI RETURNDATASIZE PUSH1 0x0 DUP1 RETURNDATACOPY RETURNDATASIZE PUSH1 0x0 REVERT JUMPDEST POP POP POP POP POP POP POP POP POP POP POP POP JUMP JUMPDEST PUSH1 0x0 ADDRESS DUP6 DUP6 DUP6 DUP6 PUSH1 0x40 MLOAD PUSH1 0x20 ADD PUSH2 0x14C6 SWAP6 SWAP5 SWAP4 SWAP3 SWAP2 SWAP1 PUSH2 0x4055 JUMP JUMPDEST PUSH1 0x40 MLOAD PUSH1 0x20 DUP2 DUP4 SUB SUB DUP2 MSTORE SWAP1 PUSH1 0x40 MSTORE DUP1 MLOAD SWAP1 PUSH1 0x20 ADD KECCAK256 SWAP1 POP PUSH1 0x0 PUSH2 0x14EA DUP3 DUP9 PUSH2 0x26F0 JUMP JUMPDEST SWAP1 POP PUSH1 0x0 PUSH20 0xFFFFFFFFFFFFFFFFFFFFFFFFFFFFFFFFFFFFFFFF AND DUP2 PUSH20 0xFFFFFFFFFFFFFFFFFFFFFFFFFFFFFFFFFFFFFFFF AND EQ ISZERO PUSH2 0x1526 JUMPI PUSH1 0x0 DUP1 REVERT JUMPDEST PUSH1 0x1 PUSH1 0x0 DUP3 PUSH20 0xFFFFFFFFFFFFFFFFFFFFFFFFFFFFFFFFFFFFFFFF AND PUSH20 0xFFFFFFFFFFFFFFFFFFFFFFFFFFFFFFFFFFFFFFFF AND DUP2 MSTORE PUSH1 0x20 ADD SWAP1 DUP2 MSTORE PUSH1 0x20 ADD PUSH1 0x0 KECCAK256 SLOAD DUP4 EQ PUSH2 0x1571 JUMPI PUSH1 0x0 DUP1 REVERT JUMPDEST PUSH1 0x1 PUSH1 0x0 DUP3 PUSH20 0xFFFFFFFFFFFFFFFFFFFFFFFFFFFFFFFFFFFFFFFF AND PUSH20 0xFFFFFFFFFFFFFFFFFFFFFFFFFFFFFFFFFFFFFFFF AND DUP2 MSTORE PUSH1 0x20 ADD SWAP1 DUP2 MSTORE PUSH1 0x20 ADD PUSH1 0x0 KECCAK256 PUSH1 0x0 DUP2 SLOAD DUP1 SWAP3 SWAP2 SWAP1 PUSH1 0x1 ADD SWAP2 SWAP1 POP SSTORE POP PUSH1 0x0 DUP1 SWAP1 SLOAD SWAP1 PUSH2 0x100 EXP SWAP1 DIV PUSH20 0xFFFFFFFFFFFFFFFFFFFFFFFFFFFFFFFFFFFFFFFF AND PUSH20 0xFFFFFFFFFFFFFFFFFFFFFFFFFFFFFFFFFFFFFFFF AND PUSH4 0x4DAF1BB5 DUP3 DUP9 DUP9 DUP9 PUSH1 0x40 MLOAD DUP6 PUSH4 0xFFFFFFFF AND PUSH1 0xE0 SHL DUP2 MSTORE PUSH1 0x4 ADD PUSH2 0x1620 SWAP5 SWAP4 SWAP3 SWAP2 SWAP1 PUSH2 0x4A14 JUMP JUMPDEST PUSH1 0x0 PUSH1 0x40 MLOAD DUP1 DUP4 SUB DUP2 PUSH1 0x0 DUP8 DUP1 EXTCODESIZE ISZERO DUP1 ISZERO PUSH2 0x163A JUMPI PUSH1 0x0 DUP1 REVERT JUMPDEST POP GAS CALL ISZERO DUP1 ISZERO PUSH2 0x164E JUMPI RETURNDATASIZE PUSH1 0x0 DUP1 RETURNDATACOPY RETURNDATASIZE PUSH1 0x0 REVERT JUMPDEST POP POP POP POP POP POP POP POP POP POP POP JUMP JUMPDEST PUSH1 0x0 ADDRESS DUP5 DUP5 DUP5 PUSH1 0x40 MLOAD PUSH1 0x20 ADD PUSH2 0x1674 SWAP5 SWAP4 SWAP3 SWAP2 SWAP1 PUSH2 0x4529 JUMP JUMPDEST PUSH1 0x40 MLOAD PUSH1 0x20 DUP2 DUP4 SUB SUB DUP2 MSTORE SWAP1 PUSH1 0x40 MSTORE DUP1 MLOAD SWAP1 PUSH1 0x20 ADD KECCAK256 SWAP1 POP PUSH1 0x0 PUSH2 0x1698 DUP3 DUP8 PUSH2 0x26F0 JUMP JUMPDEST SWAP1 POP PUSH1 0x0 PUSH20 0xFFFFFFFFFFFFFFFFFFFFFFFFFFFFFFFFFFFFFFFF AND DUP2 PUSH20 0xFFFFFFFFFFFFFFFFFFFFFFFFFFFFFFFFFFFFFFFF AND EQ ISZERO PUSH2 0x16D4 JUMPI PUSH1 0x0 DUP1 REVERT JUMPDEST PUSH1 0x1 PUSH1 0x0 DUP3 PUSH20 0xFFFFFFFFFFFFFFFFFFFFFFFFFFFFFFFFFFFFFFFF AND PUSH20 0xFFFFFFFFFFFFFFFFFFFFFFFFFFFFFFFFFFFFFFFF AND DUP2 MSTORE PUSH1 0x20 ADD SWAP1 DUP2 MSTORE PUSH1 0x20 ADD PUSH1 0x0 KECCAK256 SLOAD DUP4 EQ PUSH2 0x171F JUMPI PUSH1 0x0 DUP1 REVERT JUMPDEST PUSH1 0x1 PUSH1 0x0 DUP3 PUSH20 0xFFFFFFFFFFFFFFFFFFFFFFFFFFFFFFFFFFFFFFFF AND PUSH20 0xFFFFFFFFFFFFFFFFFFFFFFFFFFFFFFFFFFFFFFFF AND DUP2 MSTORE PUSH1 0x20 ADD SWAP1 DUP2 MSTORE PUSH1 0x20 ADD PUSH1 0x0 KECCAK256 PUSH1 0x0 DUP2 SLOAD DUP1 SWAP3 SWAP2 SWAP1 PUSH1 0x1 ADD SWAP2 SWAP1 POP SSTORE POP PUSH1 0x0 DUP1 SWAP1 SLOAD SWAP1 PUSH2 0x100 EXP SWAP1 DIV PUSH20 0xFFFFFFFFFFFFFFFFFFFFFFFFFFFFFFFFFFFFFFFF AND PUSH20 0xFFFFFFFFFFFFFFFFFFFFFFFFFFFFFFFFFFFFFFFF AND PUSH4 0x93C1CCC9 DUP3 DUP8 DUP8 PUSH1 0x40 MLOAD DUP5 PUSH4 0xFFFFFFFF AND PUSH1 0xE0 SHL DUP2 MSTORE PUSH1 0x4 ADD PUSH2 0x17CC SWAP4 SWAP3 SWAP2 SWAP1 PUSH2 0x49DD JUMP JUMPDEST PUSH1 0x0 PUSH1 0x40 MLOAD DUP1 DUP4 SUB DUP2 PUSH1 0x0 DUP8 DUP1 EXTCODESIZE ISZERO DUP1 ISZERO PUSH2 0x17E6 JUMPI PUSH1 0x0 DUP1 REVERT JUMPDEST POP GAS CALL ISZERO DUP1 ISZERO PUSH2 0x17FA JUMPI RETURNDATASIZE PUSH1 0x0 DUP1 RETURNDATACOPY RETURNDATASIZE PUSH1 0x0 REVERT JUMPDEST POP POP POP POP POP POP POP POP POP POP JUMP JUMPDEST PUSH1 0x0 DUP1 SWAP1 SLOAD SWAP1 PUSH2 0x100 EXP SWAP1 DIV PUSH20 0xFFFFFFFFFFFFFFFFFFFFFFFFFFFFFFFFFFFFFFFF AND DUP2 JUMP JUMPDEST PUSH1 0x0 ADDRESS DUP7 DUP7 DUP7 DUP7 DUP7 PUSH1 0x40 MLOAD PUSH1 0x20 ADD PUSH2 0x1848 SWAP7 SWAP6 SWAP5 SWAP4 SWAP3 SWAP2 SWAP1 PUSH2 0x44B5 JUMP JUMPDEST PUSH1 0x40 MLOAD PUSH1 0x20 DUP2 DUP4 SUB SUB DUP2 MSTORE SWAP1 PUSH1 0x40 MSTORE DUP1 MLOAD SWAP1 PUSH1 0x20 ADD KECCAK256 SWAP1 POP PUSH1 0x0 PUSH2 0x186C DUP3 DUP10 PUSH2 0x26F0 JUMP JUMPDEST SWAP1 POP PUSH1 0x0 PUSH20 0xFFFFFFFFFFFFFFFFFFFFFFFFFFFFFFFFFFFFFFFF AND DUP2 PUSH20 0xFFFFFFFFFFFFFFFFFFFFFFFFFFFFFFFFFFFFFFFF AND EQ ISZERO PUSH2 0x18A8 JUMPI PUSH1 0x0 DUP1 REVERT JUMPDEST PUSH1 0x1 PUSH1 0x0 DUP3 PUSH20 0xFFFFFFFFFFFFFFFFFFFFFFFFFFFFFFFFFFFFFFFF AND PUSH20 0xFFFFFFFFFFFFFFFFFFFFFFFFFFFFFFFFFFFFFFFF AND DUP2 MSTORE PUSH1 0x20 ADD SWAP1 DUP2 MSTORE PUSH1 0x20 ADD PUSH1 0x0 KECCAK256 SLOAD DUP4 EQ PUSH2 0x18F3 JUMPI PUSH1 0x0 DUP1 REVERT JUMPDEST PUSH1 0x1 PUSH1 0x0 DUP3 PUSH20 0xFFFFFFFFFFFFFFFFFFFFFFFFFFFFFFFFFFFFFFFF AND PUSH20 0xFFFFFFFFFFFFFFFFFFFFFFFFFFFFFFFFFFFFFFFF AND DUP2 MSTORE PUSH1 0x20 ADD SWAP1 DUP2 MSTORE PUSH1 0x20 ADD PUSH1 0x0 KECCAK256 PUSH1 0x0 DUP2 SLOAD DUP1 SWAP3 SWAP2 SWAP1 PUSH1 0x1 ADD SWAP2 SWAP1 POP SSTORE POP PUSH1 0x0 DUP1 SWAP1 SLOAD SWAP1 PUSH2 0x100 EXP SWAP1 DIV PUSH20 0xFFFFFFFFFFFFFFFFFFFFFFFFFFFFFFFFFFFFFFFF AND PUSH20 0xFFFFFFFFFFFFFFFFFFFFFFFFFFFFFFFFFFFFFFFF AND PUSH4 0x2092E259 DUP3 DUP10 DUP10 DUP10 DUP10 PUSH1 0x40 MLOAD DUP7 PUSH4 0xFFFFFFFF AND PUSH1 0xE0 SHL DUP2 MSTORE PUSH1 0x4 ADD PUSH2 0x19A4 SWAP6 SWAP5 SWAP4 SWAP3 SWAP2 SWAP1 PUSH2 0x4C6E JUMP JUMPDEST PUSH1 0x0 PUSH1 0x40 MLOAD DUP1 DUP4 SUB DUP2 PUSH1 0x0 DUP8 DUP1 EXTCODESIZE ISZERO DUP1 ISZERO PUSH2 0x19BE JUMPI PUSH1 0x0 DUP1 REVERT JUMPDEST POP GAS CALL ISZERO DUP1 ISZERO PUSH2 0x19D2 JUMPI RETURNDATASIZE PUSH1 0x0 DUP1 RETURNDATACOPY RETURNDATASIZE PUSH1 0x0 REVERT JUMPDEST POP POP POP POP POP POP POP POP POP POP POP POP JUMP JUMPDEST PUSH1 0x0 ADDRESS DUP6 DUP6 DUP6 DUP6 PUSH1 0x40 MLOAD PUSH1 0x20 ADD PUSH2 0x19FB SWAP6 SWAP5 SWAP4 SWAP3 SWAP2 SWAP1 PUSH2 0x40C2 JUMP JUMPDEST PUSH1 0x40 MLOAD PUSH1 0x20 DUP2 DUP4 SUB SUB DUP2 MSTORE SWAP1 PUSH1 0x40 MSTORE DUP1 MLOAD SWAP1 PUSH1 0x20 ADD KECCAK256 SWAP1 POP PUSH1 0x0 PUSH2 0x1A1F DUP3 DUP9 PUSH2 0x26F0 JUMP JUMPDEST SWAP1 POP PUSH1 0x0 PUSH20 0xFFFFFFFFFFFFFFFFFFFFFFFFFFFFFFFFFFFFFFFF AND DUP2 PUSH20 0xFFFFFFFFFFFFFFFFFFFFFFFFFFFFFFFFFFFFFFFF AND EQ ISZERO PUSH2 0x1A5B JUMPI PUSH1 0x0 DUP1 REVERT JUMPDEST PUSH1 0x1 PUSH1 0x0 DUP3 PUSH20 0xFFFFFFFFFFFFFFFFFFFFFFFFFFFFFFFFFFFFFFFF AND PUSH20 0xFFFFFFFFFFFFFFFFFFFFFFFFFFFFFFFFFFFFFFFF AND DUP2 MSTORE PUSH1 0x20 ADD SWAP1 DUP2 MSTORE PUSH1 0x20 ADD PUSH1 0x0 KECCAK256 SLOAD DUP4 EQ PUSH2 0x1AA6 JUMPI PUSH1 0x0 DUP1 REVERT JUMPDEST PUSH1 0x1 PUSH1 0x0 DUP3 PUSH20 0xFFFFFFFFFFFFFFFFFFFFFFFFFFFFFFFFFFFFFFFF AND PUSH20 0xFFFFFFFFFFFFFFFFFFFFFFFFFFFFFFFFFFFFFFFF AND DUP2 MSTORE PUSH1 0x20 ADD SWAP1 DUP2 MSTORE PUSH1 0x20 ADD PUSH1 0x0 KECCAK256 PUSH1 0x0 DUP2 SLOAD DUP1 SWAP3 SWAP2 SWAP1 PUSH1 0x1 ADD SWAP2 SWAP1 POP SSTORE POP PUSH1 0x0 DUP1 SWAP1 SLOAD SWAP1 PUSH2 0x100 EXP SWAP1 DIV PUSH20 0xFFFFFFFFFFFFFFFFFFFFFFFFFFFFFFFFFFFFFFFF AND PUSH20 0xFFFFFFFFFFFFFFFFFFFFFFFFFFFFFFFFFFFFFFFF AND PUSH4 0x3756F3C8 DUP3 DUP9 DUP9 DUP9 PUSH1 0x40 MLOAD DUP6 PUSH4 0xFFFFFFFF AND PUSH1 0xE0 SHL DUP2 MSTORE PUSH1 0x4 ADD PUSH2 0x1B55 SWAP5 SWAP4 SWAP3 SWAP2 SWAP1 PUSH2 0x3F62 JUMP JUMPDEST PUSH1 0x0 PUSH1 0x40 MLOAD DUP1 DUP4 SUB DUP2 PUSH1 0x0 DUP8 DUP1 EXTCODESIZE ISZERO DUP1 ISZERO PUSH2 0x1B6F JUMPI PUSH1 0x0 DUP1 REVERT JUMPDEST POP GAS CALL ISZERO DUP1 ISZERO PUSH2 0x1B83 JUMPI RETURNDATASIZE PUSH1 0x0 DUP1 RETURNDATACOPY RETURNDATASIZE PUSH1 0x0 REVERT JUMPDEST POP POP POP POP POP POP POP POP POP POP POP JUMP JUMPDEST PUSH1 0x0 DUP1 ADDRESS DUP11 DUP11 DUP11 DUP11 DUP11 DUP11 DUP11 DUP11 PUSH1 0x40 MLOAD PUSH1 0x20 ADD PUSH2 0x1BB4 SWAP10 SWAP9 SWAP8 SWAP7 SWAP6 SWAP5 SWAP4 SWAP3 SWAP2 SWAP1 PUSH2 0x45FC JUMP JUMPDEST PUSH1 0x40 MLOAD PUSH1 0x20 DUP2 DUP4 SUB SUB DUP2 MSTORE SWAP1 PUSH1 0x40 MSTORE DUP1 MLOAD SWAP1 PUSH1 0x20 ADD KECCAK256 SWAP1 POP PUSH1 0x0 PUSH2 0x1BD8 DUP3 DUP14 PUSH2 0x26F0 JUMP JUMPDEST SWAP1 POP PUSH1 0x0 PUSH20 0xFFFFFFFFFFFFFFFFFFFFFFFFFFFFFFFFFFFFFFFF AND DUP2 PUSH20 0xFFFFFFFFFFFFFFFFFFFFFFFFFFFFFFFFFFFFFFFF AND EQ ISZERO PUSH2 0x1C14 JUMPI PUSH1 0x0 DUP1 REVERT JUMPDEST PUSH1 0x1 PUSH1 0x0 DUP3 PUSH20 0xFFFFFFFFFFFFFFFFFFFFFFFFFFFFFFFFFFFFFFFF AND PUSH20 0xFFFFFFFFFFFFFFFFFFFFFFFFFFFFFFFFFFFFFFFF AND DUP2 MSTORE PUSH1 0x20 ADD SWAP1 DUP2 MSTORE PUSH1 0x20 ADD PUSH1 0x0 KECCAK256 SLOAD DUP5 EQ PUSH2 0x1C5F JUMPI PUSH1 0x0 DUP1 REVERT JUMPDEST PUSH1 0x1 PUSH1 0x0 DUP3 PUSH20 0xFFFFFFFFFFFFFFFFFFFFFFFFFFFFFFFFFFFFFFFF AND PUSH20 0xFFFFFFFFFFFFFFFFFFFFFFFFFFFFFFFFFFFFFFFF AND DUP2 MSTORE PUSH1 0x20 ADD SWAP1 DUP2 MSTORE PUSH1 0x20 ADD PUSH1 0x0 KECCAK256 PUSH1 0x0 DUP2 SLOAD DUP1 SWAP3 SWAP2 SWAP1 PUSH1 0x1 ADD SWAP2 SWAP1 POP SSTORE POP PUSH1 0x0 CALLVALUE GT ISZERO PUSH2 0x1D7B JUMPI PUSH1 0x0 DUP1 SWAP1 SLOAD SWAP1 PUSH2 0x100 EXP SWAP1 DIV PUSH20 0xFFFFFFFFFFFFFFFFFFFFFFFFFFFFFFFFFFFFFFFF AND PUSH20 0xFFFFFFFFFFFFFFFFFFFFFFFFFFFFFFFFFFFFFFFF AND PUSH4 0x6060AE3 CALLVALUE DUP4 DUP15 DUP15 DUP15 DUP15 DUP15 DUP15 DUP15 PUSH1 0x40 MLOAD DUP11 PUSH4 0xFFFFFFFF AND PUSH1 0xE0 SHL DUP2 MSTORE PUSH1 0x4 ADD PUSH2 0x1D20 SWAP9 SWAP8 SWAP7 SWAP6 SWAP5 SWAP4 SWAP3 SWAP2 SWAP1 PUSH2 0x3E98 JUMP JUMPDEST PUSH1 0x20 PUSH1 0x40 MLOAD DUP1 DUP4 SUB DUP2 DUP6 DUP9 DUP1 EXTCODESIZE ISZERO DUP1 ISZERO PUSH2 0x1D39 JUMPI PUSH1 0x0 DUP1 REVERT JUMPDEST POP GAS CALL ISZERO DUP1 ISZERO PUSH2 0x1D4D JUMPI RETURNDATASIZE PUSH1 0x0 DUP1 RETURNDATACOPY RETURNDATASIZE PUSH1 0x0 REVERT JUMPDEST POP POP POP POP POP PUSH1 0x40 MLOAD RETURNDATASIZE PUSH1 0x1F NOT PUSH1 0x1F DUP3 ADD AND DUP3 ADD DUP1 PUSH1 0x40 MSTORE POP PUSH2 0x1D72 SWAP2 SWAP1 DUP2 ADD SWAP1 PUSH2 0x368C JUMP JUMPDEST SWAP3 POP POP POP PUSH2 0x1E3A JUMP JUMPDEST PUSH1 0x0 DUP1 SWAP1 SLOAD SWAP1 PUSH2 0x100 EXP SWAP1 DIV PUSH20 0xFFFFFFFFFFFFFFFFFFFFFFFFFFFFFFFFFFFFFFFF AND PUSH20 0xFFFFFFFFFFFFFFFFFFFFFFFFFFFFFFFFFFFFFFFF AND PUSH4 0x6060AE3 DUP3 DUP14 DUP14 DUP14 DUP14 DUP14 DUP14 DUP14 PUSH1 0x40 MLOAD DUP10 PUSH4 0xFFFFFFFF AND PUSH1 0xE0 SHL DUP2 MSTORE PUSH1 0x4 ADD PUSH2 0x1DE3 SWAP9 SWAP8 SWAP7 SWAP6 SWAP5 SWAP4 SWAP3 SWAP2 SWAP1 PUSH2 0x3E98 JUMP JUMPDEST PUSH1 0x20 PUSH1 0x40 MLOAD DUP1 DUP4 SUB DUP2 PUSH1 0x0 DUP8 DUP1 EXTCODESIZE ISZERO DUP1 ISZERO PUSH2 0x1DFD JUMPI PUSH1 0x0 DUP1 REVERT JUMPDEST POP GAS CALL ISZERO DUP1 ISZERO PUSH2 0x1E11 JUMPI RETURNDATASIZE PUSH1 0x0 DUP1 RETURNDATACOPY RETURNDATASIZE PUSH1 0x0 REVERT JUMPDEST POP POP POP POP PUSH1 0x40 MLOAD RETURNDATASIZE PUSH1 0x1F NOT PUSH1 0x1F DUP3 ADD AND DUP3 ADD DUP1 PUSH1 0x40 MSTORE POP PUSH2 0x1E35 SWAP2 SWAP1 DUP2 ADD SWAP1 PUSH2 0x368C JUMP JUMPDEST SWAP3 POP POP POP JUMPDEST SWAP10 SWAP9 POP POP POP POP POP POP POP POP POP JUMP JUMPDEST PUSH1 0x0 ADDRESS DUP6 DUP6 DUP6 DUP6 PUSH1 0x40 MLOAD PUSH1 0x20 ADD PUSH2 0x1E62 SWAP6 SWAP5 SWAP4 SWAP3 SWAP2 SWAP1 PUSH2 0x482B JUMP JUMPDEST PUSH1 0x40 MLOAD PUSH1 0x20 DUP2 DUP4 SUB SUB DUP2 MSTORE SWAP1 PUSH1 0x40 MSTORE DUP1 MLOAD SWAP1 PUSH1 0x20 ADD KECCAK256 SWAP1 POP PUSH1 0x0 PUSH2 0x1E86 DUP3 DUP9 PUSH2 0x26F0 JUMP JUMPDEST SWAP1 POP PUSH1 0x0 PUSH20 0xFFFFFFFFFFFFFFFFFFFFFFFFFFFFFFFFFFFFFFFF AND DUP2 PUSH20 0xFFFFFFFFFFFFFFFFFFFFFFFFFFFFFFFFFFFFFFFF AND EQ ISZERO PUSH2 0x1EC2 JUMPI PUSH1 0x0 DUP1 REVERT JUMPDEST PUSH1 0x1 PUSH1 0x0 DUP3 PUSH20 0xFFFFFFFFFFFFFFFFFFFFFFFFFFFFFFFFFFFFFFFF AND PUSH20 0xFFFFFFFFFFFFFFFFFFFFFFFFFFFFFFFFFFFFFFFF AND DUP2 MSTORE PUSH1 0x20 ADD SWAP1 DUP2 MSTORE PUSH1 0x20 ADD PUSH1 0x0 KECCAK256 SLOAD DUP4 EQ PUSH2 0x1F0D JUMPI PUSH1 0x0 DUP1 REVERT JUMPDEST PUSH1 0x1 PUSH1 0x0 DUP3 PUSH20 0xFFFFFFFFFFFFFFFFFFFFFFFFFFFFFFFFFFFFFFFF AND PUSH20 0xFFFFFFFFFFFFFFFFFFFFFFFFFFFFFFFFFFFFFFFF AND DUP2 MSTORE PUSH1 0x20 ADD SWAP1 DUP2 MSTORE PUSH1 0x20 ADD PUSH1 0x0 KECCAK256 PUSH1 0x0 DUP2 SLOAD DUP1 SWAP3 SWAP2 SWAP1 PUSH1 0x1 ADD SWAP2 SWAP1 POP SSTORE POP PUSH1 0x0 DUP1 SWAP1 SLOAD SWAP1 PUSH2 0x100 EXP SWAP1 DIV PUSH20 0xFFFFFFFFFFFFFFFFFFFFFFFFFFFFFFFFFFFFFFFF AND PUSH20 0xFFFFFFFFFFFFFFFFFFFFFFFFFFFFFFFFFFFFFFFF AND PUSH4 0xC6A8B42B DUP3 DUP9 DUP9 DUP9 PUSH1 0x40 MLOAD DUP6 PUSH4 0xFFFFFFFF AND PUSH1 0xE0 SHL DUP2 MSTORE PUSH1 0x4 ADD PUSH2 0x1FBC SWAP5 SWAP4 SWAP3 SWAP2 SWAP1 PUSH2 0x4A60 JUMP JUMPDEST PUSH1 0x0 PUSH1 0x40 MLOAD DUP1 DUP4 SUB DUP2 PUSH1 0x0 DUP8 DUP1 EXTCODESIZE ISZERO DUP1 ISZERO PUSH2 0x1FD6 JUMPI PUSH1 0x0 DUP1 REVERT JUMPDEST POP GAS CALL ISZERO DUP1 ISZERO PUSH2 0x1FEA JUMPI RETURNDATASIZE PUSH1 0x0 DUP1 RETURNDATACOPY RETURNDATASIZE PUSH1 0x0 REVERT JUMPDEST POP POP POP POP POP POP POP POP POP POP POP JUMP JUMPDEST PUSH1 0x0 ADDRESS DUP7 DUP7 DUP7 DUP7 DUP7 PUSH1 0x40 MLOAD PUSH1 0x20 ADD PUSH2 0x2014 SWAP7 SWAP6 SWAP5 SWAP4 SWAP3 SWAP2 SWAP1 PUSH2 0x4253 JUMP JUMPDEST PUSH1 0x40 MLOAD PUSH1 0x20 DUP2 DUP4 SUB SUB DUP2 MSTORE SWAP1 PUSH1 0x40 MSTORE DUP1 MLOAD SWAP1 PUSH1 0x20 ADD KECCAK256 SWAP1 POP PUSH1 0x0 PUSH2 0x2038 DUP3 DUP10 PUSH2 0x26F0 JUMP JUMPDEST SWAP1 POP PUSH1 0x0 PUSH20 0xFFFFFFFFFFFFFFFFFFFFFFFFFFFFFFFFFFFFFFFF AND DUP2 PUSH20 0xFFFFFFFFFFFFFFFFFFFFFFFFFFFFFFFFFFFFFFFF AND EQ ISZERO PUSH2 0x2074 JUMPI PUSH1 0x0 DUP1 REVERT JUMPDEST PUSH1 0x1 PUSH1 0x0 DUP3 PUSH20 0xFFFFFFFFFFFFFFFFFFFFFFFFFFFFFFFFFFFFFFFF AND PUSH20 0xFFFFFFFFFFFFFFFFFFFFFFFFFFFFFFFFFFFFFFFF AND DUP2 MSTORE PUSH1 0x20 ADD SWAP1 DUP2 MSTORE PUSH1 0x20 ADD PUSH1 0x0 KECCAK256 SLOAD DUP4 EQ PUSH2 0x20BF JUMPI PUSH1 0x0 DUP1 REVERT JUMPDEST PUSH1 0x1 PUSH1 0x0 DUP3 PUSH20 0xFFFFFFFFFFFFFFFFFFFFFFFFFFFFFFFFFFFFFFFF AND PUSH20 0xFFFFFFFFFFFFFFFFFFFFFFFFFFFFFFFFFFFFFFFF AND DUP2 MSTORE PUSH1 0x20 ADD SWAP1 DUP2 MSTORE PUSH1 0x20 ADD PUSH1 0x0 KECCAK256 PUSH1 0x0 DUP2 SLOAD DUP1 SWAP3 SWAP2 SWAP1 PUSH1 0x1 ADD SWAP2 SWAP1 POP SSTORE POP PUSH1 0x0 DUP1 SWAP1 SLOAD SWAP1 PUSH2 0x100 EXP SWAP1 DIV PUSH20 0xFFFFFFFFFFFFFFFFFFFFFFFFFFFFFFFFFFFFFFFF AND PUSH20 0xFFFFFFFFFFFFFFFFFFFFFFFFFFFFFFFFFFFFFFFF AND PUSH4 0x9E64D9BF DUP3 DUP10 DUP10 DUP10 DUP10 PUSH1 0x40 MLOAD DUP7 PUSH4 0xFFFFFFFF AND PUSH1 0xE0 SHL DUP2 MSTORE PUSH1 0x4 ADD PUSH2 0x2170 SWAP6 SWAP5 SWAP4 SWAP3 SWAP2 SWAP1 PUSH2 0x4C6E JUMP JUMPDEST PUSH1 0x0 PUSH1 0x40 MLOAD DUP1 DUP4 SUB DUP2 PUSH1 0x0 DUP8 DUP1 EXTCODESIZE ISZERO DUP1 ISZERO PUSH2 0x218A JUMPI PUSH1 0x0 DUP1 REVERT JUMPDEST POP GAS CALL ISZERO DUP1 ISZERO PUSH2 0x219E JUMPI RETURNDATASIZE PUSH1 0x0 DUP1 RETURNDATACOPY RETURNDATASIZE PUSH1 0x0 REVERT JUMPDEST POP POP POP POP POP POP POP POP POP POP POP POP JUMP JUMPDEST PUSH1 0x0 DUP1 ADDRESS DUP10 DUP10 DUP10 DUP10 DUP10 DUP10 DUP10 PUSH1 0x40 MLOAD PUSH1 0x20 ADD PUSH2 0x21CE SWAP9 SWAP8 SWAP7 SWAP6 SWAP5 SWAP4 SWAP3 SWAP2 SWAP1 PUSH2 0x43A8 JUMP JUMPDEST PUSH1 0x40 MLOAD PUSH1 0x20 DUP2 DUP4 SUB SUB DUP2 MSTORE SWAP1 PUSH1 0x40 MSTORE DUP1 MLOAD SWAP1 PUSH1 0x20 ADD KECCAK256 SWAP1 POP PUSH1 0x0 PUSH2 0x21F2 DUP3 DUP13 PUSH2 0x26F0 JUMP JUMPDEST SWAP1 POP PUSH1 0x0 PUSH20 0xFFFFFFFFFFFFFFFFFFFFFFFFFFFFFFFFFFFFFFFF AND DUP2 PUSH20 0xFFFFFFFFFFFFFFFFFFFFFFFFFFFFFFFFFFFFFFFF AND EQ ISZERO PUSH2 0x222E JUMPI PUSH1 0x0 DUP1 REVERT JUMPDEST PUSH1 0x1 PUSH1 0x0 DUP3 PUSH20 0xFFFFFFFFFFFFFFFFFFFFFFFFFFFFFFFFFFFFFFFF AND PUSH20 0xFFFFFFFFFFFFFFFFFFFFFFFFFFFFFFFFFFFFFFFF AND DUP2 MSTORE PUSH1 0x20 ADD SWAP1 DUP2 MSTORE PUSH1 0x20 ADD PUSH1 0x0 KECCAK256 SLOAD DUP5 EQ PUSH2 0x2279 JUMPI PUSH1 0x0 DUP1 REVERT JUMPDEST PUSH1 0x1 PUSH1 0x0 DUP3 PUSH20 0xFFFFFFFFFFFFFFFFFFFFFFFFFFFFFFFFFFFFFFFF AND PUSH20 0xFFFFFFFFFFFFFFFFFFFFFFFFFFFFFFFFFFFFFFFF AND DUP2 MSTORE PUSH1 0x20 ADD SWAP1 DUP2 MSTORE PUSH1 0x20 ADD PUSH1 0x0 KECCAK256 PUSH1 0x0 DUP2 SLOAD DUP1 SWAP3 SWAP2 SWAP1 PUSH1 0x1 ADD SWAP2 SWAP1 POP SSTORE POP PUSH1 0x0 DUP1 SWAP1 SLOAD SWAP1 PUSH2 0x100 EXP SWAP1 DIV PUSH20 0xFFFFFFFFFFFFFFFFFFFFFFFFFFFFFFFFFFFFFFFF AND PUSH20 0xFFFFFFFFFFFFFFFFFFFFFFFFFFFFFFFFFFFFFFFF AND PUSH4 0x567B3D2E DUP3 DUP13 DUP13 DUP13 DUP13 DUP13 DUP13 PUSH1 0x40 MLOAD DUP9 PUSH4 0xFFFFFFFF AND PUSH1 0xE0 SHL DUP2 MSTORE PUSH1 0x4 ADD PUSH2 0x232E SWAP8 SWAP7 SWAP6 SWAP5 SWAP4 SWAP3 SWAP2 SWAP1 PUSH2 0x3E14 JUMP JUMPDEST PUSH1 0x20 PUSH1 0x40 MLOAD DUP1 DUP4 SUB DUP2 PUSH1 0x0 DUP8 DUP1 EXTCODESIZE ISZERO DUP1 ISZERO PUSH2 0x2348 JUMPI PUSH1 0x0 DUP1 REVERT JUMPDEST POP GAS CALL ISZERO DUP1 ISZERO PUSH2 0x235C JUMPI RETURNDATASIZE PUSH1 0x0 DUP1 RETURNDATACOPY RETURNDATASIZE PUSH1 0x0 REVERT JUMPDEST POP POP POP POP PUSH1 0x40 MLOAD RETURNDATASIZE PUSH1 0x1F NOT PUSH1 0x1F DUP3 ADD AND DUP3 ADD DUP1 PUSH1 0x40 MSTORE POP PUSH2 0x2380 SWAP2 SWAP1 DUP2 ADD SWAP1 PUSH2 0x368C JUMP JUMPDEST SWAP3 POP POP POP SWAP9 SWAP8 POP POP POP POP POP POP POP POP JUMP JUMPDEST PUSH1 0x0 ADDRESS DUP6 DUP6 DUP6 DUP6 PUSH1 0x40 MLOAD PUSH1 0x20 ADD PUSH2 0x23AB SWAP6 SWAP5 SWAP4 SWAP3 SWAP2 SWAP1 PUSH2 0x4334 JUMP JUMPDEST PUSH1 0x40 MLOAD PUSH1 0x20 DUP2 DUP4 SUB SUB DUP2 MSTORE SWAP1 PUSH1 0x40 MSTORE DUP1 MLOAD SWAP1 PUSH1 0x20 ADD KECCAK256 SWAP1 POP PUSH1 0x0 PUSH2 0x23CF DUP3 DUP9 PUSH2 0x26F0 JUMP JUMPDEST SWAP1 POP PUSH1 0x0 PUSH20 0xFFFFFFFFFFFFFFFFFFFFFFFFFFFFFFFFFFFFFFFF AND DUP2 PUSH20 0xFFFFFFFFFFFFFFFFFFFFFFFFFFFFFFFFFFFFFFFF AND EQ ISZERO PUSH2 0x240B JUMPI PUSH1 0x0 DUP1 REVERT JUMPDEST PUSH1 0x1 PUSH1 0x0 DUP3 PUSH20 0xFFFFFFFFFFFFFFFFFFFFFFFFFFFFFFFFFFFFFFFF AND PUSH20 0xFFFFFFFFFFFFFFFFFFFFFFFFFFFFFFFFFFFFFFFF AND DUP2 MSTORE PUSH1 0x20 ADD SWAP1 DUP2 MSTORE PUSH1 0x20 ADD PUSH1 0x0 KECCAK256 SLOAD DUP4 EQ PUSH2 0x2456 JUMPI PUSH1 0x0 DUP1 REVERT JUMPDEST PUSH1 0x1 PUSH1 0x0 DUP3 PUSH20 0xFFFFFFFFFFFFFFFFFFFFFFFFFFFFFFFFFFFFFFFF AND PUSH20 0xFFFFFFFFFFFFFFFFFFFFFFFFFFFFFFFFFFFFFFFF AND DUP2 MSTORE PUSH1 0x20 ADD SWAP1 DUP2 MSTORE PUSH1 0x20 ADD PUSH1 0x0 KECCAK256 PUSH1 0x0 DUP2 SLOAD DUP1 SWAP3 SWAP2 SWAP1 PUSH1 0x1 ADD SWAP2 SWAP1 POP SSTORE POP PUSH1 0x0 DUP1 SWAP1 SLOAD SWAP1 PUSH2 0x100 EXP SWAP1 DIV PUSH20 0xFFFFFFFFFFFFFFFFFFFFFFFFFFFFFFFFFFFFFFFF AND PUSH20 0xFFFFFFFFFFFFFFFFFFFFFFFFFFFFFFFFFFFFFFFF AND PUSH4 0x97D76665 DUP3 DUP9 DUP9 DUP9 PUSH1 0x40 MLOAD DUP6 PUSH4 0xFFFFFFFF AND PUSH1 0xE0 SHL DUP2 MSTORE PUSH1 0x4 ADD PUSH2 0x2505 SWAP5 SWAP4 SWAP3 SWAP2 SWAP1 PUSH2 0x4898 JUMP JUMPDEST PUSH1 0x0 PUSH1 0x40 MLOAD DUP1 DUP4 SUB DUP2 PUSH1 0x0 DUP8 DUP1 EXTCODESIZE ISZERO DUP1 ISZERO PUSH2 0x251F JUMPI PUSH1 0x0 DUP1 REVERT JUMPDEST POP GAS CALL ISZERO DUP1 ISZERO PUSH2 0x2533 JUMPI RETURNDATASIZE PUSH1 0x0 DUP1 RETURNDATACOPY RETURNDATASIZE PUSH1 0x0 REVERT JUMPDEST POP POP POP POP POP POP POP POP POP POP POP JUMP JUMPDEST PUSH1 0x0 ADDRESS DUP6 DUP6 DUP6 DUP6 PUSH1 0x40 MLOAD PUSH1 0x20 ADD PUSH2 0x255B SWAP6 SWAP5 SWAP4 SWAP3 SWAP2 SWAP1 PUSH2 0x412F JUMP JUMPDEST PUSH1 0x40 MLOAD PUSH1 0x20 DUP2 DUP4 SUB SUB DUP2 MSTORE SWAP1 PUSH1 0x40 MSTORE DUP1 MLOAD SWAP1 PUSH1 0x20 ADD KECCAK256 SWAP1 POP PUSH1 0x0 PUSH2 0x257F DUP3 DUP9 PUSH2 0x26F0 JUMP JUMPDEST SWAP1 POP PUSH1 0x0 PUSH20 0xFFFFFFFFFFFFFFFFFFFFFFFFFFFFFFFFFFFFFFFF AND DUP2 PUSH20 0xFFFFFFFFFFFFFFFFFFFFFFFFFFFFFFFFFFFFFFFF AND EQ ISZERO PUSH2 0x25BB JUMPI PUSH1 0x0 DUP1 REVERT JUMPDEST PUSH1 0x1 PUSH1 0x0 DUP3 PUSH20 0xFFFFFFFFFFFFFFFFFFFFFFFFFFFFFFFFFFFFFFFF AND PUSH20 0xFFFFFFFFFFFFFFFFFFFFFFFFFFFFFFFFFFFFFFFF AND DUP2 MSTORE PUSH1 0x20 ADD SWAP1 DUP2 MSTORE PUSH1 0x20 ADD PUSH1 0x0 KECCAK256 SLOAD DUP4 EQ PUSH2 0x2606 JUMPI PUSH1 0x0 DUP1 REVERT JUMPDEST PUSH1 0x1 PUSH1 0x0 DUP3 PUSH20 0xFFFFFFFFFFFFFFFFFFFFFFFFFFFFFFFFFFFFFFFF AND PUSH20 0xFFFFFFFFFFFFFFFFFFFFFFFFFFFFFFFFFFFFFFFF AND DUP2 MSTORE PUSH1 0x20 ADD SWAP1 DUP2 MSTORE PUSH1 0x20 ADD PUSH1 0x0 KECCAK256 PUSH1 0x0 DUP2 SLOAD DUP1 SWAP3 SWAP2 SWAP1 PUSH1 0x1 ADD SWAP2 SWAP1 POP SSTORE POP PUSH1 0x0 DUP1 SWAP1 SLOAD SWAP1 PUSH2 0x100 EXP SWAP1 DIV PUSH20 0xFFFFFFFFFFFFFFFFFFFFFFFFFFFFFFFFFFFFFFFF AND PUSH20 0xFFFFFFFFFFFFFFFFFFFFFFFFFFFFFFFFFFFFFFFF AND PUSH4 0xA071FBD5 DUP3 DUP9 DUP9 DUP9 PUSH1 0x40 MLOAD DUP6 PUSH4 0xFFFFFFFF AND PUSH1 0xE0 SHL DUP2 MSTORE PUSH1 0x4 ADD PUSH2 0x26B5 SWAP5 SWAP4 SWAP3 SWAP2 SWAP1 PUSH2 0x4B91 JUMP JUMPDEST PUSH1 0x0 PUSH1 0x40 MLOAD DUP1 DUP4 SUB DUP2 PUSH1 0x0 DUP8 DUP1 EXTCODESIZE ISZERO DUP1 ISZERO PUSH2 0x26CF JUMPI PUSH1 0x0 DUP1 REVERT JUMPDEST POP GAS CALL ISZERO DUP1 ISZERO PUSH2 0x26E3 JUMPI RETURNDATASIZE PUSH1 0x0 DUP1 RETURNDATACOPY RETURNDATASIZE PUSH1 0x0 REVERT JUMPDEST POP POP POP POP POP POP POP POP POP POP POP JUMP JUMPDEST PUSH1 0x0 DUP1 PUSH1 0x0 DUP1 PUSH1 0x41 DUP6 MLOAD EQ PUSH2 0x270B JUMPI PUSH1 0x0 SWAP4 POP POP POP POP PUSH2 0x27DA JUMP JUMPDEST PUSH1 0x20 DUP6 ADD MLOAD SWAP3 POP PUSH1 0x40 DUP6 ADD MLOAD SWAP2 POP PUSH1 0x60 DUP6 ADD MLOAD PUSH1 0x0 BYTE SWAP1 POP PUSH1 0x1B DUP2 PUSH1 0xFF AND LT ISZERO PUSH2 0x2736 JUMPI PUSH1 0x1B DUP2 ADD SWAP1 POP JUMPDEST PUSH1 0x1B DUP2 PUSH1 0xFF AND EQ ISZERO DUP1 ISZERO PUSH2 0x274E JUMPI POP PUSH1 0x1C DUP2 PUSH1 0xFF AND EQ ISZERO JUMPDEST ISZERO PUSH2 0x275F JUMPI PUSH1 0x0 SWAP4 POP POP POP POP PUSH2 0x27DA JUMP JUMPDEST PUSH1 0x1 DUP7 PUSH1 0x40 MLOAD PUSH1 0x20 ADD PUSH2 0x2772 SWAP2 SWAP1 PUSH2 0x3DEE JUMP JUMPDEST PUSH1 0x40 MLOAD PUSH1 0x20 DUP2 DUP4 SUB SUB DUP2 MSTORE SWAP1 PUSH1 0x40 MSTORE DUP1 MLOAD SWAP1 PUSH1 0x20 ADD KECCAK256 DUP3 DUP6 DUP6 PUSH1 0x40 MLOAD PUSH1 0x0 DUP2 MSTORE PUSH1 0x20 ADD PUSH1 0x40 MSTORE PUSH1 0x40 MLOAD PUSH2 0x27A8 SWAP5 SWAP4 SWAP3 SWAP2 SWAP1 PUSH2 0x4D1B JUMP JUMPDEST PUSH1 0x20 PUSH1 0x40 MLOAD PUSH1 0x20 DUP2 SUB SWAP1 DUP1 DUP5 SUB SWAP1 DUP6 GAS STATICCALL ISZERO DUP1 ISZERO PUSH2 0x27CA JUMPI RETURNDATASIZE PUSH1 0x0 DUP1 RETURNDATACOPY RETURNDATASIZE PUSH1 0x0 REVERT JUMPDEST POP POP POP PUSH1 0x20 PUSH1 0x40 MLOAD SUB MLOAD SWAP4 POP POP POP POP JUMPDEST SWAP3 SWAP2 POP POP JUMP JUMPDEST PUSH1 0x0 DUP2 CALLDATALOAD SWAP1 POP PUSH2 0x27EF DUP2 PUSH2 0x504B JUMP JUMPDEST SWAP3 SWAP2 POP POP JUMP JUMPDEST PUSH1 0x0 DUP2 CALLDATALOAD SWAP1 POP PUSH2 0x2804 DUP2 PUSH2 0x5062 JUMP JUMPDEST SWAP3 SWAP2 POP POP JUMP JUMPDEST PUSH1 0x0 DUP3 PUSH1 0x1F DUP4 ADD SLT PUSH2 0x281B JUMPI PUSH1 0x0 DUP1 REVERT JUMPDEST DUP2 CALLDATALOAD PUSH2 0x282E PUSH2 0x2829 DUP3 PUSH2 0x4DC3 JUMP JUMPDEST PUSH2 0x4D96 JUMP JUMPDEST SWAP2 POP DUP2 DUP2 DUP4 MSTORE PUSH1 0x20 DUP5 ADD SWAP4 POP PUSH1 0x20 DUP2 ADD SWAP1 POP DUP4 DUP6 PUSH1 0x20 DUP5 MUL DUP3 ADD GT ISZERO PUSH2 0x2853 JUMPI PUSH1 0x0 DUP1 REVERT JUMPDEST PUSH1 0x0 JUMPDEST DUP4 DUP2 LT ISZERO PUSH2 0x2883 JUMPI DUP2 PUSH2 0x2869 DUP9 DUP3 PUSH2 0x27E0 JUMP JUMPDEST DUP5 MSTORE PUSH1 0x20 DUP5 ADD SWAP4 POP PUSH1 0x20 DUP4 ADD SWAP3 POP POP PUSH1 0x1 DUP2 ADD SWAP1 POP PUSH2 0x2856 JUMP JUMPDEST POP POP POP POP SWAP3 SWAP2 POP POP JUMP JUMPDEST PUSH1 0x0 DUP3 PUSH1 0x1F DUP4 ADD SLT PUSH2 0x289E JUMPI PUSH1 0x0 DUP1 REVERT JUMPDEST DUP2 CALLDATALOAD PUSH2 0x28B1 PUSH2 0x28AC DUP3 PUSH2 0x4DEB JUMP JUMPDEST PUSH2 0x4D96 JUMP JUMPDEST SWAP2 POP DUP2 DUP2 DUP4 MSTORE PUSH1 0x20 DUP5 ADD SWAP4 POP PUSH1 0x20 DUP2 ADD SWAP1 POP DUP4 DUP6 PUSH1 0x20 DUP5 MUL DUP3 ADD GT ISZERO PUSH2 0x28D6 JUMPI PUSH1 0x0 DUP1 REVERT JUMPDEST PUSH1 0x0 JUMPDEST DUP4 DUP2 LT ISZERO PUSH2 0x2906 JUMPI DUP2 PUSH2 0x28EC DUP9 DUP3 PUSH2 0x27F5 JUMP JUMPDEST DUP5 MSTORE PUSH1 0x20 DUP5 ADD SWAP4 POP PUSH1 0x20 DUP4 ADD SWAP3 POP POP PUSH1 0x1 DUP2 ADD SWAP1 POP PUSH2 0x28D9 JUMP JUMPDEST POP POP POP POP SWAP3 SWAP2 POP POP JUMP JUMPDEST PUSH1 0x0 DUP3 PUSH1 0x1F DUP4 ADD SLT PUSH2 0x2921 JUMPI PUSH1 0x0 DUP1 REVERT JUMPDEST DUP2 CALLDATALOAD PUSH2 0x2934 PUSH2 0x292F DUP3 PUSH2 0x4E13 JUMP JUMPDEST PUSH2 0x4D96 JUMP JUMPDEST SWAP2 POP DUP2 DUP2 DUP4 MSTORE PUSH1 0x20 DUP5 ADD SWAP4 POP PUSH1 0x20 DUP2 ADD SWAP1 POP DUP4 DUP6 PUSH1 0x20 DUP5 MUL DUP3 ADD GT ISZERO PUSH2 0x2959 JUMPI PUSH1 0x0 DUP1 REVERT JUMPDEST PUSH1 0x0 JUMPDEST DUP4 DUP2 LT ISZERO PUSH2 0x2989 JUMPI DUP2 PUSH2 0x296F DUP9 DUP3 PUSH2 0x2A3B JUMP JUMPDEST DUP5 MSTORE PUSH1 0x20 DUP5 ADD SWAP4 POP PUSH1 0x20 DUP4 ADD SWAP3 POP POP PUSH1 0x1 DUP2 ADD SWAP1 POP PUSH2 0x295C JUMP JUMPDEST POP POP POP POP SWAP3 SWAP2 POP POP JUMP JUMPDEST PUSH1 0x0 DUP3 PUSH1 0x1F DUP4 ADD SLT PUSH2 0x29A4 JUMPI PUSH1 0x0 DUP1 REVERT JUMPDEST DUP2 CALLDATALOAD PUSH2 0x29B7 PUSH2 0x29B2 DUP3 PUSH2 0x4E3B JUMP JUMPDEST PUSH2 0x4D96 JUMP JUMPDEST SWAP2 POP DUP1 DUP3 MSTORE PUSH1 0x20 DUP4 ADD PUSH1 0x20 DUP4 ADD DUP6 DUP4 DUP4 ADD GT ISZERO PUSH2 0x29D3 JUMPI PUSH1 0x0 DUP1 REVERT JUMPDEST PUSH2 0x29DE DUP4 DUP3 DUP5 PUSH2 0x4FEE JUMP JUMPDEST POP POP POP SWAP3 SWAP2 POP POP JUMP JUMPDEST PUSH1 0x0 DUP3 PUSH1 0x1F DUP4 ADD SLT PUSH2 0x29F8 JUMPI PUSH1 0x0 DUP1 REVERT JUMPDEST DUP2 CALLDATALOAD PUSH2 0x2A0B PUSH2 0x2A06 DUP3 PUSH2 0x4E67 JUMP JUMPDEST PUSH2 0x4D96 JUMP JUMPDEST SWAP2 POP DUP1 DUP3 MSTORE PUSH1 0x20 DUP4 ADD PUSH1 0x20 DUP4 ADD DUP6 DUP4 DUP4 ADD GT ISZERO PUSH2 0x2A27 JUMPI PUSH1 0x0 DUP1 REVERT JUMPDEST PUSH2 0x2A32 DUP4 DUP3 DUP5 PUSH2 0x4FEE JUMP JUMPDEST POP POP POP SWAP3 SWAP2 POP POP JUMP JUMPDEST PUSH1 0x0 DUP2 CALLDATALOAD SWAP1 POP PUSH2 0x2A4A DUP2 PUSH2 0x5079 JUMP JUMPDEST SWAP3 SWAP2 POP POP JUMP JUMPDEST PUSH1 0x0 DUP2 MLOAD SWAP1 POP PUSH2 0x2A5F DUP2 PUSH2 0x5079 JUMP JUMPDEST SWAP3 SWAP2 POP POP JUMP JUMPDEST PUSH1 0x0 PUSH1 0x20 DUP3 DUP5 SUB SLT ISZERO PUSH2 0x2A77 JUMPI PUSH1 0x0 DUP1 REVERT JUMPDEST PUSH1 0x0 PUSH2 0x2A85 DUP5 DUP3 DUP6 ADD PUSH2 0x27E0 JUMP JUMPDEST SWAP2 POP POP SWAP3 SWAP2 POP POP JUMP JUMPDEST PUSH1 0x0 DUP1 PUSH1 0x0 DUP1 PUSH1 0x0 DUP1 PUSH1 0x0 DUP1 PUSH2 0x100 DUP10 DUP12 SUB SLT ISZERO PUSH2 0x2AAB JUMPI PUSH1 0x0 DUP1 REVERT JUMPDEST PUSH1 0x0 DUP10 ADD CALLDATALOAD PUSH8 0xFFFFFFFFFFFFFFFF DUP2 GT ISZERO PUSH2 0x2AC5 JUMPI PUSH1 0x0 DUP1 REVERT JUMPDEST PUSH2 0x2AD1 DUP12 DUP3 DUP13 ADD PUSH2 0x2993 JUMP JUMPDEST SWAP9 POP POP PUSH1 0x20 DUP10 ADD CALLDATALOAD PUSH8 0xFFFFFFFFFFFFFFFF DUP2 GT ISZERO PUSH2 0x2AEE JUMPI PUSH1 0x0 DUP1 REVERT JUMPDEST PUSH2 0x2AFA DUP12 DUP3 DUP13 ADD PUSH2 0x288D JUMP JUMPDEST SWAP8 POP POP PUSH1 0x40 DUP10 ADD CALLDATALOAD PUSH8 0xFFFFFFFFFFFFFFFF DUP2 GT ISZERO PUSH2 0x2B17 JUMPI PUSH1 0x0 DUP1 REVERT JUMPDEST PUSH2 0x2B23 DUP12 DUP3 DUP13 ADD PUSH2 0x280A JUMP JUMPDEST SWAP7 POP POP PUSH1 0x60 DUP10 ADD CALLDATALOAD PUSH8 0xFFFFFFFFFFFFFFFF DUP2 GT ISZERO PUSH2 0x2B40 JUMPI PUSH1 0x0 DUP1 REVERT JUMPDEST PUSH2 0x2B4C DUP12 DUP3 DUP13 ADD PUSH2 0x29E7 JUMP JUMPDEST SWAP6 POP POP PUSH1 0x80 PUSH2 0x2B5D DUP12 DUP3 DUP13 ADD PUSH2 0x2A3B JUMP JUMPDEST SWAP5 POP POP PUSH1 0xA0 PUSH2 0x2B6E DUP12 DUP3 DUP13 ADD PUSH2 0x27E0 JUMP JUMPDEST SWAP4 POP POP PUSH1 0xC0 PUSH2 0x2B7F DUP12 DUP3 DUP13 ADD PUSH2 0x2A3B JUMP JUMPDEST SWAP3 POP POP PUSH1 0xE0 PUSH2 0x2B90 DUP12 DUP3 DUP13 ADD PUSH2 0x2A3B JUMP JUMPDEST SWAP2 POP POP SWAP3 SWAP6 SWAP9 POP SWAP3 SWAP6 SWAP9 SWAP1 SWAP4 SWAP7 POP JUMP JUMPDEST PUSH1 0x0 DUP1 PUSH1 0x0 DUP1 PUSH1 0x0 DUP1 PUSH1 0x0 DUP1 PUSH1 0x0 PUSH2 0x120 DUP11 DUP13 SUB SLT ISZERO PUSH2 0x2BBF JUMPI PUSH1 0x0 DUP1 REVERT JUMPDEST PUSH1 0x0 DUP11 ADD CALLDATALOAD PUSH8 0xFFFFFFFFFFFFFFFF DUP2 GT ISZERO PUSH2 0x2BD9 JUMPI PUSH1 0x0 DUP1 REVERT JUMPDEST PUSH2 0x2BE5 DUP13 DUP3 DUP14 ADD PUSH2 0x2993 JUMP JUMPDEST SWAP10 POP POP PUSH1 0x20 DUP11 ADD CALLDATALOAD PUSH8 0xFFFFFFFFFFFFFFFF DUP2 GT ISZERO PUSH2 0x2C02 JUMPI PUSH1 0x0 DUP1 REVERT JUMPDEST PUSH2 0x2C0E DUP13 DUP3 DUP14 ADD PUSH2 0x288D JUMP JUMPDEST SWAP9 POP POP PUSH1 0x40 DUP11 ADD CALLDATALOAD PUSH8 0xFFFFFFFFFFFFFFFF DUP2 GT ISZERO PUSH2 0x2C2B JUMPI PUSH1 0x0 DUP1 REVERT JUMPDEST PUSH2 0x2C37 DUP13 DUP3 DUP14 ADD PUSH2 0x280A JUMP JUMPDEST SWAP8 POP POP PUSH1 0x60 DUP11 ADD CALLDATALOAD PUSH8 0xFFFFFFFFFFFFFFFF DUP2 GT ISZERO PUSH2 0x2C54 JUMPI PUSH1 0x0 DUP1 REVERT JUMPDEST PUSH2 0x2C60 DUP13 DUP3 DUP14 ADD PUSH2 0x29E7 JUMP JUMPDEST SWAP7 POP POP PUSH1 0x80 PUSH2 0x2C71 DUP13 DUP3 DUP14 ADD PUSH2 0x2A3B JUMP JUMPDEST SWAP6 POP POP PUSH1 0xA0 PUSH2 0x2C82 DUP13 DUP3 DUP14 ADD PUSH2 0x27E0 JUMP JUMPDEST SWAP5 POP POP PUSH1 0xC0 PUSH2 0x2C93 DUP13 DUP3 DUP14 ADD PUSH2 0x2A3B JUMP JUMPDEST SWAP4 POP POP PUSH1 0xE0 PUSH2 0x2CA4 DUP13 DUP3 DUP14 ADD PUSH2 0x2A3B JUMP JUMPDEST SWAP3 POP POP PUSH2 0x100 PUSH2 0x2CB6 DUP13 DUP3 DUP14 ADD PUSH2 0x2A3B JUMP JUMPDEST SWAP2 POP POP SWAP3 SWAP6 SWAP9 POP SWAP3 SWAP6 SWAP9 POP SWAP3 SWAP6 SWAP9 JUMP JUMPDEST PUSH1 0x0 DUP1 PUSH1 0x0 DUP1 PUSH1 0x0 PUSH1 0xA0 DUP7 DUP9 SUB SLT ISZERO PUSH2 0x2CDE JUMPI PUSH1 0x0 DUP1 REVERT JUMPDEST PUSH1 0x0 DUP7 ADD CALLDATALOAD PUSH8 0xFFFFFFFFFFFFFFFF DUP2 GT ISZERO PUSH2 0x2CF8 JUMPI PUSH1 0x0 DUP1 REVERT JUMPDEST PUSH2 0x2D04 DUP9 DUP3 DUP10 ADD PUSH2 0x2993 JUMP JUMPDEST SWAP6 POP POP PUSH1 0x20 PUSH2 0x2D15 DUP9 DUP3 DUP10 ADD PUSH2 0x2A3B JUMP JUMPDEST SWAP5 POP POP PUSH1 0x40 DUP7 ADD CALLDATALOAD PUSH8 0xFFFFFFFFFFFFFFFF DUP2 GT ISZERO PUSH2 0x2D32 JUMPI PUSH1 0x0 DUP1 REVERT JUMPDEST PUSH2 0x2D3E DUP9 DUP3 DUP10 ADD PUSH2 0x288D JUMP JUMPDEST SWAP4 POP POP PUSH1 0x60 DUP7 ADD CALLDATALOAD PUSH8 0xFFFFFFFFFFFFFFFF DUP2 GT ISZERO PUSH2 0x2D5B JUMPI PUSH1 0x0 DUP1 REVERT JUMPDEST PUSH2 0x2D67 DUP9 DUP3 DUP10 ADD PUSH2 0x29E7 JUMP JUMPDEST SWAP3 POP POP PUSH1 0x80 PUSH2 0x2D78 DUP9 DUP3 DUP10 ADD PUSH2 0x2A3B JUMP JUMPDEST SWAP2 POP POP SWAP3 SWAP6 POP SWAP3 SWAP6 SWAP1 SWAP4 POP JUMP JUMPDEST PUSH1 0x0 DUP1 PUSH1 0x0 DUP1 PUSH1 0x0 DUP1 PUSH1 0x0 PUSH1 0xE0 DUP9 DUP11 SUB SLT ISZERO PUSH2 0x2DA0 JUMPI PUSH1 0x0 DUP1 REVERT JUMPDEST PUSH1 0x0 DUP9 ADD CALLDATALOAD PUSH8 0xFFFFFFFFFFFFFFFF DUP2 GT ISZERO PUSH2 0x2DBA JUMPI PUSH1 0x0 DUP1 REVERT JUMPDEST PUSH2 0x2DC6 DUP11 DUP3 DUP12 ADD PUSH2 0x2993 JUMP JUMPDEST SWAP8 POP POP PUSH1 0x20 PUSH2 0x2DD7 DUP11 DUP3 DUP12 ADD PUSH2 0x2A3B JUMP JUMPDEST SWAP7 POP POP PUSH1 0x40 DUP9 ADD CALLDATALOAD PUSH8 0xFFFFFFFFFFFFFFFF DUP2 GT ISZERO PUSH2 0x2DF4 JUMPI PUSH1 0x0 DUP1 REVERT JUMPDEST PUSH2 0x2E00 DUP11 DUP3 DUP12 ADD PUSH2 0x288D JUMP JUMPDEST SWAP6 POP POP PUSH1 0x60 DUP9 ADD CALLDATALOAD PUSH8 0xFFFFFFFFFFFFFFFF DUP2 GT ISZERO PUSH2 0x2E1D JUMPI PUSH1 0x0 DUP1 REVERT JUMPDEST PUSH2 0x2E29 DUP11 DUP3 DUP12 ADD PUSH2 0x29E7 JUMP JUMPDEST SWAP5 POP POP PUSH1 0x80 PUSH2 0x2E3A DUP11 DUP3 DUP12 ADD PUSH2 0x2A3B JUMP JUMPDEST SWAP4 POP POP PUSH1 0xA0 DUP9 ADD CALLDATALOAD PUSH8 0xFFFFFFFFFFFFFFFF DUP2 GT ISZERO PUSH2 0x2E57 JUMPI PUSH1 0x0 DUP1 REVERT JUMPDEST PUSH2 0x2E63 DUP11 DUP3 DUP12 ADD PUSH2 0x2910 JUMP JUMPDEST SWAP3 POP POP PUSH1 0xC0 PUSH2 0x2E74 DUP11 DUP3 DUP12 ADD PUSH2 0x2A3B JUMP JUMPDEST SWAP2 POP POP SWAP3 SWAP6 SWAP9 SWAP2 SWAP5 SWAP8 POP SWAP3 SWAP6 POP JUMP JUMPDEST PUSH1 0x0 DUP1 PUSH1 0x0 DUP1 PUSH1 0x80 DUP6 DUP8 SUB SLT ISZERO PUSH2 0x2E99 JUMPI PUSH1 0x0 DUP1 REVERT JUMPDEST PUSH1 0x0 DUP6 ADD CALLDATALOAD PUSH8 0xFFFFFFFFFFFFFFFF DUP2 GT ISZERO PUSH2 0x2EB3 JUMPI PUSH1 0x0 DUP1 REVERT JUMPDEST PUSH2 0x2EBF DUP8 DUP3 DUP9 ADD PUSH2 0x2993 JUMP JUMPDEST SWAP5 POP POP PUSH1 0x20 PUSH2 0x2ED0 DUP8 DUP3 DUP9 ADD PUSH2 0x2A3B JUMP JUMPDEST SWAP4 POP POP PUSH1 0x40 DUP6 ADD CALLDATALOAD PUSH8 0xFFFFFFFFFFFFFFFF DUP2 GT ISZERO PUSH2 0x2EED JUMPI PUSH1 0x0 DUP1 REVERT JUMPDEST PUSH2 0x2EF9 DUP8 DUP3 DUP9 ADD PUSH2 0x2910 JUMP JUMPDEST SWAP3 POP POP PUSH1 0x60 PUSH2 0x2F0A DUP8 DUP3 DUP9 ADD PUSH2 0x2A3B JUMP JUMPDEST SWAP2 POP POP SWAP3 SWAP6 SWAP2 SWAP5 POP SWAP3 POP JUMP JUMPDEST PUSH1 0x0 DUP1 PUSH1 0x0 DUP1 PUSH1 0x80 DUP6 DUP8 SUB SLT ISZERO PUSH2 0x2F2C JUMPI PUSH1 0x0 DUP1 REVERT JUMPDEST PUSH1 0x0 DUP6 ADD CALLDATALOAD PUSH8 0xFFFFFFFFFFFFFFFF DUP2 GT ISZERO PUSH2 0x2F46 JUMPI PUSH1 0x0 DUP1 REVERT JUMPDEST PUSH2 0x2F52 DUP8 DUP3 DUP9 ADD PUSH2 0x2993 JUMP JUMPDEST SWAP5 POP POP PUSH1 0x20 PUSH2 0x2F63 DUP8 DUP3 DUP9 ADD PUSH2 0x2A3B JUMP JUMPDEST SWAP4 POP POP PUSH1 0x40 DUP6 ADD CALLDATALOAD PUSH8 0xFFFFFFFFFFFFFFFF DUP2 GT ISZERO PUSH2 0x2F80 JUMPI PUSH1 0x0 DUP1 REVERT JUMPDEST PUSH2 0x2F8C DUP8 DUP3 DUP9 ADD PUSH2 0x29E7 JUMP JUMPDEST SWAP3 POP POP PUSH1 0x60 PUSH2 0x2F9D DUP8 DUP3 DUP9 ADD PUSH2 0x2A3B JUMP JUMPDEST SWAP2 POP POP SWAP3 SWAP6 SWAP2 SWAP5 POP SWAP3 POP JUMP JUMPDEST PUSH1 0x0 DUP1 PUSH1 0x0 DUP1 PUSH1 0x0 PUSH1 0xA0 DUP7 DUP9 SUB SLT ISZERO PUSH2 0x2FC1 JUMPI PUSH1 0x0 DUP1 REVERT JUMPDEST PUSH1 0x0 DUP7 ADD CALLDATALOAD PUSH8 0xFFFFFFFFFFFFFFFF DUP2 GT ISZERO PUSH2 0x2FDB JUMPI PUSH1 0x0 DUP1 REVERT JUMPDEST PUSH2 0x2FE7 DUP9 DUP3 DUP10 ADD PUSH2 0x2993 JUMP JUMPDEST SWAP6 POP POP PUSH1 0x20 PUSH2 0x2FF8 DUP9 DUP3 DUP10 ADD PUSH2 0x2A3B JUMP JUMPDEST SWAP5 POP POP PUSH1 0x40 PUSH2 0x3009 DUP9 DUP3 DUP10 ADD PUSH2 0x2A3B JUMP JUMPDEST SWAP4 POP POP PUSH1 0x60 DUP7 ADD CALLDATALOAD PUSH8 0xFFFFFFFFFFFFFFFF DUP2 GT ISZERO PUSH2 0x3026 JUMPI PUSH1 0x0 DUP1 REVERT JUMPDEST PUSH2 0x3032 DUP9 DUP3 DUP10 ADD PUSH2 0x280A JUMP JUMPDEST SWAP3 POP POP PUSH1 0x80 PUSH2 0x3043 DUP9 DUP3 DUP10 ADD PUSH2 0x2A3B JUMP JUMPDEST SWAP2 POP POP SWAP3 SWAP6 POP SWAP3 SWAP6 SWAP1 SWAP4 POP JUMP JUMPDEST PUSH1 0x0 DUP1 PUSH1 0x0 DUP1 PUSH1 0x0 DUP1 PUSH1 0x0 DUP1 PUSH2 0x100 DUP10 DUP12 SUB SLT ISZERO PUSH2 0x306D JUMPI PUSH1 0x0 DUP1 REVERT JUMPDEST PUSH1 0x0 DUP10 ADD CALLDATALOAD PUSH8 0xFFFFFFFFFFFFFFFF DUP2 GT ISZERO PUSH2 0x3087 JUMPI PUSH1 0x0 DUP1 REVERT JUMPDEST PUSH2 0x3093 DUP12 DUP3 DUP13 ADD PUSH2 0x2993 JUMP JUMPDEST SWAP9 POP POP PUSH1 0x20 PUSH2 0x30A4 DUP12 DUP3 DUP13 ADD PUSH2 0x2A3B JUMP JUMPDEST SWAP8 POP POP PUSH1 0x40 PUSH2 0x30B5 DUP12 DUP3 DUP13 ADD PUSH2 0x2A3B JUMP JUMPDEST SWAP7 POP POP PUSH1 0x60 DUP10 ADD CALLDATALOAD PUSH8 0xFFFFFFFFFFFFFFFF DUP2 GT ISZERO PUSH2 0x30D2 JUMPI PUSH1 0x0 DUP1 REVERT JUMPDEST PUSH2 0x30DE DUP12 DUP3 DUP13 ADD PUSH2 0x288D JUMP JUMPDEST SWAP6 POP POP PUSH1 0x80 DUP10 ADD CALLDATALOAD PUSH8 0xFFFFFFFFFFFFFFFF DUP2 GT ISZERO PUSH2 0x30FB JUMPI PUSH1 0x0 DUP1 REVERT JUMPDEST PUSH2 0x3107 DUP12 DUP3 DUP13 ADD PUSH2 0x288D JUMP JUMPDEST SWAP5 POP POP PUSH1 0xA0 DUP10 ADD CALLDATALOAD PUSH8 0xFFFFFFFFFFFFFFFF DUP2 GT ISZERO PUSH2 0x3124 JUMPI PUSH1 0x0 DUP1 REVERT JUMPDEST PUSH2 0x3130 DUP12 DUP3 DUP13 ADD PUSH2 0x29E7 JUMP JUMPDEST SWAP4 POP POP PUSH1 0xC0 PUSH2 0x3141 DUP12 DUP3 DUP13 ADD PUSH2 0x2A3B JUMP JUMPDEST SWAP3 POP POP PUSH1 0xE0 PUSH2 0x3152 DUP12 DUP3 DUP13 ADD PUSH2 0x2A3B JUMP JUMPDEST SWAP2 POP POP SWAP3 SWAP6 SWAP9 POP SWAP3 SWAP6 SWAP9 SWAP1 SWAP4 SWAP7 POP JUMP JUMPDEST PUSH1 0x0 DUP1 PUSH1 0x0 DUP1 PUSH1 0x0 DUP1 PUSH1 0xC0 DUP8 DUP10 SUB SLT ISZERO PUSH2 0x317B JUMPI PUSH1 0x0 DUP1 REVERT JUMPDEST PUSH1 0x0 DUP8 ADD CALLDATALOAD PUSH8 0xFFFFFFFFFFFFFFFF DUP2 GT ISZERO PUSH2 0x3195 JUMPI PUSH1 0x0 DUP1 REVERT JUMPDEST PUSH2 0x31A1 DUP10 DUP3 DUP11 ADD PUSH2 0x2993 JUMP JUMPDEST SWAP7 POP POP PUSH1 0x20 PUSH2 0x31B2 DUP10 DUP3 DUP11 ADD PUSH2 0x2A3B JUMP JUMPDEST SWAP6 POP POP PUSH1 0x40 PUSH2 0x31C3 DUP10 DUP3 DUP11 ADD PUSH2 0x2A3B JUMP JUMPDEST SWAP5 POP POP PUSH1 0x60 DUP8 ADD CALLDATALOAD PUSH8 0xFFFFFFFFFFFFFFFF DUP2 GT ISZERO PUSH2 0x31E0 JUMPI PUSH1 0x0 DUP1 REVERT JUMPDEST PUSH2 0x31EC DUP10 DUP3 DUP11 ADD PUSH2 0x288D JUMP JUMPDEST SWAP4 POP POP PUSH1 0x80 DUP8 ADD CALLDATALOAD PUSH8 0xFFFFFFFFFFFFFFFF DUP2 GT ISZERO PUSH2 0x3209 JUMPI PUSH1 0x0 DUP1 REVERT JUMPDEST PUSH2 0x3215 DUP10 DUP3 DUP11 ADD PUSH2 0x29E7 JUMP JUMPDEST SWAP3 POP POP PUSH1 0xA0 PUSH2 0x3226 DUP10 DUP3 DUP11 ADD PUSH2 0x2A3B JUMP JUMPDEST SWAP2 POP POP SWAP3 SWAP6 POP SWAP3 SWAP6 POP SWAP3 SWAP6 JUMP JUMPDEST PUSH1 0x0 DUP1 PUSH1 0x0 DUP1 PUSH1 0x0 PUSH1 0xA0 DUP7 DUP9 SUB SLT ISZERO PUSH2 0x324B JUMPI PUSH1 0x0 DUP1 REVERT JUMPDEST PUSH1 0x0 DUP7 ADD CALLDATALOAD PUSH8 0xFFFFFFFFFFFFFFFF DUP2 GT ISZERO PUSH2 0x3265 JUMPI PUSH1 0x0 DUP1 REVERT JUMPDEST PUSH2 0x3271 DUP9 DUP3 DUP10 ADD PUSH2 0x2993 JUMP JUMPDEST SWAP6 POP POP PUSH1 0x20 PUSH2 0x3282 DUP9 DUP3 DUP10 ADD PUSH2 0x2A3B JUMP JUMPDEST SWAP5 POP POP PUSH1 0x40 PUSH2 0x3293 DUP9 DUP3 DUP10 ADD PUSH2 0x2A3B JUMP JUMPDEST SWAP4 POP POP PUSH1 0x60 DUP7 ADD CALLDATALOAD PUSH8 0xFFFFFFFFFFFFFFFF DUP2 GT ISZERO PUSH2 0x32B0 JUMPI PUSH1 0x0 DUP1 REVERT JUMPDEST PUSH2 0x32BC DUP9 DUP3 DUP10 ADD PUSH2 0x288D JUMP JUMPDEST SWAP3 POP POP PUSH1 0x80 PUSH2 0x32CD DUP9 DUP3 DUP10 ADD PUSH2 0x2A3B JUMP JUMPDEST SWAP2 POP POP SWAP3 SWAP6 POP SWAP3 SWAP6 SWAP1 SWAP4 POP JUMP JUMPDEST PUSH1 0x0 DUP1 PUSH1 0x0 DUP1 PUSH1 0x0 PUSH1 0xA0 DUP7 DUP9 SUB SLT ISZERO PUSH2 0x32F2 JUMPI PUSH1 0x0 DUP1 REVERT JUMPDEST PUSH1 0x0 DUP7 ADD CALLDATALOAD PUSH8 0xFFFFFFFFFFFFFFFF DUP2 GT ISZERO PUSH2 0x330C JUMPI PUSH1 0x0 DUP1 REVERT JUMPDEST PUSH2 0x3318 DUP9 DUP3 DUP10 ADD PUSH2 0x2993 JUMP JUMPDEST SWAP6 POP POP PUSH1 0x20 PUSH2 0x3329 DUP9 DUP3 DUP10 ADD PUSH2 0x2A3B JUMP JUMPDEST SWAP5 POP POP PUSH1 0x40 PUSH2 0x333A DUP9 DUP3 DUP10 ADD PUSH2 0x2A3B JUMP JUMPDEST SWAP4 POP POP PUSH1 0x60 DUP7 ADD CALLDATALOAD PUSH8 0xFFFFFFFFFFFFFFFF DUP2 GT ISZERO PUSH2 0x3357 JUMPI PUSH1 0x0 DUP1 REVERT JUMPDEST PUSH2 0x3363 DUP9 DUP3 DUP10 ADD PUSH2 0x2910 JUMP JUMPDEST SWAP3 POP POP PUSH1 0x80 PUSH2 0x3374 DUP9 DUP3 DUP10 ADD PUSH2 0x2A3B JUMP JUMPDEST SWAP2 POP POP SWAP3 SWAP6 POP SWAP3 SWAP6 SWAP1 SWAP4 POP JUMP JUMPDEST PUSH1 0x0 DUP1 PUSH1 0x0 DUP1 PUSH1 0x0 PUSH1 0xA0 DUP7 DUP9 SUB SLT ISZERO PUSH2 0x3399 JUMPI PUSH1 0x0 DUP1 REVERT JUMPDEST PUSH1 0x0 DUP7 ADD CALLDATALOAD PUSH8 0xFFFFFFFFFFFFFFFF DUP2 GT ISZERO PUSH2 0x33B3 JUMPI PUSH1 0x0 DUP1 REVERT JUMPDEST PUSH2 0x33BF DUP9 DUP3 DUP10 ADD PUSH2 0x2993 JUMP JUMPDEST SWAP6 POP POP PUSH1 0x20 PUSH2 0x33D0 DUP9 DUP3 DUP10 ADD PUSH2 0x2A3B JUMP JUMPDEST SWAP5 POP POP PUSH1 0x40 PUSH2 0x33E1 DUP9 DUP3 DUP10 ADD PUSH2 0x2A3B JUMP JUMPDEST SWAP4 POP POP PUSH1 0x60 DUP7 ADD CALLDATALOAD PUSH8 0xFFFFFFFFFFFFFFFF DUP2 GT ISZERO PUSH2 0x33FE JUMPI PUSH1 0x0 DUP1 REVERT JUMPDEST PUSH2 0x340A DUP9 DUP3 DUP10 ADD PUSH2 0x29E7 JUMP JUMPDEST SWAP3 POP POP PUSH1 0x80 PUSH2 0x341B DUP9 DUP3 DUP10 ADD PUSH2 0x2A3B JUMP JUMPDEST SWAP2 POP POP SWAP3 SWAP6 POP SWAP3 SWAP6 SWAP1 SWAP4 POP JUMP JUMPDEST PUSH1 0x0 DUP1 PUSH1 0x0 DUP1 PUSH1 0x80 DUP6 DUP8 SUB SLT ISZERO PUSH2 0x343E JUMPI PUSH1 0x0 DUP1 REVERT JUMPDEST PUSH1 0x0 DUP6 ADD CALLDATALOAD PUSH8 0xFFFFFFFFFFFFFFFF DUP2 GT ISZERO PUSH2 0x3458 JUMPI PUSH1 0x0 DUP1 REVERT JUMPDEST PUSH2 0x3464 DUP8 DUP3 DUP9 ADD PUSH2 0x2993 JUMP JUMPDEST SWAP5 POP POP PUSH1 0x20 PUSH2 0x3475 DUP8 DUP3 DUP9 ADD PUSH2 0x2A3B JUMP JUMPDEST SWAP4 POP POP PUSH1 0x40 PUSH2 0x3486 DUP8 DUP3 DUP9 ADD PUSH2 0x2A3B JUMP JUMPDEST SWAP3 POP POP PUSH1 0x60 PUSH2 0x3497 DUP8 DUP3 DUP9 ADD PUSH2 0x2A3B JUMP JUMPDEST SWAP2 POP POP SWAP3 SWAP6 SWAP2 SWAP5 POP SWAP3 POP JUMP JUMPDEST PUSH1 0x0 DUP1 PUSH1 0x0 DUP1 PUSH1 0x0 DUP1 PUSH1 0xC0 DUP8 DUP10 SUB SLT ISZERO PUSH2 0x34BC JUMPI PUSH1 0x0 DUP1 REVERT JUMPDEST PUSH1 0x0 DUP8 ADD CALLDATALOAD PUSH8 0xFFFFFFFFFFFFFFFF DUP2 GT ISZERO PUSH2 0x34D6 JUMPI PUSH1 0x0 DUP1 REVERT JUMPDEST PUSH2 0x34E2 DUP10 DUP3 DUP11 ADD PUSH2 0x2993 JUMP JUMPDEST SWAP7 POP POP PUSH1 0x20 PUSH2 0x34F3 DUP10 DUP3 DUP11 ADD PUSH2 0x2A3B JUMP JUMPDEST SWAP6 POP POP PUSH1 0x40 PUSH2 0x3504 DUP10 DUP3 DUP11 ADD PUSH2 0x2A3B JUMP JUMPDEST SWAP5 POP POP PUSH1 0x60 PUSH2 0x3515 DUP10 DUP3 DUP11 ADD PUSH2 0x2A3B JUMP JUMPDEST SWAP4 POP POP PUSH1 0x80 PUSH2 0x3526 DUP10 DUP3 DUP11 ADD PUSH2 0x27F5 JUMP JUMPDEST SWAP3 POP POP PUSH1 0xA0 PUSH2 0x3537 DUP10 DUP3 DUP11 ADD PUSH2 0x2A3B JUMP JUMPDEST SWAP2 POP POP SWAP3 SWAP6 POP SWAP3 SWAP6 POP SWAP3 SWAP6 JUMP JUMPDEST PUSH1 0x0 DUP1 PUSH1 0x0 DUP1 PUSH1 0x0 DUP1 PUSH1 0xC0 DUP8 DUP10 SUB SLT ISZERO PUSH2 0x355D JUMPI PUSH1 0x0 DUP1 REVERT JUMPDEST PUSH1 0x0 DUP8 ADD CALLDATALOAD PUSH8 0xFFFFFFFFFFFFFFFF DUP2 GT ISZERO PUSH2 0x3577 JUMPI PUSH1 0x0 DUP1 REVERT JUMPDEST PUSH2 0x3583 DUP10 DUP3 DUP11 ADD PUSH2 0x2993 JUMP JUMPDEST SWAP7 POP POP PUSH1 0x20 PUSH2 0x3594 DUP10 DUP3 DUP11 ADD PUSH2 0x2A3B JUMP JUMPDEST SWAP6 POP POP PUSH1 0x40 PUSH2 0x35A5 DUP10 DUP3 DUP11 ADD PUSH2 0x2A3B JUMP JUMPDEST SWAP5 POP POP PUSH1 0x60 PUSH2 0x35B6 DUP10 DUP3 DUP11 ADD PUSH2 0x2A3B JUMP JUMPDEST SWAP4 POP POP PUSH1 0x80 DUP8 ADD CALLDATALOAD PUSH8 0xFFFFFFFFFFFFFFFF DUP2 GT ISZERO PUSH2 0x35D3 JUMPI PUSH1 0x0 DUP1 REVERT JUMPDEST PUSH2 0x35DF DUP10 DUP3 DUP11 ADD PUSH2 0x2910 JUMP JUMPDEST SWAP3 POP POP PUSH1 0xA0 PUSH2 0x35F0 DUP10 DUP3 DUP11 ADD PUSH2 0x2A3B JUMP JUMPDEST SWAP2 POP POP SWAP3 SWAP6 POP SWAP3 SWAP6 POP SWAP3 SWAP6 JUMP JUMPDEST PUSH1 0x0 DUP1 PUSH1 0x0 DUP1 PUSH1 0x0 PUSH1 0xA0 DUP7 DUP9 SUB SLT ISZERO PUSH2 0x3615 JUMPI PUSH1 0x0 DUP1 REVERT JUMPDEST PUSH1 0x0 DUP7 ADD CALLDATALOAD PUSH8 0xFFFFFFFFFFFFFFFF DUP2 GT ISZERO PUSH2 0x362F JUMPI PUSH1 0x0 DUP1 REVERT JUMPDEST PUSH2 0x363B DUP9 DUP3 DUP10 ADD PUSH2 0x2993 JUMP JUMPDEST SWAP6 POP POP PUSH1 0x20 PUSH2 0x364C DUP9 DUP3 DUP10 ADD PUSH2 0x2A3B JUMP JUMPDEST SWAP5 POP POP PUSH1 0x40 PUSH2 0x365D DUP9 DUP3 DUP10 ADD PUSH2 0x2A3B JUMP JUMPDEST SWAP4 POP POP PUSH1 0x60 PUSH2 0x366E DUP9 DUP3 DUP10 ADD PUSH2 0x2A3B JUMP JUMPDEST SWAP3 POP POP PUSH1 0x80 PUSH2 0x367F DUP9 DUP3 DUP10 ADD PUSH2 0x2A3B JUMP JUMPDEST SWAP2 POP POP SWAP3 SWAP6 POP SWAP3 SWAP6 SWAP1 SWAP4 POP JUMP JUMPDEST PUSH1 0x0 PUSH1 0x20 DUP3 DUP5 SUB SLT ISZERO PUSH2 0x369E JUMPI PUSH1 0x0 DUP1 REVERT JUMPDEST PUSH1 0x0 PUSH2 0x36AC DUP5 DUP3 DUP6 ADD PUSH2 0x2A50 JUMP JUMPDEST SWAP2 POP POP SWAP3 SWAP2 POP POP JUMP JUMPDEST PUSH1 0x0 PUSH2 0x36C1 DUP4 DUP4 PUSH2 0x36FD JUMP JUMPDEST PUSH1 0x20 DUP4 ADD SWAP1 POP SWAP3 SWAP2 POP POP JUMP JUMPDEST PUSH1 0x0 PUSH2 0x36D9 DUP4 DUP4 PUSH2 0x371B JUMP JUMPDEST PUSH1 0x20 DUP4 ADD SWAP1 POP SWAP3 SWAP2 POP POP JUMP JUMPDEST PUSH1 0x0 PUSH2 0x36F1 DUP4 DUP4 PUSH2 0x3DC1 JUMP JUMPDEST PUSH1 0x20 DUP4 ADD SWAP1 POP SWAP3 SWAP2 POP POP JUMP JUMPDEST PUSH2 0x3706 DUP2 PUSH2 0x4F77 JUMP JUMPDEST DUP3 MSTORE POP POP JUMP JUMPDEST PUSH2 0x3715 DUP2 PUSH2 0x4F77 JUMP JUMPDEST DUP3 MSTORE POP POP JUMP JUMPDEST PUSH2 0x3724 DUP2 PUSH2 0x4F65 JUMP JUMPDEST DUP3 MSTORE POP POP JUMP JUMPDEST PUSH2 0x3733 DUP2 PUSH2 0x4F65 JUMP JUMPDEST DUP3 MSTORE POP POP JUMP JUMPDEST PUSH1 0x0 PUSH2 0x3744 DUP3 PUSH2 0x4EC3 JUMP JUMPDEST PUSH2 0x374E DUP2 DUP6 PUSH2 0x4F16 JUMP JUMPDEST SWAP4 POP PUSH2 0x3759 DUP4 PUSH2 0x4E93 JUMP JUMPDEST DUP1 PUSH1 0x0 JUMPDEST DUP4 DUP2 LT ISZERO PUSH2 0x378A JUMPI DUP2 MLOAD PUSH2 0x3771 DUP9 DUP3 PUSH2 0x36CD JUMP JUMPDEST SWAP8 POP PUSH2 0x377C DUP4 PUSH2 0x4EEF JUMP JUMPDEST SWAP3 POP POP PUSH1 0x1 DUP2 ADD SWAP1 POP PUSH2 0x375D JUMP JUMPDEST POP DUP6 SWAP4 POP POP POP POP SWAP3 SWAP2 POP POP JUMP JUMPDEST PUSH1 0x0 PUSH2 0x37A2 DUP3 PUSH2 0x4ECE JUMP JUMPDEST PUSH2 0x37AC DUP2 DUP6 PUSH2 0x4F27 JUMP JUMPDEST SWAP4 POP PUSH2 0x37B7 DUP4 PUSH2 0x4EA3 JUMP JUMPDEST DUP1 PUSH1 0x0 JUMPDEST DUP4 DUP2 LT ISZERO PUSH2 0x37E8 JUMPI DUP2 MLOAD PUSH2 0x37CF DUP9 DUP3 PUSH2 0x36B5 JUMP JUMPDEST SWAP8 POP PUSH2 0x37DA DUP4 PUSH2 0x4EFC JUMP JUMPDEST SWAP3 POP POP PUSH1 0x1 DUP2 ADD SWAP1 POP PUSH2 0x37BB JUMP JUMPDEST POP DUP6 SWAP4 POP POP POP POP SWAP3 SWAP2 POP POP JUMP JUMPDEST PUSH1 0x0 PUSH2 0x3800 DUP3 PUSH2 0x4ED9 JUMP JUMPDEST PUSH2 0x380A DUP2 DUP6 PUSH2 0x4F38 JUMP JUMPDEST SWAP4 POP PUSH2 0x3815 DUP4 PUSH2 0x4EB3 JUMP JUMPDEST DUP1 PUSH1 0x0 JUMPDEST DUP4 DUP2 LT ISZERO PUSH2 0x3846 JUMPI DUP2 MLOAD PUSH2 0x382D DUP9 DUP3 PUSH2 0x36E5 JUMP JUMPDEST SWAP8 POP PUSH2 0x3838 DUP4 PUSH2 0x4F09 JUMP JUMPDEST SWAP3 POP POP PUSH1 0x1 DUP2 ADD SWAP1 POP PUSH2 0x3819 JUMP JUMPDEST POP DUP6 SWAP4 POP POP POP POP SWAP3 SWAP2 POP POP JUMP JUMPDEST PUSH2 0x385C DUP2 PUSH2 0x4F89 JUMP JUMPDEST DUP3 MSTORE POP POP JUMP JUMPDEST PUSH2 0x3873 PUSH2 0x386E DUP3 PUSH2 0x4F89 JUMP JUMPDEST PUSH2 0x5030 JUMP JUMPDEST DUP3 MSTORE POP POP JUMP JUMPDEST PUSH2 0x3882 DUP2 PUSH2 0x4FCA JUMP JUMPDEST DUP3 MSTORE POP POP JUMP JUMPDEST PUSH1 0x0 PUSH2 0x3893 DUP3 PUSH2 0x4EE4 JUMP JUMPDEST PUSH2 0x389D DUP2 DUP6 PUSH2 0x4F49 JUMP JUMPDEST SWAP4 POP PUSH2 0x38AD DUP2 DUP6 PUSH1 0x20 DUP7 ADD PUSH2 0x4FFD JUMP JUMPDEST PUSH2 0x38B6 DUP2 PUSH2 0x503A JUMP JUMPDEST DUP5 ADD SWAP2 POP POP SWAP3 SWAP2 POP POP JUMP JUMPDEST PUSH1 0x0 PUSH2 0x38CE PUSH1 0x1C DUP4 PUSH2 0x4F5A JUMP JUMPDEST SWAP2 POP PUSH32 0x19457468657265756D205369676E6564204D6573736167653A0A333200000000 PUSH1 0x0 DUP4 ADD MSTORE PUSH1 0x1C DUP3 ADD SWAP1 POP SWAP2 SWAP1 POP JUMP JUMPDEST PUSH1 0x0 PUSH2 0x390E PUSH1 0x10 DUP4 PUSH2 0x4F49 JUMP JUMPDEST SWAP2 POP PUSH32 0x6D6574614368616E6765426F756E747900000000000000000000000000000000 PUSH1 0x0 DUP4 ADD MSTORE PUSH1 0x20 DUP3 ADD SWAP1 POP SWAP2 SWAP1 POP JUMP JUMPDEST PUSH1 0x0 PUSH2 0x394E PUSH1 0x10 DUP4 PUSH2 0x4F49 JUMP JUMPDEST SWAP2 POP PUSH32 0x6D657461416464417070726F7665727300000000000000000000000000000000 PUSH1 0x0 DUP4 ADD MSTORE PUSH1 0x20 DUP3 ADD SWAP1 POP SWAP2 SWAP1 POP JUMP JUMPDEST PUSH1 0x0 PUSH2 0x398E PUSH1 0xF DUP4 PUSH2 0x4F49 JUMP JUMPDEST SWAP2 POP PUSH32 0x6D657461447261696E426F756E74790000000000000000000000000000000000 PUSH1 0x0 DUP4 ADD MSTORE PUSH1 0x20 DUP3 ADD SWAP1 POP SWAP2 SWAP1 POP JUMP JUMPDEST PUSH1 0x0 PUSH2 0x39CE PUSH1 0x17 DUP4 PUSH2 0x4F49 JUMP JUMPDEST SWAP2 POP PUSH32 0x6D657461526566756E64436F6E747269627574696F6E73000000000000000000 PUSH1 0x0 DUP4 ADD MSTORE PUSH1 0x20 DUP3 ADD SWAP1 POP SWAP2 SWAP1 POP JUMP JUMPDEST PUSH1 0x0 PUSH2 0x3A0E PUSH1 0x11 DUP4 PUSH2 0x4F49 JUMP JUMPDEST SWAP2 POP PUSH32 0x6D657461506572666F726D416374696F6E000000000000000000000000000000 PUSH1 0x0 DUP4 ADD MSTORE PUSH1 0x20 DUP3 ADD SWAP1 POP SWAP2 SWAP1 POP JUMP JUMPDEST PUSH1 0x0 PUSH2 0x3A4E PUSH1 0xE DUP4 PUSH2 0x4F49 JUMP JUMPDEST SWAP2 POP PUSH32 0x6D657461436F6E74726962757465000000000000000000000000000000000000 PUSH1 0x0 DUP4 ADD MSTORE PUSH1 0x20 DUP3 ADD SWAP1 POP SWAP2 SWAP1 POP JUMP JUMPDEST PUSH1 0x0 PUSH2 0x3A8E PUSH1 0x10 DUP4 PUSH2 0x4F49 JUMP JUMPDEST SWAP2 POP PUSH32 0x6D6574614368616E676549737375657200000000000000000000000000000000 PUSH1 0x0 DUP4 ADD MSTORE PUSH1 0x20 DUP3 ADD SWAP1 POP SWAP2 SWAP1 POP JUMP JUMPDEST PUSH1 0x0 PUSH2 0x3ACE PUSH1 0xE DUP4 PUSH2 0x4F49 JUMP JUMPDEST SWAP2 POP PUSH32 0x6D6574614368616E676544617461000000000000000000000000000000000000 PUSH1 0x0 DUP4 ADD MSTORE PUSH1 0x20 DUP3 ADD SWAP1 POP SWAP2 SWAP1 POP JUMP JUMPDEST PUSH1 0x0 PUSH2 0x3B0E PUSH1 0x11 DUP4 PUSH2 0x4F49 JUMP JUMPDEST SWAP2 POP PUSH32 0x6D65746146756C66696C6C426F756E7479000000000000000000000000000000 PUSH1 0x0 DUP4 ADD MSTORE PUSH1 0x20 DUP3 ADD SWAP1 POP SWAP2 SWAP1 POP JUMP JUMPDEST PUSH1 0x0 PUSH2 0x3B4E PUSH1 0xF DUP4 PUSH2 0x4F49 JUMP JUMPDEST SWAP2 POP PUSH32 0x6D6574614973737565426F756E74790000000000000000000000000000000000 PUSH1 0x0 DUP4 ADD MSTORE PUSH1 0x20 DUP3 ADD SWAP1 POP SWAP2 SWAP1 POP JUMP JUMPDEST PUSH1 0x0 PUSH2 0x3B8E PUSH1 0x12 DUP4 PUSH2 0x4F49 JUMP JUMPDEST SWAP2 POP PUSH32 0x6D6574614368616E6765446561646C696E650000000000000000000000000000 PUSH1 0x0 DUP4 ADD MSTORE PUSH1 0x20 DUP3 ADD SWAP1 POP SWAP2 SWAP1 POP JUMP JUMPDEST PUSH1 0x0 PUSH2 0x3BCE PUSH1 0x12 DUP4 PUSH2 0x4F49 JUMP JUMPDEST SWAP2 POP PUSH32 0x6D6574614368616E6765417070726F7665720000000000000000000000000000 PUSH1 0x0 DUP4 ADD MSTORE PUSH1 0x20 DUP3 ADD SWAP1 POP SWAP2 SWAP1 POP JUMP JUMPDEST PUSH1 0x0 PUSH2 0x3C0E PUSH1 0x16 DUP4 PUSH2 0x4F49 JUMP JUMPDEST SWAP2 POP PUSH32 0x6D657461526566756E64436F6E747269627574696F6E00000000000000000000 PUSH1 0x0 DUP4 ADD MSTORE PUSH1 0x20 DUP3 ADD SWAP1 POP SWAP2 SWAP1 POP JUMP JUMPDEST PUSH1 0x0 PUSH2 0x3C4E PUSH1 0x15 DUP4 PUSH2 0x4F49 JUMP JUMPDEST SWAP2 POP PUSH32 0x6D65746141636365707446756C66696C6C6D656E740000000000000000000000 PUSH1 0x0 DUP4 ADD MSTORE PUSH1 0x20 DUP3 ADD SWAP1 POP SWAP2 SWAP1 POP JUMP JUMPDEST PUSH1 0x0 PUSH2 0x3C8E PUSH1 0x16 DUP4 PUSH2 0x4F49 JUMP JUMPDEST SWAP2 POP PUSH32 0x6D6574614973737565416E64436F6E7472696275746500000000000000000000 PUSH1 0x0 DUP4 ADD MSTORE PUSH1 0x20 DUP3 ADD SWAP1 POP SWAP2 SWAP1 POP JUMP JUMPDEST PUSH1 0x0 PUSH2 0x3CCE PUSH1 0x14 DUP4 PUSH2 0x4F49 JUMP JUMPDEST SWAP2 POP PUSH32 0x6D65746146756C66696C6C416E64416363657074000000000000000000000000 PUSH1 0x0 DUP4 ADD MSTORE PUSH1 0x20 DUP3 ADD SWAP1 POP SWAP2 SWAP1 POP JUMP JUMPDEST PUSH1 0x0 PUSH2 0x3D0E PUSH1 0x15 DUP4 PUSH2 0x4F49 JUMP JUMPDEST SWAP2 POP PUSH32 0x6D65746155706461746546756C66696C6C6D656E740000000000000000000000 PUSH1 0x0 DUP4 ADD MSTORE PUSH1 0x20 DUP3 ADD SWAP1 POP SWAP2 SWAP1 POP JUMP JUMPDEST PUSH1 0x0 PUSH2 0x3D4E PUSH1 0x19 DUP4 PUSH2 0x4F49 JUMP JUMPDEST SWAP2 POP PUSH32 0x6D657461526566756E644D79436F6E747269627574696F6E7300000000000000 PUSH1 0x0 DUP4 ADD MSTORE PUSH1 0x20 DUP3 ADD SWAP1 POP SWAP2 SWAP1 POP JUMP JUMPDEST PUSH1 0x0 PUSH2 0x3D8E PUSH1 0xE DUP4 PUSH2 0x4F49 JUMP JUMPDEST SWAP2 POP PUSH32 0x6D65746141646449737375657273000000000000000000000000000000000000 PUSH1 0x0 DUP4 ADD MSTORE PUSH1 0x20 DUP3 ADD SWAP1 POP SWAP2 SWAP1 POP JUMP JUMPDEST PUSH2 0x3DCA DUP2 PUSH2 0x4FB3 JUMP JUMPDEST DUP3 MSTORE POP POP JUMP JUMPDEST PUSH2 0x3DD9 DUP2 PUSH2 0x4FB3 JUMP JUMPDEST DUP3 MSTORE POP POP JUMP JUMPDEST PUSH2 0x3DE8 DUP2 PUSH2 0x4FBD JUMP JUMPDEST DUP3 MSTORE POP POP JUMP JUMPDEST PUSH1 0x0 PUSH2 0x3DF9 DUP3 PUSH2 0x38C1 JUMP JUMPDEST SWAP2 POP PUSH2 0x3E05 DUP3 DUP5 PUSH2 0x3862 JUMP JUMPDEST PUSH1 0x20 DUP3 ADD SWAP2 POP DUP2 SWAP1 POP SWAP3 SWAP2 POP POP JUMP JUMPDEST PUSH1 0x0 PUSH1 0xE0 DUP3 ADD SWAP1 POP PUSH2 0x3E29 PUSH1 0x0 DUP4 ADD DUP11 PUSH2 0x370C JUMP JUMPDEST DUP2 DUP2 SUB PUSH1 0x20 DUP4 ADD MSTORE PUSH2 0x3E3B DUP2 DUP10 PUSH2 0x3797 JUMP JUMPDEST SWAP1 POP DUP2 DUP2 SUB PUSH1 0x40 DUP4 ADD MSTORE PUSH2 0x3E4F DUP2 DUP9 PUSH2 0x3739 JUMP JUMPDEST SWAP1 POP DUP2 DUP2 SUB PUSH1 0x60 DUP4 ADD MSTORE PUSH2 0x3E63 DUP2 DUP8 PUSH2 0x3888 JUMP JUMPDEST SWAP1 POP PUSH2 0x3E72 PUSH1 0x80 DUP4 ADD DUP7 PUSH2 0x3DD0 JUMP JUMPDEST PUSH2 0x3E7F PUSH1 0xA0 DUP4 ADD DUP6 PUSH2 0x372A JUMP JUMPDEST PUSH2 0x3E8C PUSH1 0xC0 DUP4 ADD DUP5 PUSH2 0x3DD0 JUMP JUMPDEST SWAP9 SWAP8 POP POP POP POP POP POP POP POP JUMP JUMPDEST PUSH1 0x0 PUSH2 0x100 DUP3 ADD SWAP1 POP PUSH2 0x3EAE PUSH1 0x0 DUP4 ADD DUP12 PUSH2 0x370C JUMP JUMPDEST DUP2 DUP2 SUB PUSH1 0x20 DUP4 ADD MSTORE PUSH2 0x3EC0 DUP2 DUP11 PUSH2 0x3797 JUMP JUMPDEST SWAP1 POP DUP2 DUP2 SUB PUSH1 0x40 DUP4 ADD MSTORE PUSH2 0x3ED4 DUP2 DUP10 PUSH2 0x3739 JUMP JUMPDEST SWAP1 POP DUP2 DUP2 SUB PUSH1 0x60 DUP4 ADD MSTORE PUSH2 0x3EE8 DUP2 DUP9 PUSH2 0x3888 JUMP JUMPDEST SWAP1 POP PUSH2 0x3EF7 PUSH1 0x80 DUP4 ADD DUP8 PUSH2 0x3DD0 JUMP JUMPDEST PUSH2 0x3F04 PUSH1 0xA0 DUP4 ADD DUP7 PUSH2 0x372A JUMP JUMPDEST PUSH2 0x3F11 PUSH1 0xC0 DUP4 ADD DUP6 PUSH2 0x3DD0 JUMP JUMPDEST PUSH2 0x3F1E PUSH1 0xE0 DUP4 ADD DUP5 PUSH2 0x3DD0 JUMP JUMPDEST SWAP10 SWAP9 POP POP POP POP POP POP POP POP POP JUMP JUMPDEST PUSH1 0x0 PUSH1 0x60 DUP3 ADD SWAP1 POP PUSH2 0x3F40 PUSH1 0x0 DUP4 ADD DUP7 PUSH2 0x370C JUMP JUMPDEST PUSH2 0x3F4D PUSH1 0x20 DUP4 ADD DUP6 PUSH2 0x3DD0 JUMP JUMPDEST PUSH2 0x3F5A PUSH1 0x40 DUP4 ADD DUP5 PUSH2 0x3DD0 JUMP JUMPDEST SWAP5 SWAP4 POP POP POP POP JUMP JUMPDEST PUSH1 0x0 PUSH1 0x80 DUP3 ADD SWAP1 POP PUSH2 0x3F77 PUSH1 0x0 DUP4 ADD DUP8 PUSH2 0x370C JUMP JUMPDEST PUSH2 0x3F84 PUSH1 0x20 DUP4 ADD DUP7 PUSH2 0x3DD0 JUMP JUMPDEST PUSH2 0x3F91 PUSH1 0x40 DUP4 ADD DUP6 PUSH2 0x3DD0 JUMP JUMPDEST DUP2 DUP2 SUB PUSH1 0x60 DUP4 ADD MSTORE PUSH2 0x3FA3 DUP2 DUP5 PUSH2 0x37F5 JUMP JUMPDEST SWAP1 POP SWAP6 SWAP5 POP POP POP POP POP JUMP JUMPDEST PUSH1 0x0 PUSH2 0x120 DUP3 ADD SWAP1 POP PUSH2 0x3FC4 PUSH1 0x0 DUP4 ADD DUP12 PUSH2 0x372A JUMP JUMPDEST DUP2 DUP2 SUB PUSH1 0x20 DUP4 ADD MSTORE PUSH2 0x3FD5 DUP2 PUSH2 0x3901 JUMP JUMPDEST SWAP1 POP PUSH2 0x3FE4 PUSH1 0x40 DUP4 ADD DUP11 PUSH2 0x3DD0 JUMP JUMPDEST PUSH2 0x3FF1 PUSH1 0x60 DUP4 ADD DUP10 PUSH2 0x3DD0 JUMP JUMPDEST DUP2 DUP2 SUB PUSH1 0x80 DUP4 ADD MSTORE PUSH2 0x4003 DUP2 DUP9 PUSH2 0x3797 JUMP JUMPDEST SWAP1 POP DUP2 DUP2 SUB PUSH1 0xA0 DUP4 ADD MSTORE PUSH2 0x4017 DUP2 DUP8 PUSH2 0x3797 JUMP JUMPDEST SWAP1 POP DUP2 DUP2 SUB PUSH1 0xC0 DUP4 ADD MSTORE PUSH2 0x402B DUP2 DUP7 PUSH2 0x3888 JUMP JUMPDEST SWAP1 POP PUSH2 0x403A PUSH1 0xE0 DUP4 ADD DUP6 PUSH2 0x3DD0 JUMP JUMPDEST PUSH2 0x4048 PUSH2 0x100 DUP4 ADD DUP5 PUSH2 0x3DD0 JUMP JUMPDEST SWAP10 SWAP9 POP POP POP POP POP POP POP POP POP JUMP JUMPDEST PUSH1 0x0 PUSH1 0xC0 DUP3 ADD SWAP1 POP PUSH2 0x406A PUSH1 0x0 DUP4 ADD DUP9 PUSH2 0x372A JUMP JUMPDEST DUP2 DUP2 SUB PUSH1 0x20 DUP4 ADD MSTORE PUSH2 0x407B DUP2 PUSH2 0x3941 JUMP JUMPDEST SWAP1 POP PUSH2 0x408A PUSH1 0x40 DUP4 ADD DUP8 PUSH2 0x3DD0 JUMP JUMPDEST PUSH2 0x4097 PUSH1 0x60 DUP4 ADD DUP7 PUSH2 0x3DD0 JUMP JUMPDEST DUP2 DUP2 SUB PUSH1 0x80 DUP4 ADD MSTORE PUSH2 0x40A9 DUP2 DUP6 PUSH2 0x3739 JUMP JUMPDEST SWAP1 POP PUSH2 0x40B8 PUSH1 0xA0 DUP4 ADD DUP5 PUSH2 0x3DD0 JUMP JUMPDEST SWAP7 SWAP6 POP POP POP POP POP POP JUMP JUMPDEST PUSH1 0x0 PUSH1 0xC0 DUP3 ADD SWAP1 POP PUSH2 0x40D7 PUSH1 0x0 DUP4 ADD DUP9 PUSH2 0x372A JUMP JUMPDEST DUP2 DUP2 SUB PUSH1 0x20 DUP4 ADD MSTORE PUSH2 0x40E8 DUP2 PUSH2 0x3981 JUMP JUMPDEST SWAP1 POP PUSH2 0x40F7 PUSH1 0x40 DUP4 ADD DUP8 PUSH2 0x3DD0 JUMP JUMPDEST PUSH2 0x4104 PUSH1 0x60 DUP4 ADD DUP7 PUSH2 0x3DD0 JUMP JUMPDEST DUP2 DUP2 SUB PUSH1 0x80 DUP4 ADD MSTORE PUSH2 0x4116 DUP2 DUP6 PUSH2 0x37F5 JUMP JUMPDEST SWAP1 POP PUSH2 0x4125 PUSH1 0xA0 DUP4 ADD DUP5 PUSH2 0x3DD0 JUMP JUMPDEST SWAP7 SWAP6 POP POP POP POP POP POP JUMP JUMPDEST PUSH1 0x0 PUSH1 0xC0 DUP3 ADD SWAP1 POP PUSH2 0x4144 PUSH1 0x0 DUP4 ADD DUP9 PUSH2 0x372A JUMP JUMPDEST DUP2 DUP2 SUB PUSH1 0x20 DUP4 ADD MSTORE PUSH2 0x4155 DUP2 PUSH2 0x39C1 JUMP JUMPDEST SWAP1 POP PUSH2 0x4164 PUSH1 0x40 DUP4 ADD DUP8 PUSH2 0x3DD0 JUMP JUMPDEST PUSH2 0x4171 PUSH1 0x60 DUP4 ADD DUP7 PUSH2 0x3DD0 JUMP JUMPDEST DUP2 DUP2 SUB PUSH1 0x80 DUP4 ADD MSTORE PUSH2 0x4183 DUP2 DUP6 PUSH2 0x37F5 JUMP JUMPDEST SWAP1 POP PUSH2 0x4192 PUSH1 0xA0 DUP4 ADD DUP5 PUSH2 0x3DD0 JUMP JUMPDEST SWAP7 SWAP6 POP POP POP POP POP POP JUMP JUMPDEST PUSH1 0x0 PUSH1 0xA0 DUP3 ADD SWAP1 POP PUSH2 0x41B1 PUSH1 0x0 DUP4 ADD DUP8 PUSH2 0x372A JUMP JUMPDEST DUP2 DUP2 SUB PUSH1 0x20 DUP4 ADD MSTORE PUSH2 0x41C2 DUP2 PUSH2 0x3A01 JUMP JUMPDEST SWAP1 POP PUSH2 0x41D1 PUSH1 0x40 DUP4 ADD DUP7 PUSH2 0x3DD0 JUMP JUMPDEST DUP2 DUP2 SUB PUSH1 0x60 DUP4 ADD MSTORE PUSH2 0x41E3 DUP2 DUP6 PUSH2 0x3888 JUMP JUMPDEST SWAP1 POP PUSH2 0x41F2 PUSH1 0x80 DUP4 ADD DUP5 PUSH2 0x3DD0 JUMP JUMPDEST SWAP6 SWAP5 POP POP POP POP POP JUMP JUMPDEST PUSH1 0x0 PUSH1 0xA0 DUP3 ADD SWAP1 POP PUSH2 0x4210 PUSH1 0x0 DUP4 ADD DUP8 PUSH2 0x372A JUMP JUMPDEST DUP2 DUP2 SUB PUSH1 0x20 DUP4 ADD MSTORE PUSH2 0x4221 DUP2 PUSH2 0x3A41 JUMP JUMPDEST SWAP1 POP PUSH2 0x4230 PUSH1 0x40 DUP4 ADD DUP7 PUSH2 0x3DD0 JUMP JUMPDEST PUSH2 0x423D PUSH1 0x60 DUP4 ADD DUP6 PUSH2 0x3DD0 JUMP JUMPDEST PUSH2 0x424A PUSH1 0x80 DUP4 ADD DUP5 PUSH2 0x3DD0 JUMP JUMPDEST SWAP6 SWAP5 POP POP POP POP POP JUMP JUMPDEST PUSH1 0x0 PUSH1 0xE0 DUP3 ADD SWAP1 POP PUSH2 0x4268 PUSH1 0x0 DUP4 ADD DUP10 PUSH2 0x372A JUMP JUMPDEST DUP2 DUP2 SUB PUSH1 0x20 DUP4 ADD MSTORE PUSH2 0x4279 DUP2 PUSH2 0x3A81 JUMP JUMPDEST SWAP1 POP PUSH2 0x4288 PUSH1 0x40 DUP4 ADD DUP9 PUSH2 0x3DD0 JUMP JUMPDEST PUSH2 0x4295 PUSH1 0x60 DUP4 ADD DUP8 PUSH2 0x3DD0 JUMP JUMPDEST PUSH2 0x42A2 PUSH1 0x80 DUP4 ADD DUP7 PUSH2 0x3DD0 JUMP JUMPDEST PUSH2 0x42AF PUSH1 0xA0 DUP4 ADD DUP6 PUSH2 0x370C JUMP JUMPDEST PUSH2 0x42BC PUSH1 0xC0 DUP4 ADD DUP5 PUSH2 0x3DD0 JUMP JUMPDEST SWAP8 SWAP7 POP POP POP POP POP POP POP JUMP JUMPDEST PUSH1 0x0 PUSH1 0xC0 DUP3 ADD SWAP1 POP PUSH2 0x42DC PUSH1 0x0 DUP4 ADD DUP9 PUSH2 0x372A JUMP JUMPDEST DUP2 DUP2 SUB PUSH1 0x20 DUP4 ADD MSTORE PUSH2 0x42ED DUP2 PUSH2 0x3AC1 JUMP JUMPDEST SWAP1 POP PUSH2 0x42FC PUSH1 0x40 DUP4 ADD DUP8 PUSH2 0x3DD0 JUMP JUMPDEST PUSH2 0x4309 PUSH1 0x60 DUP4 ADD DUP7 PUSH2 0x3DD0 JUMP JUMPDEST DUP2 DUP2 SUB PUSH1 0x80 DUP4 ADD MSTORE PUSH2 0x431B DUP2 DUP6 PUSH2 0x3888 JUMP JUMPDEST SWAP1 POP PUSH2 0x432A PUSH1 0xA0 DUP4 ADD DUP5 PUSH2 0x3DD0 JUMP JUMPDEST SWAP7 SWAP6 POP POP POP POP POP POP JUMP JUMPDEST PUSH1 0x0 PUSH1 0xC0 DUP3 ADD SWAP1 POP PUSH2 0x4349 PUSH1 0x0 DUP4 ADD DUP9 PUSH2 0x372A JUMP JUMPDEST DUP2 DUP2 SUB PUSH1 0x20 DUP4 ADD MSTORE PUSH2 0x435A DUP2 PUSH2 0x3B01 JUMP JUMPDEST SWAP1 POP PUSH2 0x4369 PUSH1 0x40 DUP4 ADD DUP8 PUSH2 0x3DD0 JUMP JUMPDEST DUP2 DUP2 SUB PUSH1 0x60 DUP4 ADD MSTORE PUSH2 0x437B DUP2 DUP7 PUSH2 0x3797 JUMP JUMPDEST SWAP1 POP DUP2 DUP2 SUB PUSH1 0x80 DUP4 ADD MSTORE PUSH2 0x438F DUP2 DUP6 PUSH2 0x3888 JUMP JUMPDEST SWAP1 POP PUSH2 0x439E PUSH1 0xA0 DUP4 ADD DUP5 PUSH2 0x3DD0 JUMP JUMPDEST SWAP7 SWAP6 POP POP POP POP POP POP JUMP JUMPDEST PUSH1 0x0 PUSH2 0x120 DUP3 ADD SWAP1 POP PUSH2 0x43BE PUSH1 0x0 DUP4 ADD DUP12 PUSH2 0x372A JUMP JUMPDEST DUP2 DUP2 SUB PUSH1 0x20 DUP4 ADD MSTORE PUSH2 0x43CF DUP2 PUSH2 0x3B41 JUMP JUMPDEST SWAP1 POP DUP2 DUP2 SUB PUSH1 0x40 DUP4 ADD MSTORE PUSH2 0x43E3 DUP2 DUP11 PUSH2 0x3797 JUMP JUMPDEST SWAP1 POP DUP2 DUP2 SUB PUSH1 0x60 DUP4 ADD MSTORE PUSH2 0x43F7 DUP2 DUP10 PUSH2 0x3739 JUMP JUMPDEST SWAP1 POP DUP2 DUP2 SUB PUSH1 0x80 DUP4 ADD MSTORE PUSH2 0x440B DUP2 DUP9 PUSH2 0x3888 JUMP JUMPDEST SWAP1 POP PUSH2 0x441A PUSH1 0xA0 DUP4 ADD DUP8 PUSH2 0x3DD0 JUMP JUMPDEST PUSH2 0x4427 PUSH1 0xC0 DUP4 ADD DUP7 PUSH2 0x372A JUMP JUMPDEST PUSH2 0x4434 PUSH1 0xE0 DUP4 ADD DUP6 PUSH2 0x3DD0 JUMP JUMPDEST PUSH2 0x4442 PUSH2 0x100 DUP4 ADD DUP5 PUSH2 0x3DD0 JUMP JUMPDEST SWAP10 SWAP9 POP POP POP POP POP POP POP POP POP JUMP JUMPDEST PUSH1 0x0 PUSH1 0xC0 DUP3 ADD SWAP1 POP PUSH2 0x4464 PUSH1 0x0 DUP4 ADD DUP9 PUSH2 0x372A JUMP JUMPDEST DUP2 DUP2 SUB PUSH1 0x20 DUP4 ADD MSTORE PUSH2 0x4475 DUP2 PUSH2 0x3B81 JUMP JUMPDEST SWAP1 POP PUSH2 0x4484 PUSH1 0x40 DUP4 ADD DUP8 PUSH2 0x3DD0 JUMP JUMPDEST PUSH2 0x4491 PUSH1 0x60 DUP4 ADD DUP7 PUSH2 0x3DD0 JUMP JUMPDEST PUSH2 0x449E PUSH1 0x80 DUP4 ADD DUP6 PUSH2 0x3DD0 JUMP JUMPDEST PUSH2 0x44AB PUSH1 0xA0 DUP4 ADD DUP5 PUSH2 0x3DD0 JUMP JUMPDEST SWAP7 SWAP6 POP POP POP POP POP POP JUMP JUMPDEST PUSH1 0x0 PUSH1 0xE0 DUP3 ADD SWAP1 POP PUSH2 0x44CA PUSH1 0x0 DUP4 ADD DUP10 PUSH2 0x372A JUMP JUMPDEST DUP2 DUP2 SUB PUSH1 0x20 DUP4 ADD MSTORE PUSH2 0x44DB DUP2 PUSH2 0x3BC1 JUMP JUMPDEST SWAP1 POP PUSH2 0x44EA PUSH1 0x40 DUP4 ADD DUP9 PUSH2 0x3DD0 JUMP JUMPDEST PUSH2 0x44F7 PUSH1 0x60 DUP4 ADD DUP8 PUSH2 0x3DD0 JUMP JUMPDEST PUSH2 0x4504 PUSH1 0x80 DUP4 ADD DUP7 PUSH2 0x3DD0 JUMP JUMPDEST PUSH2 0x4511 PUSH1 0xA0 DUP4 ADD DUP6 PUSH2 0x370C JUMP JUMPDEST PUSH2 0x451E PUSH1 0xC0 DUP4 ADD DUP5 PUSH2 0x3DD0 JUMP JUMPDEST SWAP8 SWAP7 POP POP POP POP POP POP POP JUMP JUMPDEST PUSH1 0x0 PUSH1 0xA0 DUP3 ADD SWAP1 POP PUSH2 0x453E PUSH1 0x0 DUP4 ADD DUP8 PUSH2 0x372A JUMP JUMPDEST DUP2 DUP2 SUB PUSH1 0x20 DUP4 ADD MSTORE PUSH2 0x454F DUP2 PUSH2 0x3C01 JUMP JUMPDEST SWAP1 POP PUSH2 0x455E PUSH1 0x40 DUP4 ADD DUP7 PUSH2 0x3DD0 JUMP JUMPDEST PUSH2 0x456B PUSH1 0x60 DUP4 ADD DUP6 PUSH2 0x3DD0 JUMP JUMPDEST PUSH2 0x4578 PUSH1 0x80 DUP4 ADD DUP5 PUSH2 0x3DD0 JUMP JUMPDEST SWAP6 SWAP5 POP POP POP POP POP JUMP JUMPDEST PUSH1 0x0 PUSH1 0xE0 DUP3 ADD SWAP1 POP PUSH2 0x4596 PUSH1 0x0 DUP4 ADD DUP10 PUSH2 0x372A JUMP JUMPDEST DUP2 DUP2 SUB PUSH1 0x20 DUP4 ADD MSTORE PUSH2 0x45A7 DUP2 PUSH2 0x3C41 JUMP JUMPDEST SWAP1 POP PUSH2 0x45B6 PUSH1 0x40 DUP4 ADD DUP9 PUSH2 0x3DD0 JUMP JUMPDEST PUSH2 0x45C3 PUSH1 0x60 DUP4 ADD DUP8 PUSH2 0x3DD0 JUMP JUMPDEST PUSH2 0x45D0 PUSH1 0x80 DUP4 ADD DUP7 PUSH2 0x3DD0 JUMP JUMPDEST DUP2 DUP2 SUB PUSH1 0xA0 DUP4 ADD MSTORE PUSH2 0x45E2 DUP2 DUP6 PUSH2 0x37F5 JUMP JUMPDEST SWAP1 POP PUSH2 0x45F1 PUSH1 0xC0 DUP4 ADD DUP5 PUSH2 0x3DD0 JUMP JUMPDEST SWAP8 SWAP7 POP POP POP POP POP POP POP JUMP JUMPDEST PUSH1 0x0 PUSH2 0x140 DUP3 ADD SWAP1 POP PUSH2 0x4612 PUSH1 0x0 DUP4 ADD DUP13 PUSH2 0x372A JUMP JUMPDEST DUP2 DUP2 SUB PUSH1 0x20 DUP4 ADD MSTORE PUSH2 0x4623 DUP2 PUSH2 0x3C81 JUMP JUMPDEST SWAP1 POP DUP2 DUP2 SUB PUSH1 0x40 DUP4 ADD MSTORE PUSH2 0x4637 DUP2 DUP12 PUSH2 0x3797 JUMP JUMPDEST SWAP1 POP DUP2 DUP2 SUB PUSH1 0x60 DUP4 ADD MSTORE PUSH2 0x464B DUP2 DUP11 PUSH2 0x3739 JUMP JUMPDEST SWAP1 POP DUP2 DUP2 SUB PUSH1 0x80 DUP4 ADD MSTORE PUSH2 0x465F DUP2 DUP10 PUSH2 0x3888 JUMP JUMPDEST SWAP1 POP PUSH2 0x466E PUSH1 0xA0 DUP4 ADD DUP9 PUSH2 0x3DD0 JUMP JUMPDEST PUSH2 0x467B PUSH1 0xC0 DUP4 ADD DUP8 PUSH2 0x372A JUMP JUMPDEST PUSH2 0x4688 PUSH1 0xE0 DUP4 ADD DUP7 PUSH2 0x3DD0 JUMP JUMPDEST PUSH2 0x4696 PUSH2 0x100 DUP4 ADD DUP6 PUSH2 0x3DD0 JUMP JUMPDEST PUSH2 0x46A4 PUSH2 0x120 DUP4 ADD DUP5 PUSH2 0x3DD0 JUMP JUMPDEST SWAP11 SWAP10 POP POP POP POP POP POP POP POP POP POP JUMP JUMPDEST PUSH1 0x0 PUSH2 0x100 DUP3 ADD SWAP1 POP PUSH2 0x46C8 PUSH1 0x0 DUP4 ADD DUP11 PUSH2 0x372A JUMP JUMPDEST DUP2 DUP2 SUB PUSH1 0x20 DUP4 ADD MSTORE PUSH2 0x46D9 DUP2 PUSH2 0x3CC1 JUMP JUMPDEST SWAP1 POP PUSH2 0x46E8 PUSH1 0x40 DUP4 ADD DUP10 PUSH2 0x3DD0 JUMP JUMPDEST DUP2 DUP2 SUB PUSH1 0x60 DUP4 ADD MSTORE PUSH2 0x46FA DUP2 DUP9 PUSH2 0x3797 JUMP JUMPDEST SWAP1 POP DUP2 DUP2 SUB PUSH1 0x80 DUP4 ADD MSTORE PUSH2 0x470E DUP2 DUP8 PUSH2 0x3888 JUMP JUMPDEST SWAP1 POP PUSH2 0x471D PUSH1 0xA0 DUP4 ADD DUP7 PUSH2 0x3DD0 JUMP JUMPDEST DUP2 DUP2 SUB PUSH1 0xC0 DUP4 ADD MSTORE PUSH2 0x472F DUP2 DUP6 PUSH2 0x37F5 JUMP JUMPDEST SWAP1 POP PUSH2 0x473E PUSH1 0xE0 DUP4 ADD DUP5 PUSH2 0x3DD0 JUMP JUMPDEST SWAP9 SWAP8 POP POP POP POP POP POP POP POP JUMP JUMPDEST PUSH1 0x0 PUSH1 0xE0 DUP3 ADD SWAP1 POP PUSH2 0x475F PUSH1 0x0 DUP4 ADD DUP10 PUSH2 0x372A JUMP JUMPDEST DUP2 DUP2 SUB PUSH1 0x20 DUP4 ADD MSTORE PUSH2 0x4770 DUP2 PUSH2 0x3D01 JUMP JUMPDEST SWAP1 POP PUSH2 0x477F PUSH1 0x40 DUP4 ADD DUP9 PUSH2 0x3DD0 JUMP JUMPDEST PUSH2 0x478C PUSH1 0x60 DUP4 ADD DUP8 PUSH2 0x3DD0 JUMP JUMPDEST DUP2 DUP2 SUB PUSH1 0x80 DUP4 ADD MSTORE PUSH2 0x479E DUP2 DUP7 PUSH2 0x3797 JUMP JUMPDEST SWAP1 POP DUP2 DUP2 SUB PUSH1 0xA0 DUP4 ADD MSTORE PUSH2 0x47B2 DUP2 DUP6 PUSH2 0x3888 JUMP JUMPDEST SWAP1 POP PUSH2 0x47C1 PUSH1 0xC0 DUP4 ADD DUP5 PUSH2 0x3DD0 JUMP JUMPDEST SWAP8 SWAP7 POP POP POP POP POP POP POP JUMP JUMPDEST PUSH1 0x0 PUSH1 0xA0 DUP3 ADD SWAP1 POP PUSH2 0x47E1 PUSH1 0x0 DUP4 ADD DUP8 PUSH2 0x372A JUMP JUMPDEST DUP2 DUP2 SUB PUSH1 0x20 DUP4 ADD MSTORE PUSH2 0x47F2 DUP2 PUSH2 0x3D41 JUMP JUMPDEST SWAP1 POP PUSH2 0x4801 PUSH1 0x40 DUP4 ADD DUP7 PUSH2 0x3DD0 JUMP JUMPDEST DUP2 DUP2 SUB PUSH1 0x60 DUP4 ADD MSTORE PUSH2 0x4813 DUP2 DUP6 PUSH2 0x37F5 JUMP JUMPDEST SWAP1 POP PUSH2 0x4822 PUSH1 0x80 DUP4 ADD DUP5 PUSH2 0x3DD0 JUMP JUMPDEST SWAP6 SWAP5 POP POP POP POP POP JUMP JUMPDEST PUSH1 0x0 PUSH1 0xC0 DUP3 ADD SWAP1 POP PUSH2 0x4840 PUSH1 0x0 DUP4 ADD DUP9 PUSH2 0x372A JUMP JUMPDEST DUP2 DUP2 SUB PUSH1 0x20 DUP4 ADD MSTORE PUSH2 0x4851 DUP2 PUSH2 0x3D81 JUMP JUMPDEST SWAP1 POP PUSH2 0x4860 PUSH1 0x40 DUP4 ADD DUP8 PUSH2 0x3DD0 JUMP JUMPDEST PUSH2 0x486D PUSH1 0x60 DUP4 ADD DUP7 PUSH2 0x3DD0 JUMP JUMPDEST DUP2 DUP2 SUB PUSH1 0x80 DUP4 ADD MSTORE PUSH2 0x487F DUP2 DUP6 PUSH2 0x3797 JUMP JUMPDEST SWAP1 POP PUSH2 0x488E PUSH1 0xA0 DUP4 ADD DUP5 PUSH2 0x3DD0 JUMP JUMPDEST SWAP7 SWAP6 POP POP POP POP POP POP JUMP JUMPDEST PUSH1 0x0 PUSH1 0x80 DUP3 ADD SWAP1 POP PUSH2 0x48AD PUSH1 0x0 DUP4 ADD DUP8 PUSH2 0x372A JUMP JUMPDEST PUSH2 0x48BA PUSH1 0x20 DUP4 ADD DUP7 PUSH2 0x3DD0 JUMP JUMPDEST DUP2 DUP2 SUB PUSH1 0x40 DUP4 ADD MSTORE PUSH2 0x48CC DUP2 DUP6 PUSH2 0x3797 JUMP JUMPDEST SWAP1 POP DUP2 DUP2 SUB PUSH1 0x60 DUP4 ADD MSTORE PUSH2 0x48E0 DUP2 DUP5 PUSH2 0x3888 JUMP JUMPDEST SWAP1 POP SWAP6 SWAP5 POP POP POP POP POP JUMP JUMPDEST PUSH1 0x0 PUSH1 0xC0 DUP3 ADD SWAP1 POP PUSH2 0x4900 PUSH1 0x0 DUP4 ADD DUP10 PUSH2 0x372A JUMP JUMPDEST PUSH2 0x490D PUSH1 0x20 DUP4 ADD DUP9 PUSH2 0x3DD0 JUMP JUMPDEST DUP2 DUP2 SUB PUSH1 0x40 DUP4 ADD MSTORE PUSH2 0x491F DUP2 DUP8 PUSH2 0x3797 JUMP JUMPDEST SWAP1 POP DUP2 DUP2 SUB PUSH1 0x60 DUP4 ADD MSTORE PUSH2 0x4933 DUP2 DUP7 PUSH2 0x3888 JUMP JUMPDEST SWAP1 POP PUSH2 0x4942 PUSH1 0x80 DUP4 ADD DUP6 PUSH2 0x3DD0 JUMP JUMPDEST DUP2 DUP2 SUB PUSH1 0xA0 DUP4 ADD MSTORE PUSH2 0x4954 DUP2 DUP5 PUSH2 0x37F5 JUMP JUMPDEST SWAP1 POP SWAP8 SWAP7 POP POP POP POP POP POP POP JUMP JUMPDEST PUSH1 0x0 PUSH1 0x60 DUP3 ADD SWAP1 POP PUSH2 0x4976 PUSH1 0x0 DUP4 ADD DUP7 PUSH2 0x372A JUMP JUMPDEST PUSH2 0x4983 PUSH1 0x20 DUP4 ADD DUP6 PUSH2 0x3DD0 JUMP JUMPDEST DUP2 DUP2 SUB PUSH1 0x40 DUP4 ADD MSTORE PUSH2 0x4995 DUP2 DUP5 PUSH2 0x37F5 JUMP JUMPDEST SWAP1 POP SWAP5 SWAP4 POP POP POP POP JUMP JUMPDEST PUSH1 0x0 PUSH1 0x60 DUP3 ADD SWAP1 POP PUSH2 0x49B4 PUSH1 0x0 DUP4 ADD DUP7 PUSH2 0x372A JUMP JUMPDEST PUSH2 0x49C1 PUSH1 0x20 DUP4 ADD DUP6 PUSH2 0x3DD0 JUMP JUMPDEST DUP2 DUP2 SUB PUSH1 0x40 DUP4 ADD MSTORE PUSH2 0x49D3 DUP2 DUP5 PUSH2 0x3888 JUMP JUMPDEST SWAP1 POP SWAP5 SWAP4 POP POP POP POP JUMP JUMPDEST PUSH1 0x0 PUSH1 0x60 DUP3 ADD SWAP1 POP PUSH2 0x49F2 PUSH1 0x0 DUP4 ADD DUP7 PUSH2 0x372A JUMP JUMPDEST PUSH2 0x49FF PUSH1 0x20 DUP4 ADD DUP6 PUSH2 0x3DD0 JUMP JUMPDEST PUSH2 0x4A0C PUSH1 0x40 DUP4 ADD DUP5 PUSH2 0x3DD0 JUMP JUMPDEST SWAP5 SWAP4 POP POP POP POP JUMP JUMPDEST PUSH1 0x0 PUSH1 0x80 DUP3 ADD SWAP1 POP PUSH2 0x4A29 PUSH1 0x0 DUP4 ADD DUP8 PUSH2 0x372A JUMP JUMPDEST PUSH2 0x4A36 PUSH1 0x20 DUP4 ADD DUP7 PUSH2 0x3DD0 JUMP JUMPDEST PUSH2 0x4A43 PUSH1 0x40 DUP4 ADD DUP6 PUSH2 0x3DD0 JUMP JUMPDEST DUP2 DUP2 SUB PUSH1 0x60 DUP4 ADD MSTORE PUSH2 0x4A55 DUP2 DUP5 PUSH2 0x3739 JUMP JUMPDEST SWAP1 POP SWAP6 SWAP5 POP POP POP POP POP JUMP JUMPDEST PUSH1 0x0 PUSH1 0x80 DUP3 ADD SWAP1 POP PUSH2 0x4A75 PUSH1 0x0 DUP4 ADD DUP8 PUSH2 0x372A JUMP JUMPDEST PUSH2 0x4A82 PUSH1 0x20 DUP4 ADD DUP7 PUSH2 0x3DD0 JUMP JUMPDEST PUSH2 0x4A8F PUSH1 0x40 DUP4 ADD DUP6 PUSH2 0x3DD0 JUMP JUMPDEST DUP2 DUP2 SUB PUSH1 0x60 DUP4 ADD MSTORE PUSH2 0x4AA1 DUP2 DUP5 PUSH2 0x3797 JUMP JUMPDEST SWAP1 POP SWAP6 SWAP5 POP POP POP POP POP JUMP JUMPDEST PUSH1 0x0 PUSH1 0xE0 DUP3 ADD SWAP1 POP PUSH2 0x4AC1 PUSH1 0x0 DUP4 ADD DUP11 PUSH2 0x372A JUMP JUMPDEST PUSH2 0x4ACE PUSH1 0x20 DUP4 ADD DUP10 PUSH2 0x3DD0 JUMP JUMPDEST PUSH2 0x4ADB PUSH1 0x40 DUP4 ADD DUP9 PUSH2 0x3DD0 JUMP JUMPDEST DUP2 DUP2 SUB PUSH1 0x60 DUP4 ADD MSTORE PUSH2 0x4AED DUP2 DUP8 PUSH2 0x3797 JUMP JUMPDEST SWAP1 POP DUP2 DUP2 SUB PUSH1 0x80 DUP4 ADD MSTORE PUSH2 0x4B01 DUP2 DUP7 PUSH2 0x3797 JUMP JUMPDEST SWAP1 POP DUP2 DUP2 SUB PUSH1 0xA0 DUP4 ADD MSTORE PUSH2 0x4B15 DUP2 DUP6 PUSH2 0x3888 JUMP JUMPDEST SWAP1 POP PUSH2 0x4B24 PUSH1 0xC0 DUP4 ADD DUP5 PUSH2 0x3DD0 JUMP JUMPDEST SWAP9 SWAP8 POP POP POP POP POP POP POP POP JUMP JUMPDEST PUSH1 0x0 PUSH1 0xA0 DUP3 ADD SWAP1 POP PUSH2 0x4B45 PUSH1 0x0 DUP4 ADD DUP9 PUSH2 0x372A JUMP JUMPDEST PUSH2 0x4B52 PUSH1 0x20 DUP4 ADD DUP8 PUSH2 0x3DD0 JUMP JUMPDEST PUSH2 0x4B5F PUSH1 0x40 DUP4 ADD DUP7 PUSH2 0x3DD0 JUMP JUMPDEST DUP2 DUP2 SUB PUSH1 0x60 DUP4 ADD MSTORE PUSH2 0x4B71 DUP2 DUP6 PUSH2 0x3797 JUMP JUMPDEST SWAP1 POP DUP2 DUP2 SUB PUSH1 0x80 DUP4 ADD MSTORE PUSH2 0x4B85 DUP2 DUP5 PUSH2 0x3888 JUMP JUMPDEST SWAP1 POP SWAP7 SWAP6 POP POP POP POP POP POP JUMP JUMPDEST PUSH1 0x0 PUSH1 0x80 DUP3 ADD SWAP1 POP PUSH2 0x4BA6 PUSH1 0x0 DUP4 ADD DUP8 PUSH2 0x372A JUMP JUMPDEST PUSH2 0x4BB3 PUSH1 0x20 DUP4 ADD DUP7 PUSH2 0x3DD0 JUMP JUMPDEST PUSH2 0x4BC0 PUSH1 0x40 DUP4 ADD DUP6 PUSH2 0x3DD0 JUMP JUMPDEST DUP2 DUP2 SUB PUSH1 0x60 DUP4 ADD MSTORE PUSH2 0x4BD2 DUP2 DUP5 PUSH2 0x37F5 JUMP JUMPDEST SWAP1 POP SWAP6 SWAP5 POP POP POP POP POP JUMP JUMPDEST PUSH1 0x0 PUSH1 0x80 DUP3 ADD SWAP1 POP PUSH2 0x4BF2 PUSH1 0x0 DUP4 ADD DUP8 PUSH2 0x372A JUMP JUMPDEST PUSH2 0x4BFF PUSH1 0x20 DUP4 ADD DUP7 PUSH2 0x3DD0 JUMP JUMPDEST PUSH2 0x4C0C PUSH1 0x40 DUP4 ADD DUP6 PUSH2 0x3DD0 JUMP JUMPDEST DUP2 DUP2 SUB PUSH1 0x60 DUP4 ADD MSTORE PUSH2 0x4C1E DUP2 DUP5 PUSH2 0x3888 JUMP JUMPDEST SWAP1 POP SWAP6 SWAP5 POP POP POP POP POP JUMP JUMPDEST PUSH1 0x0 PUSH1 0x80 DUP3 ADD SWAP1 POP PUSH2 0x4C3E PUSH1 0x0 DUP4 ADD DUP8 PUSH2 0x372A JUMP JUMPDEST PUSH2 0x4C4B PUSH1 0x20 DUP4 ADD DUP7 PUSH2 0x3DD0 JUMP JUMPDEST PUSH2 0x4C58 PUSH1 0x40 DUP4 ADD DUP6 PUSH2 0x3DD0 JUMP JUMPDEST PUSH2 0x4C65 PUSH1 0x60 DUP4 ADD DUP5 PUSH2 0x3DD0 JUMP JUMPDEST SWAP6 SWAP5 POP POP POP POP POP JUMP JUMPDEST PUSH1 0x0 PUSH1 0xA0 DUP3 ADD SWAP1 POP PUSH2 0x4C83 PUSH1 0x0 DUP4 ADD DUP9 PUSH2 0x372A JUMP JUMPDEST PUSH2 0x4C90 PUSH1 0x20 DUP4 ADD DUP8 PUSH2 0x3DD0 JUMP JUMPDEST PUSH2 0x4C9D PUSH1 0x40 DUP4 ADD DUP7 PUSH2 0x3DD0 JUMP JUMPDEST PUSH2 0x4CAA PUSH1 0x60 DUP4 ADD DUP6 PUSH2 0x3DD0 JUMP JUMPDEST PUSH2 0x4CB7 PUSH1 0x80 DUP4 ADD DUP5 PUSH2 0x370C JUMP JUMPDEST SWAP7 SWAP6 POP POP POP POP POP POP JUMP JUMPDEST PUSH1 0x0 PUSH1 0xA0 DUP3 ADD SWAP1 POP PUSH2 0x4CD6 PUSH1 0x0 DUP4 ADD DUP9 PUSH2 0x372A JUMP JUMPDEST PUSH2 0x4CE3 PUSH1 0x20 DUP4 ADD DUP8 PUSH2 0x3DD0 JUMP JUMPDEST PUSH2 0x4CF0 PUSH1 0x40 DUP4 ADD DUP7 PUSH2 0x3DD0 JUMP JUMPDEST PUSH2 0x4CFD PUSH1 0x60 DUP4 ADD DUP6 PUSH2 0x3DD0 JUMP JUMPDEST DUP2 DUP2 SUB PUSH1 0x80 DUP4 ADD MSTORE PUSH2 0x4D0F DUP2 DUP5 PUSH2 0x37F5 JUMP JUMPDEST SWAP1 POP SWAP7 SWAP6 POP POP POP POP POP POP JUMP JUMPDEST PUSH1 0x0 PUSH1 0x80 DUP3 ADD SWAP1 POP PUSH2 0x4D30 PUSH1 0x0 DUP4 ADD DUP8 PUSH2 0x3853 JUMP JUMPDEST PUSH2 0x4D3D PUSH1 0x20 DUP4 ADD DUP7 PUSH2 0x3DDF JUMP JUMPDEST PUSH2 0x4D4A PUSH1 0x40 DUP4 ADD DUP6 PUSH2 0x3853 JUMP JUMPDEST PUSH2 0x4D57 PUSH1 0x60 DUP4 ADD DUP5 PUSH2 0x3853 JUMP JUMPDEST SWAP6 SWAP5 POP POP POP POP POP JUMP JUMPDEST PUSH1 0x0 PUSH1 0x20 DUP3 ADD SWAP1 POP PUSH2 0x4D75 PUSH1 0x0 DUP4 ADD DUP5 PUSH2 0x3879 JUMP JUMPDEST SWAP3 SWAP2 POP POP JUMP JUMPDEST PUSH1 0x0 PUSH1 0x20 DUP3 ADD SWAP1 POP PUSH2 0x4D90 PUSH1 0x0 DUP4 ADD DUP5 PUSH2 0x3DD0 JUMP JUMPDEST SWAP3 SWAP2 POP POP JUMP JUMPDEST PUSH1 0x0 PUSH1 0x40 MLOAD SWAP1 POP DUP2 DUP2 ADD DUP2 DUP2 LT PUSH8 0xFFFFFFFFFFFFFFFF DUP3 GT OR ISZERO PUSH2 0x4DB9 JUMPI PUSH1 0x0 DUP1 REVERT JUMPDEST DUP1 PUSH1 0x40 MSTORE POP SWAP2 SWAP1 POP JUMP JUMPDEST PUSH1 0x0 PUSH8 0xFFFFFFFFFFFFFFFF DUP3 GT ISZERO PUSH2 0x4DDA JUMPI PUSH1 0x0 DUP1 REVERT JUMPDEST PUSH1 0x20 DUP3 MUL SWAP1 POP PUSH1 0x20 DUP2 ADD SWAP1 POP SWAP2 SWAP1 POP JUMP JUMPDEST PUSH1 0x0 PUSH8 0xFFFFFFFFFFFFFFFF DUP3 GT ISZERO PUSH2 0x4E02 JUMPI PUSH1 0x0 DUP1 REVERT JUMPDEST PUSH1 0x20 DUP3 MUL SWAP1 POP PUSH1 0x20 DUP2 ADD SWAP1 POP SWAP2 SWAP1 POP JUMP JUMPDEST PUSH1 0x0 PUSH8 0xFFFFFFFFFFFFFFFF DUP3 GT ISZERO PUSH2 0x4E2A JUMPI PUSH1 0x0 DUP1 REVERT JUMPDEST PUSH1 0x20 DUP3 MUL SWAP1 POP PUSH1 0x20 DUP2 ADD SWAP1 POP SWAP2 SWAP1 POP JUMP JUMPDEST PUSH1 0x0 PUSH8 0xFFFFFFFFFFFFFFFF DUP3 GT ISZERO PUSH2 0x4E52 JUMPI PUSH1 0x0 DUP1 REVERT JUMPDEST PUSH1 0x1F NOT PUSH1 0x1F DUP4 ADD AND SWAP1 POP PUSH1 0x20 DUP2 ADD SWAP1 POP SWAP2 SWAP1 POP JUMP JUMPDEST PUSH1 0x0 PUSH8 0xFFFFFFFFFFFFFFFF DUP3 GT ISZERO PUSH2 0x4E7E JUMPI PUSH1 0x0 DUP1 REVERT JUMPDEST PUSH1 0x1F NOT PUSH1 0x1F DUP4 ADD AND SWAP1 POP PUSH1 0x20 DUP2 ADD SWAP1 POP SWAP2 SWAP1 POP JUMP JUMPDEST PUSH1 0x0 DUP2 SWAP1 POP PUSH1 0x20 DUP3 ADD SWAP1 POP SWAP2 SWAP1 POP JUMP JUMPDEST PUSH1 0x0 DUP2 SWAP1 POP PUSH1 0x20 DUP3 ADD SWAP1 POP SWAP2 SWAP1 POP JUMP JUMPDEST PUSH1 0x0 DUP2 SWAP1 POP PUSH1 0x20 DUP3 ADD SWAP1 POP SWAP2 SWAP1 POP JUMP JUMPDEST PUSH1 0x0 DUP2 MLOAD SWAP1 POP SWAP2 SWAP1 POP JUMP JUMPDEST PUSH1 0x0 DUP2 MLOAD SWAP1 POP SWAP2 SWAP1 POP JUMP JUMPDEST PUSH1 0x0 DUP2 MLOAD SWAP1 POP SWAP2 SWAP1 POP JUMP JUMPDEST PUSH1 0x0 DUP2 MLOAD SWAP1 POP SWAP2 SWAP1 POP JUMP JUMPDEST PUSH1 0x0 PUSH1 0x20 DUP3 ADD SWAP1 POP SWAP2 SWAP1 POP JUMP JUMPDEST PUSH1 0x0 PUSH1 0x20 DUP3 ADD SWAP1 POP SWAP2 SWAP1 POP JUMP JUMPDEST PUSH1 0x0 PUSH1 0x20 DUP3 ADD SWAP1 POP SWAP2 SWAP1 POP JUMP JUMPDEST PUSH1 0x0 DUP3 DUP3 MSTORE PUSH1 0x20 DUP3 ADD SWAP1 POP SWAP3 SWAP2 POP POP JUMP JUMPDEST PUSH1 0x0 DUP3 DUP3 MSTORE PUSH1 0x20 DUP3 ADD SWAP1 POP SWAP3 SWAP2 POP POP JUMP JUMPDEST PUSH1 0x0 DUP3 DUP3 MSTORE PUSH1 0x20 DUP3 ADD SWAP1 POP SWAP3 SWAP2 POP POP JUMP JUMPDEST PUSH1 0x0 DUP3 DUP3 MSTORE PUSH1 0x20 DUP3 ADD SWAP1 POP SWAP3 SWAP2 POP POP JUMP JUMPDEST PUSH1 0x0 DUP2 SWAP1 POP SWAP3 SWAP2 POP POP JUMP JUMPDEST PUSH1 0x0 PUSH2 0x4F70 DUP3 PUSH2 0x4F93 JUMP JUMPDEST SWAP1 POP SWAP2 SWAP1 POP JUMP JUMPDEST PUSH1 0x0 PUSH2 0x4F82 DUP3 PUSH2 0x4F93 JUMP JUMPDEST SWAP1 POP SWAP2 SWAP1 POP JUMP JUMPDEST PUSH1 0x0 DUP2 SWAP1 POP SWAP2 SWAP1 POP JUMP JUMPDEST PUSH1 0x0 PUSH20 0xFFFFFFFFFFFFFFFFFFFFFFFFFFFFFFFFFFFFFFFF DUP3 AND SWAP1 POP SWAP2 SWAP1 POP JUMP JUMPDEST PUSH1 0x0 DUP2 SWAP1 POP SWAP2 SWAP1 POP JUMP JUMPDEST PUSH1 0x0 PUSH1 0xFF DUP3 AND SWAP1 POP SWAP2 SWAP1 POP JUMP JUMPDEST PUSH1 0x0 PUSH2 0x4FD5 DUP3 PUSH2 0x4FDC JUMP JUMPDEST SWAP1 POP SWAP2 SWAP1 POP JUMP JUMPDEST PUSH1 0x0 PUSH2 0x4FE7 DUP3 PUSH2 0x4F93 JUMP JUMPDEST SWAP1 POP SWAP2 SWAP1 POP JUMP JUMPDEST DUP3 DUP2 DUP4 CALLDATACOPY PUSH1 0x0 DUP4 DUP4 ADD MSTORE POP POP POP JUMP JUMPDEST PUSH1 0x0 JUMPDEST DUP4 DUP2 LT ISZERO PUSH2 0x501B JUMPI DUP1 DUP3 ADD MLOAD DUP2 DUP5 ADD MSTORE PUSH1 0x20 DUP2 ADD SWAP1 POP PUSH2 0x5000 JUMP JUMPDEST DUP4 DUP2 GT ISZERO PUSH2 0x502A JUMPI PUSH1 0x0 DUP5 DUP5 ADD MSTORE JUMPDEST POP POP POP POP JUMP JUMPDEST PUSH1 0x0 DUP2 SWAP1 POP SWAP2 SWAP1 POP JUMP JUMPDEST PUSH1 0x0 PUSH1 0x1F NOT PUSH1 0x1F DUP4 ADD AND SWAP1 POP SWAP2 SWAP1 POP JUMP JUMPDEST PUSH2 0x5054 DUP2 PUSH2 0x4F65 JUMP JUMPDEST DUP2 EQ PUSH2 0x505F JUMPI PUSH1 0x0 DUP1 REVERT JUMPDEST POP JUMP JUMPDEST PUSH2 0x506B DUP2 PUSH2 0x4F77 JUMP JUMPDEST DUP2 EQ PUSH2 0x5076 JUMPI PUSH1 0x0 DUP1 REVERT JUMPDEST POP JUMP JUMPDEST PUSH2 0x5082 DUP2 PUSH2 0x4FB3 JUMP JUMPDEST DUP2 EQ PUSH2 0x508D JUMPI PUSH1 0x0 DUP1 REVERT JUMPDEST POP JUMP INVALID LOG3 PUSH6 0x627A7A723158 KECCAK256 0xd0 PUSH19 0x7CE370CC4A6B26F991CF34328A27F239683B0C 0x21 SHR 0x2d 0xa7 0x4d 0xd4 0xbf CALLDATALOAD PUSH28 0xE19B6C6578706572696D656E74616CF564736F6C634300050C004000 "},"methodIdentifiers":{"bountiesContract()":"a39da942","metaAcceptFulfillment(bytes,uint256,uint256,uint256,uint256[],uint256)":"7984dfe6","metaAddApprovers(bytes,uint256,uint256,address[],uint256)":"926b4e5f","metaAddIssuers(bytes,uint256,uint256,address[],uint256)":"c353a38a","metaChangeApprover(bytes,uint256,uint256,uint256,address,uint256)":"a84d579d","metaChangeBounty(bytes,uint256,uint256,address[],address[],string,uint256,uint256)":"36bb9122","metaChangeData(bytes,uint256,uint256,string,uint256)":"18900205","metaChangeDeadline(bytes,uint256,uint256,uint256,uint256)":"32a7856d","metaChangeIssuer(bytes,uint256,uint256,uint256,address,uint256)":"dc5065a8","metaContribute(bytes,uint256,uint256,uint256)":"432326a9","metaDrainBounty(bytes,uint256,uint256,uint256[],uint256)":"ae96762d","metaFulfillAndAccept(bytes,uint256,address[],string,uint256,uint256[],uint256)":"0dd72a79","metaFulfillBounty(bytes,uint256,address[],string,uint256)":"ec34c4c0","metaIssueAndContribute(bytes,address[],address[],string,uint256,address,uint256,uint256,uint256)":"b1e6bcbb","metaIssueBounty(bytes,address[],address[],string,uint256,address,uint256,uint256)":"df4015fc","metaPerformAction(bytes,uint256,string,uint256)":"484621d5","metaRefundContribution(bytes,uint256,uint256,uint256)":"93ee9f4f","metaRefundContributions(bytes,uint256,uint256,uint256[],uint256)":"fbb9e715","metaRefundMyContributions(bytes,uint256,uint256[],uint256)":"632ebc7b","metaUpdateFulfillment(bytes,uint256,uint256,address[],string,uint256)":"103cd44f","replayNonce(address)":"67d407df"}}}}}