{"contracts/StandardBounties.sol":{"StandardBounties":{"abi":[{"inputs":[],"payable":false,"stateMutability":"nonpayable","type":"constructor"},{"anonymous":false,"inputs":[{"indexed":false,"internalType":"uint256","name":"_bountyId","type":"uint256"},{"indexed":false,"internalType":"address","name":"_fulfiller","type":"address"},{"indexed":false,"internalType":"string","name":"_data","type":"string"}],"name":"ActionPerformed","type":"event"},{"anonymous":false,"inputs":[{"indexed":false,"internalType":"uint256","name":"_bountyId","type":"uint256"},{"indexed":false,"internalType":"address","name":"_changer","type":"address"},{"indexed":false,"internalType":"address[]","name":"_approvers","type":"address[]"}],"name":"BountyApproversUpdated","type":"event"},{"anonymous":false,"inputs":[{"indexed":false,"internalType":"uint256","name":"_bountyId","type":"uint256"},{"indexed":false,"internalType":"address","name":"_changer","type":"address"},{"indexed":false,"internalType":"address payable[]","name":"_issuers","type":"address[]"},{"indexed":false,"internalType":"address payable[]","name":"_approvers","type":"address[]"},{"indexed":false,"internalType":"string","name":"_data","type":"string"},{"indexed":false,"internalType":"uint256","name":"_deadline","type":"uint256"}],"name":"BountyChanged","type":"event"},{"anonymous":false,"inputs":[{"indexed":false,"internalType":"uint256","name":"_bountyId","type":"uint256"},{"indexed":false,"internalType":"address","name":"_changer","type":"address"},{"indexed":false,"internalType":"string","name":"_data","type":"string"}],"name":"BountyDataChanged","type":"event"},{"anonymous":false,"inputs":[{"indexed":false,"internalType":"uint256","name":"_bountyId","type":"uint256"},{"indexed":false,"internalType":"address","name":"_changer","type":"address"},{"indexed":false,"internalType":"uint256","name":"_deadline","type":"uint256"}],"name":"BountyDeadlineChanged","type":"event"},{"anonymous":false,"inputs":[{"indexed":false,"internalType":"uint256","name":"_bountyId","type":"uint256"},{"indexed":false,"internalType":"address","name":"_issuer","type":"address"},{"indexed":false,"internalType":"uint256[]","name":"_amounts","type":"uint256[]"}],"name":"BountyDrained","type":"event"},{"anonymous":false,"inputs":[{"indexed":false,"internalType":"uint256","name":"_bountyId","type":"uint256"},{"indexed":false,"internalType":"uint256","name":"_fulfillmentId","type":"uint256"},{"indexed":false,"internalType":"address payable[]","name":"_fulfillers","type":"address[]"},{"indexed":false,"internalType":"string","name":"_data","type":"string"},{"indexed":false,"internalType":"address","name":"_submitter","type":"address"}],"name":"BountyFulfilled","type":"event"},{"anonymous":false,"inputs":[{"indexed":false,"internalType":"uint256","name":"_bountyId","type":"uint256"},{"indexed":false,"internalType":"address payable","name":"_creator","type":"address"},{"indexed":false,"internalType":"address payable[]","name":"_issuers","type":"address[]"},{"indexed":false,"internalType":"address[]","name":"_approvers","type":"address[]"},{"indexed":false,"internalType":"string","name":"_data","type":"string"},{"indexed":false,"internalType":"uint256","name":"_deadline","type":"uint256"},{"indexed":false,"internalType":"address","name":"_token","type":"address"},{"indexed":false,"internalType":"uint256","name":"_tokenVersion","type":"uint256"}],"name":"BountyIssued","type":"event"},{"anonymous":false,"inputs":[{"indexed":false,"internalType":"uint256","name":"_bountyId","type":"uint256"},{"indexed":false,"internalType":"address","name":"_changer","type":"address"},{"indexed":false,"internalType":"address payable[]","name":"_issuers","type":"address[]"}],"name":"BountyIssuersUpdated","type":"event"},{"anonymous":false,"inputs":[{"indexed":false,"internalType":"uint256","name":"_bountyId","type":"uint256"},{"indexed":false,"internalType":"uint256","name":"_contributionId","type":"uint256"},{"indexed":false,"internalType":"address payable","name":"_contributor","type":"address"},{"indexed":false,"internalType":"uint256","name":"_amount","type":"uint256"}],"name":"ContributionAdded","type":"event"},{"anonymous":false,"inputs":[{"indexed":false,"internalType":"uint256","name":"_bountyId","type":"uint256"},{"indexed":false,"internalType":"uint256","name":"_contributionId","type":"uint256"}],"name":"ContributionRefunded","type":"event"},{"anonymous":false,"inputs":[{"indexed":false,"internalType":"uint256","name":"_bountyId","type":"uint256"},{"indexed":false,"internalType":"address","name":"_issuer","type":"address"},{"indexed":false,"internalType":"uint256[]","name":"_contributionIds","type":"uint256[]"}],"name":"ContributionsRefunded","type":"event"},{"anonymous":false,"inputs":[{"indexed":false,"internalType":"uint256","name":"_bountyId","type":"uint256"},{"indexed":false,"internalType":"uint256","name":"_fulfillmentId","type":"uint256"},{"indexed":false,"internalType":"address","name":"_approver","type":"address"},{"indexed":false,"internalType":"uint256[]","name":"_tokenAmounts","type":"uint256[]"}],"name":"FulfillmentAccepted","type":"event"},{"anonymous":false,"inputs":[{"indexed":false,"internalType":"uint256","name":"_bountyId","type":"uint256"},{"indexed":false,"internalType":"uint256","name":"_fulfillmentId","type":"uint256"},{"indexed":false,"internalType":"address payable[]","name":"_fulfillers","type":"address[]"},{"indexed":false,"internalType":"string","name":"_data","type":"string"}],"name":"FulfillmentUpdated","type":"event"},{"constant":false,"inputs":[{"internalType":"address","name":"_sender","type":"address"},{"internalType":"uint256","name":"_bountyId","type":"uint256"},{"internalType":"uint256","name":"_fulfillmentId","type":"uint256"},{"internalType":"uint256","name":"_approverId","type":"uint256"},{"internalType":"uint256[]","name":"_tokenAmounts","type":"uint256[]"}],"name":"acceptFulfillment","outputs":[],"payable":false,"stateMutability":"nonpayable","type":"function"},{"constant":false,"inputs":[{"internalType":"address","name":"_sender","type":"address"},{"internalType":"uint256","name":"_bountyId","type":"uint256"},{"internalType":"uint256","name":"_issuerId","type":"uint256"},{"internalType":"address[]","name":"_approvers","type":"address[]"}],"name":"addApprovers","outputs":[],"payable":false,"stateMutability":"nonpayable","type":"function"},{"constant":false,"inputs":[{"internalType":"address","name":"_sender","type":"address"},{"internalType":"uint256","name":"_bountyId","type":"uint256"},{"internalType":"uint256","name":"_issuerId","type":"uint256"},{"internalType":"address payable[]","name":"_issuers","type":"address[]"}],"name":"addIssuers","outputs":[],"payable":false,"stateMutability":"nonpayable","type":"function"},{"constant":true,"inputs":[{"internalType":"uint256","name":"","type":"uint256"}],"name":"bounties","outputs":[{"internalType":"uint256","name":"deadline","type":"uint256"},{"internalType":"address","name":"token","type":"address"},{"internalType":"uint256","name":"tokenVersion","type":"uint256"},{"internalType":"uint256","name":"balance","type":"uint256"},{"internalType":"bool","name":"hasPaidOut","type":"bool"}],"payable":false,"stateMutability":"view","type":"function"},{"constant":true,"inputs":[],"name":"callStarted","outputs":[{"internalType":"bool","name":"","type":"bool"}],"payable":false,"stateMutability":"view","type":"function"},{"constant":false,"inputs":[{"internalType":"address","name":"_sender","type":"address"},{"internalType":"uint256","name":"_bountyId","type":"uint256"},{"internalType":"uint256","name":"_issuerId","type":"uint256"},{"internalType":"uint256","name":"_approverId","type":"uint256"},{"internalType":"address payable","name":"_approver","type":"address"}],"name":"changeApprover","outputs":[],"payable":false,"stateMutability":"nonpayable","type":"function"},{"constant":false,"inputs":[{"internalType":"address","name":"_sender","type":"address"},{"internalType":"uint256","name":"_bountyId","type":"uint256"},{"internalType":"uint256","name":"_issuerId","type":"uint256"},{"internalType":"address payable[]","name":"_issuers","type":"address[]"},{"internalType":"address payable[]","name":"_approvers","type":"address[]"},{"internalType":"string","name":"_data","type":"string"},{"internalType":"uint256","name":"_deadline","type":"uint256"}],"name":"changeBounty","outputs":[],"payable":false,"stateMutability":"nonpayable","type":"function"},{"constant":false,"inputs":[{"internalType":"address","name":"_sender","type":"address"},{"internalType":"uint256","name":"_bountyId","type":"uint256"},{"internalType":"uint256","name":"_issuerId","type":"uint256"},{"internalType":"string","name":"_data","type":"string"}],"name":"changeData","outputs":[],"payable":false,"stateMutability":"nonpayable","type":"function"},{"constant":false,"inputs":[{"internalType":"address","name":"_sender","type":"address"},{"internalType":"uint256","name":"_bountyId","type":"uint256"},{"internalType":"uint256","name":"_issuerId","type":"uint256"},{"internalType":"uint256","name":"_deadline","type":"uint256"}],"name":"changeDeadline","outputs":[],"payable":false,"stateMutability":"nonpayable","type":"function"},{"constant":false,"inputs":[{"internalType":"address","name":"_sender","type":"address"},{"internalType":"uint256","name":"_bountyId","type":"uint256"},{"internalType":"uint256","name":"_issuerId","type":"uint256"},{"internalType":"uint256","name":"_issuerIdToChange","type":"uint256"},{"internalType":"address payable","name":"_newIssuer","type":"address"}],"name":"changeIssuer","outputs":[],"payable":false,"stateMutability":"nonpayable","type":"function"},{"constant":false,"inputs":[{"internalType":"address","name":"_sender","type":"address"},{"internalType":"uint256","name":"_bountyId","type":"uint256"},{"internalType":"uint256","name":"_issuerId","type":"uint256"},{"internalType":"uint256","name":"_issuerIdToChange","type":"uint256"},{"internalType":"uint256","name":"_approverIdToChange","type":"uint256"},{"internalType":"address payable","name":"_issuer","type":"address"}],"name":"changeIssuerAndApprover","outputs":[],"payable":false,"stateMutability":"nonpayable","type":"function"},{"constant":false,"inputs":[{"internalType":"address payable","name":"_sender","type":"address"},{"internalType":"uint256","name":"_bountyId","type":"uint256"},{"internalType":"uint256","name":"_amount","type":"uint256"}],"name":"contribute","outputs":[],"payable":true,"stateMutability":"payable","type":"function"},{"constant":false,"inputs":[{"internalType":"address payable","name":"_sender","type":"address"},{"internalType":"uint256","name":"_bountyId","type":"uint256"},{"internalType":"uint256","name":"_issuerId","type":"uint256"},{"internalType":"uint256[]","name":"_amounts","type":"uint256[]"}],"name":"drainBounty","outputs":[],"payable":false,"stateMutability":"nonpayable","type":"function"},{"constant":false,"inputs":[{"internalType":"address","name":"_sender","type":"address"},{"internalType":"uint256","name":"_bountyId","type":"uint256"},{"internalType":"address payable[]","name":"_fulfillers","type":"address[]"},{"internalType":"string","name":"_data","type":"string"},{"internalType":"uint256","name":"_approverId","type":"uint256"},{"internalType":"uint256[]","name":"_tokenAmounts","type":"uint256[]"}],"name":"fulfillAndAccept","outputs":[],"payable":false,"stateMutability":"nonpayable","type":"function"},{"constant":false,"inputs":[{"internalType":"address","name":"_sender","type":"address"},{"internalType":"uint256","name":"_bountyId","type":"uint256"},{"internalType":"address payable[]","name":"_fulfillers","type":"address[]"},{"internalType":"string","name":"_data","type":"string"}],"name":"fulfillBounty","outputs":[],"payable":false,"stateMutability":"nonpayable","type":"function"},{"constant":true,"inputs":[{"internalType":"uint256","name":"_bountyId","type":"uint256"}],"name":"getBounty","outputs":[{"components":[{"internalType":"address payable[]","name":"issuers","type":"address[]"},{"internalType":"address[]","name":"approvers","type":"address[]"},{"internalType":"uint256","name":"deadline","type":"uint256"},{"internalType":"address","name":"token","type":"address"},{"internalType":"uint256","name":"tokenVersion","type":"uint256"},{"internalType":"uint256","name":"balance","type":"uint256"},{"internalType":"bool","name":"hasPaidOut","type":"bool"},{"components":[{"internalType":"address payable[]","name":"fulfillers","type":"address[]"},{"internalType":"address","name":"submitter","type":"address"}],"internalType":"struct StandardBounties.Fulfillment[]","name":"fulfillments","type":"tuple[]"},{"components":[{"internalType":"address payable","name":"contributor","type":"address"},{"internalType":"uint256","name":"amount","type":"uint256"},{"internalType":"bool","name":"refunded","type":"bool"}],"internalType":"struct StandardBounties.Contribution[]","name":"contributions","type":"tuple[]"}],"internalType":"struct StandardBounties.Bounty","name":"","type":"tuple"}],"payable":false,"stateMutability":"view","type":"function"},{"constant":false,"inputs":[{"internalType":"address payable","name":"_sender","type":"address"},{"internalType":"address payable[]","name":"_issuers","type":"address[]"},{"internalType":"address[]","name":"_approvers","type":"address[]"},{"internalType":"string","name":"_data","type":"string"},{"internalType":"uint256","name":"_deadline","type":"uint256"},{"internalType":"address","name":"_token","type":"address"},{"internalType":"uint256","name":"_tokenVersion","type":"uint256"},{"internalType":"uint256","name":"_depositAmount","type":"uint256"}],"name":"issueAndContribute","outputs":[{"internalType":"uint256","name":"","type":"uint256"}],"payable":true,"stateMutability":"payable","type":"function"},{"constant":false,"inputs":[{"internalType":"address payable","name":"_sender","type":"address"},{"internalType":"address payable[]","name":"_issuers","type":"address[]"},{"internalType":"address[]","name":"_approvers","type":"address[]"},{"internalType":"string","name":"_data","type":"string"},{"internalType":"uint256","name":"_deadline","type":"uint256"},{"internalType":"address","name":"_token","type":"address"},{"internalType":"uint256","name":"_tokenVersion","type":"uint256"}],"name":"issueBounty","outputs":[{"internalType":"uint256","name":"","type":"uint256"}],"payable":false,"stateMutability":"nonpayable","type":"function"},{"constant":true,"inputs":[],"name":"metaTxRelayer","outputs":[{"internalType":"address","name":"","type":"address"}],"payable":false,"stateMutability":"view","type":"function"},{"constant":true,"inputs":[],"name":"numBounties","outputs":[{"internalType":"uint256","name":"","type":"uint256"}],"payable":false,"stateMutability":"view","type":"function"},{"constant":true,"inputs":[],"name":"owner","outputs":[{"internalType":"address","name":"","type":"address"}],"payable":false,"stateMutability":"view","type":"function"},{"constant":false,"inputs":[{"internalType":"address","name":"_sender","type":"address"},{"internalType":"uint256","name":"_bountyId","type":"uint256"},{"internalType":"string","name":"_data","type":"string"}],"name":"performAction","outputs":[],"payable":false,"stateMutability":"nonpayable","type":"function"},{"constant":false,"inputs":[{"internalType":"address","name":"_sender","type":"address"},{"internalType":"uint256","name":"_bountyId","type":"uint256"},{"internalType":"uint256","name":"_contributionId","type":"uint256"}],"name":"refundContribution","outputs":[],"payable":false,"stateMutability":"nonpayable","type":"function"},{"constant":false,"inputs":[{"internalType":"address","name":"_sender","type":"address"},{"internalType":"uint256","name":"_bountyId","type":"uint256"},{"internalType":"uint256","name":"_issuerId","type":"uint256"},{"internalType":"uint256[]","name":"_contributionIds","type":"uint256[]"}],"name":"refundContributions","outputs":[],"payable":false,"stateMutability":"nonpayable","type":"function"},{"constant":false,"inputs":[{"internalType":"address","name":"_sender","type":"address"},{"internalType":"uint256","name":"_bountyId","type":"uint256"},{"internalType":"uint256[]","name":"_contributionIds","type":"uint256[]"}],"name":"refundMyContributions","outputs":[],"payable":false,"stateMutability":"nonpayable","type":"function"},{"constant":false,"inputs":[{"internalType":"address","name":"_relayer","type":"address"}],"name":"setMetaTxRelayer","outputs":[],"payable":false,"stateMutability":"nonpayable","type":"function"},{"constant":true,"inputs":[{"internalType":"uint256","name":"","type":"uint256"},{"internalType":"uint256","name":"","type":"uint256"}],"name":"tokenBalances","outputs":[{"internalType":"bool","name":"","type":"bool"}],"payable":false,"stateMutability":"view","type":"function"},{"constant":false,"inputs":[{"internalType":"address","name":"_sender","type":"address"},{"internalType":"uint256","name":"_bountyId","type":"uint256"},{"internalType":"uint256","name":"_fulfillmentId","type":"uint256"},{"internalType":"address payable[]","name":"_fulfillers","type":"address[]"},{"internalType":"string","name":"_data","type":"string"}],"name":"updateFulfillment","outputs":[],"payable":false,"stateMutability":"nonpayable","type":"function"}],"evm":{"bytecode":{"linkReferences":{},"object":"608060405234801561001057600080fd5b5033600360006101000a81548173ffffffffffffffffffffffffffffffffffffffff021916908373ffffffffffffffffffffffffffffffffffffffff160217905550615bac80620000626000396000f3fe6080604052600436106101b65760003560e01c80639e64d9bf116100ec578063c22215b81161008a578063dc2f874411610064578063dc2f8744146105a9578063ec41e4cd146105ea578063edba701314610627578063ee8c4bbf14610650576101b6565b8063c22215b81461052e578063c496045014610557578063c6a8b42b14610580576101b6565b8063aa17aaef116100c6578063aa17aaef14610488578063b178d768146104b1578063bae37556146104da578063c1107c1114610503576101b6565b80639e64d9bf1461041a578063a071fbd514610443578063a08f793c1461046c576101b6565b806361cf22131161015957806388db0f521161013357806388db0f52146103725780638da5cb5b1461039d57806393c1ccc9146103c857806397d76665146103f1576101b6565b806361cf2213146102f5578063720dc00c1461031e5780637ef8213c14610349576101b6565b80633756f3c8116101955780633756f3c81461023d5780634ac4e25a146102665780634daf1bb51461028f578063567b3d2e146102b8576101b6565b8062f27e38146101bb57806306060ae3146101e45780632092e25914610214575b600080fd5b3480156101c757600080fd5b506101e260048036036101dd91908101906149c6565b61068d565b005b6101fe60048036036101f9919081019061412e565b610982565b60405161020b919061525b565b60405180910390f35b34801561022057600080fd5b5061023b6004803603610236919081019061494f565b6109b1565b005b34801561024957600080fd5b50610264600480360361025f9190810190614277565b610bc6565b005b34801561027257600080fd5b5061028d600480360361028891908101906144bd565b610eb5565b005b34801561029b57600080fd5b506102b660048036036102b19190810190614573565b610f97565b005b3480156102c457600080fd5b506102df60048036036102da9190810190614048565b6111eb565b6040516102ec919061525b565b60405180910390f35b34801561030157600080fd5b5061031c6004803603610317919081019061401f565b6113db565b005b34801561032a57600080fd5b506103336114d4565b604051610340919061521e565b60405180910390f35b34801561035557600080fd5b50610370600480360361036b9190810190614871565b6114e7565b005b34801561037e57600080fd5b5061038761167c565b604051610394919061525b565b60405180910390f35b3480156103a957600080fd5b506103b2611682565b6040516103bf919061516c565b60405180910390f35b3480156103d457600080fd5b506103ef60048036036103ea9190810190614524565b6116a8565b005b3480156103fd57600080fd5b50610418600480360361041391908101906142f2565b6119b5565b005b34801561042657600080fd5b50610441600480360361043c919081019061494f565b611bba565b005b34801561044f57600080fd5b5061046a600480360361046591908101906147f6565b611dff565b005b61048660048036036104819190810190614228565b6120c3565b005b34801561049457600080fd5b506104af60048036036104aa91908101906148ec565b6125d8565b005b3480156104bd57600080fd5b506104d860048036036104d39190810190614669565b612788565b005b3480156104e657600080fd5b5061050160048036036104fc9190810190614a55565b6129a5565b005b34801561050f57600080fd5b50610518612c94565b604051610525919061516c565b60405180910390f35b34801561053a57600080fd5b5061055560048036036105509190810190614385565b612cba565b005b34801561056357600080fd5b5061057e6004803603610579919081019061474f565b612d88565b005b34801561058c57600080fd5b506105a760048036036105a291908101906145ee565b612f6e565b005b3480156105b557600080fd5b506105d060048036036105cb9190810190614b07565b6131c2565b6040516105e19594939291906154ec565b60405180910390f35b3480156105f657600080fd5b50610611600480360361060c9190810190614b30565b613225565b60405161061e919061521e565b60405180910390f35b34801561063357600080fd5b5061064e60048036036106499190810190614456565b613254565b005b34801561065c57600080fd5b5061067760048036036106729190810190614b07565b613326565b6040516106849190615239565b60405180910390f35b848073ffffffffffffffffffffffffffffffffffffffff163373ffffffffffffffffffffffffffffffffffffffff1614806107155750600460009054906101000a900473ffffffffffffffffffffffffffffffffffffffff1673ffffffffffffffffffffffffffffffffffffffff163373ffffffffffffffffffffffffffffffffffffffff16145b61071e57600080fd5b84600054811061072d57600080fd5b85856001600083815260200190815260200160002060070180549050811061075457600080fd5b88888760016000838152602001908152602001600020600101818154811061077857fe5b9060005260206000200160009054906101000a900473ffffffffffffffffffffffffffffffffffffffff1673ffffffffffffffffffffffffffffffffffffffff168373ffffffffffffffffffffffffffffffffffffffff16146107da57600080fd5b600460149054906101000a900460ff16156107f457600080fd5b6001600460146101000a81548160ff02191690831515021790555060018060008d815260200190815260200160002060060160006101000a81548160ff0219169083151502179055506000600160008d81526020019081526020016000206007018b8154811061086057fe5b90600052602060002090600202019050806000018054905089511461088457600080fd5b60008090505b816000018054905081101561091a5760008a82815181106108a757fe5b6020026020010151111561090d5761090c8d8360000183815481106108c857fe5b9060005260206000200160009054906101000a900473ffffffffffffffffffffffffffffffffffffffff168c84815181106108ff57fe5b602002602001015161371c565b5b808060010191505061088a565b507f4d54a229a804a61c5213bec479b1407ce270c57b24fd8299d6ea98b6b2ab05208c8c8f8c60405161095094939291906155ad565b60405180910390a1506000600460146101000a81548160ff021916908315150217905550505050505050505050505050565b6000806109948a8a8a8a8a8a8a6111eb565b90506109a18a82856120c3565b8091505098975050505050505050565b848073ffffffffffffffffffffffffffffffffffffffff163373ffffffffffffffffffffffffffffffffffffffff161480610a395750600460009054906101000a900473ffffffffffffffffffffffffffffffffffffffff1673ffffffffffffffffffffffffffffffffffffffff163373ffffffffffffffffffffffffffffffffffffffff16145b610a4257600080fd5b846000548110610a5157600080fd5b868686600160008381526020019081526020016000206000018181548110610a7557fe5b9060005260206000200160009054906101000a900473ffffffffffffffffffffffffffffffffffffffff1673ffffffffffffffffffffffffffffffffffffffff168373ffffffffffffffffffffffffffffffffffffffff1614610ad757600080fd5b888760016000838152602001908152602001600020600101805490508110610afe57600080fd5b87600160008d81526020019081526020016000206001018a81548110610b2057fe5b9060005260206000200160006101000a81548173ffffffffffffffffffffffffffffffffffffffff021916908373ffffffffffffffffffffffffffffffffffffffff1602179055507f43a4e4542993b08827123085341d156186f40b28b6343f301c246a1d5f49d9f78b8d600160008f8152602001908152602001600020600101604051610bb093929190615347565b60405180910390a1505050505050505050505050565b838073ffffffffffffffffffffffffffffffffffffffff163373ffffffffffffffffffffffffffffffffffffffff161480610c4e5750600460009054906101000a900473ffffffffffffffffffffffffffffffffffffffff1673ffffffffffffffffffffffffffffffffffffffff163373ffffffffffffffffffffffffffffffffffffffff16145b610c5757600080fd5b836000548110610c6657600080fd5b858585600160008381526020019081526020016000206000018181548110610c8a57fe5b9060005260206000200160009054906101000a900473ffffffffffffffffffffffffffffffffffffffff1673ffffffffffffffffffffffffffffffffffffffff168373ffffffffffffffffffffffffffffffffffffffff1614610cec57600080fd5b600460149054906101000a900460ff1615610d0657600080fd5b6001600460146101000a81548160ff0219169083151502179055506000600160008a8152602001908152602001600020600401541480610d5c57506014600160008a815260200190815260200160002060040154145b15610dca576001865114610d6f57600080fd5b600160008981526020019081526020016000206005015486600081518110610d9357fe5b60200260200101511115610da657600080fd5b610dc5888a88600081518110610db857fe5b602002602001015161371c565b610e54565b60008090505b8651811015610e5257600260008a81526020019081526020016000206000888381518110610dfa57fe5b6020026020010151815260200190815260200160002060009054906101000a900460ff16610e2757600080fd5b610e45898b898481518110610e3857fe5b602002602001015161371c565b8080600101915050610dd0565b505b7fc9db45671da2b4994b84d56a8832d4e0bcc3722230dffce39df6886f9ec2d7d6888a88604051610e8793929190615309565b60405180910390a16000600460146101000a81548160ff021916908315150217905550505050505050505050565b828073ffffffffffffffffffffffffffffffffffffffff163373ffffffffffffffffffffffffffffffffffffffff161480610f3d5750600460009054906101000a900473ffffffffffffffffffffffffffffffffffffffff1673ffffffffffffffffffffffffffffffffffffffff163373ffffffffffffffffffffffffffffffffffffffff16145b610f4657600080fd5b826000548110610f5557600080fd5b7fd54885079d7edd9bea77e3f09e83bd65a121db3d3a14892227e0d2cffe73970f848685604051610f8893929190615477565b60405180910390a15050505050565b838073ffffffffffffffffffffffffffffffffffffffff163373ffffffffffffffffffffffffffffffffffffffff16148061101f5750600460009054906101000a900473ffffffffffffffffffffffffffffffffffffffff1673ffffffffffffffffffffffffffffffffffffffff163373ffffffffffffffffffffffffffffffffffffffff16145b61102857600080fd5b83600054811061103757600080fd5b84846001600083815260200190815260200160002060000180549050811061105e57600080fd5b87878760016000838152602001908152602001600020600001818154811061108257fe5b9060005260206000200160009054906101000a900473ffffffffffffffffffffffffffffffffffffffff1673ffffffffffffffffffffffffffffffffffffffff168373ffffffffffffffffffffffffffffffffffffffff16146110e457600080fd5b60008090505b885181101561118d57600160008c815260200190815260200160002060010189828151811061111557fe5b602002602001015190806001815401808255809150509060018203906000526020600020016000909192909190916101000a81548173ffffffffffffffffffffffffffffffffffffffff021916908373ffffffffffffffffffffffffffffffffffffffff1602179055505080806001019150506110ea565b507f43a4e4542993b08827123085341d156186f40b28b6343f301c246a1d5f49d9f78a8c600160008e81526020019081526020016000206001016040516111d693929190615347565b60405180910390a15050505050505050505050565b6000878073ffffffffffffffffffffffffffffffffffffffff163373ffffffffffffffffffffffffffffffffffffffff1614806112755750600460009054906101000a900473ffffffffffffffffffffffffffffffffffffffff1673ffffffffffffffffffffffffffffffffffffffff163373ffffffffffffffffffffffffffffffffffffffff16145b61127e57600080fd5b600083148061128d5750601483145b8061129957506102d183145b6112a257600080fd5b6000885111806112b3575060008751115b6112bc57600080fd5b6000805490506000600160008381526020019081526020016000209050898160000190805190602001906112f1929190613adc565b508881600101908051906020019061130a929190613b66565b508681600201819055508481600401819055506000851461136957858160030160006101000a81548173ffffffffffffffffffffffffffffffffffffffff021916908373ffffffffffffffffffffffffffffffffffffffff1602179055505b61137f6001600054613aab90919063ffffffff16565b6000819055507feea6c8039af43860e84bc876245a0d129d92b942390135da1051b219149c100e828c8c8c8c8c8c8c6040516113c2989796959493929190615276565b60405180910390a1819350505050979650505050505050565b600360009054906101000a900473ffffffffffffffffffffffffffffffffffffffff1673ffffffffffffffffffffffffffffffffffffffff163373ffffffffffffffffffffffffffffffffffffffff161461143557600080fd5b600073ffffffffffffffffffffffffffffffffffffffff16600460009054906101000a900473ffffffffffffffffffffffffffffffffffffffff1673ffffffffffffffffffffffffffffffffffffffff161461149057600080fd5b80600460006101000a81548173ffffffffffffffffffffffffffffffffffffffff021916908373ffffffffffffffffffffffffffffffffffffffff16021790555050565b600460149054906101000a900460ff1681565b838073ffffffffffffffffffffffffffffffffffffffff163373ffffffffffffffffffffffffffffffffffffffff16148061156f5750600460009054906101000a900473ffffffffffffffffffffffffffffffffffffffff1673ffffffffffffffffffffffffffffffffffffffff163373ffffffffffffffffffffffffffffffffffffffff16145b61157857600080fd5b83600054811061158757600080fd5b8484600160008381526020019081526020016000206000018054905081106115ae57600080fd5b8787876001600083815260200190815260200160002060000181815481106115d257fe5b9060005260206000200160009054906101000a900473ffffffffffffffffffffffffffffffffffffffff1673ffffffffffffffffffffffffffffffffffffffff168373ffffffffffffffffffffffffffffffffffffffff161461163457600080fd5b7fdc41a74d84036920901cf73075fc7f917d75b1f5dbd7955c12f92033362472338a8c8a60405161166793929190615477565b60405180910390a15050505050505050505050565b60005481565b600360009054906101000a900473ffffffffffffffffffffffffffffffffffffffff1681565b828073ffffffffffffffffffffffffffffffffffffffff163373ffffffffffffffffffffffffffffffffffffffff1614806117305750600460009054906101000a900473ffffffffffffffffffffffffffffffffffffffff1673ffffffffffffffffffffffffffffffffffffffff163373ffffffffffffffffffffffffffffffffffffffff16145b61173957600080fd5b82600054811061174857600080fd5b83836001600083815260200190815260200160002060080180549050811061176f57600080fd5b86868660016000838152602001908152602001600020600801818154811061179357fe5b906000526020600020906003020160000160009054906101000a900473ffffffffffffffffffffffffffffffffffffffff1673ffffffffffffffffffffffffffffffffffffffff168373ffffffffffffffffffffffffffffffffffffffff16146117fc57600080fd5b886001600082815260200190815260200160002060060160009054906101000a900460ff161561182b57600080fd5b898960016000838152602001908152602001600020600801818154811061184e57fe5b906000526020600020906003020160020160009054906101000a900460ff161561187757600080fd5b600460149054906101000a900460ff161561189157600080fd5b6001600460146101000a81548160ff021916908315150217905550600160008d81526020019081526020016000206002015442116118ce57600080fd5b6000600160008e81526020019081526020016000206008018c815481106118f157fe5b9060005260206000209060030201905060018160020160006101000a81548160ff0219169083151502179055506119518d8260000160009054906101000a900473ffffffffffffffffffffffffffffffffffffffff16836001015461371c565b7ffb1da5cbf027ad18b7c1f786bf81e9920cc0db09d7e299a8e4f3dbb64ce32f018d8d60405161198292919061553f565b60405180910390a1506000600460146101000a81548160ff02191690831515021790555050505050505050505050505050565b838073ffffffffffffffffffffffffffffffffffffffff163373ffffffffffffffffffffffffffffffffffffffff161480611a3d5750600460009054906101000a900473ffffffffffffffffffffffffffffffffffffffff1673ffffffffffffffffffffffffffffffffffffffff163373ffffffffffffffffffffffffffffffffffffffff16145b611a4657600080fd5b836000548110611a5557600080fd5b60016000868152602001908152602001600020600201544210611a7757600080fd5b6000845111611a8557600080fd5b6001600086815260200190815260200160002060070160405180604001604052808681526020018873ffffffffffffffffffffffffffffffffffffffff16815250908060018154018082558091505090600182039060005260206000209060020201600090919290919091506000820151816000019080519060200190611b0d929190613bf0565b5060208201518160010160006101000a81548173ffffffffffffffffffffffffffffffffffffffff021916908373ffffffffffffffffffffffffffffffffffffffff1602179055505050507fb9fb09db36801e95ddbb658a96b7ecf81b9b7e105e4a82d8887b1e7eadd45b84856001806000898152602001908152602001600020600701805490500386868a604051611baa95949392919061564c565b60405180910390a1505050505050565b848073ffffffffffffffffffffffffffffffffffffffff163373ffffffffffffffffffffffffffffffffffffffff161480611c425750600460009054906101000a900473ffffffffffffffffffffffffffffffffffffffff1673ffffffffffffffffffffffffffffffffffffffff163373ffffffffffffffffffffffffffffffffffffffff16145b611c4b57600080fd5b846000548110611c5a57600080fd5b858460016000838152602001908152602001600020600001805490508110611c8157600080fd5b888888600160008381526020019081526020016000206000018181548110611ca557fe5b9060005260206000200160009054906101000a900473ffffffffffffffffffffffffffffffffffffffff1673ffffffffffffffffffffffffffffffffffffffff168373ffffffffffffffffffffffffffffffffffffffff1614611d0757600080fd5b600160008c8152602001908152602001600020600001805490508a1080611d2e575060008a145b611d3757600080fd5b87600160008d81526020019081526020016000206000018a81548110611d5957fe5b9060005260206000200160006101000a81548173ffffffffffffffffffffffffffffffffffffffff021916908373ffffffffffffffffffffffffffffffffffffffff1602179055507fc969620b1b90646a0d597289d87dcf90d4cc4e554bddf0c003dfc05954a6d3598b8d600160008f8152602001908152602001600020600001604051611de9939291906153fb565b60405180910390a1505050505050505050505050565b838073ffffffffffffffffffffffffffffffffffffffff163373ffffffffffffffffffffffffffffffffffffffff161480611e875750600460009054906101000a900473ffffffffffffffffffffffffffffffffffffffff1673ffffffffffffffffffffffffffffffffffffffff163373ffffffffffffffffffffffffffffffffffffffff16145b611e9057600080fd5b836000548110611e9f57600080fd5b858585600160008381526020019081526020016000206000018181548110611ec357fe5b9060005260206000200160009054906101000a900473ffffffffffffffffffffffffffffffffffffffff1673ffffffffffffffffffffffffffffffffffffffff168373ffffffffffffffffffffffffffffffffffffffff1614611f2557600080fd5b600460149054906101000a900460ff1615611f3f57600080fd5b6001600460146101000a81548160ff02191690831515021790555060008090505b865181101561206157600160008a815260200190815260200160002060080180549050878281518110611f8f57fe5b602002602001015110611fa157600080fd5b6000600160008b8152602001908152602001600020600801888381518110611fc557fe5b602002602001015181548110611fd757fe5b906000526020600020906003020190508060020160009054906101000a900460ff161561200357600080fd5b60018160020160006101000a81548160ff0219169083151502179055506120538a8260000160009054906101000a900473ffffffffffffffffffffffffffffffffffffffff16836001015461371c565b508080600101915050611f60565b507fc55c552370ad68c2faed667a8224a8ab373e39368872484a40619b1e884336de888a8860405161209593929190615439565b60405180910390a16000600460146101000a81548160ff021916908315150217905550505050505050505050565b828073ffffffffffffffffffffffffffffffffffffffff163373ffffffffffffffffffffffffffffffffffffffff16148061214b5750600460009054906101000a900473ffffffffffffffffffffffffffffffffffffffff1673ffffffffffffffffffffffffffffffffffffffff163373ffffffffffffffffffffffffffffffffffffffff16145b61215457600080fd5b82600054811061216357600080fd5b600460149054906101000a900460ff161561217d57600080fd5b6001600460146101000a81548160ff021916908315150217905550600083116121a557600080fd5b6001600085815260200190815260200160002060080160405180606001604052808773ffffffffffffffffffffffffffffffffffffffff168152602001858152602001600015158152509080600181540180825580915050906001820390600052602060002090600302016000909192909190915060008201518160000160006101000a81548173ffffffffffffffffffffffffffffffffffffffff021916908373ffffffffffffffffffffffffffffffffffffffff1602179055506020820151816001015560408201518160020160006101000a81548160ff021916908315150217905550505050600060016000868152602001908152602001600020600401541415612301576122d6836001600087815260200190815260200160002060050154613aab90919063ffffffff16565b60016000868152602001908152602001600020600501819055508234146122fc57600080fd5b61255e565b60146001600086815260200190815260200160002060040154141561244357612349836001600087815260200190815260200160002060050154613aab90919063ffffffff16565b60016000868152602001908152602001600020600501819055506000341461237057600080fd5b6001600085815260200190815260200160002060030160009054906101000a900473ffffffffffffffffffffffffffffffffffffffff1673ffffffffffffffffffffffffffffffffffffffff166323b872dd8630866040518463ffffffff1660e01b81526004016123e393929190615187565b602060405180830381600087803b1580156123fd57600080fd5b505af1158015612411573d6000803e3d6000fd5b505050506040513d601f19601f820116820180604052506124359190810190614ade565b61243e57600080fd5b61255d565b6102d16001600086815260200190815260200160002060040154141561255757600160026000868152602001908152602001600020600085815260200190815260200160002060006101000a81548160ff021916908315150217905550600034146124ad57600080fd5b6001600085815260200190815260200160002060030160009054906101000a900473ffffffffffffffffffffffffffffffffffffffff1673ffffffffffffffffffffffffffffffffffffffff166323b872dd8630866040518463ffffffff1660e01b815260040161252093929190615187565b600060405180830381600087803b15801561253a57600080fd5b505af115801561254e573d6000803e3d6000fd5b5050505061255c565b600080fd5b5b5b7f7431e5e30247dcb2379eab9b0e60e49038c5ddb5cac27f27a17e950c0220a693846001806000888152602001908152602001600020600801805490500387866040516125ae9493929190615568565b60405180910390a16000600460146101000a81548160ff0219169083151502179055505050505050565b838073ffffffffffffffffffffffffffffffffffffffff163373ffffffffffffffffffffffffffffffffffffffff1614806126605750600460009054906101000a900473ffffffffffffffffffffffffffffffffffffffff1673ffffffffffffffffffffffffffffffffffffffff163373ffffffffffffffffffffffffffffffffffffffff16145b61266957600080fd5b83600054811061267857600080fd5b84846001600083815260200190815260200160002060000180549050811061269f57600080fd5b8787876001600083815260200190815260200160002060000181815481106126c357fe5b9060005260206000200160009054906101000a900473ffffffffffffffffffffffffffffffffffffffff1673ffffffffffffffffffffffffffffffffffffffff168373ffffffffffffffffffffffffffffffffffffffff161461272557600080fd5b87600160008c8152602001908152602001600020600201819055507f946e60a77ecf689f0595d6dcd6cf1537564a1d82472a69a3be00f7e8cb6f8b7d8a8c8a604051612773939291906154b5565b60405180910390a15050505050505050505050565b868073ffffffffffffffffffffffffffffffffffffffff163373ffffffffffffffffffffffffffffffffffffffff1614806128105750600460009054906101000a900473ffffffffffffffffffffffffffffffffffffffff1673ffffffffffffffffffffffffffffffffffffffff163373ffffffffffffffffffffffffffffffffffffffff16145b61281957600080fd5b600054871061282757600080fd5b6001600088815260200190815260200160002060000180549050861061284c57600080fd5b60016000888152602001908152602001600020600001868154811061286d57fe5b9060005260206000200160009054906101000a900473ffffffffffffffffffffffffffffffffffffffff1673ffffffffffffffffffffffffffffffffffffffff168873ffffffffffffffffffffffffffffffffffffffff16146128cf57600080fd5b6000855111806128e0575060008451115b6128e957600080fd5b84600160008981526020019081526020016000206000019080519060200190612913929190613adc565b508360016000898152602001908152602001600020600101908051906020019061293e929190613c7a565b508160016000898152602001908152602001600020600201819055507f588a0d2c7e36ab3050cd6b8b12441530ae5407613e9f2a62dc10bc43a302ed9c87898787878760405161299396959493929190615385565b60405180910390a15050505050505050565b858073ffffffffffffffffffffffffffffffffffffffff163373ffffffffffffffffffffffffffffffffffffffff161480612a2d5750600460009054906101000a900473ffffffffffffffffffffffffffffffffffffffff1673ffffffffffffffffffffffffffffffffffffffff163373ffffffffffffffffffffffffffffffffffffffff16145b612a3657600080fd5b868686600160008381526020019081526020016000206000018181548110612a5a57fe5b9060005260206000200160009054906101000a900473ffffffffffffffffffffffffffffffffffffffff1673ffffffffffffffffffffffffffffffffffffffff168373ffffffffffffffffffffffffffffffffffffffff1614612abc57600080fd5b6000548910612aca57600080fd5b600160008a8152602001908152602001600020600101805490508610612aef57600080fd5b600160008a8152602001908152602001600020600001805490508710612b1457600080fd5b84600160008b81526020019081526020016000206000018881548110612b3657fe5b9060005260206000200160006101000a81548173ffffffffffffffffffffffffffffffffffffffff021916908373ffffffffffffffffffffffffffffffffffffffff16021790555084600160008b81526020019081526020016000206001018781548110612ba057fe5b9060005260206000200160006101000a81548173ffffffffffffffffffffffffffffffffffffffff021916908373ffffffffffffffffffffffffffffffffffffffff1602179055507fc969620b1b90646a0d597289d87dcf90d4cc4e554bddf0c003dfc05954a6d359898b600160008d8152602001908152602001600020600001604051612c30939291906153fb565b60405180910390a17f43a4e4542993b08827123085341d156186f40b28b6343f301c246a1d5f49d9f7898b600160008d8152602001908152602001600020600101604051612c8093929190615347565b60405180910390a150505050505050505050565b600460009054906101000a900473ffffffffffffffffffffffffffffffffffffffff1681565b858073ffffffffffffffffffffffffffffffffffffffff163373ffffffffffffffffffffffffffffffffffffffff161480612d425750600460009054906101000a900473ffffffffffffffffffffffffffffffffffffffff1673ffffffffffffffffffffffffffffffffffffffff163373ffffffffffffffffffffffffffffffffffffffff16145b612d4b57600080fd5b612d57878787876119b5565b612d7f878760018060008b81526020019081526020016000206007018054905003868661068d565b50505050505050565b848073ffffffffffffffffffffffffffffffffffffffff163373ffffffffffffffffffffffffffffffffffffffff161480612e105750600460009054906101000a900473ffffffffffffffffffffffffffffffffffffffff1673ffffffffffffffffffffffffffffffffffffffff163373ffffffffffffffffffffffffffffffffffffffff16145b612e1957600080fd5b846000548110612e2857600080fd5b858560016000838152602001908152602001600020600701805490508110612e4f57600080fd5b888888600160008381526020019081526020016000206007018181548110612e7357fe5b906000526020600020906002020160010160009054906101000a900473ffffffffffffffffffffffffffffffffffffffff1673ffffffffffffffffffffffffffffffffffffffff168373ffffffffffffffffffffffffffffffffffffffff1614612edc57600080fd5b88600160008d81526020019081526020016000206007018b81548110612efe57fe5b90600052602060002090600202016000019080519060200190612f22929190613adc565b507fde0d52ad68b0a792924de426fb3a2f2c1ce908be531894e35d85e533fbb8ec168b8b8b8b604051612f5894939291906155f9565b60405180910390a1505050505050505050505050565b838073ffffffffffffffffffffffffffffffffffffffff163373ffffffffffffffffffffffffffffffffffffffff161480612ff65750600460009054906101000a900473ffffffffffffffffffffffffffffffffffffffff1673ffffffffffffffffffffffffffffffffffffffff163373ffffffffffffffffffffffffffffffffffffffff16145b612fff57600080fd5b83600054811061300e57600080fd5b84846001600083815260200190815260200160002060000180549050811061303557600080fd5b87878760016000838152602001908152602001600020600001818154811061305957fe5b9060005260206000200160009054906101000a900473ffffffffffffffffffffffffffffffffffffffff1673ffffffffffffffffffffffffffffffffffffffff168373ffffffffffffffffffffffffffffffffffffffff16146130bb57600080fd5b60008090505b885181101561316457600160008c81526020019081526020016000206000018982815181106130ec57fe5b602002602001015190806001815401808255809150509060018203906000526020600020016000909192909190916101000a81548173ffffffffffffffffffffffffffffffffffffffff021916908373ffffffffffffffffffffffffffffffffffffffff1602179055505080806001019150506130c1565b507fc969620b1b90646a0d597289d87dcf90d4cc4e554bddf0c003dfc05954a6d3598a8c600160008e81526020019081526020016000206000016040516131ad939291906153fb565b60405180910390a15050505050505050505050565b60016020528060005260406000206000915090508060020154908060030160009054906101000a900473ffffffffffffffffffffffffffffffffffffffff16908060040154908060050154908060060160009054906101000a900460ff16905085565b60026020528160005260406000206020528060005260406000206000915091509054906101000a900460ff1681565b828073ffffffffffffffffffffffffffffffffffffffff163373ffffffffffffffffffffffffffffffffffffffff1614806132dc5750600460009054906101000a900473ffffffffffffffffffffffffffffffffffffffff1673ffffffffffffffffffffffffffffffffffffffff163373ffffffffffffffffffffffffffffffffffffffff16145b6132e557600080fd5b60008090505b825181101561331f57613312858585848151811061330557fe5b60200260200101516116a8565b80806001019150506132eb565b5050505050565b61332e613d04565b6001600083815260200190815260200160002060405180610120016040529081600082018054806020026020016040519081016040528092919081815260200182805480156133d257602002820191906000526020600020905b8160009054906101000a900473ffffffffffffffffffffffffffffffffffffffff1673ffffffffffffffffffffffffffffffffffffffff1681526020019060010190808311613388575b505050505081526020016001820180548060200260200160405190810160405280929190818152602001828054801561346057602002820191906000526020600020905b8160009054906101000a900473ffffffffffffffffffffffffffffffffffffffff1673ffffffffffffffffffffffffffffffffffffffff1681526020019060010190808311613416575b50505050508152602001600282015481526020016003820160009054906101000a900473ffffffffffffffffffffffffffffffffffffffff1673ffffffffffffffffffffffffffffffffffffffff1673ffffffffffffffffffffffffffffffffffffffff16815260200160048201548152602001600582015481526020016006820160009054906101000a900460ff1615151515815260200160078201805480602002602001604051908101604052809291908181526020016000905b828210156136335783829060005260206000209060020201604051806040016040529081600082018054806020026020016040519081016040528092919081815260200182805480156135c557602002820191906000526020600020905b8160009054906101000a900473ffffffffffffffffffffffffffffffffffffffff1673ffffffffffffffffffffffffffffffffffffffff168152602001906001019080831161357b575b505050505081526020016001820160009054906101000a900473ffffffffffffffffffffffffffffffffffffffff1673ffffffffffffffffffffffffffffffffffffffff1673ffffffffffffffffffffffffffffffffffffffff16815250508152602001906001019061351d565b50505050815260200160088201805480602002602001604051908101604052809291908181526020016000905b8282101561370d57838290600052602060002090600302016040518060600160405290816000820160009054906101000a900473ffffffffffffffffffffffffffffffffffffffff1673ffffffffffffffffffffffffffffffffffffffff1673ffffffffffffffffffffffffffffffffffffffff168152602001600182015481526020016002820160009054906101000a900460ff16151515158152505081526020019060010190613660565b50505050815250509050919050565b6000600160008581526020019081526020016000206004015414156137fa576000811161374857600080fd5b806001600085815260200190815260200160002060050154101561376b57600080fd5b613794816001600086815260200190815260200160002060050154613ac590919063ffffffff16565b60016000858152602001908152602001600020600501819055508173ffffffffffffffffffffffffffffffffffffffff166108fc829081150290604051600060405180830381858888f193505050501580156137f4573d6000803e3d6000fd5b50613aa6565b60146001600085815260200190815260200160002060040154141561395d576000811161382657600080fd5b806001600085815260200190815260200160002060050154101561384957600080fd5b613872816001600086815260200190815260200160002060050154613ac590919063ffffffff16565b60016000858152602001908152602001600020600501819055506001600084815260200190815260200160002060030160009054906101000a900473ffffffffffffffffffffffffffffffffffffffff1673ffffffffffffffffffffffffffffffffffffffff1663a9059cbb83836040518363ffffffff1660e01b81526004016138fd9291906151be565b602060405180830381600087803b15801561391757600080fd5b505af115801561392b573d6000803e3d6000fd5b505050506040513d601f19601f8201168201806040525061394f9190810190614ade565b61395857600080fd5b613aa5565b6102d160016000858152602001908152602001600020600401541415613a9f5760026000848152602001908152602001600020600082815260200190815260200160002060009054906101000a900460ff166139b857600080fd5b600060026000858152602001908152602001600020600083815260200190815260200160002060006101000a81548160ff0219169083151502179055506001600084815260200190815260200160002060030160009054906101000a900473ffffffffffffffffffffffffffffffffffffffff1673ffffffffffffffffffffffffffffffffffffffff166323b872dd3084846040518463ffffffff1660e01b8152600401613a68939291906151e7565b600060405180830381600087803b158015613a8257600080fd5b505af1158015613a96573d6000803e3d6000fd5b50505050613aa4565b600080fd5b5b5b505050565b6000818301905082811015613abc57fe5b80905092915050565b600082821115613ad157fe5b818303905092915050565b828054828255906000526020600020908101928215613b55579160200282015b82811115613b545782518260006101000a81548173ffffffffffffffffffffffffffffffffffffffff021916908373ffffffffffffffffffffffffffffffffffffffff16021790555091602001919060010190613afc565b5b509050613b629190613d68565b5090565b828054828255906000526020600020908101928215613bdf579160200282015b82811115613bde5782518260006101000a81548173ffffffffffffffffffffffffffffffffffffffff021916908373ffffffffffffffffffffffffffffffffffffffff16021790555091602001919060010190613b86565b5b509050613bec9190613dab565b5090565b828054828255906000526020600020908101928215613c69579160200282015b82811115613c685782518260006101000a81548173ffffffffffffffffffffffffffffffffffffffff021916908373ffffffffffffffffffffffffffffffffffffffff16021790555091602001919060010190613c10565b5b509050613c769190613d68565b5090565b828054828255906000526020600020908101928215613cf3579160200282015b82811115613cf25782518260006101000a81548173ffffffffffffffffffffffffffffffffffffffff021916908373ffffffffffffffffffffffffffffffffffffffff16021790555091602001919060010190613c9a565b5b509050613d009190613dab565b5090565b604051806101200160405280606081526020016060815260200160008152602001600073ffffffffffffffffffffffffffffffffffffffff168152602001600081526020016000815260200160001515815260200160608152602001606081525090565b613da891905b80821115613da457600081816101000a81549073ffffffffffffffffffffffffffffffffffffffff021916905550600101613d6e565b5090565b90565b613deb91905b80821115613de757600081816101000a81549073ffffffffffffffffffffffffffffffffffffffff021916905550600101613db1565b5090565b90565b600081359050613dfd81615b0d565b92915050565b600081359050613e1281615b24565b92915050565b600082601f830112613e2957600080fd5b8135613e3c613e37826156da565b6156ad565b91508181835260208401935060208101905083856020840282011115613e6157600080fd5b60005b83811015613e915781613e778882613dee565b845260208401935060208301925050600181019050613e64565b5050505092915050565b600082601f830112613eac57600080fd5b8135613ebf613eba82615702565b6156ad565b91508181835260208401935060208101905083856020840282011115613ee457600080fd5b60005b83811015613f145781613efa8882613e03565b845260208401935060208301925050600181019050613ee7565b5050505092915050565b600082601f830112613f2f57600080fd5b8135613f42613f3d8261572a565b6156ad565b91508181835260208401935060208101905083856020840282011115613f6757600080fd5b60005b83811015613f975781613f7d888261400a565b845260208401935060208301925050600181019050613f6a565b5050505092915050565b600081519050613fb081615b3b565b92915050565b600082601f830112613fc757600080fd5b8135613fda613fd582615752565b6156ad565b91508082526020830160208301858383011115613ff657600080fd5b614001838284615a53565b50505092915050565b60008135905061401981615b52565b92915050565b60006020828403121561403157600080fd5b600061403f84828501613dee565b91505092915050565b600080600080600080600060e0888a03121561406357600080fd5b60006140718a828b01613e03565b975050602088013567ffffffffffffffff81111561408e57600080fd5b61409a8a828b01613e9b565b965050604088013567ffffffffffffffff8111156140b757600080fd5b6140c38a828b01613e18565b955050606088013567ffffffffffffffff8111156140e057600080fd5b6140ec8a828b01613fb6565b94505060806140fd8a828b0161400a565b93505060a061410e8a828b01613dee565b92505060c061411f8a828b0161400a565b91505092959891949750929550565b600080600080600080600080610100898b03121561414b57600080fd5b60006141598b828c01613e03565b985050602089013567ffffffffffffffff81111561417657600080fd5b6141828b828c01613e9b565b975050604089013567ffffffffffffffff81111561419f57600080fd5b6141ab8b828c01613e18565b965050606089013567ffffffffffffffff8111156141c857600080fd5b6141d48b828c01613fb6565b95505060806141e58b828c0161400a565b94505060a06141f68b828c01613dee565b93505060c06142078b828c0161400a565b92505060e06142188b828c0161400a565b9150509295985092959890939650565b60008060006060848603121561423d57600080fd5b600061424b86828701613e03565b935050602061425c8682870161400a565b925050604061426d8682870161400a565b9150509250925092565b6000806000806080858703121561428d57600080fd5b600061429b87828801613e03565b94505060206142ac8782880161400a565b93505060406142bd8782880161400a565b925050606085013567ffffffffffffffff8111156142da57600080fd5b6142e687828801613f1e565b91505092959194509250565b6000806000806080858703121561430857600080fd5b600061431687828801613dee565b94505060206143278782880161400a565b935050604085013567ffffffffffffffff81111561434457600080fd5b61435087828801613e9b565b925050606085013567ffffffffffffffff81111561436d57600080fd5b61437987828801613fb6565b91505092959194509250565b60008060008060008060c0878903121561439e57600080fd5b60006143ac89828a01613dee565b96505060206143bd89828a0161400a565b955050604087013567ffffffffffffffff8111156143da57600080fd5b6143e689828a01613e9b565b945050606087013567ffffffffffffffff81111561440357600080fd5b61440f89828a01613fb6565b935050608061442089828a0161400a565b92505060a087013567ffffffffffffffff81111561443d57600080fd5b61444989828a01613f1e565b9150509295509295509295565b60008060006060848603121561446b57600080fd5b600061447986828701613dee565b935050602061448a8682870161400a565b925050604084013567ffffffffffffffff8111156144a757600080fd5b6144b386828701613f1e565b9150509250925092565b6000806000606084860312156144d257600080fd5b60006144e086828701613dee565b93505060206144f18682870161400a565b925050604084013567ffffffffffffffff81111561450e57600080fd5b61451a86828701613fb6565b9150509250925092565b60008060006060848603121561453957600080fd5b600061454786828701613dee565b93505060206145588682870161400a565b92505060406145698682870161400a565b9150509250925092565b6000806000806080858703121561458957600080fd5b600061459787828801613dee565b94505060206145a88782880161400a565b93505060406145b98782880161400a565b925050606085013567ffffffffffffffff8111156145d657600080fd5b6145e287828801613e18565b91505092959194509250565b6000806000806080858703121561460457600080fd5b600061461287828801613dee565b94505060206146238782880161400a565b93505060406146348782880161400a565b925050606085013567ffffffffffffffff81111561465157600080fd5b61465d87828801613e9b565b91505092959194509250565b600080600080600080600060e0888a03121561468457600080fd5b60006146928a828b01613dee565b97505060206146a38a828b0161400a565b96505060406146b48a828b0161400a565b955050606088013567ffffffffffffffff8111156146d157600080fd5b6146dd8a828b01613e9b565b945050608088013567ffffffffffffffff8111156146fa57600080fd5b6147068a828b01613e9b565b93505060a088013567ffffffffffffffff81111561472357600080fd5b61472f8a828b01613fb6565b92505060c06147408a828b0161400a565b91505092959891949750929550565b600080600080600060a0868803121561476757600080fd5b600061477588828901613dee565b95505060206147868882890161400a565b94505060406147978882890161400a565b935050606086013567ffffffffffffffff8111156147b457600080fd5b6147c088828901613e9b565b925050608086013567ffffffffffffffff8111156147dd57600080fd5b6147e988828901613fb6565b9150509295509295909350565b6000806000806080858703121561480c57600080fd5b600061481a87828801613dee565b945050602061482b8782880161400a565b935050604061483c8782880161400a565b925050606085013567ffffffffffffffff81111561485957600080fd5b61486587828801613f1e565b91505092959194509250565b6000806000806080858703121561488757600080fd5b600061489587828801613dee565b94505060206148a68782880161400a565b93505060406148b78782880161400a565b925050606085013567ffffffffffffffff8111156148d457600080fd5b6148e087828801613fb6565b91505092959194509250565b6000806000806080858703121561490257600080fd5b600061491087828801613dee565b94505060206149218782880161400a565b93505060406149328782880161400a565b92505060606149438782880161400a565b91505092959194509250565b600080600080600060a0868803121561496757600080fd5b600061497588828901613dee565b95505060206149868882890161400a565b94505060406149978882890161400a565b93505060606149a88882890161400a565b92505060806149b988828901613e03565b9150509295509295909350565b600080600080600060a086880312156149de57600080fd5b60006149ec88828901613dee565b95505060206149fd8882890161400a565b9450506040614a0e8882890161400a565b9350506060614a1f8882890161400a565b925050608086013567ffffffffffffffff811115614a3c57600080fd5b614a4888828901613f1e565b9150509295509295909350565b60008060008060008060c08789031215614a6e57600080fd5b6000614a7c89828a01613dee565b9650506020614a8d89828a0161400a565b9550506040614a9e89828a0161400a565b9450506060614aaf89828a0161400a565b9350506080614ac089828a0161400a565b92505060a0614ad189828a01613e03565b9150509295509295509295565b600060208284031215614af057600080fd5b6000614afe84828501613fa1565b91505092915050565b600060208284031215614b1957600080fd5b6000614b278482850161400a565b91505092915050565b60008060408385031215614b4357600080fd5b6000614b518582860161400a565b9250506020614b628582860161400a565b9150509250929050565b6000614b788383614bef565b60208301905092915050565b6000614b908383614c0d565b60208301905092915050565b6000614ba883836150cf565b60608301905092915050565b6000614bc08383615111565b905092915050565b6000614bd4838361514e565b60208301905092915050565b614be981615a1d565b82525050565b614bf8816159d5565b82525050565b614c07816159d5565b82525050565b614c16816159c3565b82525050565b614c25816159c3565b82525050565b6000614c3682615823565b614c40818561590c565b9350614c4b8361578e565b8060005b83811015614c7c578151614c638882614b84565b9750614c6e83615893565b925050600181019050614c4f565b5085935050505092915050565b6000614c9482615818565b614c9e81856158fb565b9350614ca98361577e565b8060005b83811015614cda578151614cc18882614b84565b9750614ccc83615886565b925050600181019050614cad565b5085935050505092915050565b6000614cf28261582e565b614cfc818561590c565b9350614d078361579e565b8060005b83811015614d3f57614d1c82615ac9565b614d268882614b84565b9750614d31836158a0565b925050600181019050614d0b565b5085935050505092915050565b6000614d5782615844565b614d61818561592e565b9350614d6c836157c3565b8060005b83811015614d9d578151614d848882614b6c565b9750614d8f836158ba565b925050600181019050614d70565b5085935050505092915050565b6000614db582615839565b614dbf818561591d565b9350614dca836157b3565b8060005b83811015614dfb578151614de28882614b6c565b9750614ded836158ad565b925050600181019050614dce565b5085935050505092915050565b6000614e138261584f565b614e1d818561592e565b9350614e28836157d3565b8060005b83811015614e6057614e3d82615adc565b614e478882614b6c565b9750614e52836158c7565b925050600181019050614e2c565b5085935050505092915050565b6000614e788261585a565b614e82818561593f565b9350614e8d836157e8565b8060005b83811015614ebe578151614ea58882614b9c565b9750614eb0836158d4565b925050600181019050614e91565b5085935050505092915050565b6000614ed682615865565b614ee08185615950565b935083602082028501614ef2856157f8565b8060005b85811015614f2e5784840389528151614f0f8582614bb4565b9450614f1a836158e1565b925060208a01995050600181019050614ef6565b50829750879550505050505092915050565b6000614f4b82615870565b614f558185615961565b9350614f6083615808565b8060005b83811015614f91578151614f788882614bc8565b9750614f83836158ee565b925050600181019050614f64565b5085935050505092915050565b614fa7816159e7565b82525050565b614fb6816159e7565b82525050565b6000614fc78261587b565b614fd18185615972565b9350614fe1818560208601615a62565b614fea81615aef565b840191505092915050565b60006101208301600083015184820360008601526150138282614daa565b9150506020830151848203602086015261502d8282614c89565b9150506040830151615042604086018261514e565b5060608301516150556060860182614c0d565b506080830151615068608086018261514e565b5060a083015161507b60a086018261514e565b5060c083015161508e60c0860182614f9e565b5060e083015184820360e08601526150a68282614ecb565b9150506101008301518482036101008601526150c28282614e6d565b9150508091505092915050565b6060820160008201516150e56000850182614bef565b5060208201516150f8602085018261514e565b50604082015161510b6040850182614f9e565b50505050565b6000604083016000830151848203600086015261512e8282614daa565b91505060208301516151436020860182614c0d565b508091505092915050565b61515781615a13565b82525050565b61516681615a13565b82525050565b60006020820190506151816000830184614c1c565b92915050565b600060608201905061519c6000830186614be0565b6151a96020830185614c1c565b6151b6604083018461515d565b949350505050565b60006040820190506151d36000830185614be0565b6151e0602083018461515d565b9392505050565b60006060820190506151fc6000830186614c1c565b6152096020830185614be0565b615216604083018461515d565b949350505050565b60006020820190506152336000830184614fad565b92915050565b600060208201905081810360008301526152538184614ff5565b905092915050565b6000602082019050615270600083018461515d565b92915050565b60006101008201905061528c600083018b61515d565b615299602083018a614bfe565b81810360408301526152ab8189614d4c565b905081810360608301526152bf8188614c2b565b905081810360808301526152d38187614fbc565b90506152e260a083018661515d565b6152ef60c0830185614c1c565b6152fc60e083018461515d565b9998505050505050505050565b600060608201905061531e600083018661515d565b61532b6020830185614be0565b818103604083015261533d8184614f40565b9050949350505050565b600060608201905061535c600083018661515d565b6153696020830185614c1c565b818103604083015261537b8184614ce7565b9050949350505050565b600060c08201905061539a600083018961515d565b6153a76020830188614c1c565b81810360408301526153b98187614d4c565b905081810360608301526153cd8186614d4c565b905081810360808301526153e18185614fbc565b90506153f060a083018461515d565b979650505050505050565b6000606082019050615410600083018661515d565b61541d6020830185614c1c565b818103604083015261542f8184614e08565b9050949350505050565b600060608201905061544e600083018661515d565b61545b6020830185614c1c565b818103604083015261546d8184614f40565b9050949350505050565b600060608201905061548c600083018661515d565b6154996020830185614c1c565b81810360408301526154ab8184614fbc565b9050949350505050565b60006060820190506154ca600083018661515d565b6154d76020830185614c1c565b6154e4604083018461515d565b949350505050565b600060a082019050615501600083018861515d565b61550e6020830187614c1c565b61551b604083018661515d565b615528606083018561515d565b6155356080830184614fad565b9695505050505050565b6000604082019050615554600083018561515d565b615561602083018461515d565b9392505050565b600060808201905061557d600083018761515d565b61558a602083018661515d565b6155976040830185614bfe565b6155a4606083018461515d565b95945050505050565b60006080820190506155c2600083018761515d565b6155cf602083018661515d565b6155dc6040830185614c1c565b81810360608301526155ee8184614f40565b905095945050505050565b600060808201905061560e600083018761515d565b61561b602083018661515d565b818103604083015261562d8185614d4c565b905081810360608301526156418184614fbc565b905095945050505050565b600060a082019050615661600083018861515d565b61566e602083018761515d565b81810360408301526156808186614d4c565b905081810360608301526156948185614fbc565b90506156a36080830184614c1c565b9695505050505050565b6000604051905081810181811067ffffffffffffffff821117156156d057600080fd5b8060405250919050565b600067ffffffffffffffff8211156156f157600080fd5b602082029050602081019050919050565b600067ffffffffffffffff82111561571957600080fd5b602082029050602081019050919050565b600067ffffffffffffffff82111561574157600080fd5b602082029050602081019050919050565b600067ffffffffffffffff82111561576957600080fd5b601f19601f8301169050602081019050919050565b6000819050602082019050919050565b6000819050602082019050919050565b60008190508160005260206000209050919050565b6000819050602082019050919050565b6000819050602082019050919050565b60008190508160005260206000209050919050565b6000819050602082019050919050565b6000819050602082019050919050565b6000819050602082019050919050565b600081519050919050565b600081519050919050565b600081549050919050565b600081519050919050565b600081519050919050565b600081549050919050565b600081519050919050565b600081519050919050565b600081519050919050565b600081519050919050565b6000602082019050919050565b6000602082019050919050565b6000600182019050919050565b6000602082019050919050565b6000602082019050919050565b6000600182019050919050565b6000602082019050919050565b6000602082019050919050565b6000602082019050919050565b600082825260208201905092915050565b600082825260208201905092915050565b600082825260208201905092915050565b600082825260208201905092915050565b600082825260208201905092915050565b600082825260208201905092915050565b600082825260208201905092915050565b600082825260208201905092915050565b600073ffffffffffffffffffffffffffffffffffffffff82169050919050565b600073ffffffffffffffffffffffffffffffffffffffff82169050919050565b60006159ce826159f3565b9050919050565b60006159e0826159f3565b9050919050565b60008115159050919050565b600073ffffffffffffffffffffffffffffffffffffffff82169050919050565b6000819050919050565b6000615a2882615a2f565b9050919050565b6000615a3a82615a41565b9050919050565b6000615a4c826159f3565b9050919050565b82818337600083830152505050565b60005b83811015615a80578082015181840152602081019050615a65565b83811115615a8f576000848401525b50505050565b6000615aa8615aa383615b00565b615983565b9050919050565b6000615ac2615abd83615b00565b6159a3565b9050919050565b6000615ad58254615a95565b9050919050565b6000615ae88254615aaf565b9050919050565b6000601f19601f8301169050919050565b60008160001c9050919050565b615b16816159c3565b8114615b2157600080fd5b50565b615b2d816159d5565b8114615b3857600080fd5b50565b615b44816159e7565b8114615b4f57600080fd5b50565b615b5b81615a13565b8114615b6657600080fd5b5056fea365627a7a723158206bfa578f3e20b77d074b44804403fee93ca834bc28c65a7586fc512ef1a63ebb6c6578706572696d656e74616cf564736f6c634300050c0040","opcodes":"PUSH1 0x80 PUSH1 0x40 MSTORE CALLVALUE DUP1 ISZERO PUSH2 0x10 JUMPI PUSH1 0x0 DUP1 REVERT JUMPDEST POP CALLER PUSH1 0x3 PUSH1 0x0 PUSH2 0x100 EXP DUP2 SLOAD DUP2 PUSH20 0xFFFFFFFFFFFFFFFFFFFFFFFFFFFFFFFFFFFFFFFF MUL NOT AND SWAP1 DUP4 PUSH20 0xFFFFFFFFFFFFFFFFFFFFFFFFFFFFFFFFFFFFFFFF AND MUL OR SWAP1 SSTORE POP PUSH2 0x5BAC DUP1 PUSH3 0x62 PUSH1 0x0 CODECOPY PUSH1 0x0 RETURN INVALID PUSH1 0x80 PUSH1 0x40 MSTORE PUSH1 0x4 CALLDATASIZE LT PUSH2 0x1B6 JUMPI PUSH1 0x0 CALLDATALOAD PUSH1 0xE0 SHR DUP1 PUSH4 0x9E64D9BF GT PUSH2 0xEC JUMPI DUP1 PUSH4 0xC22215B8 GT PUSH2 0x8A JUMPI DUP1 PUSH4 0xDC2F8744 GT PUSH2 0x64 JUMPI DUP1 PUSH4 0xDC2F8744 EQ PUSH2 0x5A9 JUMPI DUP1 PUSH4 0xEC41E4CD EQ PUSH2 0x5EA JUMPI DUP1 PUSH4 0xEDBA7013 EQ PUSH2 0x627 JUMPI DUP1 PUSH4 0xEE8C4BBF EQ PUSH2 0x650 JUMPI PUSH2 0x1B6 JUMP JUMPDEST DUP1 PUSH4 0xC22215B8 EQ PUSH2 0x52E JUMPI DUP1 PUSH4 0xC4960450 EQ PUSH2 0x557 JUMPI DUP1 PUSH4 0xC6A8B42B EQ PUSH2 0x580 JUMPI PUSH2 0x1B6 JUMP JUMPDEST DUP1 PUSH4 0xAA17AAEF GT PUSH2 0xC6 JUMPI DUP1 PUSH4 0xAA17AAEF EQ PUSH2 0x488 JUMPI DUP1 PUSH4 0xB178D768 EQ PUSH2 0x4B1 JUMPI DUP1 PUSH4 0xBAE37556 EQ PUSH2 0x4DA JUMPI DUP1 PUSH4 0xC1107C11 EQ PUSH2 0x503 JUMPI PUSH2 0x1B6 JUMP JUMPDEST DUP1 PUSH4 0x9E64D9BF EQ PUSH2 0x41A JUMPI DUP1 PUSH4 0xA071FBD5 EQ PUSH2 0x443 JUMPI DUP1 PUSH4 0xA08F793C EQ PUSH2 0x46C JUMPI PUSH2 0x1B6 JUMP JUMPDEST DUP1 PUSH4 0x61CF2213 GT PUSH2 0x159 JUMPI DUP1 PUSH4 0x88DB0F52 GT PUSH2 0x133 JUMPI DUP1 PUSH4 0x88DB0F52 EQ PUSH2 0x372 JUMPI DUP1 PUSH4 0x8DA5CB5B EQ PUSH2 0x39D JUMPI DUP1 PUSH4 0x93C1CCC9 EQ PUSH2 0x3C8 JUMPI DUP1 PUSH4 0x97D76665 EQ PUSH2 0x3F1 JUMPI PUSH2 0x1B6 JUMP JUMPDEST DUP1 PUSH4 0x61CF2213 EQ PUSH2 0x2F5 JUMPI DUP1 PUSH4 0x720DC00C EQ PUSH2 0x31E JUMPI DUP1 PUSH4 0x7EF8213C EQ PUSH2 0x349 JUMPI PUSH2 0x1B6 JUMP JUMPDEST DUP1 PUSH4 0x3756F3C8 GT PUSH2 0x195 JUMPI DUP1 PUSH4 0x3756F3C8 EQ PUSH2 0x23D JUMPI DUP1 PUSH4 0x4AC4E25A EQ PUSH2 0x266 JUMPI DUP1 PUSH4 0x4DAF1BB5 EQ PUSH2 0x28F JUMPI DUP1 PUSH4 0x567B3D2E EQ PUSH2 0x2B8 JUMPI PUSH2 0x1B6 JUMP JUMPDEST DUP1 PUSH3 0xF27E38 EQ PUSH2 0x1BB JUMPI DUP1 PUSH4 0x6060AE3 EQ PUSH2 0x1E4 JUMPI DUP1 PUSH4 0x2092E259 EQ PUSH2 0x214 JUMPI JUMPDEST PUSH1 0x0 DUP1 REVERT JUMPDEST CALLVALUE DUP1 ISZERO PUSH2 0x1C7 JUMPI PUSH1 0x0 DUP1 REVERT JUMPDEST POP PUSH2 0x1E2 PUSH1 0x4 DUP1 CALLDATASIZE SUB PUSH2 0x1DD SWAP2 SWAP1 DUP2 ADD SWAP1 PUSH2 0x49C6 JUMP JUMPDEST PUSH2 0x68D JUMP JUMPDEST STOP JUMPDEST PUSH2 0x1FE PUSH1 0x4 DUP1 CALLDATASIZE SUB PUSH2 0x1F9 SWAP2 SWAP1 DUP2 ADD SWAP1 PUSH2 0x412E JUMP JUMPDEST PUSH2 0x982 JUMP JUMPDEST PUSH1 0x40 MLOAD PUSH2 0x20B SWAP2 SWAP1 PUSH2 0x525B JUMP JUMPDEST PUSH1 0x40 MLOAD DUP1 SWAP2 SUB SWAP1 RETURN JUMPDEST CALLVALUE DUP1 ISZERO PUSH2 0x220 JUMPI PUSH1 0x0 DUP1 REVERT JUMPDEST POP PUSH2 0x23B PUSH1 0x4 DUP1 CALLDATASIZE SUB PUSH2 0x236 SWAP2 SWAP1 DUP2 ADD SWAP1 PUSH2 0x494F JUMP JUMPDEST PUSH2 0x9B1 JUMP JUMPDEST STOP JUMPDEST CALLVALUE DUP1 ISZERO PUSH2 0x249 JUMPI PUSH1 0x0 DUP1 REVERT JUMPDEST POP PUSH2 0x264 PUSH1 0x4 DUP1 CALLDATASIZE SUB PUSH2 0x25F SWAP2 SWAP1 DUP2 ADD SWAP1 PUSH2 0x4277 JUMP JUMPDEST PUSH2 0xBC6 JUMP JUMPDEST STOP JUMPDEST CALLVALUE DUP1 ISZERO PUSH2 0x272 JUMPI PUSH1 0x0 DUP1 REVERT JUMPDEST POP PUSH2 0x28D PUSH1 0x4 DUP1 CALLDATASIZE SUB PUSH2 0x288 SWAP2 SWAP1 DUP2 ADD SWAP1 PUSH2 0x44BD JUMP JUMPDEST PUSH2 0xEB5 JUMP JUMPDEST STOP JUMPDEST CALLVALUE DUP1 ISZERO PUSH2 0x29B JUMPI PUSH1 0x0 DUP1 REVERT JUMPDEST POP PUSH2 0x2B6 PUSH1 0x4 DUP1 CALLDATASIZE SUB PUSH2 0x2B1 SWAP2 SWAP1 DUP2 ADD SWAP1 PUSH2 0x4573 JUMP JUMPDEST PUSH2 0xF97 JUMP JUMPDEST STOP JUMPDEST CALLVALUE DUP1 ISZERO PUSH2 0x2C4 JUMPI PUSH1 0x0 DUP1 REVERT JUMPDEST POP PUSH2 0x2DF PUSH1 0x4 DUP1 CALLDATASIZE SUB PUSH2 0x2DA SWAP2 SWAP1 DUP2 ADD SWAP1 PUSH2 0x4048 JUMP JUMPDEST PUSH2 0x11EB JUMP JUMPDEST PUSH1 0x40 MLOAD PUSH2 0x2EC SWAP2 SWAP1 PUSH2 0x525B JUMP JUMPDEST PUSH1 0x40 MLOAD DUP1 SWAP2 SUB SWAP1 RETURN JUMPDEST CALLVALUE DUP1 ISZERO PUSH2 0x301 JUMPI PUSH1 0x0 DUP1 REVERT JUMPDEST POP PUSH2 0x31C PUSH1 0x4 DUP1 CALLDATASIZE SUB PUSH2 0x317 SWAP2 SWAP1 DUP2 ADD SWAP1 PUSH2 0x401F JUMP JUMPDEST PUSH2 0x13DB JUMP JUMPDEST STOP JUMPDEST CALLVALUE DUP1 ISZERO PUSH2 0x32A JUMPI PUSH1 0x0 DUP1 REVERT JUMPDEST POP PUSH2 0x333 PUSH2 0x14D4 JUMP JUMPDEST PUSH1 0x40 MLOAD PUSH2 0x340 SWAP2 SWAP1 PUSH2 0x521E JUMP JUMPDEST PUSH1 0x40 MLOAD DUP1 SWAP2 SUB SWAP1 RETURN JUMPDEST CALLVALUE DUP1 ISZERO PUSH2 0x355 JUMPI PUSH1 0x0 DUP1 REVERT JUMPDEST POP PUSH2 0x370 PUSH1 0x4 DUP1 CALLDATASIZE SUB PUSH2 0x36B SWAP2 SWAP1 DUP2 ADD SWAP1 PUSH2 0x4871 JUMP JUMPDEST PUSH2 0x14E7 JUMP JUMPDEST STOP JUMPDEST CALLVALUE DUP1 ISZERO PUSH2 0x37E JUMPI PUSH1 0x0 DUP1 REVERT JUMPDEST POP PUSH2 0x387 PUSH2 0x167C JUMP JUMPDEST PUSH1 0x40 MLOAD PUSH2 0x394 SWAP2 SWAP1 PUSH2 0x525B JUMP JUMPDEST PUSH1 0x40 MLOAD DUP1 SWAP2 SUB SWAP1 RETURN JUMPDEST CALLVALUE DUP1 ISZERO PUSH2 0x3A9 JUMPI PUSH1 0x0 DUP1 REVERT JUMPDEST POP PUSH2 0x3B2 PUSH2 0x1682 JUMP JUMPDEST PUSH1 0x40 MLOAD PUSH2 0x3BF SWAP2 SWAP1 PUSH2 0x516C JUMP JUMPDEST PUSH1 0x40 MLOAD DUP1 SWAP2 SUB SWAP1 RETURN JUMPDEST CALLVALUE DUP1 ISZERO PUSH2 0x3D4 JUMPI PUSH1 0x0 DUP1 REVERT JUMPDEST POP PUSH2 0x3EF PUSH1 0x4 DUP1 CALLDATASIZE SUB PUSH2 0x3EA SWAP2 SWAP1 DUP2 ADD SWAP1 PUSH2 0x4524 JUMP JUMPDEST PUSH2 0x16A8 JUMP JUMPDEST STOP JUMPDEST CALLVALUE DUP1 ISZERO PUSH2 0x3FD JUMPI PUSH1 0x0 DUP1 REVERT JUMPDEST POP PUSH2 0x418 PUSH1 0x4 DUP1 CALLDATASIZE SUB PUSH2 0x413 SWAP2 SWAP1 DUP2 ADD SWAP1 PUSH2 0x42F2 JUMP JUMPDEST PUSH2 0x19B5 JUMP JUMPDEST STOP JUMPDEST CALLVALUE DUP1 ISZERO PUSH2 0x426 JUMPI PUSH1 0x0 DUP1 REVERT JUMPDEST POP PUSH2 0x441 PUSH1 0x4 DUP1 CALLDATASIZE SUB PUSH2 0x43C SWAP2 SWAP1 DUP2 ADD SWAP1 PUSH2 0x494F JUMP JUMPDEST PUSH2 0x1BBA JUMP JUMPDEST STOP JUMPDEST CALLVALUE DUP1 ISZERO PUSH2 0x44F JUMPI PUSH1 0x0 DUP1 REVERT JUMPDEST POP PUSH2 0x46A PUSH1 0x4 DUP1 CALLDATASIZE SUB PUSH2 0x465 SWAP2 SWAP1 DUP2 ADD SWAP1 PUSH2 0x47F6 JUMP JUMPDEST PUSH2 0x1DFF JUMP JUMPDEST STOP JUMPDEST PUSH2 0x486 PUSH1 0x4 DUP1 CALLDATASIZE SUB PUSH2 0x481 SWAP2 SWAP1 DUP2 ADD SWAP1 PUSH2 0x4228 JUMP JUMPDEST PUSH2 0x20C3 JUMP JUMPDEST STOP JUMPDEST CALLVALUE DUP1 ISZERO PUSH2 0x494 JUMPI PUSH1 0x0 DUP1 REVERT JUMPDEST POP PUSH2 0x4AF PUSH1 0x4 DUP1 CALLDATASIZE SUB PUSH2 0x4AA SWAP2 SWAP1 DUP2 ADD SWAP1 PUSH2 0x48EC JUMP JUMPDEST PUSH2 0x25D8 JUMP JUMPDEST STOP JUMPDEST CALLVALUE DUP1 ISZERO PUSH2 0x4BD JUMPI PUSH1 0x0 DUP1 REVERT JUMPDEST POP PUSH2 0x4D8 PUSH1 0x4 DUP1 CALLDATASIZE SUB PUSH2 0x4D3 SWAP2 SWAP1 DUP2 ADD SWAP1 PUSH2 0x4669 JUMP JUMPDEST PUSH2 0x2788 JUMP JUMPDEST STOP JUMPDEST CALLVALUE DUP1 ISZERO PUSH2 0x4E6 JUMPI PUSH1 0x0 DUP1 REVERT JUMPDEST POP PUSH2 0x501 PUSH1 0x4 DUP1 CALLDATASIZE SUB PUSH2 0x4FC SWAP2 SWAP1 DUP2 ADD SWAP1 PUSH2 0x4A55 JUMP JUMPDEST PUSH2 0x29A5 JUMP JUMPDEST STOP JUMPDEST CALLVALUE DUP1 ISZERO PUSH2 0x50F JUMPI PUSH1 0x0 DUP1 REVERT JUMPDEST POP PUSH2 0x518 PUSH2 0x2C94 JUMP JUMPDEST PUSH1 0x40 MLOAD PUSH2 0x525 SWAP2 SWAP1 PUSH2 0x516C JUMP JUMPDEST PUSH1 0x40 MLOAD DUP1 SWAP2 SUB SWAP1 RETURN JUMPDEST CALLVALUE DUP1 ISZERO PUSH2 0x53A JUMPI PUSH1 0x0 DUP1 REVERT JUMPDEST POP PUSH2 0x555 PUSH1 0x4 DUP1 CALLDATASIZE SUB PUSH2 0x550 SWAP2 SWAP1 DUP2 ADD SWAP1 PUSH2 0x4385 JUMP JUMPDEST PUSH2 0x2CBA JUMP JUMPDEST STOP JUMPDEST CALLVALUE DUP1 ISZERO PUSH2 0x563 JUMPI PUSH1 0x0 DUP1 REVERT JUMPDEST POP PUSH2 0x57E PUSH1 0x4 DUP1 CALLDATASIZE SUB PUSH2 0x579 SWAP2 SWAP1 DUP2 ADD SWAP1 PUSH2 0x474F JUMP JUMPDEST PUSH2 0x2D88 JUMP JUMPDEST STOP JUMPDEST CALLVALUE DUP1 ISZERO PUSH2 0x58C JUMPI PUSH1 0x0 DUP1 REVERT JUMPDEST POP PUSH2 0x5A7 PUSH1 0x4 DUP1 CALLDATASIZE SUB PUSH2 0x5A2 SWAP2 SWAP1 DUP2 ADD SWAP1 PUSH2 0x45EE JUMP JUMPDEST PUSH2 0x2F6E JUMP JUMPDEST STOP JUMPDEST CALLVALUE DUP1 ISZERO PUSH2 0x5B5 JUMPI PUSH1 0x0 DUP1 REVERT JUMPDEST POP PUSH2 0x5D0 PUSH1 0x4 DUP1 CALLDATASIZE SUB PUSH2 0x5CB SWAP2 SWAP1 DUP2 ADD SWAP1 PUSH2 0x4B07 JUMP JUMPDEST PUSH2 0x31C2 JUMP JUMPDEST PUSH1 0x40 MLOAD PUSH2 0x5E1 SWAP6 SWAP5 SWAP4 SWAP3 SWAP2 SWAP1 PUSH2 0x54EC JUMP JUMPDEST PUSH1 0x40 MLOAD DUP1 SWAP2 SUB SWAP1 RETURN JUMPDEST CALLVALUE DUP1 ISZERO PUSH2 0x5F6 JUMPI PUSH1 0x0 DUP1 REVERT JUMPDEST POP PUSH2 0x611 PUSH1 0x4 DUP1 CALLDATASIZE SUB PUSH2 0x60C SWAP2 SWAP1 DUP2 ADD SWAP1 PUSH2 0x4B30 JUMP JUMPDEST PUSH2 0x3225 JUMP JUMPDEST PUSH1 0x40 MLOAD PUSH2 0x61E SWAP2 SWAP1 PUSH2 0x521E JUMP JUMPDEST PUSH1 0x40 MLOAD DUP1 SWAP2 SUB SWAP1 RETURN JUMPDEST CALLVALUE DUP1 ISZERO PUSH2 0x633 JUMPI PUSH1 0x0 DUP1 REVERT JUMPDEST POP PUSH2 0x64E PUSH1 0x4 DUP1 CALLDATASIZE SUB PUSH2 0x649 SWAP2 SWAP1 DUP2 ADD SWAP1 PUSH2 0x4456 JUMP JUMPDEST PUSH2 0x3254 JUMP JUMPDEST STOP JUMPDEST CALLVALUE DUP1 ISZERO PUSH2 0x65C JUMPI PUSH1 0x0 DUP1 REVERT JUMPDEST POP PUSH2 0x677 PUSH1 0x4 DUP1 CALLDATASIZE SUB PUSH2 0x672 SWAP2 SWAP1 DUP2 ADD SWAP1 PUSH2 0x4B07 JUMP JUMPDEST PUSH2 0x3326 JUMP JUMPDEST PUSH1 0x40 MLOAD PUSH2 0x684 SWAP2 SWAP1 PUSH2 0x5239 JUMP JUMPDEST PUSH1 0x40 MLOAD DUP1 SWAP2 SUB SWAP1 RETURN JUMPDEST DUP5 DUP1 PUSH20 0xFFFFFFFFFFFFFFFFFFFFFFFFFFFFFFFFFFFFFFFF AND CALLER PUSH20 0xFFFFFFFFFFFFFFFFFFFFFFFFFFFFFFFFFFFFFFFF AND EQ DUP1 PUSH2 0x715 JUMPI POP PUSH1 0x4 PUSH1 0x0 SWAP1 SLOAD SWAP1 PUSH2 0x100 EXP SWAP1 DIV PUSH20 0xFFFFFFFFFFFFFFFFFFFFFFFFFFFFFFFFFFFFFFFF AND PUSH20 0xFFFFFFFFFFFFFFFFFFFFFFFFFFFFFFFFFFFFFFFF AND CALLER PUSH20 0xFFFFFFFFFFFFFFFFFFFFFFFFFFFFFFFFFFFFFFFF AND EQ JUMPDEST PUSH2 0x71E JUMPI PUSH1 0x0 DUP1 REVERT JUMPDEST DUP5 PUSH1 0x0 SLOAD DUP2 LT PUSH2 0x72D JUMPI PUSH1 0x0 DUP1 REVERT JUMPDEST DUP6 DUP6 PUSH1 0x1 PUSH1 0x0 DUP4 DUP2 MSTORE PUSH1 0x20 ADD SWAP1 DUP2 MSTORE PUSH1 0x20 ADD PUSH1 0x0 KECCAK256 PUSH1 0x7 ADD DUP1 SLOAD SWAP1 POP DUP2 LT PUSH2 0x754 JUMPI PUSH1 0x0 DUP1 REVERT JUMPDEST DUP9 DUP9 DUP8 PUSH1 0x1 PUSH1 0x0 DUP4 DUP2 MSTORE PUSH1 0x20 ADD SWAP1 DUP2 MSTORE PUSH1 0x20 ADD PUSH1 0x0 KECCAK256 PUSH1 0x1 ADD DUP2 DUP2 SLOAD DUP2 LT PUSH2 0x778 JUMPI INVALID JUMPDEST SWAP1 PUSH1 0x0 MSTORE PUSH1 0x20 PUSH1 0x0 KECCAK256 ADD PUSH1 0x0 SWAP1 SLOAD SWAP1 PUSH2 0x100 EXP SWAP1 DIV PUSH20 0xFFFFFFFFFFFFFFFFFFFFFFFFFFFFFFFFFFFFFFFF AND PUSH20 0xFFFFFFFFFFFFFFFFFFFFFFFFFFFFFFFFFFFFFFFF AND DUP4 PUSH20 0xFFFFFFFFFFFFFFFFFFFFFFFFFFFFFFFFFFFFFFFF AND EQ PUSH2 0x7DA JUMPI PUSH1 0x0 DUP1 REVERT JUMPDEST PUSH1 0x4 PUSH1 0x14 SWAP1 SLOAD SWAP1 PUSH2 0x100 EXP SWAP1 DIV PUSH1 0xFF AND ISZERO PUSH2 0x7F4 JUMPI PUSH1 0x0 DUP1 REVERT JUMPDEST PUSH1 0x1 PUSH1 0x4 PUSH1 0x14 PUSH2 0x100 EXP DUP2 SLOAD DUP2 PUSH1 0xFF MUL NOT AND SWAP1 DUP4 ISZERO ISZERO MUL OR SWAP1 SSTORE POP PUSH1 0x1 DUP1 PUSH1 0x0 DUP14 DUP2 MSTORE PUSH1 0x20 ADD SWAP1 DUP2 MSTORE PUSH1 0x20 ADD PUSH1 0x0 KECCAK256 PUSH1 0x6 ADD PUSH1 0x0 PUSH2 0x100 EXP DUP2 SLOAD DUP2 PUSH1 0xFF MUL NOT AND SWAP1 DUP4 ISZERO ISZERO MUL OR SWAP1 SSTORE POP PUSH1 0x0 PUSH1 0x1 PUSH1 0x0 DUP14 DUP2 MSTORE PUSH1 0x20 ADD SWAP1 DUP2 MSTORE PUSH1 0x20 ADD PUSH1 0x0 KECCAK256 PUSH1 0x7 ADD DUP12 DUP2 SLOAD DUP2 LT PUSH2 0x860 JUMPI INVALID JUMPDEST SWAP1 PUSH1 0x0 MSTORE PUSH1 0x20 PUSH1 0x0 KECCAK256 SWAP1 PUSH1 0x2 MUL ADD SWAP1 POP DUP1 PUSH1 0x0 ADD DUP1 SLOAD SWAP1 POP DUP10 MLOAD EQ PUSH2 0x884 JUMPI PUSH1 0x0 DUP1 REVERT JUMPDEST PUSH1 0x0 DUP1 SWAP1 POP JUMPDEST DUP2 PUSH1 0x0 ADD DUP1 SLOAD SWAP1 POP DUP2 LT ISZERO PUSH2 0x91A JUMPI PUSH1 0x0 DUP11 DUP3 DUP2 MLOAD DUP2 LT PUSH2 0x8A7 JUMPI INVALID JUMPDEST PUSH1 0x20 MUL PUSH1 0x20 ADD ADD MLOAD GT ISZERO PUSH2 0x90D JUMPI PUSH2 0x90C DUP14 DUP4 PUSH1 0x0 ADD DUP4 DUP2 SLOAD DUP2 LT PUSH2 0x8C8 JUMPI INVALID JUMPDEST SWAP1 PUSH1 0x0 MSTORE PUSH1 0x20 PUSH1 0x0 KECCAK256 ADD PUSH1 0x0 SWAP1 SLOAD SWAP1 PUSH2 0x100 EXP SWAP1 DIV PUSH20 0xFFFFFFFFFFFFFFFFFFFFFFFFFFFFFFFFFFFFFFFF AND DUP13 DUP5 DUP2 MLOAD DUP2 LT PUSH2 0x8FF JUMPI INVALID JUMPDEST PUSH1 0x20 MUL PUSH1 0x20 ADD ADD MLOAD PUSH2 0x371C JUMP JUMPDEST JUMPDEST DUP1 DUP1 PUSH1 0x1 ADD SWAP2 POP POP PUSH2 0x88A JUMP JUMPDEST POP PUSH32 0x4D54A229A804A61C5213BEC479B1407CE270C57B24FD8299D6EA98B6B2AB0520 DUP13 DUP13 DUP16 DUP13 PUSH1 0x40 MLOAD PUSH2 0x950 SWAP5 SWAP4 SWAP3 SWAP2 SWAP1 PUSH2 0x55AD JUMP JUMPDEST PUSH1 0x40 MLOAD DUP1 SWAP2 SUB SWAP1 LOG1 POP PUSH1 0x0 PUSH1 0x4 PUSH1 0x14 PUSH2 0x100 EXP DUP2 SLOAD DUP2 PUSH1 0xFF MUL NOT AND SWAP1 DUP4 ISZERO ISZERO MUL OR SWAP1 SSTORE POP POP POP POP POP POP POP POP POP POP POP POP POP JUMP JUMPDEST PUSH1 0x0 DUP1 PUSH2 0x994 DUP11 DUP11 DUP11 DUP11 DUP11 DUP11 DUP11 PUSH2 0x11EB JUMP JUMPDEST SWAP1 POP PUSH2 0x9A1 DUP11 DUP3 DUP6 PUSH2 0x20C3 JUMP JUMPDEST DUP1 SWAP2 POP POP SWAP9 SWAP8 POP POP POP POP POP POP POP POP JUMP JUMPDEST DUP5 DUP1 PUSH20 0xFFFFFFFFFFFFFFFFFFFFFFFFFFFFFFFFFFFFFFFF AND CALLER PUSH20 0xFFFFFFFFFFFFFFFFFFFFFFFFFFFFFFFFFFFFFFFF AND EQ DUP1 PUSH2 0xA39 JUMPI POP PUSH1 0x4 PUSH1 0x0 SWAP1 SLOAD SWAP1 PUSH2 0x100 EXP SWAP1 DIV PUSH20 0xFFFFFFFFFFFFFFFFFFFFFFFFFFFFFFFFFFFFFFFF AND PUSH20 0xFFFFFFFFFFFFFFFFFFFFFFFFFFFFFFFFFFFFFFFF AND CALLER PUSH20 0xFFFFFFFFFFFFFFFFFFFFFFFFFFFFFFFFFFFFFFFF AND EQ JUMPDEST PUSH2 0xA42 JUMPI PUSH1 0x0 DUP1 REVERT JUMPDEST DUP5 PUSH1 0x0 SLOAD DUP2 LT PUSH2 0xA51 JUMPI PUSH1 0x0 DUP1 REVERT JUMPDEST DUP7 DUP7 DUP7 PUSH1 0x1 PUSH1 0x0 DUP4 DUP2 MSTORE PUSH1 0x20 ADD SWAP1 DUP2 MSTORE PUSH1 0x20 ADD PUSH1 0x0 KECCAK256 PUSH1 0x0 ADD DUP2 DUP2 SLOAD DUP2 LT PUSH2 0xA75 JUMPI INVALID JUMPDEST SWAP1 PUSH1 0x0 MSTORE PUSH1 0x20 PUSH1 0x0 KECCAK256 ADD PUSH1 0x0 SWAP1 SLOAD SWAP1 PUSH2 0x100 EXP SWAP1 DIV PUSH20 0xFFFFFFFFFFFFFFFFFFFFFFFFFFFFFFFFFFFFFFFF AND PUSH20 0xFFFFFFFFFFFFFFFFFFFFFFFFFFFFFFFFFFFFFFFF AND DUP4 PUSH20 0xFFFFFFFFFFFFFFFFFFFFFFFFFFFFFFFFFFFFFFFF AND EQ PUSH2 0xAD7 JUMPI PUSH1 0x0 DUP1 REVERT JUMPDEST DUP9 DUP8 PUSH1 0x1 PUSH1 0x0 DUP4 DUP2 MSTORE PUSH1 0x20 ADD SWAP1 DUP2 MSTORE PUSH1 0x20 ADD PUSH1 0x0 KECCAK256 PUSH1 0x1 ADD DUP1 SLOAD SWAP1 POP DUP2 LT PUSH2 0xAFE JUMPI PUSH1 0x0 DUP1 REVERT JUMPDEST DUP8 PUSH1 0x1 PUSH1 0x0 DUP14 DUP2 MSTORE PUSH1 0x20 ADD SWAP1 DUP2 MSTORE PUSH1 0x20 ADD PUSH1 0x0 KECCAK256 PUSH1 0x1 ADD DUP11 DUP2 SLOAD DUP2 LT PUSH2 0xB20 JUMPI INVALID JUMPDEST SWAP1 PUSH1 0x0 MSTORE PUSH1 0x20 PUSH1 0x0 KECCAK256 ADD PUSH1 0x0 PUSH2 0x100 EXP DUP2 SLOAD DUP2 PUSH20 0xFFFFFFFFFFFFFFFFFFFFFFFFFFFFFFFFFFFFFFFF MUL NOT AND SWAP1 DUP4 PUSH20 0xFFFFFFFFFFFFFFFFFFFFFFFFFFFFFFFFFFFFFFFF AND MUL OR SWAP1 SSTORE POP PUSH32 0x43A4E4542993B08827123085341D156186F40B28B6343F301C246A1D5F49D9F7 DUP12 DUP14 PUSH1 0x1 PUSH1 0x0 DUP16 DUP2 MSTORE PUSH1 0x20 ADD SWAP1 DUP2 MSTORE PUSH1 0x20 ADD PUSH1 0x0 KECCAK256 PUSH1 0x1 ADD PUSH1 0x40 MLOAD PUSH2 0xBB0 SWAP4 SWAP3 SWAP2 SWAP1 PUSH2 0x5347 JUMP JUMPDEST PUSH1 0x40 MLOAD DUP1 SWAP2 SUB SWAP1 LOG1 POP POP POP POP POP POP POP POP POP POP POP POP JUMP JUMPDEST DUP4 DUP1 PUSH20 0xFFFFFFFFFFFFFFFFFFFFFFFFFFFFFFFFFFFFFFFF AND CALLER PUSH20 0xFFFFFFFFFFFFFFFFFFFFFFFFFFFFFFFFFFFFFFFF AND EQ DUP1 PUSH2 0xC4E JUMPI POP PUSH1 0x4 PUSH1 0x0 SWAP1 SLOAD SWAP1 PUSH2 0x100 EXP SWAP1 DIV PUSH20 0xFFFFFFFFFFFFFFFFFFFFFFFFFFFFFFFFFFFFFFFF AND PUSH20 0xFFFFFFFFFFFFFFFFFFFFFFFFFFFFFFFFFFFFFFFF AND CALLER PUSH20 0xFFFFFFFFFFFFFFFFFFFFFFFFFFFFFFFFFFFFFFFF AND EQ JUMPDEST PUSH2 0xC57 JUMPI PUSH1 0x0 DUP1 REVERT JUMPDEST DUP4 PUSH1 0x0 SLOAD DUP2 LT PUSH2 0xC66 JUMPI PUSH1 0x0 DUP1 REVERT JUMPDEST DUP6 DUP6 DUP6 PUSH1 0x1 PUSH1 0x0 DUP4 DUP2 MSTORE PUSH1 0x20 ADD SWAP1 DUP2 MSTORE PUSH1 0x20 ADD PUSH1 0x0 KECCAK256 PUSH1 0x0 ADD DUP2 DUP2 SLOAD DUP2 LT PUSH2 0xC8A JUMPI INVALID JUMPDEST SWAP1 PUSH1 0x0 MSTORE PUSH1 0x20 PUSH1 0x0 KECCAK256 ADD PUSH1 0x0 SWAP1 SLOAD SWAP1 PUSH2 0x100 EXP SWAP1 DIV PUSH20 0xFFFFFFFFFFFFFFFFFFFFFFFFFFFFFFFFFFFFFFFF AND PUSH20 0xFFFFFFFFFFFFFFFFFFFFFFFFFFFFFFFFFFFFFFFF AND DUP4 PUSH20 0xFFFFFFFFFFFFFFFFFFFFFFFFFFFFFFFFFFFFFFFF AND EQ PUSH2 0xCEC JUMPI PUSH1 0x0 DUP1 REVERT JUMPDEST PUSH1 0x4 PUSH1 0x14 SWAP1 SLOAD SWAP1 PUSH2 0x100 EXP SWAP1 DIV PUSH1 0xFF AND ISZERO PUSH2 0xD06 JUMPI PUSH1 0x0 DUP1 REVERT JUMPDEST PUSH1 0x1 PUSH1 0x4 PUSH1 0x14 PUSH2 0x100 EXP DUP2 SLOAD DUP2 PUSH1 0xFF MUL NOT AND SWAP1 DUP4 ISZERO ISZERO MUL OR SWAP1 SSTORE POP PUSH1 0x0 PUSH1 0x1 PUSH1 0x0 DUP11 DUP2 MSTORE PUSH1 0x20 ADD SWAP1 DUP2 MSTORE PUSH1 0x20 ADD PUSH1 0x0 KECCAK256 PUSH1 0x4 ADD SLOAD EQ DUP1 PUSH2 0xD5C JUMPI POP PUSH1 0x14 PUSH1 0x1 PUSH1 0x0 DUP11 DUP2 MSTORE PUSH1 0x20 ADD SWAP1 DUP2 MSTORE PUSH1 0x20 ADD PUSH1 0x0 KECCAK256 PUSH1 0x4 ADD SLOAD EQ JUMPDEST ISZERO PUSH2 0xDCA JUMPI PUSH1 0x1 DUP7 MLOAD EQ PUSH2 0xD6F JUMPI PUSH1 0x0 DUP1 REVERT JUMPDEST PUSH1 0x1 PUSH1 0x0 DUP10 DUP2 MSTORE PUSH1 0x20 ADD SWAP1 DUP2 MSTORE PUSH1 0x20 ADD PUSH1 0x0 KECCAK256 PUSH1 0x5 ADD SLOAD DUP7 PUSH1 0x0 DUP2 MLOAD DUP2 LT PUSH2 0xD93 JUMPI INVALID JUMPDEST PUSH1 0x20 MUL PUSH1 0x20 ADD ADD MLOAD GT ISZERO PUSH2 0xDA6 JUMPI PUSH1 0x0 DUP1 REVERT JUMPDEST PUSH2 0xDC5 DUP9 DUP11 DUP9 PUSH1 0x0 DUP2 MLOAD DUP2 LT PUSH2 0xDB8 JUMPI INVALID JUMPDEST PUSH1 0x20 MUL PUSH1 0x20 ADD ADD MLOAD PUSH2 0x371C JUMP JUMPDEST PUSH2 0xE54 JUMP JUMPDEST PUSH1 0x0 DUP1 SWAP1 POP JUMPDEST DUP7 MLOAD DUP2 LT ISZERO PUSH2 0xE52 JUMPI PUSH1 0x2 PUSH1 0x0 DUP11 DUP2 MSTORE PUSH1 0x20 ADD SWAP1 DUP2 MSTORE PUSH1 0x20 ADD PUSH1 0x0 KECCAK256 PUSH1 0x0 DUP9 DUP4 DUP2 MLOAD DUP2 LT PUSH2 0xDFA JUMPI INVALID JUMPDEST PUSH1 0x20 MUL PUSH1 0x20 ADD ADD MLOAD DUP2 MSTORE PUSH1 0x20 ADD SWAP1 DUP2 MSTORE PUSH1 0x20 ADD PUSH1 0x0 KECCAK256 PUSH1 0x0 SWAP1 SLOAD SWAP1 PUSH2 0x100 EXP SWAP1 DIV PUSH1 0xFF AND PUSH2 0xE27 JUMPI PUSH1 0x0 DUP1 REVERT JUMPDEST PUSH2 0xE45 DUP10 DUP12 DUP10 DUP5 DUP2 MLOAD DUP2 LT PUSH2 0xE38 JUMPI INVALID JUMPDEST PUSH1 0x20 MUL PUSH1 0x20 ADD ADD MLOAD PUSH2 0x371C JUMP JUMPDEST DUP1 DUP1 PUSH1 0x1 ADD SWAP2 POP POP PUSH2 0xDD0 JUMP JUMPDEST POP JUMPDEST PUSH32 0xC9DB45671DA2B4994B84D56A8832D4E0BCC3722230DFFCE39DF6886F9EC2D7D6 DUP9 DUP11 DUP9 PUSH1 0x40 MLOAD PUSH2 0xE87 SWAP4 SWAP3 SWAP2 SWAP1 PUSH2 0x5309 JUMP JUMPDEST PUSH1 0x40 MLOAD DUP1 SWAP2 SUB SWAP1 LOG1 PUSH1 0x0 PUSH1 0x4 PUSH1 0x14 PUSH2 0x100 EXP DUP2 SLOAD DUP2 PUSH1 0xFF MUL NOT AND SWAP1 DUP4 ISZERO ISZERO MUL OR SWAP1 SSTORE POP POP POP POP POP POP POP POP POP POP JUMP JUMPDEST DUP3 DUP1 PUSH20 0xFFFFFFFFFFFFFFFFFFFFFFFFFFFFFFFFFFFFFFFF AND CALLER PUSH20 0xFFFFFFFFFFFFFFFFFFFFFFFFFFFFFFFFFFFFFFFF AND EQ DUP1 PUSH2 0xF3D JUMPI POP PUSH1 0x4 PUSH1 0x0 SWAP1 SLOAD SWAP1 PUSH2 0x100 EXP SWAP1 DIV PUSH20 0xFFFFFFFFFFFFFFFFFFFFFFFFFFFFFFFFFFFFFFFF AND PUSH20 0xFFFFFFFFFFFFFFFFFFFFFFFFFFFFFFFFFFFFFFFF AND CALLER PUSH20 0xFFFFFFFFFFFFFFFFFFFFFFFFFFFFFFFFFFFFFFFF AND EQ JUMPDEST PUSH2 0xF46 JUMPI PUSH1 0x0 DUP1 REVERT JUMPDEST DUP3 PUSH1 0x0 SLOAD DUP2 LT PUSH2 0xF55 JUMPI PUSH1 0x0 DUP1 REVERT JUMPDEST PUSH32 0xD54885079D7EDD9BEA77E3F09E83BD65A121DB3D3A14892227E0D2CFFE73970F DUP5 DUP7 DUP6 PUSH1 0x40 MLOAD PUSH2 0xF88 SWAP4 SWAP3 SWAP2 SWAP1 PUSH2 0x5477 JUMP JUMPDEST PUSH1 0x40 MLOAD DUP1 SWAP2 SUB SWAP1 LOG1 POP POP POP POP POP JUMP JUMPDEST DUP4 DUP1 PUSH20 0xFFFFFFFFFFFFFFFFFFFFFFFFFFFFFFFFFFFFFFFF AND CALLER PUSH20 0xFFFFFFFFFFFFFFFFFFFFFFFFFFFFFFFFFFFFFFFF AND EQ DUP1 PUSH2 0x101F JUMPI POP PUSH1 0x4 PUSH1 0x0 SWAP1 SLOAD SWAP1 PUSH2 0x100 EXP SWAP1 DIV PUSH20 0xFFFFFFFFFFFFFFFFFFFFFFFFFFFFFFFFFFFFFFFF AND PUSH20 0xFFFFFFFFFFFFFFFFFFFFFFFFFFFFFFFFFFFFFFFF AND CALLER PUSH20 0xFFFFFFFFFFFFFFFFFFFFFFFFFFFFFFFFFFFFFFFF AND EQ JUMPDEST PUSH2 0x1028 JUMPI PUSH1 0x0 DUP1 REVERT JUMPDEST DUP4 PUSH1 0x0 SLOAD DUP2 LT PUSH2 0x1037 JUMPI PUSH1 0x0 DUP1 REVERT JUMPDEST DUP5 DUP5 PUSH1 0x1 PUSH1 0x0 DUP4 DUP2 MSTORE PUSH1 0x20 ADD SWAP1 DUP2 MSTORE PUSH1 0x20 ADD PUSH1 0x0 KECCAK256 PUSH1 0x0 ADD DUP1 SLOAD SWAP1 POP DUP2 LT PUSH2 0x105E JUMPI PUSH1 0x0 DUP1 REVERT JUMPDEST DUP8 DUP8 DUP8 PUSH1 0x1 PUSH1 0x0 DUP4 DUP2 MSTORE PUSH1 0x20 ADD SWAP1 DUP2 MSTORE PUSH1 0x20 ADD PUSH1 0x0 KECCAK256 PUSH1 0x0 ADD DUP2 DUP2 SLOAD DUP2 LT PUSH2 0x1082 JUMPI INVALID JUMPDEST SWAP1 PUSH1 0x0 MSTORE PUSH1 0x20 PUSH1 0x0 KECCAK256 ADD PUSH1 0x0 SWAP1 SLOAD SWAP1 PUSH2 0x100 EXP SWAP1 DIV PUSH20 0xFFFFFFFFFFFFFFFFFFFFFFFFFFFFFFFFFFFFFFFF AND PUSH20 0xFFFFFFFFFFFFFFFFFFFFFFFFFFFFFFFFFFFFFFFF AND DUP4 PUSH20 0xFFFFFFFFFFFFFFFFFFFFFFFFFFFFFFFFFFFFFFFF AND EQ PUSH2 0x10E4 JUMPI PUSH1 0x0 DUP1 REVERT JUMPDEST PUSH1 0x0 DUP1 SWAP1 POP JUMPDEST DUP9 MLOAD DUP2 LT ISZERO PUSH2 0x118D JUMPI PUSH1 0x1 PUSH1 0x0 DUP13 DUP2 MSTORE PUSH1 0x20 ADD SWAP1 DUP2 MSTORE PUSH1 0x20 ADD PUSH1 0x0 KECCAK256 PUSH1 0x1 ADD DUP10 DUP3 DUP2 MLOAD DUP2 LT PUSH2 0x1115 JUMPI INVALID JUMPDEST PUSH1 0x20 MUL PUSH1 0x20 ADD ADD MLOAD SWAP1 DUP1 PUSH1 0x1 DUP2 SLOAD ADD DUP1 DUP3 SSTORE DUP1 SWAP2 POP POP SWAP1 PUSH1 0x1 DUP3 SUB SWAP1 PUSH1 0x0 MSTORE PUSH1 0x20 PUSH1 0x0 KECCAK256 ADD PUSH1 0x0 SWAP1 SWAP2 SWAP3 SWAP1 SWAP2 SWAP1 SWAP2 PUSH2 0x100 EXP DUP2 SLOAD DUP2 PUSH20 0xFFFFFFFFFFFFFFFFFFFFFFFFFFFFFFFFFFFFFFFF MUL NOT AND SWAP1 DUP4 PUSH20 0xFFFFFFFFFFFFFFFFFFFFFFFFFFFFFFFFFFFFFFFF AND MUL OR SWAP1 SSTORE POP POP DUP1 DUP1 PUSH1 0x1 ADD SWAP2 POP POP PUSH2 0x10EA JUMP JUMPDEST POP PUSH32 0x43A4E4542993B08827123085341D156186F40B28B6343F301C246A1D5F49D9F7 DUP11 DUP13 PUSH1 0x1 PUSH1 0x0 DUP15 DUP2 MSTORE PUSH1 0x20 ADD SWAP1 DUP2 MSTORE PUSH1 0x20 ADD PUSH1 0x0 KECCAK256 PUSH1 0x1 ADD PUSH1 0x40 MLOAD PUSH2 0x11D6 SWAP4 SWAP3 SWAP2 SWAP1 PUSH2 0x5347 JUMP JUMPDEST PUSH1 0x40 MLOAD DUP1 SWAP2 SUB SWAP1 LOG1 POP POP POP POP POP POP POP POP POP POP POP JUMP JUMPDEST PUSH1 0x0 DUP8 DUP1 PUSH20 0xFFFFFFFFFFFFFFFFFFFFFFFFFFFFFFFFFFFFFFFF AND CALLER PUSH20 0xFFFFFFFFFFFFFFFFFFFFFFFFFFFFFFFFFFFFFFFF AND EQ DUP1 PUSH2 0x1275 JUMPI POP PUSH1 0x4 PUSH1 0x0 SWAP1 SLOAD SWAP1 PUSH2 0x100 EXP SWAP1 DIV PUSH20 0xFFFFFFFFFFFFFFFFFFFFFFFFFFFFFFFFFFFFFFFF AND PUSH20 0xFFFFFFFFFFFFFFFFFFFFFFFFFFFFFFFFFFFFFFFF AND CALLER PUSH20 0xFFFFFFFFFFFFFFFFFFFFFFFFFFFFFFFFFFFFFFFF AND EQ JUMPDEST PUSH2 0x127E JUMPI PUSH1 0x0 DUP1 REVERT JUMPDEST PUSH1 0x0 DUP4 EQ DUP1 PUSH2 0x128D JUMPI POP PUSH1 0x14 DUP4 EQ JUMPDEST DUP1 PUSH2 0x1299 JUMPI POP PUSH2 0x2D1 DUP4 EQ JUMPDEST PUSH2 0x12A2 JUMPI PUSH1 0x0 DUP1 REVERT JUMPDEST PUSH1 0x0 DUP9 MLOAD GT DUP1 PUSH2 0x12B3 JUMPI POP PUSH1 0x0 DUP8 MLOAD GT JUMPDEST PUSH2 0x12BC JUMPI PUSH1 0x0 DUP1 REVERT JUMPDEST PUSH1 0x0 DUP1 SLOAD SWAP1 POP PUSH1 0x0 PUSH1 0x1 PUSH1 0x0 DUP4 DUP2 MSTORE PUSH1 0x20 ADD SWAP1 DUP2 MSTORE PUSH1 0x20 ADD PUSH1 0x0 KECCAK256 SWAP1 POP DUP10 DUP2 PUSH1 0x0 ADD SWAP1 DUP1 MLOAD SWAP1 PUSH1 0x20 ADD SWAP1 PUSH2 0x12F1 SWAP3 SWAP2 SWAP1 PUSH2 0x3ADC JUMP JUMPDEST POP DUP9 DUP2 PUSH1 0x1 ADD SWAP1 DUP1 MLOAD SWAP1 PUSH1 0x20 ADD SWAP1 PUSH2 0x130A SWAP3 SWAP2 SWAP1 PUSH2 0x3B66 JUMP JUMPDEST POP DUP7 DUP2 PUSH1 0x2 ADD DUP2 SWAP1 SSTORE POP DUP5 DUP2 PUSH1 0x4 ADD DUP2 SWAP1 SSTORE POP PUSH1 0x0 DUP6 EQ PUSH2 0x1369 JUMPI DUP6 DUP2 PUSH1 0x3 ADD PUSH1 0x0 PUSH2 0x100 EXP DUP2 SLOAD DUP2 PUSH20 0xFFFFFFFFFFFFFFFFFFFFFFFFFFFFFFFFFFFFFFFF MUL NOT AND SWAP1 DUP4 PUSH20 0xFFFFFFFFFFFFFFFFFFFFFFFFFFFFFFFFFFFFFFFF AND MUL OR SWAP1 SSTORE POP JUMPDEST PUSH2 0x137F PUSH1 0x1 PUSH1 0x0 SLOAD PUSH2 0x3AAB SWAP1 SWAP2 SWAP1 PUSH4 0xFFFFFFFF AND JUMP JUMPDEST PUSH1 0x0 DUP2 SWAP1 SSTORE POP PUSH32 0xEEA6C8039AF43860E84BC876245A0D129D92B942390135DA1051B219149C100E DUP3 DUP13 DUP13 DUP13 DUP13 DUP13 DUP13 DUP13 PUSH1 0x40 MLOAD PUSH2 0x13C2 SWAP9 SWAP8 SWAP7 SWAP6 SWAP5 SWAP4 SWAP3 SWAP2 SWAP1 PUSH2 0x5276 JUMP JUMPDEST PUSH1 0x40 MLOAD DUP1 SWAP2 SUB SWAP1 LOG1 DUP2 SWAP4 POP POP POP POP SWAP8 SWAP7 POP POP POP POP POP POP POP JUMP JUMPDEST PUSH1 0x3 PUSH1 0x0 SWAP1 SLOAD SWAP1 PUSH2 0x100 EXP SWAP1 DIV PUSH20 0xFFFFFFFFFFFFFFFFFFFFFFFFFFFFFFFFFFFFFFFF AND PUSH20 0xFFFFFFFFFFFFFFFFFFFFFFFFFFFFFFFFFFFFFFFF AND CALLER PUSH20 0xFFFFFFFFFFFFFFFFFFFFFFFFFFFFFFFFFFFFFFFF AND EQ PUSH2 0x1435 JUMPI PUSH1 0x0 DUP1 REVERT JUMPDEST PUSH1 0x0 PUSH20 0xFFFFFFFFFFFFFFFFFFFFFFFFFFFFFFFFFFFFFFFF AND PUSH1 0x4 PUSH1 0x0 SWAP1 SLOAD SWAP1 PUSH2 0x100 EXP SWAP1 DIV PUSH20 0xFFFFFFFFFFFFFFFFFFFFFFFFFFFFFFFFFFFFFFFF AND PUSH20 0xFFFFFFFFFFFFFFFFFFFFFFFFFFFFFFFFFFFFFFFF AND EQ PUSH2 0x1490 JUMPI PUSH1 0x0 DUP1 REVERT JUMPDEST DUP1 PUSH1 0x4 PUSH1 0x0 PUSH2 0x100 EXP DUP2 SLOAD DUP2 PUSH20 0xFFFFFFFFFFFFFFFFFFFFFFFFFFFFFFFFFFFFFFFF MUL NOT AND SWAP1 DUP4 PUSH20 0xFFFFFFFFFFFFFFFFFFFFFFFFFFFFFFFFFFFFFFFF AND MUL OR SWAP1 SSTORE POP POP JUMP JUMPDEST PUSH1 0x4 PUSH1 0x14 SWAP1 SLOAD SWAP1 PUSH2 0x100 EXP SWAP1 DIV PUSH1 0xFF AND DUP2 JUMP JUMPDEST DUP4 DUP1 PUSH20 0xFFFFFFFFFFFFFFFFFFFFFFFFFFFFFFFFFFFFFFFF AND CALLER PUSH20 0xFFFFFFFFFFFFFFFFFFFFFFFFFFFFFFFFFFFFFFFF AND EQ DUP1 PUSH2 0x156F JUMPI POP PUSH1 0x4 PUSH1 0x0 SWAP1 SLOAD SWAP1 PUSH2 0x100 EXP SWAP1 DIV PUSH20 0xFFFFFFFFFFFFFFFFFFFFFFFFFFFFFFFFFFFFFFFF AND PUSH20 0xFFFFFFFFFFFFFFFFFFFFFFFFFFFFFFFFFFFFFFFF AND CALLER PUSH20 0xFFFFFFFFFFFFFFFFFFFFFFFFFFFFFFFFFFFFFFFF AND EQ JUMPDEST PUSH2 0x1578 JUMPI PUSH1 0x0 DUP1 REVERT JUMPDEST DUP4 PUSH1 0x0 SLOAD DUP2 LT PUSH2 0x1587 JUMPI PUSH1 0x0 DUP1 REVERT JUMPDEST DUP5 DUP5 PUSH1 0x1 PUSH1 0x0 DUP4 DUP2 MSTORE PUSH1 0x20 ADD SWAP1 DUP2 MSTORE PUSH1 0x20 ADD PUSH1 0x0 KECCAK256 PUSH1 0x0 ADD DUP1 SLOAD SWAP1 POP DUP2 LT PUSH2 0x15AE JUMPI PUSH1 0x0 DUP1 REVERT JUMPDEST DUP8 DUP8 DUP8 PUSH1 0x1 PUSH1 0x0 DUP4 DUP2 MSTORE PUSH1 0x20 ADD SWAP1 DUP2 MSTORE PUSH1 0x20 ADD PUSH1 0x0 KECCAK256 PUSH1 0x0 ADD DUP2 DUP2 SLOAD DUP2 LT PUSH2 0x15D2 JUMPI INVALID JUMPDEST SWAP1 PUSH1 0x0 MSTORE PUSH1 0x20 PUSH1 0x0 KECCAK256 ADD PUSH1 0x0 SWAP1 SLOAD SWAP1 PUSH2 0x100 EXP SWAP1 DIV PUSH20 0xFFFFFFFFFFFFFFFFFFFFFFFFFFFFFFFFFFFFFFFF AND PUSH20 0xFFFFFFFFFFFFFFFFFFFFFFFFFFFFFFFFFFFFFFFF AND DUP4 PUSH20 0xFFFFFFFFFFFFFFFFFFFFFFFFFFFFFFFFFFFFFFFF AND EQ PUSH2 0x1634 JUMPI PUSH1 0x0 DUP1 REVERT JUMPDEST PUSH32 0xDC41A74D84036920901CF73075FC7F917D75B1F5DBD7955C12F9203336247233 DUP11 DUP13 DUP11 PUSH1 0x40 MLOAD PUSH2 0x1667 SWAP4 SWAP3 SWAP2 SWAP1 PUSH2 0x5477 JUMP JUMPDEST PUSH1 0x40 MLOAD DUP1 SWAP2 SUB SWAP1 LOG1 POP POP POP POP POP POP POP POP POP POP POP JUMP JUMPDEST PUSH1 0x0 SLOAD DUP2 JUMP JUMPDEST PUSH1 0x3 PUSH1 0x0 SWAP1 SLOAD SWAP1 PUSH2 0x100 EXP SWAP1 DIV PUSH20 0xFFFFFFFFFFFFFFFFFFFFFFFFFFFFFFFFFFFFFFFF AND DUP2 JUMP JUMPDEST DUP3 DUP1 PUSH20 0xFFFFFFFFFFFFFFFFFFFFFFFFFFFFFFFFFFFFFFFF AND CALLER PUSH20 0xFFFFFFFFFFFFFFFFFFFFFFFFFFFFFFFFFFFFFFFF AND EQ DUP1 PUSH2 0x1730 JUMPI POP PUSH1 0x4 PUSH1 0x0 SWAP1 SLOAD SWAP1 PUSH2 0x100 EXP SWAP1 DIV PUSH20 0xFFFFFFFFFFFFFFFFFFFFFFFFFFFFFFFFFFFFFFFF AND PUSH20 0xFFFFFFFFFFFFFFFFFFFFFFFFFFFFFFFFFFFFFFFF AND CALLER PUSH20 0xFFFFFFFFFFFFFFFFFFFFFFFFFFFFFFFFFFFFFFFF AND EQ JUMPDEST PUSH2 0x1739 JUMPI PUSH1 0x0 DUP1 REVERT JUMPDEST DUP3 PUSH1 0x0 SLOAD DUP2 LT PUSH2 0x1748 JUMPI PUSH1 0x0 DUP1 REVERT JUMPDEST DUP4 DUP4 PUSH1 0x1 PUSH1 0x0 DUP4 DUP2 MSTORE PUSH1 0x20 ADD SWAP1 DUP2 MSTORE PUSH1 0x20 ADD PUSH1 0x0 KECCAK256 PUSH1 0x8 ADD DUP1 SLOAD SWAP1 POP DUP2 LT PUSH2 0x176F JUMPI PUSH1 0x0 DUP1 REVERT JUMPDEST DUP7 DUP7 DUP7 PUSH1 0x1 PUSH1 0x0 DUP4 DUP2 MSTORE PUSH1 0x20 ADD SWAP1 DUP2 MSTORE PUSH1 0x20 ADD PUSH1 0x0 KECCAK256 PUSH1 0x8 ADD DUP2 DUP2 SLOAD DUP2 LT PUSH2 0x1793 JUMPI INVALID JUMPDEST SWAP1 PUSH1 0x0 MSTORE PUSH1 0x20 PUSH1 0x0 KECCAK256 SWAP1 PUSH1 0x3 MUL ADD PUSH1 0x0 ADD PUSH1 0x0 SWAP1 SLOAD SWAP1 PUSH2 0x100 EXP SWAP1 DIV PUSH20 0xFFFFFFFFFFFFFFFFFFFFFFFFFFFFFFFFFFFFFFFF AND PUSH20 0xFFFFFFFFFFFFFFFFFFFFFFFFFFFFFFFFFFFFFFFF AND DUP4 PUSH20 0xFFFFFFFFFFFFFFFFFFFFFFFFFFFFFFFFFFFFFFFF AND EQ PUSH2 0x17FC JUMPI PUSH1 0x0 DUP1 REVERT JUMPDEST DUP9 PUSH1 0x1 PUSH1 0x0 DUP3 DUP2 MSTORE PUSH1 0x20 ADD SWAP1 DUP2 MSTORE PUSH1 0x20 ADD PUSH1 0x0 KECCAK256 PUSH1 0x6 ADD PUSH1 0x0 SWAP1 SLOAD SWAP1 PUSH2 0x100 EXP SWAP1 DIV PUSH1 0xFF AND ISZERO PUSH2 0x182B JUMPI PUSH1 0x0 DUP1 REVERT JUMPDEST DUP10 DUP10 PUSH1 0x1 PUSH1 0x0 DUP4 DUP2 MSTORE PUSH1 0x20 ADD SWAP1 DUP2 MSTORE PUSH1 0x20 ADD PUSH1 0x0 KECCAK256 PUSH1 0x8 ADD DUP2 DUP2 SLOAD DUP2 LT PUSH2 0x184E JUMPI INVALID JUMPDEST SWAP1 PUSH1 0x0 MSTORE PUSH1 0x20 PUSH1 0x0 KECCAK256 SWAP1 PUSH1 0x3 MUL ADD PUSH1 0x2 ADD PUSH1 0x0 SWAP1 SLOAD SWAP1 PUSH2 0x100 EXP SWAP1 DIV PUSH1 0xFF AND ISZERO PUSH2 0x1877 JUMPI PUSH1 0x0 DUP1 REVERT JUMPDEST PUSH1 0x4 PUSH1 0x14 SWAP1 SLOAD SWAP1 PUSH2 0x100 EXP SWAP1 DIV PUSH1 0xFF AND ISZERO PUSH2 0x1891 JUMPI PUSH1 0x0 DUP1 REVERT JUMPDEST PUSH1 0x1 PUSH1 0x4 PUSH1 0x14 PUSH2 0x100 EXP DUP2 SLOAD DUP2 PUSH1 0xFF MUL NOT AND SWAP1 DUP4 ISZERO ISZERO MUL OR SWAP1 SSTORE POP PUSH1 0x1 PUSH1 0x0 DUP14 DUP2 MSTORE PUSH1 0x20 ADD SWAP1 DUP2 MSTORE PUSH1 0x20 ADD PUSH1 0x0 KECCAK256 PUSH1 0x2 ADD SLOAD TIMESTAMP GT PUSH2 0x18CE JUMPI PUSH1 0x0 DUP1 REVERT JUMPDEST PUSH1 0x0 PUSH1 0x1 PUSH1 0x0 DUP15 DUP2 MSTORE PUSH1 0x20 ADD SWAP1 DUP2 MSTORE PUSH1 0x20 ADD PUSH1 0x0 KECCAK256 PUSH1 0x8 ADD DUP13 DUP2 SLOAD DUP2 LT PUSH2 0x18F1 JUMPI INVALID JUMPDEST SWAP1 PUSH1 0x0 MSTORE PUSH1 0x20 PUSH1 0x0 KECCAK256 SWAP1 PUSH1 0x3 MUL ADD SWAP1 POP PUSH1 0x1 DUP2 PUSH1 0x2 ADD PUSH1 0x0 PUSH2 0x100 EXP DUP2 SLOAD DUP2 PUSH1 0xFF MUL NOT AND SWAP1 DUP4 ISZERO ISZERO MUL OR SWAP1 SSTORE POP PUSH2 0x1951 DUP14 DUP3 PUSH1 0x0 ADD PUSH1 0x0 SWAP1 SLOAD SWAP1 PUSH2 0x100 EXP SWAP1 DIV PUSH20 0xFFFFFFFFFFFFFFFFFFFFFFFFFFFFFFFFFFFFFFFF AND DUP4 PUSH1 0x1 ADD SLOAD PUSH2 0x371C JUMP JUMPDEST PUSH32 0xFB1DA5CBF027AD18B7C1F786BF81E9920CC0DB09D7E299A8E4F3DBB64CE32F01 DUP14 DUP14 PUSH1 0x40 MLOAD PUSH2 0x1982 SWAP3 SWAP2 SWAP1 PUSH2 0x553F JUMP JUMPDEST PUSH1 0x40 MLOAD DUP1 SWAP2 SUB SWAP1 LOG1 POP PUSH1 0x0 PUSH1 0x4 PUSH1 0x14 PUSH2 0x100 EXP DUP2 SLOAD DUP2 PUSH1 0xFF MUL NOT AND SWAP1 DUP4 ISZERO ISZERO MUL OR SWAP1 SSTORE POP POP POP POP POP POP POP POP POP POP POP POP POP POP JUMP JUMPDEST DUP4 DUP1 PUSH20 0xFFFFFFFFFFFFFFFFFFFFFFFFFFFFFFFFFFFFFFFF AND CALLER PUSH20 0xFFFFFFFFFFFFFFFFFFFFFFFFFFFFFFFFFFFFFFFF AND EQ DUP1 PUSH2 0x1A3D JUMPI POP PUSH1 0x4 PUSH1 0x0 SWAP1 SLOAD SWAP1 PUSH2 0x100 EXP SWAP1 DIV PUSH20 0xFFFFFFFFFFFFFFFFFFFFFFFFFFFFFFFFFFFFFFFF AND PUSH20 0xFFFFFFFFFFFFFFFFFFFFFFFFFFFFFFFFFFFFFFFF AND CALLER PUSH20 0xFFFFFFFFFFFFFFFFFFFFFFFFFFFFFFFFFFFFFFFF AND EQ JUMPDEST PUSH2 0x1A46 JUMPI PUSH1 0x0 DUP1 REVERT JUMPDEST DUP4 PUSH1 0x0 SLOAD DUP2 LT PUSH2 0x1A55 JUMPI PUSH1 0x0 DUP1 REVERT JUMPDEST PUSH1 0x1 PUSH1 0x0 DUP7 DUP2 MSTORE PUSH1 0x20 ADD SWAP1 DUP2 MSTORE PUSH1 0x20 ADD PUSH1 0x0 KECCAK256 PUSH1 0x2 ADD SLOAD TIMESTAMP LT PUSH2 0x1A77 JUMPI PUSH1 0x0 DUP1 REVERT JUMPDEST PUSH1 0x0 DUP5 MLOAD GT PUSH2 0x1A85 JUMPI PUSH1 0x0 DUP1 REVERT JUMPDEST PUSH1 0x1 PUSH1 0x0 DUP7 DUP2 MSTORE PUSH1 0x20 ADD SWAP1 DUP2 MSTORE PUSH1 0x20 ADD PUSH1 0x0 KECCAK256 PUSH1 0x7 ADD PUSH1 0x40 MLOAD DUP1 PUSH1 0x40 ADD PUSH1 0x40 MSTORE DUP1 DUP7 DUP2 MSTORE PUSH1 0x20 ADD DUP9 PUSH20 0xFFFFFFFFFFFFFFFFFFFFFFFFFFFFFFFFFFFFFFFF AND DUP2 MSTORE POP SWAP1 DUP1 PUSH1 0x1 DUP2 SLOAD ADD DUP1 DUP3 SSTORE DUP1 SWAP2 POP POP SWAP1 PUSH1 0x1 DUP3 SUB SWAP1 PUSH1 0x0 MSTORE PUSH1 0x20 PUSH1 0x0 KECCAK256 SWAP1 PUSH1 0x2 MUL ADD PUSH1 0x0 SWAP1 SWAP2 SWAP3 SWAP1 SWAP2 SWAP1 SWAP2 POP PUSH1 0x0 DUP3 ADD MLOAD DUP2 PUSH1 0x0 ADD SWAP1 DUP1 MLOAD SWAP1 PUSH1 0x20 ADD SWAP1 PUSH2 0x1B0D SWAP3 SWAP2 SWAP1 PUSH2 0x3BF0 JUMP JUMPDEST POP PUSH1 0x20 DUP3 ADD MLOAD DUP2 PUSH1 0x1 ADD PUSH1 0x0 PUSH2 0x100 EXP DUP2 SLOAD DUP2 PUSH20 0xFFFFFFFFFFFFFFFFFFFFFFFFFFFFFFFFFFFFFFFF MUL NOT AND SWAP1 DUP4 PUSH20 0xFFFFFFFFFFFFFFFFFFFFFFFFFFFFFFFFFFFFFFFF AND MUL OR SWAP1 SSTORE POP POP POP POP PUSH32 0xB9FB09DB36801E95DDBB658A96B7ECF81B9B7E105E4A82D8887B1E7EADD45B84 DUP6 PUSH1 0x1 DUP1 PUSH1 0x0 DUP10 DUP2 MSTORE PUSH1 0x20 ADD SWAP1 DUP2 MSTORE PUSH1 0x20 ADD PUSH1 0x0 KECCAK256 PUSH1 0x7 ADD DUP1 SLOAD SWAP1 POP SUB DUP7 DUP7 DUP11 PUSH1 0x40 MLOAD PUSH2 0x1BAA SWAP6 SWAP5 SWAP4 SWAP3 SWAP2 SWAP1 PUSH2 0x564C JUMP JUMPDEST PUSH1 0x40 MLOAD DUP1 SWAP2 SUB SWAP1 LOG1 POP POP POP POP POP POP JUMP JUMPDEST DUP5 DUP1 PUSH20 0xFFFFFFFFFFFFFFFFFFFFFFFFFFFFFFFFFFFFFFFF AND CALLER PUSH20 0xFFFFFFFFFFFFFFFFFFFFFFFFFFFFFFFFFFFFFFFF AND EQ DUP1 PUSH2 0x1C42 JUMPI POP PUSH1 0x4 PUSH1 0x0 SWAP1 SLOAD SWAP1 PUSH2 0x100 EXP SWAP1 DIV PUSH20 0xFFFFFFFFFFFFFFFFFFFFFFFFFFFFFFFFFFFFFFFF AND PUSH20 0xFFFFFFFFFFFFFFFFFFFFFFFFFFFFFFFFFFFFFFFF AND CALLER PUSH20 0xFFFFFFFFFFFFFFFFFFFFFFFFFFFFFFFFFFFFFFFF AND EQ JUMPDEST PUSH2 0x1C4B JUMPI PUSH1 0x0 DUP1 REVERT JUMPDEST DUP5 PUSH1 0x0 SLOAD DUP2 LT PUSH2 0x1C5A JUMPI PUSH1 0x0 DUP1 REVERT JUMPDEST DUP6 DUP5 PUSH1 0x1 PUSH1 0x0 DUP4 DUP2 MSTORE PUSH1 0x20 ADD SWAP1 DUP2 MSTORE PUSH1 0x20 ADD PUSH1 0x0 KECCAK256 PUSH1 0x0 ADD DUP1 SLOAD SWAP1 POP DUP2 LT PUSH2 0x1C81 JUMPI PUSH1 0x0 DUP1 REVERT JUMPDEST DUP9 DUP9 DUP9 PUSH1 0x1 PUSH1 0x0 DUP4 DUP2 MSTORE PUSH1 0x20 ADD SWAP1 DUP2 MSTORE PUSH1 0x20 ADD PUSH1 0x0 KECCAK256 PUSH1 0x0 ADD DUP2 DUP2 SLOAD DUP2 LT PUSH2 0x1CA5 JUMPI INVALID JUMPDEST SWAP1 PUSH1 0x0 MSTORE PUSH1 0x20 PUSH1 0x0 KECCAK256 ADD PUSH1 0x0 SWAP1 SLOAD SWAP1 PUSH2 0x100 EXP SWAP1 DIV PUSH20 0xFFFFFFFFFFFFFFFFFFFFFFFFFFFFFFFFFFFFFFFF AND PUSH20 0xFFFFFFFFFFFFFFFFFFFFFFFFFFFFFFFFFFFFFFFF AND DUP4 PUSH20 0xFFFFFFFFFFFFFFFFFFFFFFFFFFFFFFFFFFFFFFFF AND EQ PUSH2 0x1D07 JUMPI PUSH1 0x0 DUP1 REVERT JUMPDEST PUSH1 0x1 PUSH1 0x0 DUP13 DUP2 MSTORE PUSH1 0x20 ADD SWAP1 DUP2 MSTORE PUSH1 0x20 ADD PUSH1 0x0 KECCAK256 PUSH1 0x0 ADD DUP1 SLOAD SWAP1 POP DUP11 LT DUP1 PUSH2 0x1D2E JUMPI POP PUSH1 0x0 DUP11 EQ JUMPDEST PUSH2 0x1D37 JUMPI PUSH1 0x0 DUP1 REVERT JUMPDEST DUP8 PUSH1 0x1 PUSH1 0x0 DUP14 DUP2 MSTORE PUSH1 0x20 ADD SWAP1 DUP2 MSTORE PUSH1 0x20 ADD PUSH1 0x0 KECCAK256 PUSH1 0x0 ADD DUP11 DUP2 SLOAD DUP2 LT PUSH2 0x1D59 JUMPI INVALID JUMPDEST SWAP1 PUSH1 0x0 MSTORE PUSH1 0x20 PUSH1 0x0 KECCAK256 ADD PUSH1 0x0 PUSH2 0x100 EXP DUP2 SLOAD DUP2 PUSH20 0xFFFFFFFFFFFFFFFFFFFFFFFFFFFFFFFFFFFFFFFF MUL NOT AND SWAP1 DUP4 PUSH20 0xFFFFFFFFFFFFFFFFFFFFFFFFFFFFFFFFFFFFFFFF AND MUL OR SWAP1 SSTORE POP PUSH32 0xC969620B1B90646A0D597289D87DCF90D4CC4E554BDDF0C003DFC05954A6D359 DUP12 DUP14 PUSH1 0x1 PUSH1 0x0 DUP16 DUP2 MSTORE PUSH1 0x20 ADD SWAP1 DUP2 MSTORE PUSH1 0x20 ADD PUSH1 0x0 KECCAK256 PUSH1 0x0 ADD PUSH1 0x40 MLOAD PUSH2 0x1DE9 SWAP4 SWAP3 SWAP2 SWAP1 PUSH2 0x53FB JUMP JUMPDEST PUSH1 0x40 MLOAD DUP1 SWAP2 SUB SWAP1 LOG1 POP POP POP POP POP POP POP POP POP POP POP POP JUMP JUMPDEST DUP4 DUP1 PUSH20 0xFFFFFFFFFFFFFFFFFFFFFFFFFFFFFFFFFFFFFFFF AND CALLER PUSH20 0xFFFFFFFFFFFFFFFFFFFFFFFFFFFFFFFFFFFFFFFF AND EQ DUP1 PUSH2 0x1E87 JUMPI POP PUSH1 0x4 PUSH1 0x0 SWAP1 SLOAD SWAP1 PUSH2 0x100 EXP SWAP1 DIV PUSH20 0xFFFFFFFFFFFFFFFFFFFFFFFFFFFFFFFFFFFFFFFF AND PUSH20 0xFFFFFFFFFFFFFFFFFFFFFFFFFFFFFFFFFFFFFFFF AND CALLER PUSH20 0xFFFFFFFFFFFFFFFFFFFFFFFFFFFFFFFFFFFFFFFF AND EQ JUMPDEST PUSH2 0x1E90 JUMPI PUSH1 0x0 DUP1 REVERT JUMPDEST DUP4 PUSH1 0x0 SLOAD DUP2 LT PUSH2 0x1E9F JUMPI PUSH1 0x0 DUP1 REVERT JUMPDEST DUP6 DUP6 DUP6 PUSH1 0x1 PUSH1 0x0 DUP4 DUP2 MSTORE PUSH1 0x20 ADD SWAP1 DUP2 MSTORE PUSH1 0x20 ADD PUSH1 0x0 KECCAK256 PUSH1 0x0 ADD DUP2 DUP2 SLOAD DUP2 LT PUSH2 0x1EC3 JUMPI INVALID JUMPDEST SWAP1 PUSH1 0x0 MSTORE PUSH1 0x20 PUSH1 0x0 KECCAK256 ADD PUSH1 0x0 SWAP1 SLOAD SWAP1 PUSH2 0x100 EXP SWAP1 DIV PUSH20 0xFFFFFFFFFFFFFFFFFFFFFFFFFFFFFFFFFFFFFFFF AND PUSH20 0xFFFFFFFFFFFFFFFFFFFFFFFFFFFFFFFFFFFFFFFF AND DUP4 PUSH20 0xFFFFFFFFFFFFFFFFFFFFFFFFFFFFFFFFFFFFFFFF AND EQ PUSH2 0x1F25 JUMPI PUSH1 0x0 DUP1 REVERT JUMPDEST PUSH1 0x4 PUSH1 0x14 SWAP1 SLOAD SWAP1 PUSH2 0x100 EXP SWAP1 DIV PUSH1 0xFF AND ISZERO PUSH2 0x1F3F JUMPI PUSH1 0x0 DUP1 REVERT JUMPDEST PUSH1 0x1 PUSH1 0x4 PUSH1 0x14 PUSH2 0x100 EXP DUP2 SLOAD DUP2 PUSH1 0xFF MUL NOT AND SWAP1 DUP4 ISZERO ISZERO MUL OR SWAP1 SSTORE POP PUSH1 0x0 DUP1 SWAP1 POP JUMPDEST DUP7 MLOAD DUP2 LT ISZERO PUSH2 0x2061 JUMPI PUSH1 0x1 PUSH1 0x0 DUP11 DUP2 MSTORE PUSH1 0x20 ADD SWAP1 DUP2 MSTORE PUSH1 0x20 ADD PUSH1 0x0 KECCAK256 PUSH1 0x8 ADD DUP1 SLOAD SWAP1 POP DUP8 DUP3 DUP2 MLOAD DUP2 LT PUSH2 0x1F8F JUMPI INVALID JUMPDEST PUSH1 0x20 MUL PUSH1 0x20 ADD ADD MLOAD LT PUSH2 0x1FA1 JUMPI PUSH1 0x0 DUP1 REVERT JUMPDEST PUSH1 0x0 PUSH1 0x1 PUSH1 0x0 DUP12 DUP2 MSTORE PUSH1 0x20 ADD SWAP1 DUP2 MSTORE PUSH1 0x20 ADD PUSH1 0x0 KECCAK256 PUSH1 0x8 ADD DUP9 DUP4 DUP2 MLOAD DUP2 LT PUSH2 0x1FC5 JUMPI INVALID JUMPDEST PUSH1 0x20 MUL PUSH1 0x20 ADD ADD MLOAD DUP2 SLOAD DUP2 LT PUSH2 0x1FD7 JUMPI INVALID JUMPDEST SWAP1 PUSH1 0x0 MSTORE PUSH1 0x20 PUSH1 0x0 KECCAK256 SWAP1 PUSH1 0x3 MUL ADD SWAP1 POP DUP1 PUSH1 0x2 ADD PUSH1 0x0 SWAP1 SLOAD SWAP1 PUSH2 0x100 EXP SWAP1 DIV PUSH1 0xFF AND ISZERO PUSH2 0x2003 JUMPI PUSH1 0x0 DUP1 REVERT JUMPDEST PUSH1 0x1 DUP2 PUSH1 0x2 ADD PUSH1 0x0 PUSH2 0x100 EXP DUP2 SLOAD DUP2 PUSH1 0xFF MUL NOT AND SWAP1 DUP4 ISZERO ISZERO MUL OR SWAP1 SSTORE POP PUSH2 0x2053 DUP11 DUP3 PUSH1 0x0 ADD PUSH1 0x0 SWAP1 SLOAD SWAP1 PUSH2 0x100 EXP SWAP1 DIV PUSH20 0xFFFFFFFFFFFFFFFFFFFFFFFFFFFFFFFFFFFFFFFF AND DUP4 PUSH1 0x1 ADD SLOAD PUSH2 0x371C JUMP JUMPDEST POP DUP1 DUP1 PUSH1 0x1 ADD SWAP2 POP POP PUSH2 0x1F60 JUMP JUMPDEST POP PUSH32 0xC55C552370AD68C2FAED667A8224A8AB373E39368872484A40619B1E884336DE DUP9 DUP11 DUP9 PUSH1 0x40 MLOAD PUSH2 0x2095 SWAP4 SWAP3 SWAP2 SWAP1 PUSH2 0x5439 JUMP JUMPDEST PUSH1 0x40 MLOAD DUP1 SWAP2 SUB SWAP1 LOG1 PUSH1 0x0 PUSH1 0x4 PUSH1 0x14 PUSH2 0x100 EXP DUP2 SLOAD DUP2 PUSH1 0xFF MUL NOT AND SWAP1 DUP4 ISZERO ISZERO MUL OR SWAP1 SSTORE POP POP POP POP POP POP POP POP POP POP JUMP JUMPDEST DUP3 DUP1 PUSH20 0xFFFFFFFFFFFFFFFFFFFFFFFFFFFFFFFFFFFFFFFF AND CALLER PUSH20 0xFFFFFFFFFFFFFFFFFFFFFFFFFFFFFFFFFFFFFFFF AND EQ DUP1 PUSH2 0x214B JUMPI POP PUSH1 0x4 PUSH1 0x0 SWAP1 SLOAD SWAP1 PUSH2 0x100 EXP SWAP1 DIV PUSH20 0xFFFFFFFFFFFFFFFFFFFFFFFFFFFFFFFFFFFFFFFF AND PUSH20 0xFFFFFFFFFFFFFFFFFFFFFFFFFFFFFFFFFFFFFFFF AND CALLER PUSH20 0xFFFFFFFFFFFFFFFFFFFFFFFFFFFFFFFFFFFFFFFF AND EQ JUMPDEST PUSH2 0x2154 JUMPI PUSH1 0x0 DUP1 REVERT JUMPDEST DUP3 PUSH1 0x0 SLOAD DUP2 LT PUSH2 0x2163 JUMPI PUSH1 0x0 DUP1 REVERT JUMPDEST PUSH1 0x4 PUSH1 0x14 SWAP1 SLOAD SWAP1 PUSH2 0x100 EXP SWAP1 DIV PUSH1 0xFF AND ISZERO PUSH2 0x217D JUMPI PUSH1 0x0 DUP1 REVERT JUMPDEST PUSH1 0x1 PUSH1 0x4 PUSH1 0x14 PUSH2 0x100 EXP DUP2 SLOAD DUP2 PUSH1 0xFF MUL NOT AND SWAP1 DUP4 ISZERO ISZERO MUL OR SWAP1 SSTORE POP PUSH1 0x0 DUP4 GT PUSH2 0x21A5 JUMPI PUSH1 0x0 DUP1 REVERT JUMPDEST PUSH1 0x1 PUSH1 0x0 DUP6 DUP2 MSTORE PUSH1 0x20 ADD SWAP1 DUP2 MSTORE PUSH1 0x20 ADD PUSH1 0x0 KECCAK256 PUSH1 0x8 ADD PUSH1 0x40 MLOAD DUP1 PUSH1 0x60 ADD PUSH1 0x40 MSTORE DUP1 DUP8 PUSH20 0xFFFFFFFFFFFFFFFFFFFFFFFFFFFFFFFFFFFFFFFF AND DUP2 MSTORE PUSH1 0x20 ADD DUP6 DUP2 MSTORE PUSH1 0x20 ADD PUSH1 0x0 ISZERO ISZERO DUP2 MSTORE POP SWAP1 DUP1 PUSH1 0x1 DUP2 SLOAD ADD DUP1 DUP3 SSTORE DUP1 SWAP2 POP POP SWAP1 PUSH1 0x1 DUP3 SUB SWAP1 PUSH1 0x0 MSTORE PUSH1 0x20 PUSH1 0x0 KECCAK256 SWAP1 PUSH1 0x3 MUL ADD PUSH1 0x0 SWAP1 SWAP2 SWAP3 SWAP1 SWAP2 SWAP1 SWAP2 POP PUSH1 0x0 DUP3 ADD MLOAD DUP2 PUSH1 0x0 ADD PUSH1 0x0 PUSH2 0x100 EXP DUP2 SLOAD DUP2 PUSH20 0xFFFFFFFFFFFFFFFFFFFFFFFFFFFFFFFFFFFFFFFF MUL NOT AND SWAP1 DUP4 PUSH20 0xFFFFFFFFFFFFFFFFFFFFFFFFFFFFFFFFFFFFFFFF AND MUL OR SWAP1 SSTORE POP PUSH1 0x20 DUP3 ADD MLOAD DUP2 PUSH1 0x1 ADD SSTORE PUSH1 0x40 DUP3 ADD MLOAD DUP2 PUSH1 0x2 ADD PUSH1 0x0 PUSH2 0x100 EXP DUP2 SLOAD DUP2 PUSH1 0xFF MUL NOT AND SWAP1 DUP4 ISZERO ISZERO MUL OR SWAP1 SSTORE POP POP POP POP PUSH1 0x0 PUSH1 0x1 PUSH1 0x0 DUP7 DUP2 MSTORE PUSH1 0x20 ADD SWAP1 DUP2 MSTORE PUSH1 0x20 ADD PUSH1 0x0 KECCAK256 PUSH1 0x4 ADD SLOAD EQ ISZERO PUSH2 0x2301 JUMPI PUSH2 0x22D6 DUP4 PUSH1 0x1 PUSH1 0x0 DUP8 DUP2 MSTORE PUSH1 0x20 ADD SWAP1 DUP2 MSTORE PUSH1 0x20 ADD PUSH1 0x0 KECCAK256 PUSH1 0x5 ADD SLOAD PUSH2 0x3AAB SWAP1 SWAP2 SWAP1 PUSH4 0xFFFFFFFF AND JUMP JUMPDEST PUSH1 0x1 PUSH1 0x0 DUP7 DUP2 MSTORE PUSH1 0x20 ADD SWAP1 DUP2 MSTORE PUSH1 0x20 ADD PUSH1 0x0 KECCAK256 PUSH1 0x5 ADD DUP2 SWAP1 SSTORE POP DUP3 CALLVALUE EQ PUSH2 0x22FC JUMPI PUSH1 0x0 DUP1 REVERT JUMPDEST PUSH2 0x255E JUMP JUMPDEST PUSH1 0x14 PUSH1 0x1 PUSH1 0x0 DUP7 DUP2 MSTORE PUSH1 0x20 ADD SWAP1 DUP2 MSTORE PUSH1 0x20 ADD PUSH1 0x0 KECCAK256 PUSH1 0x4 ADD SLOAD EQ ISZERO PUSH2 0x2443 JUMPI PUSH2 0x2349 DUP4 PUSH1 0x1 PUSH1 0x0 DUP8 DUP2 MSTORE PUSH1 0x20 ADD SWAP1 DUP2 MSTORE PUSH1 0x20 ADD PUSH1 0x0 KECCAK256 PUSH1 0x5 ADD SLOAD PUSH2 0x3AAB SWAP1 SWAP2 SWAP1 PUSH4 0xFFFFFFFF AND JUMP JUMPDEST PUSH1 0x1 PUSH1 0x0 DUP7 DUP2 MSTORE PUSH1 0x20 ADD SWAP1 DUP2 MSTORE PUSH1 0x20 ADD PUSH1 0x0 KECCAK256 PUSH1 0x5 ADD DUP2 SWAP1 SSTORE POP PUSH1 0x0 CALLVALUE EQ PUSH2 0x2370 JUMPI PUSH1 0x0 DUP1 REVERT JUMPDEST PUSH1 0x1 PUSH1 0x0 DUP6 DUP2 MSTORE PUSH1 0x20 ADD SWAP1 DUP2 MSTORE PUSH1 0x20 ADD PUSH1 0x0 KECCAK256 PUSH1 0x3 ADD PUSH1 0x0 SWAP1 SLOAD SWAP1 PUSH2 0x100 EXP SWAP1 DIV PUSH20 0xFFFFFFFFFFFFFFFFFFFFFFFFFFFFFFFFFFFFFFFF AND PUSH20 0xFFFFFFFFFFFFFFFFFFFFFFFFFFFFFFFFFFFFFFFF AND PUSH4 0x23B872DD DUP7 ADDRESS DUP7 PUSH1 0x40 MLOAD DUP5 PUSH4 0xFFFFFFFF AND PUSH1 0xE0 SHL DUP2 MSTORE PUSH1 0x4 ADD PUSH2 0x23E3 SWAP4 SWAP3 SWAP2 SWAP1 PUSH2 0x5187 JUMP JUMPDEST PUSH1 0x20 PUSH1 0x40 MLOAD DUP1 DUP4 SUB DUP2 PUSH1 0x0 DUP8 DUP1 EXTCODESIZE ISZERO DUP1 ISZERO PUSH2 0x23FD JUMPI PUSH1 0x0 DUP1 REVERT JUMPDEST POP GAS CALL ISZERO DUP1 ISZERO PUSH2 0x2411 JUMPI RETURNDATASIZE PUSH1 0x0 DUP1 RETURNDATACOPY RETURNDATASIZE PUSH1 0x0 REVERT JUMPDEST POP POP POP POP PUSH1 0x40 MLOAD RETURNDATASIZE PUSH1 0x1F NOT PUSH1 0x1F DUP3 ADD AND DUP3 ADD DUP1 PUSH1 0x40 MSTORE POP PUSH2 0x2435 SWAP2 SWAP1 DUP2 ADD SWAP1 PUSH2 0x4ADE JUMP JUMPDEST PUSH2 0x243E JUMPI PUSH1 0x0 DUP1 REVERT JUMPDEST PUSH2 0x255D JUMP JUMPDEST PUSH2 0x2D1 PUSH1 0x1 PUSH1 0x0 DUP7 DUP2 MSTORE PUSH1 0x20 ADD SWAP1 DUP2 MSTORE PUSH1 0x20 ADD PUSH1 0x0 KECCAK256 PUSH1 0x4 ADD SLOAD EQ ISZERO PUSH2 0x2557 JUMPI PUSH1 0x1 PUSH1 0x2 PUSH1 0x0 DUP7 DUP2 MSTORE PUSH1 0x20 ADD SWAP1 DUP2 MSTORE PUSH1 0x20 ADD PUSH1 0x0 KECCAK256 PUSH1 0x0 DUP6 DUP2 MSTORE PUSH1 0x20 ADD SWAP1 DUP2 MSTORE PUSH1 0x20 ADD PUSH1 0x0 KECCAK256 PUSH1 0x0 PUSH2 0x100 EXP DUP2 SLOAD DUP2 PUSH1 0xFF MUL NOT AND SWAP1 DUP4 ISZERO ISZERO MUL OR SWAP1 SSTORE POP PUSH1 0x0 CALLVALUE EQ PUSH2 0x24AD JUMPI PUSH1 0x0 DUP1 REVERT JUMPDEST PUSH1 0x1 PUSH1 0x0 DUP6 DUP2 MSTORE PUSH1 0x20 ADD SWAP1 DUP2 MSTORE PUSH1 0x20 ADD PUSH1 0x0 KECCAK256 PUSH1 0x3 ADD PUSH1 0x0 SWAP1 SLOAD SWAP1 PUSH2 0x100 EXP SWAP1 DIV PUSH20 0xFFFFFFFFFFFFFFFFFFFFFFFFFFFFFFFFFFFFFFFF AND PUSH20 0xFFFFFFFFFFFFFFFFFFFFFFFFFFFFFFFFFFFFFFFF AND PUSH4 0x23B872DD DUP7 ADDRESS DUP7 PUSH1 0x40 MLOAD DUP5 PUSH4 0xFFFFFFFF AND PUSH1 0xE0 SHL DUP2 MSTORE PUSH1 0x4 ADD PUSH2 0x2520 SWAP4 SWAP3 SWAP2 SWAP1 PUSH2 0x5187 JUMP JUMPDEST PUSH1 0x0 PUSH1 0x40 MLOAD DUP1 DUP4 SUB DUP2 PUSH1 0x0 DUP8 DUP1 EXTCODESIZE ISZERO DUP1 ISZERO PUSH2 0x253A JUMPI PUSH1 0x0 DUP1 REVERT JUMPDEST POP GAS CALL ISZERO DUP1 ISZERO PUSH2 0x254E JUMPI RETURNDATASIZE PUSH1 0x0 DUP1 RETURNDATACOPY RETURNDATASIZE PUSH1 0x0 REVERT JUMPDEST POP POP POP POP PUSH2 0x255C JUMP JUMPDEST PUSH1 0x0 DUP1 REVERT JUMPDEST JUMPDEST JUMPDEST PUSH32 0x7431E5E30247DCB2379EAB9B0E60E49038C5DDB5CAC27F27A17E950C0220A693 DUP5 PUSH1 0x1 DUP1 PUSH1 0x0 DUP9 DUP2 MSTORE PUSH1 0x20 ADD SWAP1 DUP2 MSTORE PUSH1 0x20 ADD PUSH1 0x0 KECCAK256 PUSH1 0x8 ADD DUP1 SLOAD SWAP1 POP SUB DUP8 DUP7 PUSH1 0x40 MLOAD PUSH2 0x25AE SWAP5 SWAP4 SWAP3 SWAP2 SWAP1 PUSH2 0x5568 JUMP JUMPDEST PUSH1 0x40 MLOAD DUP1 SWAP2 SUB SWAP1 LOG1 PUSH1 0x0 PUSH1 0x4 PUSH1 0x14 PUSH2 0x100 EXP DUP2 SLOAD DUP2 PUSH1 0xFF MUL NOT AND SWAP1 DUP4 ISZERO ISZERO MUL OR SWAP1 SSTORE POP POP POP POP POP POP JUMP JUMPDEST DUP4 DUP1 PUSH20 0xFFFFFFFFFFFFFFFFFFFFFFFFFFFFFFFFFFFFFFFF AND CALLER PUSH20 0xFFFFFFFFFFFFFFFFFFFFFFFFFFFFFFFFFFFFFFFF AND EQ DUP1 PUSH2 0x2660 JUMPI POP PUSH1 0x4 PUSH1 0x0 SWAP1 SLOAD SWAP1 PUSH2 0x100 EXP SWAP1 DIV PUSH20 0xFFFFFFFFFFFFFFFFFFFFFFFFFFFFFFFFFFFFFFFF AND PUSH20 0xFFFFFFFFFFFFFFFFFFFFFFFFFFFFFFFFFFFFFFFF AND CALLER PUSH20 0xFFFFFFFFFFFFFFFFFFFFFFFFFFFFFFFFFFFFFFFF AND EQ JUMPDEST PUSH2 0x2669 JUMPI PUSH1 0x0 DUP1 REVERT JUMPDEST DUP4 PUSH1 0x0 SLOAD DUP2 LT PUSH2 0x2678 JUMPI PUSH1 0x0 DUP1 REVERT JUMPDEST DUP5 DUP5 PUSH1 0x1 PUSH1 0x0 DUP4 DUP2 MSTORE PUSH1 0x20 ADD SWAP1 DUP2 MSTORE PUSH1 0x20 ADD PUSH1 0x0 KECCAK256 PUSH1 0x0 ADD DUP1 SLOAD SWAP1 POP DUP2 LT PUSH2 0x269F JUMPI PUSH1 0x0 DUP1 REVERT JUMPDEST DUP8 DUP8 DUP8 PUSH1 0x1 PUSH1 0x0 DUP4 DUP2 MSTORE PUSH1 0x20 ADD SWAP1 DUP2 MSTORE PUSH1 0x20 ADD PUSH1 0x0 KECCAK256 PUSH1 0x0 ADD DUP2 DUP2 SLOAD DUP2 LT PUSH2 0x26C3 JUMPI INVALID JUMPDEST SWAP1 PUSH1 0x0 MSTORE PUSH1 0x20 PUSH1 0x0 KECCAK256 ADD PUSH1 0x0 SWAP1 SLOAD SWAP1 PUSH2 0x100 EXP SWAP1 DIV PUSH20 0xFFFFFFFFFFFFFFFFFFFFFFFFFFFFFFFFFFFFFFFF AND PUSH20 0xFFFFFFFFFFFFFFFFFFFFFFFFFFFFFFFFFFFFFFFF AND DUP4 PUSH20 0xFFFFFFFFFFFFFFFFFFFFFFFFFFFFFFFFFFFFFFFF AND EQ PUSH2 0x2725 JUMPI PUSH1 0x0 DUP1 REVERT JUMPDEST DUP8 PUSH1 0x1 PUSH1 0x0 DUP13 DUP2 MSTORE PUSH1 0x20 ADD SWAP1 DUP2 MSTORE PUSH1 0x20 ADD PUSH1 0x0 KECCAK256 PUSH1 0x2 ADD DUP2 SWAP1 SSTORE POP PUSH32 0x946E60A77ECF689F0595D6DCD6CF1537564A1D82472A69A3BE00F7E8CB6F8B7D DUP11 DUP13 DUP11 PUSH1 0x40 MLOAD PUSH2 0x2773 SWAP4 SWAP3 SWAP2 SWAP1 PUSH2 0x54B5 JUMP JUMPDEST PUSH1 0x40 MLOAD DUP1 SWAP2 SUB SWAP1 LOG1 POP POP POP POP POP POP POP POP POP POP POP JUMP JUMPDEST DUP7 DUP1 PUSH20 0xFFFFFFFFFFFFFFFFFFFFFFFFFFFFFFFFFFFFFFFF AND CALLER PUSH20 0xFFFFFFFFFFFFFFFFFFFFFFFFFFFFFFFFFFFFFFFF AND EQ DUP1 PUSH2 0x2810 JUMPI POP PUSH1 0x4 PUSH1 0x0 SWAP1 SLOAD SWAP1 PUSH2 0x100 EXP SWAP1 DIV PUSH20 0xFFFFFFFFFFFFFFFFFFFFFFFFFFFFFFFFFFFFFFFF AND PUSH20 0xFFFFFFFFFFFFFFFFFFFFFFFFFFFFFFFFFFFFFFFF AND CALLER PUSH20 0xFFFFFFFFFFFFFFFFFFFFFFFFFFFFFFFFFFFFFFFF AND EQ JUMPDEST PUSH2 0x2819 JUMPI PUSH1 0x0 DUP1 REVERT JUMPDEST PUSH1 0x0 SLOAD DUP8 LT PUSH2 0x2827 JUMPI PUSH1 0x0 DUP1 REVERT JUMPDEST PUSH1 0x1 PUSH1 0x0 DUP9 DUP2 MSTORE PUSH1 0x20 ADD SWAP1 DUP2 MSTORE PUSH1 0x20 ADD PUSH1 0x0 KECCAK256 PUSH1 0x0 ADD DUP1 SLOAD SWAP1 POP DUP7 LT PUSH2 0x284C JUMPI PUSH1 0x0 DUP1 REVERT JUMPDEST PUSH1 0x1 PUSH1 0x0 DUP9 DUP2 MSTORE PUSH1 0x20 ADD SWAP1 DUP2 MSTORE PUSH1 0x20 ADD PUSH1 0x0 KECCAK256 PUSH1 0x0 ADD DUP7 DUP2 SLOAD DUP2 LT PUSH2 0x286D JUMPI INVALID JUMPDEST SWAP1 PUSH1 0x0 MSTORE PUSH1 0x20 PUSH1 0x0 KECCAK256 ADD PUSH1 0x0 SWAP1 SLOAD SWAP1 PUSH2 0x100 EXP SWAP1 DIV PUSH20 0xFFFFFFFFFFFFFFFFFFFFFFFFFFFFFFFFFFFFFFFF AND PUSH20 0xFFFFFFFFFFFFFFFFFFFFFFFFFFFFFFFFFFFFFFFF AND DUP9 PUSH20 0xFFFFFFFFFFFFFFFFFFFFFFFFFFFFFFFFFFFFFFFF AND EQ PUSH2 0x28CF JUMPI PUSH1 0x0 DUP1 REVERT JUMPDEST PUSH1 0x0 DUP6 MLOAD GT DUP1 PUSH2 0x28E0 JUMPI POP PUSH1 0x0 DUP5 MLOAD GT JUMPDEST PUSH2 0x28E9 JUMPI PUSH1 0x0 DUP1 REVERT JUMPDEST DUP5 PUSH1 0x1 PUSH1 0x0 DUP10 DUP2 MSTORE PUSH1 0x20 ADD SWAP1 DUP2 MSTORE PUSH1 0x20 ADD PUSH1 0x0 KECCAK256 PUSH1 0x0 ADD SWAP1 DUP1 MLOAD SWAP1 PUSH1 0x20 ADD SWAP1 PUSH2 0x2913 SWAP3 SWAP2 SWAP1 PUSH2 0x3ADC JUMP JUMPDEST POP DUP4 PUSH1 0x1 PUSH1 0x0 DUP10 DUP2 MSTORE PUSH1 0x20 ADD SWAP1 DUP2 MSTORE PUSH1 0x20 ADD PUSH1 0x0 KECCAK256 PUSH1 0x1 ADD SWAP1 DUP1 MLOAD SWAP1 PUSH1 0x20 ADD SWAP1 PUSH2 0x293E SWAP3 SWAP2 SWAP1 PUSH2 0x3C7A JUMP JUMPDEST POP DUP2 PUSH1 0x1 PUSH1 0x0 DUP10 DUP2 MSTORE PUSH1 0x20 ADD SWAP1 DUP2 MSTORE PUSH1 0x20 ADD PUSH1 0x0 KECCAK256 PUSH1 0x2 ADD DUP2 SWAP1 SSTORE POP PUSH32 0x588A0D2C7E36AB3050CD6B8B12441530AE5407613E9F2A62DC10BC43A302ED9C DUP8 DUP10 DUP8 DUP8 DUP8 DUP8 PUSH1 0x40 MLOAD PUSH2 0x2993 SWAP7 SWAP6 SWAP5 SWAP4 SWAP3 SWAP2 SWAP1 PUSH2 0x5385 JUMP JUMPDEST PUSH1 0x40 MLOAD DUP1 SWAP2 SUB SWAP1 LOG1 POP POP POP POP POP POP POP POP JUMP JUMPDEST DUP6 DUP1 PUSH20 0xFFFFFFFFFFFFFFFFFFFFFFFFFFFFFFFFFFFFFFFF AND CALLER PUSH20 0xFFFFFFFFFFFFFFFFFFFFFFFFFFFFFFFFFFFFFFFF AND EQ DUP1 PUSH2 0x2A2D JUMPI POP PUSH1 0x4 PUSH1 0x0 SWAP1 SLOAD SWAP1 PUSH2 0x100 EXP SWAP1 DIV PUSH20 0xFFFFFFFFFFFFFFFFFFFFFFFFFFFFFFFFFFFFFFFF AND PUSH20 0xFFFFFFFFFFFFFFFFFFFFFFFFFFFFFFFFFFFFFFFF AND CALLER PUSH20 0xFFFFFFFFFFFFFFFFFFFFFFFFFFFFFFFFFFFFFFFF AND EQ JUMPDEST PUSH2 0x2A36 JUMPI PUSH1 0x0 DUP1 REVERT JUMPDEST DUP7 DUP7 DUP7 PUSH1 0x1 PUSH1 0x0 DUP4 DUP2 MSTORE PUSH1 0x20 ADD SWAP1 DUP2 MSTORE PUSH1 0x20 ADD PUSH1 0x0 KECCAK256 PUSH1 0x0 ADD DUP2 DUP2 SLOAD DUP2 LT PUSH2 0x2A5A JUMPI INVALID JUMPDEST SWAP1 PUSH1 0x0 MSTORE PUSH1 0x20 PUSH1 0x0 KECCAK256 ADD PUSH1 0x0 SWAP1 SLOAD SWAP1 PUSH2 0x100 EXP SWAP1 DIV PUSH20 0xFFFFFFFFFFFFFFFFFFFFFFFFFFFFFFFFFFFFFFFF AND PUSH20 0xFFFFFFFFFFFFFFFFFFFFFFFFFFFFFFFFFFFFFFFF AND DUP4 PUSH20 0xFFFFFFFFFFFFFFFFFFFFFFFFFFFFFFFFFFFFFFFF AND EQ PUSH2 0x2ABC JUMPI PUSH1 0x0 DUP1 REVERT JUMPDEST PUSH1 0x0 SLOAD DUP10 LT PUSH2 0x2ACA JUMPI PUSH1 0x0 DUP1 REVERT JUMPDEST PUSH1 0x1 PUSH1 0x0 DUP11 DUP2 MSTORE PUSH1 0x20 ADD SWAP1 DUP2 MSTORE PUSH1 0x20 ADD PUSH1 0x0 KECCAK256 PUSH1 0x1 ADD DUP1 SLOAD SWAP1 POP DUP7 LT PUSH2 0x2AEF JUMPI PUSH1 0x0 DUP1 REVERT JUMPDEST PUSH1 0x1 PUSH1 0x0 DUP11 DUP2 MSTORE PUSH1 0x20 ADD SWAP1 DUP2 MSTORE PUSH1 0x20 ADD PUSH1 0x0 KECCAK256 PUSH1 0x0 ADD DUP1 SLOAD SWAP1 POP DUP8 LT PUSH2 0x2B14 JUMPI PUSH1 0x0 DUP1 REVERT JUMPDEST DUP5 PUSH1 0x1 PUSH1 0x0 DUP12 DUP2 MSTORE PUSH1 0x20 ADD SWAP1 DUP2 MSTORE PUSH1 0x20 ADD PUSH1 0x0 KECCAK256 PUSH1 0x0 ADD DUP9 DUP2 SLOAD DUP2 LT PUSH2 0x2B36 JUMPI INVALID JUMPDEST SWAP1 PUSH1 0x0 MSTORE PUSH1 0x20 PUSH1 0x0 KECCAK256 ADD PUSH1 0x0 PUSH2 0x100 EXP DUP2 SLOAD DUP2 PUSH20 0xFFFFFFFFFFFFFFFFFFFFFFFFFFFFFFFFFFFFFFFF MUL NOT AND SWAP1 DUP4 PUSH20 0xFFFFFFFFFFFFFFFFFFFFFFFFFFFFFFFFFFFFFFFF AND MUL OR SWAP1 SSTORE POP DUP5 PUSH1 0x1 PUSH1 0x0 DUP12 DUP2 MSTORE PUSH1 0x20 ADD SWAP1 DUP2 MSTORE PUSH1 0x20 ADD PUSH1 0x0 KECCAK256 PUSH1 0x1 ADD DUP8 DUP2 SLOAD DUP2 LT PUSH2 0x2BA0 JUMPI INVALID JUMPDEST SWAP1 PUSH1 0x0 MSTORE PUSH1 0x20 PUSH1 0x0 KECCAK256 ADD PUSH1 0x0 PUSH2 0x100 EXP DUP2 SLOAD DUP2 PUSH20 0xFFFFFFFFFFFFFFFFFFFFFFFFFFFFFFFFFFFFFFFF MUL NOT AND SWAP1 DUP4 PUSH20 0xFFFFFFFFFFFFFFFFFFFFFFFFFFFFFFFFFFFFFFFF AND MUL OR SWAP1 SSTORE POP PUSH32 0xC969620B1B90646A0D597289D87DCF90D4CC4E554BDDF0C003DFC05954A6D359 DUP10 DUP12 PUSH1 0x1 PUSH1 0x0 DUP14 DUP2 MSTORE PUSH1 0x20 ADD SWAP1 DUP2 MSTORE PUSH1 0x20 ADD PUSH1 0x0 KECCAK256 PUSH1 0x0 ADD PUSH1 0x40 MLOAD PUSH2 0x2C30 SWAP4 SWAP3 SWAP2 SWAP1 PUSH2 0x53FB JUMP JUMPDEST PUSH1 0x40 MLOAD DUP1 SWAP2 SUB SWAP1 LOG1 PUSH32 0x43A4E4542993B08827123085341D156186F40B28B6343F301C246A1D5F49D9F7 DUP10 DUP12 PUSH1 0x1 PUSH1 0x0 DUP14 DUP2 MSTORE PUSH1 0x20 ADD SWAP1 DUP2 MSTORE PUSH1 0x20 ADD PUSH1 0x0 KECCAK256 PUSH1 0x1 ADD PUSH1 0x40 MLOAD PUSH2 0x2C80 SWAP4 SWAP3 SWAP2 SWAP1 PUSH2 0x5347 JUMP JUMPDEST PUSH1 0x40 MLOAD DUP1 SWAP2 SUB SWAP1 LOG1 POP POP POP POP POP POP POP POP POP POP JUMP JUMPDEST PUSH1 0x4 PUSH1 0x0 SWAP1 SLOAD SWAP1 PUSH2 0x100 EXP SWAP1 DIV PUSH20 0xFFFFFFFFFFFFFFFFFFFFFFFFFFFFFFFFFFFFFFFF AND DUP2 JUMP JUMPDEST DUP6 DUP1 PUSH20 0xFFFFFFFFFFFFFFFFFFFFFFFFFFFFFFFFFFFFFFFF AND CALLER PUSH20 0xFFFFFFFFFFFFFFFFFFFFFFFFFFFFFFFFFFFFFFFF AND EQ DUP1 PUSH2 0x2D42 JUMPI POP PUSH1 0x4 PUSH1 0x0 SWAP1 SLOAD SWAP1 PUSH2 0x100 EXP SWAP1 DIV PUSH20 0xFFFFFFFFFFFFFFFFFFFFFFFFFFFFFFFFFFFFFFFF AND PUSH20 0xFFFFFFFFFFFFFFFFFFFFFFFFFFFFFFFFFFFFFFFF AND CALLER PUSH20 0xFFFFFFFFFFFFFFFFFFFFFFFFFFFFFFFFFFFFFFFF AND EQ JUMPDEST PUSH2 0x2D4B JUMPI PUSH1 0x0 DUP1 REVERT JUMPDEST PUSH2 0x2D57 DUP8 DUP8 DUP8 DUP8 PUSH2 0x19B5 JUMP JUMPDEST PUSH2 0x2D7F DUP8 DUP8 PUSH1 0x1 DUP1 PUSH1 0x0 DUP12 DUP2 MSTORE PUSH1 0x20 ADD SWAP1 DUP2 MSTORE PUSH1 0x20 ADD PUSH1 0x0 KECCAK256 PUSH1 0x7 ADD DUP1 SLOAD SWAP1 POP SUB DUP7 DUP7 PUSH2 0x68D JUMP JUMPDEST POP POP POP POP POP POP POP JUMP JUMPDEST DUP5 DUP1 PUSH20 0xFFFFFFFFFFFFFFFFFFFFFFFFFFFFFFFFFFFFFFFF AND CALLER PUSH20 0xFFFFFFFFFFFFFFFFFFFFFFFFFFFFFFFFFFFFFFFF AND EQ DUP1 PUSH2 0x2E10 JUMPI POP PUSH1 0x4 PUSH1 0x0 SWAP1 SLOAD SWAP1 PUSH2 0x100 EXP SWAP1 DIV PUSH20 0xFFFFFFFFFFFFFFFFFFFFFFFFFFFFFFFFFFFFFFFF AND PUSH20 0xFFFFFFFFFFFFFFFFFFFFFFFFFFFFFFFFFFFFFFFF AND CALLER PUSH20 0xFFFFFFFFFFFFFFFFFFFFFFFFFFFFFFFFFFFFFFFF AND EQ JUMPDEST PUSH2 0x2E19 JUMPI PUSH1 0x0 DUP1 REVERT JUMPDEST DUP5 PUSH1 0x0 SLOAD DUP2 LT PUSH2 0x2E28 JUMPI PUSH1 0x0 DUP1 REVERT JUMPDEST DUP6 DUP6 PUSH1 0x1 PUSH1 0x0 DUP4 DUP2 MSTORE PUSH1 0x20 ADD SWAP1 DUP2 MSTORE PUSH1 0x20 ADD PUSH1 0x0 KECCAK256 PUSH1 0x7 ADD DUP1 SLOAD SWAP1 POP DUP2 LT PUSH2 0x2E4F JUMPI PUSH1 0x0 DUP1 REVERT JUMPDEST DUP9 DUP9 DUP9 PUSH1 0x1 PUSH1 0x0 DUP4 DUP2 MSTORE PUSH1 0x20 ADD SWAP1 DUP2 MSTORE PUSH1 0x20 ADD PUSH1 0x0 KECCAK256 PUSH1 0x7 ADD DUP2 DUP2 SLOAD DUP2 LT PUSH2 0x2E73 JUMPI INVALID JUMPDEST SWAP1 PUSH1 0x0 MSTORE PUSH1 0x20 PUSH1 0x0 KECCAK256 SWAP1 PUSH1 0x2 MUL ADD PUSH1 0x1 ADD PUSH1 0x0 SWAP1 SLOAD SWAP1 PUSH2 0x100 EXP SWAP1 DIV PUSH20 0xFFFFFFFFFFFFFFFFFFFFFFFFFFFFFFFFFFFFFFFF AND PUSH20 0xFFFFFFFFFFFFFFFFFFFFFFFFFFFFFFFFFFFFFFFF AND DUP4 PUSH20 0xFFFFFFFFFFFFFFFFFFFFFFFFFFFFFFFFFFFFFFFF AND EQ PUSH2 0x2EDC JUMPI PUSH1 0x0 DUP1 REVERT JUMPDEST DUP9 PUSH1 0x1 PUSH1 0x0 DUP14 DUP2 MSTORE PUSH1 0x20 ADD SWAP1 DUP2 MSTORE PUSH1 0x20 ADD PUSH1 0x0 KECCAK256 PUSH1 0x7 ADD DUP12 DUP2 SLOAD DUP2 LT PUSH2 0x2EFE JUMPI INVALID JUMPDEST SWAP1 PUSH1 0x0 MSTORE PUSH1 0x20 PUSH1 0x0 KECCAK256 SWAP1 PUSH1 0x2 MUL ADD PUSH1 0x0 ADD SWAP1 DUP1 MLOAD SWAP1 PUSH1 0x20 ADD SWAP1 PUSH2 0x2F22 SWAP3 SWAP2 SWAP1 PUSH2 0x3ADC JUMP JUMPDEST POP PUSH32 0xDE0D52AD68B0A792924DE426FB3A2F2C1CE908BE531894E35D85E533FBB8EC16 DUP12 DUP12 DUP12 DUP12 PUSH1 0x40 MLOAD PUSH2 0x2F58 SWAP5 SWAP4 SWAP3 SWAP2 SWAP1 PUSH2 0x55F9 JUMP JUMPDEST PUSH1 0x40 MLOAD DUP1 SWAP2 SUB SWAP1 LOG1 POP POP POP POP POP POP POP POP POP POP POP POP JUMP JUMPDEST DUP4 DUP1 PUSH20 0xFFFFFFFFFFFFFFFFFFFFFFFFFFFFFFFFFFFFFFFF AND CALLER PUSH20 0xFFFFFFFFFFFFFFFFFFFFFFFFFFFFFFFFFFFFFFFF AND EQ DUP1 PUSH2 0x2FF6 JUMPI POP PUSH1 0x4 PUSH1 0x0 SWAP1 SLOAD SWAP1 PUSH2 0x100 EXP SWAP1 DIV PUSH20 0xFFFFFFFFFFFFFFFFFFFFFFFFFFFFFFFFFFFFFFFF AND PUSH20 0xFFFFFFFFFFFFFFFFFFFFFFFFFFFFFFFFFFFFFFFF AND CALLER PUSH20 0xFFFFFFFFFFFFFFFFFFFFFFFFFFFFFFFFFFFFFFFF AND EQ JUMPDEST PUSH2 0x2FFF JUMPI PUSH1 0x0 DUP1 REVERT JUMPDEST DUP4 PUSH1 0x0 SLOAD DUP2 LT PUSH2 0x300E JUMPI PUSH1 0x0 DUP1 REVERT JUMPDEST DUP5 DUP5 PUSH1 0x1 PUSH1 0x0 DUP4 DUP2 MSTORE PUSH1 0x20 ADD SWAP1 DUP2 MSTORE PUSH1 0x20 ADD PUSH1 0x0 KECCAK256 PUSH1 0x0 ADD DUP1 SLOAD SWAP1 POP DUP2 LT PUSH2 0x3035 JUMPI PUSH1 0x0 DUP1 REVERT JUMPDEST DUP8 DUP8 DUP8 PUSH1 0x1 PUSH1 0x0 DUP4 DUP2 MSTORE PUSH1 0x20 ADD SWAP1 DUP2 MSTORE PUSH1 0x20 ADD PUSH1 0x0 KECCAK256 PUSH1 0x0 ADD DUP2 DUP2 SLOAD DUP2 LT PUSH2 0x3059 JUMPI INVALID JUMPDEST SWAP1 PUSH1 0x0 MSTORE PUSH1 0x20 PUSH1 0x0 KECCAK256 ADD PUSH1 0x0 SWAP1 SLOAD SWAP1 PUSH2 0x100 EXP SWAP1 DIV PUSH20 0xFFFFFFFFFFFFFFFFFFFFFFFFFFFFFFFFFFFFFFFF AND PUSH20 0xFFFFFFFFFFFFFFFFFFFFFFFFFFFFFFFFFFFFFFFF AND DUP4 PUSH20 0xFFFFFFFFFFFFFFFFFFFFFFFFFFFFFFFFFFFFFFFF AND EQ PUSH2 0x30BB JUMPI PUSH1 0x0 DUP1 REVERT JUMPDEST PUSH1 0x0 DUP1 SWAP1 POP JUMPDEST DUP9 MLOAD DUP2 LT ISZERO PUSH2 0x3164 JUMPI PUSH1 0x1 PUSH1 0x0 DUP13 DUP2 MSTORE PUSH1 0x20 ADD SWAP1 DUP2 MSTORE PUSH1 0x20 ADD PUSH1 0x0 KECCAK256 PUSH1 0x0 ADD DUP10 DUP3 DUP2 MLOAD DUP2 LT PUSH2 0x30EC JUMPI INVALID JUMPDEST PUSH1 0x20 MUL PUSH1 0x20 ADD ADD MLOAD SWAP1 DUP1 PUSH1 0x1 DUP2 SLOAD ADD DUP1 DUP3 SSTORE DUP1 SWAP2 POP POP SWAP1 PUSH1 0x1 DUP3 SUB SWAP1 PUSH1 0x0 MSTORE PUSH1 0x20 PUSH1 0x0 KECCAK256 ADD PUSH1 0x0 SWAP1 SWAP2 SWAP3 SWAP1 SWAP2 SWAP1 SWAP2 PUSH2 0x100 EXP DUP2 SLOAD DUP2 PUSH20 0xFFFFFFFFFFFFFFFFFFFFFFFFFFFFFFFFFFFFFFFF MUL NOT AND SWAP1 DUP4 PUSH20 0xFFFFFFFFFFFFFFFFFFFFFFFFFFFFFFFFFFFFFFFF AND MUL OR SWAP1 SSTORE POP POP DUP1 DUP1 PUSH1 0x1 ADD SWAP2 POP POP PUSH2 0x30C1 JUMP JUMPDEST POP PUSH32 0xC969620B1B90646A0D597289D87DCF90D4CC4E554BDDF0C003DFC05954A6D359 DUP11 DUP13 PUSH1 0x1 PUSH1 0x0 DUP15 DUP2 MSTORE PUSH1 0x20 ADD SWAP1 DUP2 MSTORE PUSH1 0x20 ADD PUSH1 0x0 KECCAK256 PUSH1 0x0 ADD PUSH1 0x40 MLOAD PUSH2 0x31AD SWAP4 SWAP3 SWAP2 SWAP1 PUSH2 0x53FB JUMP JUMPDEST PUSH1 0x40 MLOAD DUP1 SWAP2 SUB SWAP1 LOG1 POP POP POP POP POP POP POP POP POP POP POP JUMP JUMPDEST PUSH1 0x1 PUSH1 0x20 MSTORE DUP1 PUSH1 0x0 MSTORE PUSH1 0x40 PUSH1 0x0 KECCAK256 PUSH1 0x0 SWAP2 POP SWAP1 POP DUP1 PUSH1 0x2 ADD SLOAD SWAP1 DUP1 PUSH1 0x3 ADD PUSH1 0x0 SWAP1 SLOAD SWAP1 PUSH2 0x100 EXP SWAP1 DIV PUSH20 0xFFFFFFFFFFFFFFFFFFFFFFFFFFFFFFFFFFFFFFFF AND SWAP1 DUP1 PUSH1 0x4 ADD SLOAD SWAP1 DUP1 PUSH1 0x5 ADD SLOAD SWAP1 DUP1 PUSH1 0x6 ADD PUSH1 0x0 SWAP1 SLOAD SWAP1 PUSH2 0x100 EXP SWAP1 DIV PUSH1 0xFF AND SWAP1 POP DUP6 JUMP JUMPDEST PUSH1 0x2 PUSH1 0x20 MSTORE DUP2 PUSH1 0x0 MSTORE PUSH1 0x40 PUSH1 0x0 KECCAK256 PUSH1 0x20 MSTORE DUP1 PUSH1 0x0 MSTORE PUSH1 0x40 PUSH1 0x0 KECCAK256 PUSH1 0x0 SWAP2 POP SWAP2 POP SWAP1 SLOAD SWAP1 PUSH2 0x100 EXP SWAP1 DIV PUSH1 0xFF AND DUP2 JUMP JUMPDEST DUP3 DUP1 PUSH20 0xFFFFFFFFFFFFFFFFFFFFFFFFFFFFFFFFFFFFFFFF AND CALLER PUSH20 0xFFFFFFFFFFFFFFFFFFFFFFFFFFFFFFFFFFFFFFFF AND EQ DUP1 PUSH2 0x32DC JUMPI POP PUSH1 0x4 PUSH1 0x0 SWAP1 SLOAD SWAP1 PUSH2 0x100 EXP SWAP1 DIV PUSH20 0xFFFFFFFFFFFFFFFFFFFFFFFFFFFFFFFFFFFFFFFF AND PUSH20 0xFFFFFFFFFFFFFFFFFFFFFFFFFFFFFFFFFFFFFFFF AND CALLER PUSH20 0xFFFFFFFFFFFFFFFFFFFFFFFFFFFFFFFFFFFFFFFF AND EQ JUMPDEST PUSH2 0x32E5 JUMPI PUSH1 0x0 DUP1 REVERT JUMPDEST PUSH1 0x0 DUP1 SWAP1 POP JUMPDEST DUP3 MLOAD DUP2 LT ISZERO PUSH2 0x331F JUMPI PUSH2 0x3312 DUP6 DUP6 DUP6 DUP5 DUP2 MLOAD DUP2 LT PUSH2 0x3305 JUMPI INVALID JUMPDEST PUSH1 0x20 MUL PUSH1 0x20 ADD ADD MLOAD PUSH2 0x16A8 JUMP JUMPDEST DUP1 DUP1 PUSH1 0x1 ADD SWAP2 POP POP PUSH2 0x32EB JUMP JUMPDEST POP POP POP POP POP JUMP JUMPDEST PUSH2 0x332E PUSH2 0x3D04 JUMP JUMPDEST PUSH1 0x1 PUSH1 0x0 DUP4 DUP2 MSTORE PUSH1 0x20 ADD SWAP1 DUP2 MSTORE PUSH1 0x20 ADD PUSH1 0x0 KECCAK256 PUSH1 0x40 MLOAD DUP1 PUSH2 0x120 ADD PUSH1 0x40 MSTORE SWAP1 DUP2 PUSH1 0x0 DUP3 ADD DUP1 SLOAD DUP1 PUSH1 0x20 MUL PUSH1 0x20 ADD PUSH1 0x40 MLOAD SWAP1 DUP2 ADD PUSH1 0x40 MSTORE DUP1 SWAP3 SWAP2 SWAP1 DUP2 DUP2 MSTORE PUSH1 0x20 ADD DUP3 DUP1 SLOAD DUP1 ISZERO PUSH2 0x33D2 JUMPI PUSH1 0x20 MUL DUP3 ADD SWAP2 SWAP1 PUSH1 0x0 MSTORE PUSH1 0x20 PUSH1 0x0 KECCAK256 SWAP1 JUMPDEST DUP2 PUSH1 0x0 SWAP1 SLOAD SWAP1 PUSH2 0x100 EXP SWAP1 DIV PUSH20 0xFFFFFFFFFFFFFFFFFFFFFFFFFFFFFFFFFFFFFFFF AND PUSH20 0xFFFFFFFFFFFFFFFFFFFFFFFFFFFFFFFFFFFFFFFF AND DUP2 MSTORE PUSH1 0x20 ADD SWAP1 PUSH1 0x1 ADD SWAP1 DUP1 DUP4 GT PUSH2 0x3388 JUMPI JUMPDEST POP POP POP POP POP DUP2 MSTORE PUSH1 0x20 ADD PUSH1 0x1 DUP3 ADD DUP1 SLOAD DUP1 PUSH1 0x20 MUL PUSH1 0x20 ADD PUSH1 0x40 MLOAD SWAP1 DUP2 ADD PUSH1 0x40 MSTORE DUP1 SWAP3 SWAP2 SWAP1 DUP2 DUP2 MSTORE PUSH1 0x20 ADD DUP3 DUP1 SLOAD DUP1 ISZERO PUSH2 0x3460 JUMPI PUSH1 0x20 MUL DUP3 ADD SWAP2 SWAP1 PUSH1 0x0 MSTORE PUSH1 0x20 PUSH1 0x0 KECCAK256 SWAP1 JUMPDEST DUP2 PUSH1 0x0 SWAP1 SLOAD SWAP1 PUSH2 0x100 EXP SWAP1 DIV PUSH20 0xFFFFFFFFFFFFFFFFFFFFFFFFFFFFFFFFFFFFFFFF AND PUSH20 0xFFFFFFFFFFFFFFFFFFFFFFFFFFFFFFFFFFFFFFFF AND DUP2 MSTORE PUSH1 0x20 ADD SWAP1 PUSH1 0x1 ADD SWAP1 DUP1 DUP4 GT PUSH2 0x3416 JUMPI JUMPDEST POP POP POP POP POP DUP2 MSTORE PUSH1 0x20 ADD PUSH1 0x2 DUP3 ADD SLOAD DUP2 MSTORE PUSH1 0x20 ADD PUSH1 0x3 DUP3 ADD PUSH1 0x0 SWAP1 SLOAD SWAP1 PUSH2 0x100 EXP SWAP1 DIV PUSH20 0xFFFFFFFFFFFFFFFFFFFFFFFFFFFFFFFFFFFFFFFF AND PUSH20 0xFFFFFFFFFFFFFFFFFFFFFFFFFFFFFFFFFFFFFFFF AND PUSH20 0xFFFFFFFFFFFFFFFFFFFFFFFFFFFFFFFFFFFFFFFF AND DUP2 MSTORE PUSH1 0x20 ADD PUSH1 0x4 DUP3 ADD SLOAD DUP2 MSTORE PUSH1 0x20 ADD PUSH1 0x5 DUP3 ADD SLOAD DUP2 MSTORE PUSH1 0x20 ADD PUSH1 0x6 DUP3 ADD PUSH1 0x0 SWAP1 SLOAD SWAP1 PUSH2 0x100 EXP SWAP1 DIV PUSH1 0xFF AND ISZERO ISZERO ISZERO ISZERO DUP2 MSTORE PUSH1 0x20 ADD PUSH1 0x7 DUP3 ADD DUP1 SLOAD DUP1 PUSH1 0x20 MUL PUSH1 0x20 ADD PUSH1 0x40 MLOAD SWAP1 DUP2 ADD PUSH1 0x40 MSTORE DUP1 SWAP3 SWAP2 SWAP1 DUP2 DUP2 MSTORE PUSH1 0x20 ADD PUSH1 0x0 SWAP1 JUMPDEST DUP3 DUP3 LT ISZERO PUSH2 0x3633 JUMPI DUP4 DUP3 SWAP1 PUSH1 0x0 MSTORE PUSH1 0x20 PUSH1 0x0 KECCAK256 SWAP1 PUSH1 0x2 MUL ADD PUSH1 0x40 MLOAD DUP1 PUSH1 0x40 ADD PUSH1 0x40 MSTORE SWAP1 DUP2 PUSH1 0x0 DUP3 ADD DUP1 SLOAD DUP1 PUSH1 0x20 MUL PUSH1 0x20 ADD PUSH1 0x40 MLOAD SWAP1 DUP2 ADD PUSH1 0x40 MSTORE DUP1 SWAP3 SWAP2 SWAP1 DUP2 DUP2 MSTORE PUSH1 0x20 ADD DUP3 DUP1 SLOAD DUP1 ISZERO PUSH2 0x35C5 JUMPI PUSH1 0x20 MUL DUP3 ADD SWAP2 SWAP1 PUSH1 0x0 MSTORE PUSH1 0x20 PUSH1 0x0 KECCAK256 SWAP1 JUMPDEST DUP2 PUSH1 0x0 SWAP1 SLOAD SWAP1 PUSH2 0x100 EXP SWAP1 DIV PUSH20 0xFFFFFFFFFFFFFFFFFFFFFFFFFFFFFFFFFFFFFFFF AND PUSH20 0xFFFFFFFFFFFFFFFFFFFFFFFFFFFFFFFFFFFFFFFF AND DUP2 MSTORE PUSH1 0x20 ADD SWAP1 PUSH1 0x1 ADD SWAP1 DUP1 DUP4 GT PUSH2 0x357B JUMPI JUMPDEST POP POP POP POP POP DUP2 MSTORE PUSH1 0x20 ADD PUSH1 0x1 DUP3 ADD PUSH1 0x0 SWAP1 SLOAD SWAP1 PUSH2 0x100 EXP SWAP1 DIV PUSH20 0xFFFFFFFFFFFFFFFFFFFFFFFFFFFFFFFFFFFFFFFF AND PUSH20 0xFFFFFFFFFFFFFFFFFFFFFFFFFFFFFFFFFFFFFFFF AND PUSH20 0xFFFFFFFFFFFFFFFFFFFFFFFFFFFFFFFFFFFFFFFF AND DUP2 MSTORE POP POP DUP2 MSTORE PUSH1 0x20 ADD SWAP1 PUSH1 0x1 ADD SWAP1 PUSH2 0x351D JUMP JUMPDEST POP POP POP POP DUP2 MSTORE PUSH1 0x20 ADD PUSH1 0x8 DUP3 ADD DUP1 SLOAD DUP1 PUSH1 0x20 MUL PUSH1 0x20 ADD PUSH1 0x40 MLOAD SWAP1 DUP2 ADD PUSH1 0x40 MSTORE DUP1 SWAP3 SWAP2 SWAP1 DUP2 DUP2 MSTORE PUSH1 0x20 ADD PUSH1 0x0 SWAP1 JUMPDEST DUP3 DUP3 LT ISZERO PUSH2 0x370D JUMPI DUP4 DUP3 SWAP1 PUSH1 0x0 MSTORE PUSH1 0x20 PUSH1 0x0 KECCAK256 SWAP1 PUSH1 0x3 MUL ADD PUSH1 0x40 MLOAD DUP1 PUSH1 0x60 ADD PUSH1 0x40 MSTORE SWAP1 DUP2 PUSH1 0x0 DUP3 ADD PUSH1 0x0 SWAP1 SLOAD SWAP1 PUSH2 0x100 EXP SWAP1 DIV PUSH20 0xFFFFFFFFFFFFFFFFFFFFFFFFFFFFFFFFFFFFFFFF AND PUSH20 0xFFFFFFFFFFFFFFFFFFFFFFFFFFFFFFFFFFFFFFFF AND PUSH20 0xFFFFFFFFFFFFFFFFFFFFFFFFFFFFFFFFFFFFFFFF AND DUP2 MSTORE PUSH1 0x20 ADD PUSH1 0x1 DUP3 ADD SLOAD DUP2 MSTORE PUSH1 0x20 ADD PUSH1 0x2 DUP3 ADD PUSH1 0x0 SWAP1 SLOAD SWAP1 PUSH2 0x100 EXP SWAP1 DIV PUSH1 0xFF AND ISZERO ISZERO ISZERO ISZERO DUP2 MSTORE POP POP DUP2 MSTORE PUSH1 0x20 ADD SWAP1 PUSH1 0x1 ADD SWAP1 PUSH2 0x3660 JUMP JUMPDEST POP POP POP POP DUP2 MSTORE POP POP SWAP1 POP SWAP2 SWAP1 POP JUMP JUMPDEST PUSH1 0x0 PUSH1 0x1 PUSH1 0x0 DUP6 DUP2 MSTORE PUSH1 0x20 ADD SWAP1 DUP2 MSTORE PUSH1 0x20 ADD PUSH1 0x0 KECCAK256 PUSH1 0x4 ADD SLOAD EQ ISZERO PUSH2 0x37FA JUMPI PUSH1 0x0 DUP2 GT PUSH2 0x3748 JUMPI PUSH1 0x0 DUP1 REVERT JUMPDEST DUP1 PUSH1 0x1 PUSH1 0x0 DUP6 DUP2 MSTORE PUSH1 0x20 ADD SWAP1 DUP2 MSTORE PUSH1 0x20 ADD PUSH1 0x0 KECCAK256 PUSH1 0x5 ADD SLOAD LT ISZERO PUSH2 0x376B JUMPI PUSH1 0x0 DUP1 REVERT JUMPDEST PUSH2 0x3794 DUP2 PUSH1 0x1 PUSH1 0x0 DUP7 DUP2 MSTORE PUSH1 0x20 ADD SWAP1 DUP2 MSTORE PUSH1 0x20 ADD PUSH1 0x0 KECCAK256 PUSH1 0x5 ADD SLOAD PUSH2 0x3AC5 SWAP1 SWAP2 SWAP1 PUSH4 0xFFFFFFFF AND JUMP JUMPDEST PUSH1 0x1 PUSH1 0x0 DUP6 DUP2 MSTORE PUSH1 0x20 ADD SWAP1 DUP2 MSTORE PUSH1 0x20 ADD PUSH1 0x0 KECCAK256 PUSH1 0x5 ADD DUP2 SWAP1 SSTORE POP DUP2 PUSH20 0xFFFFFFFFFFFFFFFFFFFFFFFFFFFFFFFFFFFFFFFF AND PUSH2 0x8FC DUP3 SWAP1 DUP2 ISZERO MUL SWAP1 PUSH1 0x40 MLOAD PUSH1 0x0 PUSH1 0x40 MLOAD DUP1 DUP4 SUB DUP2 DUP6 DUP9 DUP9 CALL SWAP4 POP POP POP POP ISZERO DUP1 ISZERO PUSH2 0x37F4 JUMPI RETURNDATASIZE PUSH1 0x0 DUP1 RETURNDATACOPY RETURNDATASIZE PUSH1 0x0 REVERT JUMPDEST POP PUSH2 0x3AA6 JUMP JUMPDEST PUSH1 0x14 PUSH1 0x1 PUSH1 0x0 DUP6 DUP2 MSTORE PUSH1 0x20 ADD SWAP1 DUP2 MSTORE PUSH1 0x20 ADD PUSH1 0x0 KECCAK256 PUSH1 0x4 ADD SLOAD EQ ISZERO PUSH2 0x395D JUMPI PUSH1 0x0 DUP2 GT PUSH2 0x3826 JUMPI PUSH1 0x0 DUP1 REVERT JUMPDEST DUP1 PUSH1 0x1 PUSH1 0x0 DUP6 DUP2 MSTORE PUSH1 0x20 ADD SWAP1 DUP2 MSTORE PUSH1 0x20 ADD PUSH1 0x0 KECCAK256 PUSH1 0x5 ADD SLOAD LT ISZERO PUSH2 0x3849 JUMPI PUSH1 0x0 DUP1 REVERT JUMPDEST PUSH2 0x3872 DUP2 PUSH1 0x1 PUSH1 0x0 DUP7 DUP2 MSTORE PUSH1 0x20 ADD SWAP1 DUP2 MSTORE PUSH1 0x20 ADD PUSH1 0x0 KECCAK256 PUSH1 0x5 ADD SLOAD PUSH2 0x3AC5 SWAP1 SWAP2 SWAP1 PUSH4 0xFFFFFFFF AND JUMP JUMPDEST PUSH1 0x1 PUSH1 0x0 DUP6 DUP2 MSTORE PUSH1 0x20 ADD SWAP1 DUP2 MSTORE PUSH1 0x20 ADD PUSH1 0x0 KECCAK256 PUSH1 0x5 ADD DUP2 SWAP1 SSTORE POP PUSH1 0x1 PUSH1 0x0 DUP5 DUP2 MSTORE PUSH1 0x20 ADD SWAP1 DUP2 MSTORE PUSH1 0x20 ADD PUSH1 0x0 KECCAK256 PUSH1 0x3 ADD PUSH1 0x0 SWAP1 SLOAD SWAP1 PUSH2 0x100 EXP SWAP1 DIV PUSH20 0xFFFFFFFFFFFFFFFFFFFFFFFFFFFFFFFFFFFFFFFF AND PUSH20 0xFFFFFFFFFFFFFFFFFFFFFFFFFFFFFFFFFFFFFFFF AND PUSH4 0xA9059CBB DUP4 DUP4 PUSH1 0x40 MLOAD DUP4 PUSH4 0xFFFFFFFF AND PUSH1 0xE0 SHL DUP2 MSTORE PUSH1 0x4 ADD PUSH2 0x38FD SWAP3 SWAP2 SWAP1 PUSH2 0x51BE JUMP JUMPDEST PUSH1 0x20 PUSH1 0x40 MLOAD DUP1 DUP4 SUB DUP2 PUSH1 0x0 DUP8 DUP1 EXTCODESIZE ISZERO DUP1 ISZERO PUSH2 0x3917 JUMPI PUSH1 0x0 DUP1 REVERT JUMPDEST POP GAS CALL ISZERO DUP1 ISZERO PUSH2 0x392B JUMPI RETURNDATASIZE PUSH1 0x0 DUP1 RETURNDATACOPY RETURNDATASIZE PUSH1 0x0 REVERT JUMPDEST POP POP POP POP PUSH1 0x40 MLOAD RETURNDATASIZE PUSH1 0x1F NOT PUSH1 0x1F DUP3 ADD AND DUP3 ADD DUP1 PUSH1 0x40 MSTORE POP PUSH2 0x394F SWAP2 SWAP1 DUP2 ADD SWAP1 PUSH2 0x4ADE JUMP JUMPDEST PUSH2 0x3958 JUMPI PUSH1 0x0 DUP1 REVERT JUMPDEST PUSH2 0x3AA5 JUMP JUMPDEST PUSH2 0x2D1 PUSH1 0x1 PUSH1 0x0 DUP6 DUP2 MSTORE PUSH1 0x20 ADD SWAP1 DUP2 MSTORE PUSH1 0x20 ADD PUSH1 0x0 KECCAK256 PUSH1 0x4 ADD SLOAD EQ ISZERO PUSH2 0x3A9F JUMPI PUSH1 0x2 PUSH1 0x0 DUP5 DUP2 MSTORE PUSH1 0x20 ADD SWAP1 DUP2 MSTORE PUSH1 0x20 ADD PUSH1 0x0 KECCAK256 PUSH1 0x0 DUP3 DUP2 MSTORE PUSH1 0x20 ADD SWAP1 DUP2 MSTORE PUSH1 0x20 ADD PUSH1 0x0 KECCAK256 PUSH1 0x0 SWAP1 SLOAD SWAP1 PUSH2 0x100 EXP SWAP1 DIV PUSH1 0xFF AND PUSH2 0x39B8 JUMPI PUSH1 0x0 DUP1 REVERT JUMPDEST PUSH1 0x0 PUSH1 0x2 PUSH1 0x0 DUP6 DUP2 MSTORE PUSH1 0x20 ADD SWAP1 DUP2 MSTORE PUSH1 0x20 ADD PUSH1 0x0 KECCAK256 PUSH1 0x0 DUP4 DUP2 MSTORE PUSH1 0x20 ADD SWAP1 DUP2 MSTORE PUSH1 0x20 ADD PUSH1 0x0 KECCAK256 PUSH1 0x0 PUSH2 0x100 EXP DUP2 SLOAD DUP2 PUSH1 0xFF MUL NOT AND SWAP1 DUP4 ISZERO ISZERO MUL OR SWAP1 SSTORE POP PUSH1 0x1 PUSH1 0x0 DUP5 DUP2 MSTORE PUSH1 0x20 ADD SWAP1 DUP2 MSTORE PUSH1 0x20 ADD PUSH1 0x0 KECCAK256 PUSH1 0x3 ADD PUSH1 0x0 SWAP1 SLOAD SWAP1 PUSH2 0x100 EXP SWAP1 DIV PUSH20 0xFFFFFFFFFFFFFFFFFFFFFFFFFFFFFFFFFFFFFFFF AND PUSH20 0xFFFFFFFFFFFFFFFFFFFFFFFFFFFFFFFFFFFFFFFF AND PUSH4 0x23B872DD ADDRESS DUP5 DUP5 PUSH1 0x40 MLOAD DUP5 PUSH4 0xFFFFFFFF AND PUSH1 0xE0 SHL DUP2 MSTORE PUSH1 0x4 ADD PUSH2 0x3A68 SWAP4 SWAP3 SWAP2 SWAP1 PUSH2 0x51E7 JUMP JUMPDEST PUSH1 0x0 PUSH1 0x40 MLOAD DUP1 DUP4 SUB DUP2 PUSH1 0x0 DUP8 DUP1 EXTCODESIZE ISZERO DUP1 ISZERO PUSH2 0x3A82 JUMPI PUSH1 0x0 DUP1 REVERT JUMPDEST POP GAS CALL ISZERO DUP1 ISZERO PUSH2 0x3A96 JUMPI RETURNDATASIZE PUSH1 0x0 DUP1 RETURNDATACOPY RETURNDATASIZE PUSH1 0x0 REVERT JUMPDEST POP POP POP POP PUSH2 0x3AA4 JUMP JUMPDEST PUSH1 0x0 DUP1 REVERT JUMPDEST JUMPDEST JUMPDEST POP POP POP JUMP JUMPDEST PUSH1 0x0 DUP2 DUP4 ADD SWAP1 POP DUP3 DUP2 LT ISZERO PUSH2 0x3ABC JUMPI INVALID JUMPDEST DUP1 SWAP1 POP SWAP3 SWAP2 POP POP JUMP JUMPDEST PUSH1 0x0 DUP3 DUP3 GT ISZERO PUSH2 0x3AD1 JUMPI INVALID JUMPDEST DUP2 DUP4 SUB SWAP1 POP SWAP3 SWAP2 POP POP JUMP JUMPDEST DUP3 DUP1 SLOAD DUP3 DUP3 SSTORE SWAP1 PUSH1 0x0 MSTORE PUSH1 0x20 PUSH1 0x0 KECCAK256 SWAP1 DUP2 ADD SWAP3 DUP3 ISZERO PUSH2 0x3B55 JUMPI SWAP2 PUSH1 0x20 MUL DUP3 ADD JUMPDEST DUP3 DUP2 GT ISZERO PUSH2 0x3B54 JUMPI DUP3 MLOAD DUP3 PUSH1 0x0 PUSH2 0x100 EXP DUP2 SLOAD DUP2 PUSH20 0xFFFFFFFFFFFFFFFFFFFFFFFFFFFFFFFFFFFFFFFF MUL NOT AND SWAP1 DUP4 PUSH20 0xFFFFFFFFFFFFFFFFFFFFFFFFFFFFFFFFFFFFFFFF AND MUL OR SWAP1 SSTORE POP SWAP2 PUSH1 0x20 ADD SWAP2 SWAP1 PUSH1 0x1 ADD SWAP1 PUSH2 0x3AFC JUMP JUMPDEST JUMPDEST POP SWAP1 POP PUSH2 0x3B62 SWAP2 SWAP1 PUSH2 0x3D68 JUMP JUMPDEST POP SWAP1 JUMP JUMPDEST DUP3 DUP1 SLOAD DUP3 DUP3 SSTORE SWAP1 PUSH1 0x0 MSTORE PUSH1 0x20 PUSH1 0x0 KECCAK256 SWAP1 DUP2 ADD SWAP3 DUP3 ISZERO PUSH2 0x3BDF JUMPI SWAP2 PUSH1 0x20 MUL DUP3 ADD JUMPDEST DUP3 DUP2 GT ISZERO PUSH2 0x3BDE JUMPI DUP3 MLOAD DUP3 PUSH1 0x0 PUSH2 0x100 EXP DUP2 SLOAD DUP2 PUSH20 0xFFFFFFFFFFFFFFFFFFFFFFFFFFFFFFFFFFFFFFFF MUL NOT AND SWAP1 DUP4 PUSH20 0xFFFFFFFFFFFFFFFFFFFFFFFFFFFFFFFFFFFFFFFF AND MUL OR SWAP1 SSTORE POP SWAP2 PUSH1 0x20 ADD SWAP2 SWAP1 PUSH1 0x1 ADD SWAP1 PUSH2 0x3B86 JUMP JUMPDEST JUMPDEST POP SWAP1 POP PUSH2 0x3BEC SWAP2 SWAP1 PUSH2 0x3DAB JUMP JUMPDEST POP SWAP1 JUMP JUMPDEST DUP3 DUP1 SLOAD DUP3 DUP3 SSTORE SWAP1 PUSH1 0x0 MSTORE PUSH1 0x20 PUSH1 0x0 KECCAK256 SWAP1 DUP2 ADD SWAP3 DUP3 ISZERO PUSH2 0x3C69 JUMPI SWAP2 PUSH1 0x20 MUL DUP3 ADD JUMPDEST DUP3 DUP2 GT ISZERO PUSH2 0x3C68 JUMPI DUP3 MLOAD DUP3 PUSH1 0x0 PUSH2 0x100 EXP DUP2 SLOAD DUP2 PUSH20 0xFFFFFFFFFFFFFFFFFFFFFFFFFFFFFFFFFFFFFFFF MUL NOT AND SWAP1 DUP4 PUSH20 0xFFFFFFFFFFFFFFFFFFFFFFFFFFFFFFFFFFFFFFFF AND MUL OR SWAP1 SSTORE POP SWAP2 PUSH1 0x20 ADD SWAP2 SWAP1 PUSH1 0x1 ADD SWAP1 PUSH2 0x3C10 JUMP JUMPDEST JUMPDEST POP SWAP1 POP PUSH2 0x3C76 SWAP2 SWAP1 PUSH2 0x3D68 JUMP JUMPDEST POP SWAP1 JUMP JUMPDEST DUP3 DUP1 SLOAD DUP3 DUP3 SSTORE SWAP1 PUSH1 0x0 MSTORE PUSH1 0x20 PUSH1 0x0 KECCAK256 SWAP1 DUP2 ADD SWAP3 DUP3 ISZERO PUSH2 0x3CF3 JUMPI SWAP2 PUSH1 0x20 MUL DUP3 ADD JUMPDEST DUP3 DUP2 GT ISZERO PUSH2 0x3CF2 JUMPI DUP3 MLOAD DUP3 PUSH1 0x0 PUSH2 0x100 EXP DUP2 SLOAD DUP2 PUSH20 0xFFFFFFFFFFFFFFFFFFFFFFFFFFFFFFFFFFFFFFFF MUL NOT AND SWAP1 DUP4 PUSH20 0xFFFFFFFFFFFFFFFFFFFFFFFFFFFFFFFFFFFFFFFF AND MUL OR SWAP1 SSTORE POP SWAP2 PUSH1 0x20 ADD SWAP2 SWAP1 PUSH1 0x1 ADD SWAP1 PUSH2 0x3C9A JUMP JUMPDEST JUMPDEST POP SWAP1 POP PUSH2 0x3D00 SWAP2 SWAP1 PUSH2 0x3DAB JUMP JUMPDEST POP SWAP1 JUMP JUMPDEST PUSH1 0x40 MLOAD DUP1 PUSH2 0x120 ADD PUSH1 0x40 MSTORE DUP1 PUSH1 0x60 DUP2 MSTORE PUSH1 0x20 ADD PUSH1 0x60 DUP2 MSTORE PUSH1 0x20 ADD PUSH1 0x0 DUP2 MSTORE PUSH1 0x20 ADD PUSH1 0x0 PUSH20 0xFFFFFFFFFFFFFFFFFFFFFFFFFFFFFFFFFFFFFFFF AND DUP2 MSTORE PUSH1 0x20 ADD PUSH1 0x0 DUP2 MSTORE PUSH1 0x20 ADD PUSH1 0x0 DUP2 MSTORE PUSH1 0x20 ADD PUSH1 0x0 ISZERO ISZERO DUP2 MSTORE PUSH1 0x20 ADD PUSH1 0x60 DUP2 MSTORE PUSH1 0x20 ADD PUSH1 0x60 DUP2 MSTORE POP SWAP1 JUMP JUMPDEST PUSH2 0x3DA8 SWAP2 SWAP1 JUMPDEST DUP1 DUP3 GT ISZERO PUSH2 0x3DA4 JUMPI PUSH1 0x0 DUP2 DUP2 PUSH2 0x100 EXP DUP2 SLOAD SWAP1 PUSH20 0xFFFFFFFFFFFFFFFFFFFFFFFFFFFFFFFFFFFFFFFF MUL NOT AND SWAP1 SSTORE POP PUSH1 0x1 ADD PUSH2 0x3D6E JUMP JUMPDEST POP SWAP1 JUMP JUMPDEST SWAP1 JUMP JUMPDEST PUSH2 0x3DEB SWAP2 SWAP1 JUMPDEST DUP1 DUP3 GT ISZERO PUSH2 0x3DE7 JUMPI PUSH1 0x0 DUP2 DUP2 PUSH2 0x100 EXP DUP2 SLOAD SWAP1 PUSH20 0xFFFFFFFFFFFFFFFFFFFFFFFFFFFFFFFFFFFFFFFF MUL NOT AND SWAP1 SSTORE POP PUSH1 0x1 ADD PUSH2 0x3DB1 JUMP JUMPDEST POP SWAP1 JUMP JUMPDEST SWAP1 JUMP JUMPDEST PUSH1 0x0 DUP2 CALLDATALOAD SWAP1 POP PUSH2 0x3DFD DUP2 PUSH2 0x5B0D JUMP JUMPDEST SWAP3 SWAP2 POP POP JUMP JUMPDEST PUSH1 0x0 DUP2 CALLDATALOAD SWAP1 POP PUSH2 0x3E12 DUP2 PUSH2 0x5B24 JUMP JUMPDEST SWAP3 SWAP2 POP POP JUMP JUMPDEST PUSH1 0x0 DUP3 PUSH1 0x1F DUP4 ADD SLT PUSH2 0x3E29 JUMPI PUSH1 0x0 DUP1 REVERT JUMPDEST DUP2 CALLDATALOAD PUSH2 0x3E3C PUSH2 0x3E37 DUP3 PUSH2 0x56DA JUMP JUMPDEST PUSH2 0x56AD JUMP JUMPDEST SWAP2 POP DUP2 DUP2 DUP4 MSTORE PUSH1 0x20 DUP5 ADD SWAP4 POP PUSH1 0x20 DUP2 ADD SWAP1 POP DUP4 DUP6 PUSH1 0x20 DUP5 MUL DUP3 ADD GT ISZERO PUSH2 0x3E61 JUMPI PUSH1 0x0 DUP1 REVERT JUMPDEST PUSH1 0x0 JUMPDEST DUP4 DUP2 LT ISZERO PUSH2 0x3E91 JUMPI DUP2 PUSH2 0x3E77 DUP9 DUP3 PUSH2 0x3DEE JUMP JUMPDEST DUP5 MSTORE PUSH1 0x20 DUP5 ADD SWAP4 POP PUSH1 0x20 DUP4 ADD SWAP3 POP POP PUSH1 0x1 DUP2 ADD SWAP1 POP PUSH2 0x3E64 JUMP JUMPDEST POP POP POP POP SWAP3 SWAP2 POP POP JUMP JUMPDEST PUSH1 0x0 DUP3 PUSH1 0x1F DUP4 ADD SLT PUSH2 0x3EAC JUMPI PUSH1 0x0 DUP1 REVERT JUMPDEST DUP2 CALLDATALOAD PUSH2 0x3EBF PUSH2 0x3EBA DUP3 PUSH2 0x5702 JUMP JUMPDEST PUSH2 0x56AD JUMP JUMPDEST SWAP2 POP DUP2 DUP2 DUP4 MSTORE PUSH1 0x20 DUP5 ADD SWAP4 POP PUSH1 0x20 DUP2 ADD SWAP1 POP DUP4 DUP6 PUSH1 0x20 DUP5 MUL DUP3 ADD GT ISZERO PUSH2 0x3EE4 JUMPI PUSH1 0x0 DUP1 REVERT JUMPDEST PUSH1 0x0 JUMPDEST DUP4 DUP2 LT ISZERO PUSH2 0x3F14 JUMPI DUP2 PUSH2 0x3EFA DUP9 DUP3 PUSH2 0x3E03 JUMP JUMPDEST DUP5 MSTORE PUSH1 0x20 DUP5 ADD SWAP4 POP PUSH1 0x20 DUP4 ADD SWAP3 POP POP PUSH1 0x1 DUP2 ADD SWAP1 POP PUSH2 0x3EE7 JUMP JUMPDEST POP POP POP POP SWAP3 SWAP2 POP POP JUMP JUMPDEST PUSH1 0x0 DUP3 PUSH1 0x1F DUP4 ADD SLT PUSH2 0x3F2F JUMPI PUSH1 0x0 DUP1 REVERT JUMPDEST DUP2 CALLDATALOAD PUSH2 0x3F42 PUSH2 0x3F3D DUP3 PUSH2 0x572A JUMP JUMPDEST PUSH2 0x56AD JUMP JUMPDEST SWAP2 POP DUP2 DUP2 DUP4 MSTORE PUSH1 0x20 DUP5 ADD SWAP4 POP PUSH1 0x20 DUP2 ADD SWAP1 POP DUP4 DUP6 PUSH1 0x20 DUP5 MUL DUP3 ADD GT ISZERO PUSH2 0x3F67 JUMPI PUSH1 0x0 DUP1 REVERT JUMPDEST PUSH1 0x0 JUMPDEST DUP4 DUP2 LT ISZERO PUSH2 0x3F97 JUMPI DUP2 PUSH2 0x3F7D DUP9 DUP3 PUSH2 0x400A JUMP JUMPDEST DUP5 MSTORE PUSH1 0x20 DUP5 ADD SWAP4 POP PUSH1 0x20 DUP4 ADD SWAP3 POP POP PUSH1 0x1 DUP2 ADD SWAP1 POP PUSH2 0x3F6A JUMP JUMPDEST POP POP POP POP SWAP3 SWAP2 POP POP JUMP JUMPDEST PUSH1 0x0 DUP2 MLOAD SWAP1 POP PUSH2 0x3FB0 DUP2 PUSH2 0x5B3B JUMP JUMPDEST SWAP3 SWAP2 POP POP JUMP JUMPDEST PUSH1 0x0 DUP3 PUSH1 0x1F DUP4 ADD SLT PUSH2 0x3FC7 JUMPI PUSH1 0x0 DUP1 REVERT JUMPDEST DUP2 CALLDATALOAD PUSH2 0x3FDA PUSH2 0x3FD5 DUP3 PUSH2 0x5752 JUMP JUMPDEST PUSH2 0x56AD JUMP JUMPDEST SWAP2 POP DUP1 DUP3 MSTORE PUSH1 0x20 DUP4 ADD PUSH1 0x20 DUP4 ADD DUP6 DUP4 DUP4 ADD GT ISZERO PUSH2 0x3FF6 JUMPI PUSH1 0x0 DUP1 REVERT JUMPDEST PUSH2 0x4001 DUP4 DUP3 DUP5 PUSH2 0x5A53 JUMP JUMPDEST POP POP POP SWAP3 SWAP2 POP POP JUMP JUMPDEST PUSH1 0x0 DUP2 CALLDATALOAD SWAP1 POP PUSH2 0x4019 DUP2 PUSH2 0x5B52 JUMP JUMPDEST SWAP3 SWAP2 POP POP JUMP JUMPDEST PUSH1 0x0 PUSH1 0x20 DUP3 DUP5 SUB SLT ISZERO PUSH2 0x4031 JUMPI PUSH1 0x0 DUP1 REVERT JUMPDEST PUSH1 0x0 PUSH2 0x403F DUP5 DUP3 DUP6 ADD PUSH2 0x3DEE JUMP JUMPDEST SWAP2 POP POP SWAP3 SWAP2 POP POP JUMP JUMPDEST PUSH1 0x0 DUP1 PUSH1 0x0 DUP1 PUSH1 0x0 DUP1 PUSH1 0x0 PUSH1 0xE0 DUP9 DUP11 SUB SLT ISZERO PUSH2 0x4063 JUMPI PUSH1 0x0 DUP1 REVERT JUMPDEST PUSH1 0x0 PUSH2 0x4071 DUP11 DUP3 DUP12 ADD PUSH2 0x3E03 JUMP JUMPDEST SWAP8 POP POP PUSH1 0x20 DUP9 ADD CALLDATALOAD PUSH8 0xFFFFFFFFFFFFFFFF DUP2 GT ISZERO PUSH2 0x408E JUMPI PUSH1 0x0 DUP1 REVERT JUMPDEST PUSH2 0x409A DUP11 DUP3 DUP12 ADD PUSH2 0x3E9B JUMP JUMPDEST SWAP7 POP POP PUSH1 0x40 DUP9 ADD CALLDATALOAD PUSH8 0xFFFFFFFFFFFFFFFF DUP2 GT ISZERO PUSH2 0x40B7 JUMPI PUSH1 0x0 DUP1 REVERT JUMPDEST PUSH2 0x40C3 DUP11 DUP3 DUP12 ADD PUSH2 0x3E18 JUMP JUMPDEST SWAP6 POP POP PUSH1 0x60 DUP9 ADD CALLDATALOAD PUSH8 0xFFFFFFFFFFFFFFFF DUP2 GT ISZERO PUSH2 0x40E0 JUMPI PUSH1 0x0 DUP1 REVERT JUMPDEST PUSH2 0x40EC DUP11 DUP3 DUP12 ADD PUSH2 0x3FB6 JUMP JUMPDEST SWAP5 POP POP PUSH1 0x80 PUSH2 0x40FD DUP11 DUP3 DUP12 ADD PUSH2 0x400A JUMP JUMPDEST SWAP4 POP POP PUSH1 0xA0 PUSH2 0x410E DUP11 DUP3 DUP12 ADD PUSH2 0x3DEE JUMP JUMPDEST SWAP3 POP POP PUSH1 0xC0 PUSH2 0x411F DUP11 DUP3 DUP12 ADD PUSH2 0x400A JUMP JUMPDEST SWAP2 POP POP SWAP3 SWAP6 SWAP9 SWAP2 SWAP5 SWAP8 POP SWAP3 SWAP6 POP JUMP JUMPDEST PUSH1 0x0 DUP1 PUSH1 0x0 DUP1 PUSH1 0x0 DUP1 PUSH1 0x0 DUP1 PUSH2 0x100 DUP10 DUP12 SUB SLT ISZERO PUSH2 0x414B JUMPI PUSH1 0x0 DUP1 REVERT JUMPDEST PUSH1 0x0 PUSH2 0x4159 DUP12 DUP3 DUP13 ADD PUSH2 0x3E03 JUMP JUMPDEST SWAP9 POP POP PUSH1 0x20 DUP10 ADD CALLDATALOAD PUSH8 0xFFFFFFFFFFFFFFFF DUP2 GT ISZERO PUSH2 0x4176 JUMPI PUSH1 0x0 DUP1 REVERT JUMPDEST PUSH2 0x4182 DUP12 DUP3 DUP13 ADD PUSH2 0x3E9B JUMP JUMPDEST SWAP8 POP POP PUSH1 0x40 DUP10 ADD CALLDATALOAD PUSH8 0xFFFFFFFFFFFFFFFF DUP2 GT ISZERO PUSH2 0x419F JUMPI PUSH1 0x0 DUP1 REVERT JUMPDEST PUSH2 0x41AB DUP12 DUP3 DUP13 ADD PUSH2 0x3E18 JUMP JUMPDEST SWAP7 POP POP PUSH1 0x60 DUP10 ADD CALLDATALOAD PUSH8 0xFFFFFFFFFFFFFFFF DUP2 GT ISZERO PUSH2 0x41C8 JUMPI PUSH1 0x0 DUP1 REVERT JUMPDEST PUSH2 0x41D4 DUP12 DUP3 DUP13 ADD PUSH2 0x3FB6 JUMP JUMPDEST SWAP6 POP POP PUSH1 0x80 PUSH2 0x41E5 DUP12 DUP3 DUP13 ADD PUSH2 0x400A JUMP JUMPDEST SWAP5 POP POP PUSH1 0xA0 PUSH2 0x41F6 DUP12 DUP3 DUP13 ADD PUSH2 0x3DEE JUMP JUMPDEST SWAP4 POP POP PUSH1 0xC0 PUSH2 0x4207 DUP12 DUP3 DUP13 ADD PUSH2 0x400A JUMP JUMPDEST SWAP3 POP POP PUSH1 0xE0 PUSH2 0x4218 DUP12 DUP3 DUP13 ADD PUSH2 0x400A JUMP JUMPDEST SWAP2 POP POP SWAP3 SWAP6 SWAP9 POP SWAP3 SWAP6 SWAP9 SWAP1 SWAP4 SWAP7 POP JUMP JUMPDEST PUSH1 0x0 DUP1 PUSH1 0x0 PUSH1 0x60 DUP5 DUP7 SUB SLT ISZERO PUSH2 0x423D JUMPI PUSH1 0x0 DUP1 REVERT JUMPDEST PUSH1 0x0 PUSH2 0x424B DUP7 DUP3 DUP8 ADD PUSH2 0x3E03 JUMP JUMPDEST SWAP4 POP POP PUSH1 0x20 PUSH2 0x425C DUP7 DUP3 DUP8 ADD PUSH2 0x400A JUMP JUMPDEST SWAP3 POP POP PUSH1 0x40 PUSH2 0x426D DUP7 DUP3 DUP8 ADD PUSH2 0x400A JUMP JUMPDEST SWAP2 POP POP SWAP3 POP SWAP3 POP SWAP3 JUMP JUMPDEST PUSH1 0x0 DUP1 PUSH1 0x0 DUP1 PUSH1 0x80 DUP6 DUP8 SUB SLT ISZERO PUSH2 0x428D JUMPI PUSH1 0x0 DUP1 REVERT JUMPDEST PUSH1 0x0 PUSH2 0x429B DUP8 DUP3 DUP9 ADD PUSH2 0x3E03 JUMP JUMPDEST SWAP5 POP POP PUSH1 0x20 PUSH2 0x42AC DUP8 DUP3 DUP9 ADD PUSH2 0x400A JUMP JUMPDEST SWAP4 POP POP PUSH1 0x40 PUSH2 0x42BD DUP8 DUP3 DUP9 ADD PUSH2 0x400A JUMP JUMPDEST SWAP3 POP POP PUSH1 0x60 DUP6 ADD CALLDATALOAD PUSH8 0xFFFFFFFFFFFFFFFF DUP2 GT ISZERO PUSH2 0x42DA JUMPI PUSH1 0x0 DUP1 REVERT JUMPDEST PUSH2 0x42E6 DUP8 DUP3 DUP9 ADD PUSH2 0x3F1E JUMP JUMPDEST SWAP2 POP POP SWAP3 SWAP6 SWAP2 SWAP5 POP SWAP3 POP JUMP JUMPDEST PUSH1 0x0 DUP1 PUSH1 0x0 DUP1 PUSH1 0x80 DUP6 DUP8 SUB SLT ISZERO PUSH2 0x4308 JUMPI PUSH1 0x0 DUP1 REVERT JUMPDEST PUSH1 0x0 PUSH2 0x4316 DUP8 DUP3 DUP9 ADD PUSH2 0x3DEE JUMP JUMPDEST SWAP5 POP POP PUSH1 0x20 PUSH2 0x4327 DUP8 DUP3 DUP9 ADD PUSH2 0x400A JUMP JUMPDEST SWAP4 POP POP PUSH1 0x40 DUP6 ADD CALLDATALOAD PUSH8 0xFFFFFFFFFFFFFFFF DUP2 GT ISZERO PUSH2 0x4344 JUMPI PUSH1 0x0 DUP1 REVERT JUMPDEST PUSH2 0x4350 DUP8 DUP3 DUP9 ADD PUSH2 0x3E9B JUMP JUMPDEST SWAP3 POP POP PUSH1 0x60 DUP6 ADD CALLDATALOAD PUSH8 0xFFFFFFFFFFFFFFFF DUP2 GT ISZERO PUSH2 0x436D JUMPI PUSH1 0x0 DUP1 REVERT JUMPDEST PUSH2 0x4379 DUP8 DUP3 DUP9 ADD PUSH2 0x3FB6 JUMP JUMPDEST SWAP2 POP POP SWAP3 SWAP6 SWAP2 SWAP5 POP SWAP3 POP JUMP JUMPDEST PUSH1 0x0 DUP1 PUSH1 0x0 DUP1 PUSH1 0x0 DUP1 PUSH1 0xC0 DUP8 DUP10 SUB SLT ISZERO PUSH2 0x439E JUMPI PUSH1 0x0 DUP1 REVERT JUMPDEST PUSH1 0x0 PUSH2 0x43AC DUP10 DUP3 DUP11 ADD PUSH2 0x3DEE JUMP JUMPDEST SWAP7 POP POP PUSH1 0x20 PUSH2 0x43BD DUP10 DUP3 DUP11 ADD PUSH2 0x400A JUMP JUMPDEST SWAP6 POP POP PUSH1 0x40 DUP8 ADD CALLDATALOAD PUSH8 0xFFFFFFFFFFFFFFFF DUP2 GT ISZERO PUSH2 0x43DA JUMPI PUSH1 0x0 DUP1 REVERT JUMPDEST PUSH2 0x43E6 DUP10 DUP3 DUP11 ADD PUSH2 0x3E9B JUMP JUMPDEST SWAP5 POP POP PUSH1 0x60 DUP8 ADD CALLDATALOAD PUSH8 0xFFFFFFFFFFFFFFFF DUP2 GT ISZERO PUSH2 0x4403 JUMPI PUSH1 0x0 DUP1 REVERT JUMPDEST PUSH2 0x440F DUP10 DUP3 DUP11 ADD PUSH2 0x3FB6 JUMP JUMPDEST SWAP4 POP POP PUSH1 0x80 PUSH2 0x4420 DUP10 DUP3 DUP11 ADD PUSH2 0x400A JUMP JUMPDEST SWAP3 POP POP PUSH1 0xA0 DUP8 ADD CALLDATALOAD PUSH8 0xFFFFFFFFFFFFFFFF DUP2 GT ISZERO PUSH2 0x443D JUMPI PUSH1 0x0 DUP1 REVERT JUMPDEST PUSH2 0x4449 DUP10 DUP3 DUP11 ADD PUSH2 0x3F1E JUMP JUMPDEST SWAP2 POP POP SWAP3 SWAP6 POP SWAP3 SWAP6 POP SWAP3 SWAP6 JUMP JUMPDEST PUSH1 0x0 DUP1 PUSH1 0x0 PUSH1 0x60 DUP5 DUP7 SUB SLT ISZERO PUSH2 0x446B JUMPI PUSH1 0x0 DUP1 REVERT JUMPDEST PUSH1 0x0 PUSH2 0x4479 DUP7 DUP3 DUP8 ADD PUSH2 0x3DEE JUMP JUMPDEST SWAP4 POP POP PUSH1 0x20 PUSH2 0x448A DUP7 DUP3 DUP8 ADD PUSH2 0x400A JUMP JUMPDEST SWAP3 POP POP PUSH1 0x40 DUP5 ADD CALLDATALOAD PUSH8 0xFFFFFFFFFFFFFFFF DUP2 GT ISZERO PUSH2 0x44A7 JUMPI PUSH1 0x0 DUP1 REVERT JUMPDEST PUSH2 0x44B3 DUP7 DUP3 DUP8 ADD PUSH2 0x3F1E JUMP JUMPDEST SWAP2 POP POP SWAP3 POP SWAP3 POP SWAP3 JUMP JUMPDEST PUSH1 0x0 DUP1 PUSH1 0x0 PUSH1 0x60 DUP5 DUP7 SUB SLT ISZERO PUSH2 0x44D2 JUMPI PUSH1 0x0 DUP1 REVERT JUMPDEST PUSH1 0x0 PUSH2 0x44E0 DUP7 DUP3 DUP8 ADD PUSH2 0x3DEE JUMP JUMPDEST SWAP4 POP POP PUSH1 0x20 PUSH2 0x44F1 DUP7 DUP3 DUP8 ADD PUSH2 0x400A JUMP JUMPDEST SWAP3 POP POP PUSH1 0x40 DUP5 ADD CALLDATALOAD PUSH8 0xFFFFFFFFFFFFFFFF DUP2 GT ISZERO PUSH2 0x450E JUMPI PUSH1 0x0 DUP1 REVERT JUMPDEST PUSH2 0x451A DUP7 DUP3 DUP8 ADD PUSH2 0x3FB6 JUMP JUMPDEST SWAP2 POP POP SWAP3 POP SWAP3 POP SWAP3 JUMP JUMPDEST PUSH1 0x0 DUP1 PUSH1 0x0 PUSH1 0x60 DUP5 DUP7 SUB SLT ISZERO PUSH2 0x4539 JUMPI PUSH1 0x0 DUP1 REVERT JUMPDEST PUSH1 0x0 PUSH2 0x4547 DUP7 DUP3 DUP8 ADD PUSH2 0x3DEE JUMP JUMPDEST SWAP4 POP POP PUSH1 0x20 PUSH2 0x4558 DUP7 DUP3 DUP8 ADD PUSH2 0x400A JUMP JUMPDEST SWAP3 POP POP PUSH1 0x40 PUSH2 0x4569 DUP7 DUP3 DUP8 ADD PUSH2 0x400A JUMP JUMPDEST SWAP2 POP POP SWAP3 POP SWAP3 POP SWAP3 JUMP JUMPDEST PUSH1 0x0 DUP1 PUSH1 0x0 DUP1 PUSH1 0x80 DUP6 DUP8 SUB SLT ISZERO PUSH2 0x4589 JUMPI PUSH1 0x0 DUP1 REVERT JUMPDEST PUSH1 0x0 PUSH2 0x4597 DUP8 DUP3 DUP9 ADD PUSH2 0x3DEE JUMP JUMPDEST SWAP5 POP POP PUSH1 0x20 PUSH2 0x45A8 DUP8 DUP3 DUP9 ADD PUSH2 0x400A JUMP JUMPDEST SWAP4 POP POP PUSH1 0x40 PUSH2 0x45B9 DUP8 DUP3 DUP9 ADD PUSH2 0x400A JUMP JUMPDEST SWAP3 POP POP PUSH1 0x60 DUP6 ADD CALLDATALOAD PUSH8 0xFFFFFFFFFFFFFFFF DUP2 GT ISZERO PUSH2 0x45D6 JUMPI PUSH1 0x0 DUP1 REVERT JUMPDEST PUSH2 0x45E2 DUP8 DUP3 DUP9 ADD PUSH2 0x3E18 JUMP JUMPDEST SWAP2 POP POP SWAP3 SWAP6 SWAP2 SWAP5 POP SWAP3 POP JUMP JUMPDEST PUSH1 0x0 DUP1 PUSH1 0x0 DUP1 PUSH1 0x80 DUP6 DUP8 SUB SLT ISZERO PUSH2 0x4604 JUMPI PUSH1 0x0 DUP1 REVERT JUMPDEST PUSH1 0x0 PUSH2 0x4612 DUP8 DUP3 DUP9 ADD PUSH2 0x3DEE JUMP JUMPDEST SWAP5 POP POP PUSH1 0x20 PUSH2 0x4623 DUP8 DUP3 DUP9 ADD PUSH2 0x400A JUMP JUMPDEST SWAP4 POP POP PUSH1 0x40 PUSH2 0x4634 DUP8 DUP3 DUP9 ADD PUSH2 0x400A JUMP JUMPDEST SWAP3 POP POP PUSH1 0x60 DUP6 ADD CALLDATALOAD PUSH8 0xFFFFFFFFFFFFFFFF DUP2 GT ISZERO PUSH2 0x4651 JUMPI PUSH1 0x0 DUP1 REVERT JUMPDEST PUSH2 0x465D DUP8 DUP3 DUP9 ADD PUSH2 0x3E9B JUMP JUMPDEST SWAP2 POP POP SWAP3 SWAP6 SWAP2 SWAP5 POP SWAP3 POP JUMP JUMPDEST PUSH1 0x0 DUP1 PUSH1 0x0 DUP1 PUSH1 0x0 DUP1 PUSH1 0x0 PUSH1 0xE0 DUP9 DUP11 SUB SLT ISZERO PUSH2 0x4684 JUMPI PUSH1 0x0 DUP1 REVERT JUMPDEST PUSH1 0x0 PUSH2 0x4692 DUP11 DUP3 DUP12 ADD PUSH2 0x3DEE JUMP JUMPDEST SWAP8 POP POP PUSH1 0x20 PUSH2 0x46A3 DUP11 DUP3 DUP12 ADD PUSH2 0x400A JUMP JUMPDEST SWAP7 POP POP PUSH1 0x40 PUSH2 0x46B4 DUP11 DUP3 DUP12 ADD PUSH2 0x400A JUMP JUMPDEST SWAP6 POP POP PUSH1 0x60 DUP9 ADD CALLDATALOAD PUSH8 0xFFFFFFFFFFFFFFFF DUP2 GT ISZERO PUSH2 0x46D1 JUMPI PUSH1 0x0 DUP1 REVERT JUMPDEST PUSH2 0x46DD DUP11 DUP3 DUP12 ADD PUSH2 0x3E9B JUMP JUMPDEST SWAP5 POP POP PUSH1 0x80 DUP9 ADD CALLDATALOAD PUSH8 0xFFFFFFFFFFFFFFFF DUP2 GT ISZERO PUSH2 0x46FA JUMPI PUSH1 0x0 DUP1 REVERT JUMPDEST PUSH2 0x4706 DUP11 DUP3 DUP12 ADD PUSH2 0x3E9B JUMP JUMPDEST SWAP4 POP POP PUSH1 0xA0 DUP9 ADD CALLDATALOAD PUSH8 0xFFFFFFFFFFFFFFFF DUP2 GT ISZERO PUSH2 0x4723 JUMPI PUSH1 0x0 DUP1 REVERT JUMPDEST PUSH2 0x472F DUP11 DUP3 DUP12 ADD PUSH2 0x3FB6 JUMP JUMPDEST SWAP3 POP POP PUSH1 0xC0 PUSH2 0x4740 DUP11 DUP3 DUP12 ADD PUSH2 0x400A JUMP JUMPDEST SWAP2 POP POP SWAP3 SWAP6 SWAP9 SWAP2 SWAP5 SWAP8 POP SWAP3 SWAP6 POP JUMP JUMPDEST PUSH1 0x0 DUP1 PUSH1 0x0 DUP1 PUSH1 0x0 PUSH1 0xA0 DUP7 DUP9 SUB SLT ISZERO PUSH2 0x4767 JUMPI PUSH1 0x0 DUP1 REVERT JUMPDEST PUSH1 0x0 PUSH2 0x4775 DUP9 DUP3 DUP10 ADD PUSH2 0x3DEE JUMP JUMPDEST SWAP6 POP POP PUSH1 0x20 PUSH2 0x4786 DUP9 DUP3 DUP10 ADD PUSH2 0x400A JUMP JUMPDEST SWAP5 POP POP PUSH1 0x40 PUSH2 0x4797 DUP9 DUP3 DUP10 ADD PUSH2 0x400A JUMP JUMPDEST SWAP4 POP POP PUSH1 0x60 DUP7 ADD CALLDATALOAD PUSH8 0xFFFFFFFFFFFFFFFF DUP2 GT ISZERO PUSH2 0x47B4 JUMPI PUSH1 0x0 DUP1 REVERT JUMPDEST PUSH2 0x47C0 DUP9 DUP3 DUP10 ADD PUSH2 0x3E9B JUMP JUMPDEST SWAP3 POP POP PUSH1 0x80 DUP7 ADD CALLDATALOAD PUSH8 0xFFFFFFFFFFFFFFFF DUP2 GT ISZERO PUSH2 0x47DD JUMPI PUSH1 0x0 DUP1 REVERT JUMPDEST PUSH2 0x47E9 DUP9 DUP3 DUP10 ADD PUSH2 0x3FB6 JUMP JUMPDEST SWAP2 POP POP SWAP3 SWAP6 POP SWAP3 SWAP6 SWAP1 SWAP4 POP JUMP JUMPDEST PUSH1 0x0 DUP1 PUSH1 0x0 DUP1 PUSH1 0x80 DUP6 DUP8 SUB SLT ISZERO PUSH2 0x480C JUMPI PUSH1 0x0 DUP1 REVERT JUMPDEST PUSH1 0x0 PUSH2 0x481A DUP8 DUP3 DUP9 ADD PUSH2 0x3DEE JUMP JUMPDEST SWAP5 POP POP PUSH1 0x20 PUSH2 0x482B DUP8 DUP3 DUP9 ADD PUSH2 0x400A JUMP JUMPDEST SWAP4 POP POP PUSH1 0x40 PUSH2 0x483C DUP8 DUP3 DUP9 ADD PUSH2 0x400A JUMP JUMPDEST SWAP3 POP POP PUSH1 0x60 DUP6 ADD CALLDATALOAD PUSH8 0xFFFFFFFFFFFFFFFF DUP2 GT ISZERO PUSH2 0x4859 JUMPI PUSH1 0x0 DUP1 REVERT JUMPDEST PUSH2 0x4865 DUP8 DUP3 DUP9 ADD PUSH2 0x3F1E JUMP JUMPDEST SWAP2 POP POP SWAP3 SWAP6 SWAP2 SWAP5 POP SWAP3 POP JUMP JUMPDEST PUSH1 0x0 DUP1 PUSH1 0x0 DUP1 PUSH1 0x80 DUP6 DUP8 SUB SLT ISZERO PUSH2 0x4887 JUMPI PUSH1 0x0 DUP1 REVERT JUMPDEST PUSH1 0x0 PUSH2 0x4895 DUP8 DUP3 DUP9 ADD PUSH2 0x3DEE JUMP JUMPDEST SWAP5 POP POP PUSH1 0x20 PUSH2 0x48A6 DUP8 DUP3 DUP9 ADD PUSH2 0x400A JUMP JUMPDEST SWAP4 POP POP PUSH1 0x40 PUSH2 0x48B7 DUP8 DUP3 DUP9 ADD PUSH2 0x400A JUMP JUMPDEST SWAP3 POP POP PUSH1 0x60 DUP6 ADD CALLDATALOAD PUSH8 0xFFFFFFFFFFFFFFFF DUP2 GT ISZERO PUSH2 0x48D4 JUMPI PUSH1 0x0 DUP1 REVERT JUMPDEST PUSH2 0x48E0 DUP8 DUP3 DUP9 ADD PUSH2 0x3FB6 JUMP JUMPDEST SWAP2 POP POP SWAP3 SWAP6 SWAP2 SWAP5 POP SWAP3 POP JUMP JUMPDEST PUSH1 0x0 DUP1 PUSH1 0x0 DUP1 PUSH1 0x80 DUP6 DUP8 SUB SLT ISZERO PUSH2 0x4902 JUMPI PUSH1 0x0 DUP1 REVERT JUMPDEST PUSH1 0x0 PUSH2 0x4910 DUP8 DUP3 DUP9 ADD PUSH2 0x3DEE JUMP JUMPDEST SWAP5 POP POP PUSH1 0x20 PUSH2 0x4921 DUP8 DUP3 DUP9 ADD PUSH2 0x400A JUMP JUMPDEST SWAP4 POP POP PUSH1 0x40 PUSH2 0x4932 DUP8 DUP3 DUP9 ADD PUSH2 0x400A JUMP JUMPDEST SWAP3 POP POP PUSH1 0x60 PUSH2 0x4943 DUP8 DUP3 DUP9 ADD PUSH2 0x400A JUMP JUMPDEST SWAP2 POP POP SWAP3 SWAP6 SWAP2 SWAP5 POP SWAP3 POP JUMP JUMPDEST PUSH1 0x0 DUP1 PUSH1 0x0 DUP1 PUSH1 0x0 PUSH1 0xA0 DUP7 DUP9 SUB SLT ISZERO PUSH2 0x4967 JUMPI PUSH1 0x0 DUP1 REVERT JUMPDEST PUSH1 0x0 PUSH2 0x4975 DUP9 DUP3 DUP10 ADD PUSH2 0x3DEE JUMP JUMPDEST SWAP6 POP POP PUSH1 0x20 PUSH2 0x4986 DUP9 DUP3 DUP10 ADD PUSH2 0x400A JUMP JUMPDEST SWAP5 POP POP PUSH1 0x40 PUSH2 0x4997 DUP9 DUP3 DUP10 ADD PUSH2 0x400A JUMP JUMPDEST SWAP4 POP POP PUSH1 0x60 PUSH2 0x49A8 DUP9 DUP3 DUP10 ADD PUSH2 0x400A JUMP JUMPDEST SWAP3 POP POP PUSH1 0x80 PUSH2 0x49B9 DUP9 DUP3 DUP10 ADD PUSH2 0x3E03 JUMP JUMPDEST SWAP2 POP POP SWAP3 SWAP6 POP SWAP3 SWAP6 SWAP1 SWAP4 POP JUMP JUMPDEST PUSH1 0x0 DUP1 PUSH1 0x0 DUP1 PUSH1 0x0 PUSH1 0xA0 DUP7 DUP9 SUB SLT ISZERO PUSH2 0x49DE JUMPI PUSH1 0x0 DUP1 REVERT JUMPDEST PUSH1 0x0 PUSH2 0x49EC DUP9 DUP3 DUP10 ADD PUSH2 0x3DEE JUMP JUMPDEST SWAP6 POP POP PUSH1 0x20 PUSH2 0x49FD DUP9 DUP3 DUP10 ADD PUSH2 0x400A JUMP JUMPDEST SWAP5 POP POP PUSH1 0x40 PUSH2 0x4A0E DUP9 DUP3 DUP10 ADD PUSH2 0x400A JUMP JUMPDEST SWAP4 POP POP PUSH1 0x60 PUSH2 0x4A1F DUP9 DUP3 DUP10 ADD PUSH2 0x400A JUMP JUMPDEST SWAP3 POP POP PUSH1 0x80 DUP7 ADD CALLDATALOAD PUSH8 0xFFFFFFFFFFFFFFFF DUP2 GT ISZERO PUSH2 0x4A3C JUMPI PUSH1 0x0 DUP1 REVERT JUMPDEST PUSH2 0x4A48 DUP9 DUP3 DUP10 ADD PUSH2 0x3F1E JUMP JUMPDEST SWAP2 POP POP SWAP3 SWAP6 POP SWAP3 SWAP6 SWAP1 SWAP4 POP JUMP JUMPDEST PUSH1 0x0 DUP1 PUSH1 0x0 DUP1 PUSH1 0x0 DUP1 PUSH1 0xC0 DUP8 DUP10 SUB SLT ISZERO PUSH2 0x4A6E JUMPI PUSH1 0x0 DUP1 REVERT JUMPDEST PUSH1 0x0 PUSH2 0x4A7C DUP10 DUP3 DUP11 ADD PUSH2 0x3DEE JUMP JUMPDEST SWAP7 POP POP PUSH1 0x20 PUSH2 0x4A8D DUP10 DUP3 DUP11 ADD PUSH2 0x400A JUMP JUMPDEST SWAP6 POP POP PUSH1 0x40 PUSH2 0x4A9E DUP10 DUP3 DUP11 ADD PUSH2 0x400A JUMP JUMPDEST SWAP5 POP POP PUSH1 0x60 PUSH2 0x4AAF DUP10 DUP3 DUP11 ADD PUSH2 0x400A JUMP JUMPDEST SWAP4 POP POP PUSH1 0x80 PUSH2 0x4AC0 DUP10 DUP3 DUP11 ADD PUSH2 0x400A JUMP JUMPDEST SWAP3 POP POP PUSH1 0xA0 PUSH2 0x4AD1 DUP10 DUP3 DUP11 ADD PUSH2 0x3E03 JUMP JUMPDEST SWAP2 POP POP SWAP3 SWAP6 POP SWAP3 SWAP6 POP SWAP3 SWAP6 JUMP JUMPDEST PUSH1 0x0 PUSH1 0x20 DUP3 DUP5 SUB SLT ISZERO PUSH2 0x4AF0 JUMPI PUSH1 0x0 DUP1 REVERT JUMPDEST PUSH1 0x0 PUSH2 0x4AFE DUP5 DUP3 DUP6 ADD PUSH2 0x3FA1 JUMP JUMPDEST SWAP2 POP POP SWAP3 SWAP2 POP POP JUMP JUMPDEST PUSH1 0x0 PUSH1 0x20 DUP3 DUP5 SUB SLT ISZERO PUSH2 0x4B19 JUMPI PUSH1 0x0 DUP1 REVERT JUMPDEST PUSH1 0x0 PUSH2 0x4B27 DUP5 DUP3 DUP6 ADD PUSH2 0x400A JUMP JUMPDEST SWAP2 POP POP SWAP3 SWAP2 POP POP JUMP JUMPDEST PUSH1 0x0 DUP1 PUSH1 0x40 DUP4 DUP6 SUB SLT ISZERO PUSH2 0x4B43 JUMPI PUSH1 0x0 DUP1 REVERT JUMPDEST PUSH1 0x0 PUSH2 0x4B51 DUP6 DUP3 DUP7 ADD PUSH2 0x400A JUMP JUMPDEST SWAP3 POP POP PUSH1 0x20 PUSH2 0x4B62 DUP6 DUP3 DUP7 ADD PUSH2 0x400A JUMP JUMPDEST SWAP2 POP POP SWAP3 POP SWAP3 SWAP1 POP JUMP JUMPDEST PUSH1 0x0 PUSH2 0x4B78 DUP4 DUP4 PUSH2 0x4BEF JUMP JUMPDEST PUSH1 0x20 DUP4 ADD SWAP1 POP SWAP3 SWAP2 POP POP JUMP JUMPDEST PUSH1 0x0 PUSH2 0x4B90 DUP4 DUP4 PUSH2 0x4C0D JUMP JUMPDEST PUSH1 0x20 DUP4 ADD SWAP1 POP SWAP3 SWAP2 POP POP JUMP JUMPDEST PUSH1 0x0 PUSH2 0x4BA8 DUP4 DUP4 PUSH2 0x50CF JUMP JUMPDEST PUSH1 0x60 DUP4 ADD SWAP1 POP SWAP3 SWAP2 POP POP JUMP JUMPDEST PUSH1 0x0 PUSH2 0x4BC0 DUP4 DUP4 PUSH2 0x5111 JUMP JUMPDEST SWAP1 POP SWAP3 SWAP2 POP POP JUMP JUMPDEST PUSH1 0x0 PUSH2 0x4BD4 DUP4 DUP4 PUSH2 0x514E JUMP JUMPDEST PUSH1 0x20 DUP4 ADD SWAP1 POP SWAP3 SWAP2 POP POP JUMP JUMPDEST PUSH2 0x4BE9 DUP2 PUSH2 0x5A1D JUMP JUMPDEST DUP3 MSTORE POP POP JUMP JUMPDEST PUSH2 0x4BF8 DUP2 PUSH2 0x59D5 JUMP JUMPDEST DUP3 MSTORE POP POP JUMP JUMPDEST PUSH2 0x4C07 DUP2 PUSH2 0x59D5 JUMP JUMPDEST DUP3 MSTORE POP POP JUMP JUMPDEST PUSH2 0x4C16 DUP2 PUSH2 0x59C3 JUMP JUMPDEST DUP3 MSTORE POP POP JUMP JUMPDEST PUSH2 0x4C25 DUP2 PUSH2 0x59C3 JUMP JUMPDEST DUP3 MSTORE POP POP JUMP JUMPDEST PUSH1 0x0 PUSH2 0x4C36 DUP3 PUSH2 0x5823 JUMP JUMPDEST PUSH2 0x4C40 DUP2 DUP6 PUSH2 0x590C JUMP JUMPDEST SWAP4 POP PUSH2 0x4C4B DUP4 PUSH2 0x578E JUMP JUMPDEST DUP1 PUSH1 0x0 JUMPDEST DUP4 DUP2 LT ISZERO PUSH2 0x4C7C JUMPI DUP2 MLOAD PUSH2 0x4C63 DUP9 DUP3 PUSH2 0x4B84 JUMP JUMPDEST SWAP8 POP PUSH2 0x4C6E DUP4 PUSH2 0x5893 JUMP JUMPDEST SWAP3 POP POP PUSH1 0x1 DUP2 ADD SWAP1 POP PUSH2 0x4C4F JUMP JUMPDEST POP DUP6 SWAP4 POP POP POP POP SWAP3 SWAP2 POP POP JUMP JUMPDEST PUSH1 0x0 PUSH2 0x4C94 DUP3 PUSH2 0x5818 JUMP JUMPDEST PUSH2 0x4C9E DUP2 DUP6 PUSH2 0x58FB JUMP JUMPDEST SWAP4 POP PUSH2 0x4CA9 DUP4 PUSH2 0x577E JUMP JUMPDEST DUP1 PUSH1 0x0 JUMPDEST DUP4 DUP2 LT ISZERO PUSH2 0x4CDA JUMPI DUP2 MLOAD PUSH2 0x4CC1 DUP9 DUP3 PUSH2 0x4B84 JUMP JUMPDEST SWAP8 POP PUSH2 0x4CCC DUP4 PUSH2 0x5886 JUMP JUMPDEST SWAP3 POP POP PUSH1 0x1 DUP2 ADD SWAP1 POP PUSH2 0x4CAD JUMP JUMPDEST POP DUP6 SWAP4 POP POP POP POP SWAP3 SWAP2 POP POP JUMP JUMPDEST PUSH1 0x0 PUSH2 0x4CF2 DUP3 PUSH2 0x582E JUMP JUMPDEST PUSH2 0x4CFC DUP2 DUP6 PUSH2 0x590C JUMP JUMPDEST SWAP4 POP PUSH2 0x4D07 DUP4 PUSH2 0x579E JUMP JUMPDEST DUP1 PUSH1 0x0 JUMPDEST DUP4 DUP2 LT ISZERO PUSH2 0x4D3F JUMPI PUSH2 0x4D1C DUP3 PUSH2 0x5AC9 JUMP JUMPDEST PUSH2 0x4D26 DUP9 DUP3 PUSH2 0x4B84 JUMP JUMPDEST SWAP8 POP PUSH2 0x4D31 DUP4 PUSH2 0x58A0 JUMP JUMPDEST SWAP3 POP POP PUSH1 0x1 DUP2 ADD SWAP1 POP PUSH2 0x4D0B JUMP JUMPDEST POP DUP6 SWAP4 POP POP POP POP SWAP3 SWAP2 POP POP JUMP JUMPDEST PUSH1 0x0 PUSH2 0x4D57 DUP3 PUSH2 0x5844 JUMP JUMPDEST PUSH2 0x4D61 DUP2 DUP6 PUSH2 0x592E JUMP JUMPDEST SWAP4 POP PUSH2 0x4D6C DUP4 PUSH2 0x57C3 JUMP JUMPDEST DUP1 PUSH1 0x0 JUMPDEST DUP4 DUP2 LT ISZERO PUSH2 0x4D9D JUMPI DUP2 MLOAD PUSH2 0x4D84 DUP9 DUP3 PUSH2 0x4B6C JUMP JUMPDEST SWAP8 POP PUSH2 0x4D8F DUP4 PUSH2 0x58BA JUMP JUMPDEST SWAP3 POP POP PUSH1 0x1 DUP2 ADD SWAP1 POP PUSH2 0x4D70 JUMP JUMPDEST POP DUP6 SWAP4 POP POP POP POP SWAP3 SWAP2 POP POP JUMP JUMPDEST PUSH1 0x0 PUSH2 0x4DB5 DUP3 PUSH2 0x5839 JUMP JUMPDEST PUSH2 0x4DBF DUP2 DUP6 PUSH2 0x591D JUMP JUMPDEST SWAP4 POP PUSH2 0x4DCA DUP4 PUSH2 0x57B3 JUMP JUMPDEST DUP1 PUSH1 0x0 JUMPDEST DUP4 DUP2 LT ISZERO PUSH2 0x4DFB JUMPI DUP2 MLOAD PUSH2 0x4DE2 DUP9 DUP3 PUSH2 0x4B6C JUMP JUMPDEST SWAP8 POP PUSH2 0x4DED DUP4 PUSH2 0x58AD JUMP JUMPDEST SWAP3 POP POP PUSH1 0x1 DUP2 ADD SWAP1 POP PUSH2 0x4DCE JUMP JUMPDEST POP DUP6 SWAP4 POP POP POP POP SWAP3 SWAP2 POP POP JUMP JUMPDEST PUSH1 0x0 PUSH2 0x4E13 DUP3 PUSH2 0x584F JUMP JUMPDEST PUSH2 0x4E1D DUP2 DUP6 PUSH2 0x592E JUMP JUMPDEST SWAP4 POP PUSH2 0x4E28 DUP4 PUSH2 0x57D3 JUMP JUMPDEST DUP1 PUSH1 0x0 JUMPDEST DUP4 DUP2 LT ISZERO PUSH2 0x4E60 JUMPI PUSH2 0x4E3D DUP3 PUSH2 0x5ADC JUMP JUMPDEST PUSH2 0x4E47 DUP9 DUP3 PUSH2 0x4B6C JUMP JUMPDEST SWAP8 POP PUSH2 0x4E52 DUP4 PUSH2 0x58C7 JUMP JUMPDEST SWAP3 POP POP PUSH1 0x1 DUP2 ADD SWAP1 POP PUSH2 0x4E2C JUMP JUMPDEST POP DUP6 SWAP4 POP POP POP POP SWAP3 SWAP2 POP POP JUMP JUMPDEST PUSH1 0x0 PUSH2 0x4E78 DUP3 PUSH2 0x585A JUMP JUMPDEST PUSH2 0x4E82 DUP2 DUP6 PUSH2 0x593F JUMP JUMPDEST SWAP4 POP PUSH2 0x4E8D DUP4 PUSH2 0x57E8 JUMP JUMPDEST DUP1 PUSH1 0x0 JUMPDEST DUP4 DUP2 LT ISZERO PUSH2 0x4EBE JUMPI DUP2 MLOAD PUSH2 0x4EA5 DUP9 DUP3 PUSH2 0x4B9C JUMP JUMPDEST SWAP8 POP PUSH2 0x4EB0 DUP4 PUSH2 0x58D4 JUMP JUMPDEST SWAP3 POP POP PUSH1 0x1 DUP2 ADD SWAP1 POP PUSH2 0x4E91 JUMP JUMPDEST POP DUP6 SWAP4 POP POP POP POP SWAP3 SWAP2 POP POP JUMP JUMPDEST PUSH1 0x0 PUSH2 0x4ED6 DUP3 PUSH2 0x5865 JUMP JUMPDEST PUSH2 0x4EE0 DUP2 DUP6 PUSH2 0x5950 JUMP JUMPDEST SWAP4 POP DUP4 PUSH1 0x20 DUP3 MUL DUP6 ADD PUSH2 0x4EF2 DUP6 PUSH2 0x57F8 JUMP JUMPDEST DUP1 PUSH1 0x0 JUMPDEST DUP6 DUP2 LT ISZERO PUSH2 0x4F2E JUMPI DUP5 DUP5 SUB DUP10 MSTORE DUP2 MLOAD PUSH2 0x4F0F DUP6 DUP3 PUSH2 0x4BB4 JUMP JUMPDEST SWAP5 POP PUSH2 0x4F1A DUP4 PUSH2 0x58E1 JUMP JUMPDEST SWAP3 POP PUSH1 0x20 DUP11 ADD SWAP10 POP POP PUSH1 0x1 DUP2 ADD SWAP1 POP PUSH2 0x4EF6 JUMP JUMPDEST POP DUP3 SWAP8 POP DUP8 SWAP6 POP POP POP POP POP POP SWAP3 SWAP2 POP POP JUMP JUMPDEST PUSH1 0x0 PUSH2 0x4F4B DUP3 PUSH2 0x5870 JUMP JUMPDEST PUSH2 0x4F55 DUP2 DUP6 PUSH2 0x5961 JUMP JUMPDEST SWAP4 POP PUSH2 0x4F60 DUP4 PUSH2 0x5808 JUMP JUMPDEST DUP1 PUSH1 0x0 JUMPDEST DUP4 DUP2 LT ISZERO PUSH2 0x4F91 JUMPI DUP2 MLOAD PUSH2 0x4F78 DUP9 DUP3 PUSH2 0x4BC8 JUMP JUMPDEST SWAP8 POP PUSH2 0x4F83 DUP4 PUSH2 0x58EE JUMP JUMPDEST SWAP3 POP POP PUSH1 0x1 DUP2 ADD SWAP1 POP PUSH2 0x4F64 JUMP JUMPDEST POP DUP6 SWAP4 POP POP POP POP SWAP3 SWAP2 POP POP JUMP JUMPDEST PUSH2 0x4FA7 DUP2 PUSH2 0x59E7 JUMP JUMPDEST DUP3 MSTORE POP POP JUMP JUMPDEST PUSH2 0x4FB6 DUP2 PUSH2 0x59E7 JUMP JUMPDEST DUP3 MSTORE POP POP JUMP JUMPDEST PUSH1 0x0 PUSH2 0x4FC7 DUP3 PUSH2 0x587B JUMP JUMPDEST PUSH2 0x4FD1 DUP2 DUP6 PUSH2 0x5972 JUMP JUMPDEST SWAP4 POP PUSH2 0x4FE1 DUP2 DUP6 PUSH1 0x20 DUP7 ADD PUSH2 0x5A62 JUMP JUMPDEST PUSH2 0x4FEA DUP2 PUSH2 0x5AEF JUMP JUMPDEST DUP5 ADD SWAP2 POP POP SWAP3 SWAP2 POP POP JUMP JUMPDEST PUSH1 0x0 PUSH2 0x120 DUP4 ADD PUSH1 0x0 DUP4 ADD MLOAD DUP5 DUP3 SUB PUSH1 0x0 DUP7 ADD MSTORE PUSH2 0x5013 DUP3 DUP3 PUSH2 0x4DAA JUMP JUMPDEST SWAP2 POP POP PUSH1 0x20 DUP4 ADD MLOAD DUP5 DUP3 SUB PUSH1 0x20 DUP7 ADD MSTORE PUSH2 0x502D DUP3 DUP3 PUSH2 0x4C89 JUMP JUMPDEST SWAP2 POP POP PUSH1 0x40 DUP4 ADD MLOAD PUSH2 0x5042 PUSH1 0x40 DUP7 ADD DUP3 PUSH2 0x514E JUMP JUMPDEST POP PUSH1 0x60 DUP4 ADD MLOAD PUSH2 0x5055 PUSH1 0x60 DUP7 ADD DUP3 PUSH2 0x4C0D JUMP JUMPDEST POP PUSH1 0x80 DUP4 ADD MLOAD PUSH2 0x5068 PUSH1 0x80 DUP7 ADD DUP3 PUSH2 0x514E JUMP JUMPDEST POP PUSH1 0xA0 DUP4 ADD MLOAD PUSH2 0x507B PUSH1 0xA0 DUP7 ADD DUP3 PUSH2 0x514E JUMP JUMPDEST POP PUSH1 0xC0 DUP4 ADD MLOAD PUSH2 0x508E PUSH1 0xC0 DUP7 ADD DUP3 PUSH2 0x4F9E JUMP JUMPDEST POP PUSH1 0xE0 DUP4 ADD MLOAD DUP5 DUP3 SUB PUSH1 0xE0 DUP7 ADD MSTORE PUSH2 0x50A6 DUP3 DUP3 PUSH2 0x4ECB JUMP JUMPDEST SWAP2 POP POP PUSH2 0x100 DUP4 ADD MLOAD DUP5 DUP3 SUB PUSH2 0x100 DUP7 ADD MSTORE PUSH2 0x50C2 DUP3 DUP3 PUSH2 0x4E6D JUMP JUMPDEST SWAP2 POP POP DUP1 SWAP2 POP POP SWAP3 SWAP2 POP POP JUMP JUMPDEST PUSH1 0x60 DUP3 ADD PUSH1 0x0 DUP3 ADD MLOAD PUSH2 0x50E5 PUSH1 0x0 DUP6 ADD DUP3 PUSH2 0x4BEF JUMP JUMPDEST POP PUSH1 0x20 DUP3 ADD MLOAD PUSH2 0x50F8 PUSH1 0x20 DUP6 ADD DUP3 PUSH2 0x514E JUMP JUMPDEST POP PUSH1 0x40 DUP3 ADD MLOAD PUSH2 0x510B PUSH1 0x40 DUP6 ADD DUP3 PUSH2 0x4F9E JUMP JUMPDEST POP POP POP POP JUMP JUMPDEST PUSH1 0x0 PUSH1 0x40 DUP4 ADD PUSH1 0x0 DUP4 ADD MLOAD DUP5 DUP3 SUB PUSH1 0x0 DUP7 ADD MSTORE PUSH2 0x512E DUP3 DUP3 PUSH2 0x4DAA JUMP JUMPDEST SWAP2 POP POP PUSH1 0x20 DUP4 ADD MLOAD PUSH2 0x5143 PUSH1 0x20 DUP7 ADD DUP3 PUSH2 0x4C0D JUMP JUMPDEST POP DUP1 SWAP2 POP POP SWAP3 SWAP2 POP POP JUMP JUMPDEST PUSH2 0x5157 DUP2 PUSH2 0x5A13 JUMP JUMPDEST DUP3 MSTORE POP POP JUMP JUMPDEST PUSH2 0x5166 DUP2 PUSH2 0x5A13 JUMP JUMPDEST DUP3 MSTORE POP POP JUMP JUMPDEST PUSH1 0x0 PUSH1 0x20 DUP3 ADD SWAP1 POP PUSH2 0x5181 PUSH1 0x0 DUP4 ADD DUP5 PUSH2 0x4C1C JUMP JUMPDEST SWAP3 SWAP2 POP POP JUMP JUMPDEST PUSH1 0x0 PUSH1 0x60 DUP3 ADD SWAP1 POP PUSH2 0x519C PUSH1 0x0 DUP4 ADD DUP7 PUSH2 0x4BE0 JUMP JUMPDEST PUSH2 0x51A9 PUSH1 0x20 DUP4 ADD DUP6 PUSH2 0x4C1C JUMP JUMPDEST PUSH2 0x51B6 PUSH1 0x40 DUP4 ADD DUP5 PUSH2 0x515D JUMP JUMPDEST SWAP5 SWAP4 POP POP POP POP JUMP JUMPDEST PUSH1 0x0 PUSH1 0x40 DUP3 ADD SWAP1 POP PUSH2 0x51D3 PUSH1 0x0 DUP4 ADD DUP6 PUSH2 0x4BE0 JUMP JUMPDEST PUSH2 0x51E0 PUSH1 0x20 DUP4 ADD DUP5 PUSH2 0x515D JUMP JUMPDEST SWAP4 SWAP3 POP POP POP JUMP JUMPDEST PUSH1 0x0 PUSH1 0x60 DUP3 ADD SWAP1 POP PUSH2 0x51FC PUSH1 0x0 DUP4 ADD DUP7 PUSH2 0x4C1C JUMP JUMPDEST PUSH2 0x5209 PUSH1 0x20 DUP4 ADD DUP6 PUSH2 0x4BE0 JUMP JUMPDEST PUSH2 0x5216 PUSH1 0x40 DUP4 ADD DUP5 PUSH2 0x515D JUMP JUMPDEST SWAP5 SWAP4 POP POP POP POP JUMP JUMPDEST PUSH1 0x0 PUSH1 0x20 DUP3 ADD SWAP1 POP PUSH2 0x5233 PUSH1 0x0 DUP4 ADD DUP5 PUSH2 0x4FAD JUMP JUMPDEST SWAP3 SWAP2 POP POP JUMP JUMPDEST PUSH1 0x0 PUSH1 0x20 DUP3 ADD SWAP1 POP DUP2 DUP2 SUB PUSH1 0x0 DUP4 ADD MSTORE PUSH2 0x5253 DUP2 DUP5 PUSH2 0x4FF5 JUMP JUMPDEST SWAP1 POP SWAP3 SWAP2 POP POP JUMP JUMPDEST PUSH1 0x0 PUSH1 0x20 DUP3 ADD SWAP1 POP PUSH2 0x5270 PUSH1 0x0 DUP4 ADD DUP5 PUSH2 0x515D JUMP JUMPDEST SWAP3 SWAP2 POP POP JUMP JUMPDEST PUSH1 0x0 PUSH2 0x100 DUP3 ADD SWAP1 POP PUSH2 0x528C PUSH1 0x0 DUP4 ADD DUP12 PUSH2 0x515D JUMP JUMPDEST PUSH2 0x5299 PUSH1 0x20 DUP4 ADD DUP11 PUSH2 0x4BFE JUMP JUMPDEST DUP2 DUP2 SUB PUSH1 0x40 DUP4 ADD MSTORE PUSH2 0x52AB DUP2 DUP10 PUSH2 0x4D4C JUMP JUMPDEST SWAP1 POP DUP2 DUP2 SUB PUSH1 0x60 DUP4 ADD MSTORE PUSH2 0x52BF DUP2 DUP9 PUSH2 0x4C2B JUMP JUMPDEST SWAP1 POP DUP2 DUP2 SUB PUSH1 0x80 DUP4 ADD MSTORE PUSH2 0x52D3 DUP2 DUP8 PUSH2 0x4FBC JUMP JUMPDEST SWAP1 POP PUSH2 0x52E2 PUSH1 0xA0 DUP4 ADD DUP7 PUSH2 0x515D JUMP JUMPDEST PUSH2 0x52EF PUSH1 0xC0 DUP4 ADD DUP6 PUSH2 0x4C1C JUMP JUMPDEST PUSH2 0x52FC PUSH1 0xE0 DUP4 ADD DUP5 PUSH2 0x515D JUMP JUMPDEST SWAP10 SWAP9 POP POP POP POP POP POP POP POP POP JUMP JUMPDEST PUSH1 0x0 PUSH1 0x60 DUP3 ADD SWAP1 POP PUSH2 0x531E PUSH1 0x0 DUP4 ADD DUP7 PUSH2 0x515D JUMP JUMPDEST PUSH2 0x532B PUSH1 0x20 DUP4 ADD DUP6 PUSH2 0x4BE0 JUMP JUMPDEST DUP2 DUP2 SUB PUSH1 0x40 DUP4 ADD MSTORE PUSH2 0x533D DUP2 DUP5 PUSH2 0x4F40 JUMP JUMPDEST SWAP1 POP SWAP5 SWAP4 POP POP POP POP JUMP JUMPDEST PUSH1 0x0 PUSH1 0x60 DUP3 ADD SWAP1 POP PUSH2 0x535C PUSH1 0x0 DUP4 ADD DUP7 PUSH2 0x515D JUMP JUMPDEST PUSH2 0x5369 PUSH1 0x20 DUP4 ADD DUP6 PUSH2 0x4C1C JUMP JUMPDEST DUP2 DUP2 SUB PUSH1 0x40 DUP4 ADD MSTORE PUSH2 0x537B DUP2 DUP5 PUSH2 0x4CE7 JUMP JUMPDEST SWAP1 POP SWAP5 SWAP4 POP POP POP POP JUMP JUMPDEST PUSH1 0x0 PUSH1 0xC0 DUP3 ADD SWAP1 POP PUSH2 0x539A PUSH1 0x0 DUP4 ADD DUP10 PUSH2 0x515D JUMP JUMPDEST PUSH2 0x53A7 PUSH1 0x20 DUP4 ADD DUP9 PUSH2 0x4C1C JUMP JUMPDEST DUP2 DUP2 SUB PUSH1 0x40 DUP4 ADD MSTORE PUSH2 0x53B9 DUP2 DUP8 PUSH2 0x4D4C JUMP JUMPDEST SWAP1 POP DUP2 DUP2 SUB PUSH1 0x60 DUP4 ADD MSTORE PUSH2 0x53CD DUP2 DUP7 PUSH2 0x4D4C JUMP JUMPDEST SWAP1 POP DUP2 DUP2 SUB PUSH1 0x80 DUP4 ADD MSTORE PUSH2 0x53E1 DUP2 DUP6 PUSH2 0x4FBC JUMP JUMPDEST SWAP1 POP PUSH2 0x53F0 PUSH1 0xA0 DUP4 ADD DUP5 PUSH2 0x515D JUMP JUMPDEST SWAP8 SWAP7 POP POP POP POP POP POP POP JUMP JUMPDEST PUSH1 0x0 PUSH1 0x60 DUP3 ADD SWAP1 POP PUSH2 0x5410 PUSH1 0x0 DUP4 ADD DUP7 PUSH2 0x515D JUMP JUMPDEST PUSH2 0x541D PUSH1 0x20 DUP4 ADD DUP6 PUSH2 0x4C1C JUMP JUMPDEST DUP2 DUP2 SUB PUSH1 0x40 DUP4 ADD MSTORE PUSH2 0x542F DUP2 DUP5 PUSH2 0x4E08 JUMP JUMPDEST SWAP1 POP SWAP5 SWAP4 POP POP POP POP JUMP JUMPDEST PUSH1 0x0 PUSH1 0x60 DUP3 ADD SWAP1 POP PUSH2 0x544E PUSH1 0x0 DUP4 ADD DUP7 PUSH2 0x515D JUMP JUMPDEST PUSH2 0x545B PUSH1 0x20 DUP4 ADD DUP6 PUSH2 0x4C1C JUMP JUMPDEST DUP2 DUP2 SUB PUSH1 0x40 DUP4 ADD MSTORE PUSH2 0x546D DUP2 DUP5 PUSH2 0x4F40 JUMP JUMPDEST SWAP1 POP SWAP5 SWAP4 POP POP POP POP JUMP JUMPDEST PUSH1 0x0 PUSH1 0x60 DUP3 ADD SWAP1 POP PUSH2 0x548C PUSH1 0x0 DUP4 ADD DUP7 PUSH2 0x515D JUMP JUMPDEST PUSH2 0x5499 PUSH1 0x20 DUP4 ADD DUP6 PUSH2 0x4C1C JUMP JUMPDEST DUP2 DUP2 SUB PUSH1 0x40 DUP4 ADD MSTORE PUSH2 0x54AB DUP2 DUP5 PUSH2 0x4FBC JUMP JUMPDEST SWAP1 POP SWAP5 SWAP4 POP POP POP POP JUMP JUMPDEST PUSH1 0x0 PUSH1 0x60 DUP3 ADD SWAP1 POP PUSH2 0x54CA PUSH1 0x0 DUP4 ADD DUP7 PUSH2 0x515D JUMP JUMPDEST PUSH2 0x54D7 PUSH1 0x20 DUP4 ADD DUP6 PUSH2 0x4C1C JUMP JUMPDEST PUSH2 0x54E4 PUSH1 0x40 DUP4 ADD DUP5 PUSH2 0x515D JUMP JUMPDEST SWAP5 SWAP4 POP POP POP POP JUMP JUMPDEST PUSH1 0x0 PUSH1 0xA0 DUP3 ADD SWAP1 POP PUSH2 0x5501 PUSH1 0x0 DUP4 ADD DUP9 PUSH2 0x515D JUMP JUMPDEST PUSH2 0x550E PUSH1 0x20 DUP4 ADD DUP8 PUSH2 0x4C1C JUMP JUMPDEST PUSH2 0x551B PUSH1 0x40 DUP4 ADD DUP7 PUSH2 0x515D JUMP JUMPDEST PUSH2 0x5528 PUSH1 0x60 DUP4 ADD DUP6 PUSH2 0x515D JUMP JUMPDEST PUSH2 0x5535 PUSH1 0x80 DUP4 ADD DUP5 PUSH2 0x4FAD JUMP JUMPDEST SWAP7 SWAP6 POP POP POP POP POP POP JUMP JUMPDEST PUSH1 0x0 PUSH1 0x40 DUP3 ADD SWAP1 POP PUSH2 0x5554 PUSH1 0x0 DUP4 ADD DUP6 PUSH2 0x515D JUMP JUMPDEST PUSH2 0x5561 PUSH1 0x20 DUP4 ADD DUP5 PUSH2 0x515D JUMP JUMPDEST SWAP4 SWAP3 POP POP POP JUMP JUMPDEST PUSH1 0x0 PUSH1 0x80 DUP3 ADD SWAP1 POP PUSH2 0x557D PUSH1 0x0 DUP4 ADD DUP8 PUSH2 0x515D JUMP JUMPDEST PUSH2 0x558A PUSH1 0x20 DUP4 ADD DUP7 PUSH2 0x515D JUMP JUMPDEST PUSH2 0x5597 PUSH1 0x40 DUP4 ADD DUP6 PUSH2 0x4BFE JUMP JUMPDEST PUSH2 0x55A4 PUSH1 0x60 DUP4 ADD DUP5 PUSH2 0x515D JUMP JUMPDEST SWAP6 SWAP5 POP POP POP POP POP JUMP JUMPDEST PUSH1 0x0 PUSH1 0x80 DUP3 ADD SWAP1 POP PUSH2 0x55C2 PUSH1 0x0 DUP4 ADD DUP8 PUSH2 0x515D JUMP JUMPDEST PUSH2 0x55CF PUSH1 0x20 DUP4 ADD DUP7 PUSH2 0x515D JUMP JUMPDEST PUSH2 0x55DC PUSH1 0x40 DUP4 ADD DUP6 PUSH2 0x4C1C JUMP JUMPDEST DUP2 DUP2 SUB PUSH1 0x60 DUP4 ADD MSTORE PUSH2 0x55EE DUP2 DUP5 PUSH2 0x4F40 JUMP JUMPDEST SWAP1 POP SWAP6 SWAP5 POP POP POP POP POP JUMP JUMPDEST PUSH1 0x0 PUSH1 0x80 DUP3 ADD SWAP1 POP PUSH2 0x560E PUSH1 0x0 DUP4 ADD DUP8 PUSH2 0x515D JUMP JUMPDEST PUSH2 0x561B PUSH1 0x20 DUP4 ADD DUP7 PUSH2 0x515D JUMP JUMPDEST DUP2 DUP2 SUB PUSH1 0x40 DUP4 ADD MSTORE PUSH2 0x562D DUP2 DUP6 PUSH2 0x4D4C JUMP JUMPDEST SWAP1 POP DUP2 DUP2 SUB PUSH1 0x60 DUP4 ADD MSTORE PUSH2 0x5641 DUP2 DUP5 PUSH2 0x4FBC JUMP JUMPDEST SWAP1 POP SWAP6 SWAP5 POP POP POP POP POP JUMP JUMPDEST PUSH1 0x0 PUSH1 0xA0 DUP3 ADD SWAP1 POP PUSH2 0x5661 PUSH1 0x0 DUP4 ADD DUP9 PUSH2 0x515D JUMP JUMPDEST PUSH2 0x566E PUSH1 0x20 DUP4 ADD DUP8 PUSH2 0x515D JUMP JUMPDEST DUP2 DUP2 SUB PUSH1 0x40 DUP4 ADD MSTORE PUSH2 0x5680 DUP2 DUP7 PUSH2 0x4D4C JUMP JUMPDEST SWAP1 POP DUP2 DUP2 SUB PUSH1 0x60 DUP4 ADD MSTORE PUSH2 0x5694 DUP2 DUP6 PUSH2 0x4FBC JUMP JUMPDEST SWAP1 POP PUSH2 0x56A3 PUSH1 0x80 DUP4 ADD DUP5 PUSH2 0x4C1C JUMP JUMPDEST SWAP7 SWAP6 POP POP POP POP POP POP JUMP JUMPDEST PUSH1 0x0 PUSH1 0x40 MLOAD SWAP1 POP DUP2 DUP2 ADD DUP2 DUP2 LT PUSH8 0xFFFFFFFFFFFFFFFF DUP3 GT OR ISZERO PUSH2 0x56D0 JUMPI PUSH1 0x0 DUP1 REVERT JUMPDEST DUP1 PUSH1 0x40 MSTORE POP SWAP2 SWAP1 POP JUMP JUMPDEST PUSH1 0x0 PUSH8 0xFFFFFFFFFFFFFFFF DUP3 GT ISZERO PUSH2 0x56F1 JUMPI PUSH1 0x0 DUP1 REVERT JUMPDEST PUSH1 0x20 DUP3 MUL SWAP1 POP PUSH1 0x20 DUP2 ADD SWAP1 POP SWAP2 SWAP1 POP JUMP JUMPDEST PUSH1 0x0 PUSH8 0xFFFFFFFFFFFFFFFF DUP3 GT ISZERO PUSH2 0x5719 JUMPI PUSH1 0x0 DUP1 REVERT JUMPDEST PUSH1 0x20 DUP3 MUL SWAP1 POP PUSH1 0x20 DUP2 ADD SWAP1 POP SWAP2 SWAP1 POP JUMP JUMPDEST PUSH1 0x0 PUSH8 0xFFFFFFFFFFFFFFFF DUP3 GT ISZERO PUSH2 0x5741 JUMPI PUSH1 0x0 DUP1 REVERT JUMPDEST PUSH1 0x20 DUP3 MUL SWAP1 POP PUSH1 0x20 DUP2 ADD SWAP1 POP SWAP2 SWAP1 POP JUMP JUMPDEST PUSH1 0x0 PUSH8 0xFFFFFFFFFFFFFFFF DUP3 GT ISZERO PUSH2 0x5769 JUMPI PUSH1 0x0 DUP1 REVERT JUMPDEST PUSH1 0x1F NOT PUSH1 0x1F DUP4 ADD AND SWAP1 POP PUSH1 0x20 DUP2 ADD SWAP1 POP SWAP2 SWAP1 POP JUMP JUMPDEST PUSH1 0x0 DUP2 SWAP1 POP PUSH1 0x20 DUP3 ADD SWAP1 POP SWAP2 SWAP1 POP JUMP JUMPDEST PUSH1 0x0 DUP2 SWAP1 POP PUSH1 0x20 DUP3 ADD SWAP1 POP SWAP2 SWAP1 POP JUMP JUMPDEST PUSH1 0x0 DUP2 SWAP1 POP DUP2 PUSH1 0x0 MSTORE PUSH1 0x20 PUSH1 0x0 KECCAK256 SWAP1 POP SWAP2 SWAP1 POP JUMP JUMPDEST PUSH1 0x0 DUP2 SWAP1 POP PUSH1 0x20 DUP3 ADD SWAP1 POP SWAP2 SWAP1 POP JUMP JUMPDEST PUSH1 0x0 DUP2 SWAP1 POP PUSH1 0x20 DUP3 ADD SWAP1 POP SWAP2 SWAP1 POP JUMP JUMPDEST PUSH1 0x0 DUP2 SWAP1 POP DUP2 PUSH1 0x0 MSTORE PUSH1 0x20 PUSH1 0x0 KECCAK256 SWAP1 POP SWAP2 SWAP1 POP JUMP JUMPDEST PUSH1 0x0 DUP2 SWAP1 POP PUSH1 0x20 DUP3 ADD SWAP1 POP SWAP2 SWAP1 POP JUMP JUMPDEST PUSH1 0x0 DUP2 SWAP1 POP PUSH1 0x20 DUP3 ADD SWAP1 POP SWAP2 SWAP1 POP JUMP JUMPDEST PUSH1 0x0 DUP2 SWAP1 POP PUSH1 0x20 DUP3 ADD SWAP1 POP SWAP2 SWAP1 POP JUMP JUMPDEST PUSH1 0x0 DUP2 MLOAD SWAP1 POP SWAP2 SWAP1 POP JUMP JUMPDEST PUSH1 0x0 DUP2 MLOAD SWAP1 POP SWAP2 SWAP1 POP JUMP JUMPDEST PUSH1 0x0 DUP2 SLOAD SWAP1 POP SWAP2 SWAP1 POP JUMP JUMPDEST PUSH1 0x0 DUP2 MLOAD SWAP1 POP SWAP2 SWAP1 POP JUMP JUMPDEST PUSH1 0x0 DUP2 MLOAD SWAP1 POP SWAP2 SWAP1 POP JUMP JUMPDEST PUSH1 0x0 DUP2 SLOAD SWAP1 POP SWAP2 SWAP1 POP JUMP JUMPDEST PUSH1 0x0 DUP2 MLOAD SWAP1 POP SWAP2 SWAP1 POP JUMP JUMPDEST PUSH1 0x0 DUP2 MLOAD SWAP1 POP SWAP2 SWAP1 POP JUMP JUMPDEST PUSH1 0x0 DUP2 MLOAD SWAP1 POP SWAP2 SWAP1 POP JUMP JUMPDEST PUSH1 0x0 DUP2 MLOAD SWAP1 POP SWAP2 SWAP1 POP JUMP JUMPDEST PUSH1 0x0 PUSH1 0x20 DUP3 ADD SWAP1 POP SWAP2 SWAP1 POP JUMP JUMPDEST PUSH1 0x0 PUSH1 0x20 DUP3 ADD SWAP1 POP SWAP2 SWAP1 POP JUMP JUMPDEST PUSH1 0x0 PUSH1 0x1 DUP3 ADD SWAP1 POP SWAP2 SWAP1 POP JUMP JUMPDEST PUSH1 0x0 PUSH1 0x20 DUP3 ADD SWAP1 POP SWAP2 SWAP1 POP JUMP JUMPDEST PUSH1 0x0 PUSH1 0x20 DUP3 ADD SWAP1 POP SWAP2 SWAP1 POP JUMP JUMPDEST PUSH1 0x0 PUSH1 0x1 DUP3 ADD SWAP1 POP SWAP2 SWAP1 POP JUMP JUMPDEST PUSH1 0x0 PUSH1 0x20 DUP3 ADD SWAP1 POP SWAP2 SWAP1 POP JUMP JUMPDEST PUSH1 0x0 PUSH1 0x20 DUP3 ADD SWAP1 POP SWAP2 SWAP1 POP JUMP JUMPDEST PUSH1 0x0 PUSH1 0x20 DUP3 ADD SWAP1 POP SWAP2 SWAP1 POP JUMP JUMPDEST PUSH1 0x0 DUP3 DUP3 MSTORE PUSH1 0x20 DUP3 ADD SWAP1 POP SWAP3 SWAP2 POP POP JUMP JUMPDEST PUSH1 0x0 DUP3 DUP3 MSTORE PUSH1 0x20 DUP3 ADD SWAP1 POP SWAP3 SWAP2 POP POP JUMP JUMPDEST PUSH1 0x0 DUP3 DUP3 MSTORE PUSH1 0x20 DUP3 ADD SWAP1 POP SWAP3 SWAP2 POP POP JUMP JUMPDEST PUSH1 0x0 DUP3 DUP3 MSTORE PUSH1 0x20 DUP3 ADD SWAP1 POP SWAP3 SWAP2 POP POP JUMP JUMPDEST PUSH1 0x0 DUP3 DUP3 MSTORE PUSH1 0x20 DUP3 ADD SWAP1 POP SWAP3 SWAP2 POP POP JUMP JUMPDEST PUSH1 0x0 DUP3 DUP3 MSTORE PUSH1 0x20 DUP3 ADD SWAP1 POP SWAP3 SWAP2 POP POP JUMP JUMPDEST PUSH1 0x0 DUP3 DUP3 MSTORE PUSH1 0x20 DUP3 ADD SWAP1 POP SWAP3 SWAP2 POP POP JUMP JUMPDEST PUSH1 0x0 DUP3 DUP3 MSTORE PUSH1 0x20 DUP3 ADD SWAP1 POP SWAP3 SWAP2 POP POP JUMP JUMPDEST PUSH1 0x0 PUSH20 0xFFFFFFFFFFFFFFFFFFFFFFFFFFFFFFFFFFFFFFFF DUP3 AND SWAP1 POP SWAP2 SWAP1 POP JUMP JUMPDEST PUSH1 0x0 PUSH20 0xFFFFFFFFFFFFFFFFFFFFFFFFFFFFFFFFFFFFFFFF DUP3 AND SWAP1 POP SWAP2 SWAP1 POP JUMP JUMPDEST PUSH1 0x0 PUSH2 0x59CE DUP3 PUSH2 0x59F3 JUMP JUMPDEST SWAP1 POP SWAP2 SWAP1 POP JUMP JUMPDEST PUSH1 0x0 PUSH2 0x59E0 DUP3 PUSH2 0x59F3 JUMP JUMPDEST SWAP1 POP SWAP2 SWAP1 POP JUMP JUMPDEST PUSH1 0x0 DUP2 ISZERO ISZERO SWAP1 POP SWAP2 SWAP1 POP JUMP JUMPDEST PUSH1 0x0 PUSH20 0xFFFFFFFFFFFFFFFFFFFFFFFFFFFFFFFFFFFFFFFF DUP3 AND SWAP1 POP SWAP2 SWAP1 POP JUMP JUMPDEST PUSH1 0x0 DUP2 SWAP1 POP SWAP2 SWAP1 POP JUMP JUMPDEST PUSH1 0x0 PUSH2 0x5A28 DUP3 PUSH2 0x5A2F JUMP JUMPDEST SWAP1 POP SWAP2 SWAP1 POP JUMP JUMPDEST PUSH1 0x0 PUSH2 0x5A3A DUP3 PUSH2 0x5A41 JUMP JUMPDEST SWAP1 POP SWAP2 SWAP1 POP JUMP JUMPDEST PUSH1 0x0 PUSH2 0x5A4C DUP3 PUSH2 0x59F3 JUMP JUMPDEST SWAP1 POP SWAP2 SWAP1 POP JUMP JUMPDEST DUP3 DUP2 DUP4 CALLDATACOPY PUSH1 0x0 DUP4 DUP4 ADD MSTORE POP POP POP JUMP JUMPDEST PUSH1 0x0 JUMPDEST DUP4 DUP2 LT ISZERO PUSH2 0x5A80 JUMPI DUP1 DUP3 ADD MLOAD DUP2 DUP5 ADD MSTORE PUSH1 0x20 DUP2 ADD SWAP1 POP PUSH2 0x5A65 JUMP JUMPDEST DUP4 DUP2 GT ISZERO PUSH2 0x5A8F JUMPI PUSH1 0x0 DUP5 DUP5 ADD MSTORE JUMPDEST POP POP POP POP JUMP JUMPDEST PUSH1 0x0 PUSH2 0x5AA8 PUSH2 0x5AA3 DUP4 PUSH2 0x5B00 JUMP JUMPDEST PUSH2 0x5983 JUMP JUMPDEST SWAP1 POP SWAP2 SWAP1 POP JUMP JUMPDEST PUSH1 0x0 PUSH2 0x5AC2 PUSH2 0x5ABD DUP4 PUSH2 0x5B00 JUMP JUMPDEST PUSH2 0x59A3 JUMP JUMPDEST SWAP1 POP SWAP2 SWAP1 POP JUMP JUMPDEST PUSH1 0x0 PUSH2 0x5AD5 DUP3 SLOAD PUSH2 0x5A95 JUMP JUMPDEST SWAP1 POP SWAP2 SWAP1 POP JUMP JUMPDEST PUSH1 0x0 PUSH2 0x5AE8 DUP3 SLOAD PUSH2 0x5AAF JUMP JUMPDEST SWAP1 POP SWAP2 SWAP1 POP JUMP JUMPDEST PUSH1 0x0 PUSH1 0x1F NOT PUSH1 0x1F DUP4 ADD AND SWAP1 POP SWAP2 SWAP1 POP JUMP JUMPDEST PUSH1 0x0 DUP2 PUSH1 0x0 SHR SWAP1 POP SWAP2 SWAP1 POP JUMP JUMPDEST PUSH2 0x5B16 DUP2 PUSH2 0x59C3 JUMP JUMPDEST DUP2 EQ PUSH2 0x5B21 JUMPI PUSH1 0x0 DUP1 REVERT JUMPDEST POP JUMP JUMPDEST PUSH2 0x5B2D DUP2 PUSH2 0x59D5 JUMP JUMPDEST DUP2 EQ PUSH2 0x5B38 JUMPI PUSH1 0x0 DUP1 REVERT JUMPDEST POP JUMP JUMPDEST PUSH2 0x5B44 DUP2 PUSH2 0x59E7 JUMP JUMPDEST DUP2 EQ PUSH2 0x5B4F JUMPI PUSH1 0x0 DUP1 REVERT JUMPDEST POP JUMP JUMPDEST PUSH2 0x5B5B DUP2 PUSH2 0x5A13 JUMP JUMPDEST DUP2 EQ PUSH2 0x5B66 JUMPI PUSH1 0x0 DUP1 REVERT JUMPDEST POP JUMP INVALID LOG3 PUSH6 0x627A7A723158 KECCAK256 PUSH12 0xFA578F3E20B77D074B448044 SUB INVALID 0xe9 EXTCODECOPY 0xa8 CALLVALUE 0xbc 0x28 0xc6 GAS PUSH22 0x86FC512EF1A63EBB6C6578706572696D656E74616CF5 PUSH5 0x736F6C6343 STOP SDIV 0xc STOP BLOCKHASH "},"methodIdentifiers":{"acceptFulfillment(address,uint256,uint256,uint256,uint256[])":"00f27e38","addApprovers(address,uint256,uint256,address[])":"4daf1bb5","addIssuers(address,uint256,uint256,address[])":"c6a8b42b","bounties(uint256)":"dc2f8744","callStarted()":"720dc00c","changeApprover(address,uint256,uint256,uint256,address)":"2092e259","changeBounty(address,uint256,uint256,address[],address[],string,uint256)":"b178d768","changeData(address,uint256,uint256,string)":"7ef8213c","changeDeadline(address,uint256,uint256,uint256)":"aa17aaef","changeIssuer(address,uint256,uint256,uint256,address)":"9e64d9bf","changeIssuerAndApprover(address,uint256,uint256,uint256,uint256,address)":"bae37556","contribute(address,uint256,uint256)":"a08f793c","drainBounty(address,uint256,uint256,uint256[])":"3756f3c8","fulfillAndAccept(address,uint256,address[],string,uint256,uint256[])":"c22215b8","fulfillBounty(address,uint256,address[],string)":"97d76665","getBounty(uint256)":"ee8c4bbf","issueAndContribute(address,address[],address[],string,uint256,address,uint256,uint256)":"06060ae3","issueBounty(address,address[],address[],string,uint256,address,uint256)":"567b3d2e","metaTxRelayer()":"c1107c11","numBounties()":"88db0f52","owner()":"8da5cb5b","performAction(address,uint256,string)":"4ac4e25a","refundContribution(address,uint256,uint256)":"93c1ccc9","refundContributions(address,uint256,uint256,uint256[])":"a071fbd5","refundMyContributions(address,uint256,uint256[])":"edba7013","setMetaTxRelayer(address)":"61cf2213","tokenBalances(uint256,uint256)":"ec41e4cd","updateFulfillment(address,uint256,uint256,address[],string)":"c4960450"}}}}}