{
  "_format": "hh-sol-artifact-1",
  "contractName": "SupportsInterfaceWithLookup",
  "sourceName": "contracts/inherited/ERC721Basic.sol",
  "abi": [
    {
      "inputs": [],
      "payable": false,
      "stateMutability": "nonpayable",
      "type": "constructor"
    },
    {
      "constant": true,
      "inputs": [],
      "name": "InterfaceId_ERC165",
      "outputs": [
        {
          "internalType": "bytes4",
          "name": "",
          "type": "bytes4"
        }
      ],
      "payable": false,
      "stateMutability": "view",
      "type": "function"
    },
    {
      "constant": true,
      "inputs": [
        {
          "internalType": "bytes4",
          "name": "_interfaceId",
          "type": "bytes4"
        }
      ],
      "name": "supportsInterface",
      "outputs": [
        {
          "internalType": "bool",
          "name": "",
          "type": "bool"
        }
      ],
      "payable": false,
      "stateMutability": "view",
      "type": "function"
    }
  ],
  "bytecode": "0x608060405234801561001057600080fd5b506100276301ffc9a760e01b61002c60201b60201c565b6100cb565b63ffffffff60e01b817bffffffffffffffffffffffffffffffffffffffffffffffffffffffff1916141561005f57600080fd5b6001600080837bffffffffffffffffffffffffffffffffffffffffffffffffffffffff19167bffffffffffffffffffffffffffffffffffffffffffffffffffffffff1916815260200190815260200160002060006101000a81548160ff02191690831515021790555050565b6101a3806100da6000396000f3fe608060405234801561001057600080fd5b50600436106100365760003560e01c806301ffc9a71461003b57806319fa8f50146100a0575b600080fd5b6100866004803603602081101561005157600080fd5b8101908080357bffffffffffffffffffffffffffffffffffffffffffffffffffffffff191690602001909291905050506100fc565b604051808215151515815260200191505060405180910390f35b6100a8610163565b60405180827bffffffffffffffffffffffffffffffffffffffffffffffffffffffff19167bffffffffffffffffffffffffffffffffffffffffffffffffffffffff1916815260200191505060405180910390f35b6000806000837bffffffffffffffffffffffffffffffffffffffffffffffffffffffff19167bffffffffffffffffffffffffffffffffffffffffffffffffffffffff1916815260200190815260200160002060009054906101000a900460ff169050919050565b6301ffc9a760e01b8156fea265627a7a7231582088efee1cfb1f74a08e213fbfcd8d9a5e3100adda0a82a3043470f933cc1a7b2f64736f6c634300050c0032",
  "linkReferences": {},
  "deployedLinkReferences": {}
}